:030000000200D328
:100083000207E500000080FB1200E2B90003020052
:10009300CDE490040078BD79018002F0A3D8FCD9A7
:1000A300FA9004BCAA82AB839000E578567901806C
:1000B30015E493A3AC82AD838A828B83F0A3AA82D7
:1000C300AB838C828D83D8E9D9E712047A12008638
:1000D30075D00075813F75100075110402008B798E
:1000E3000122FFFFFFFF0F14191A2575D501000028
:1000F30000000000000000000000000000000000FD
:1001030000000000000000000000000000000000EC
:100113000000000000005D2C74297D24EC2CA11C40
:100123008D2A7956341202010101000000000008F3
:1001330007060504030201E066701008A3E0667079
:100143000A08A3E066700408A3E06622E0F608A3A9
:10015300E0F608A3E0F608A3E0F622E6F008A3E63B
:10016300F008A3E6F008A3E6F022CAC0E0E6F0A395
:1001730008DAFAD0E0FA22CAC0E0E0A3C582CCC50F
:1001830082C583CDC583F0A3C582CCC582C583CD8B
:10019300C583DAE6D0E0CA22600C08C6C313C618CA
:1001A300C613C6D5E0F422251010AF08F51040029F
:1001B30015118008F51040021511D2AF22C0D025C9
:1001C3001010AF08F510500205118008F510500209
:1001D3000511D2AFD0D0222510F58210AF08F5104B
:1001E300400215118008F51040021511D2AF851198
:1001F30083222510F582E43511F58322E47325105B
:10020300C582C0E0E51134FFC583C0E0E510C395A6
:100213008224F9F8E4C5A8858311858210C5A8E86E
:10022300CEF0A3E520F0A37808E608F0A3DEFAEF0A
:10023300F0A3E58124FBF8E608F0A3E608F0A308A1
:1002430008E608F0A3E608F0A315811581D0E0FEC7
:10025300D0E0F815811581E8C0E0EEC0E0228511F9
:1002630083851082E0A3FEE0A3F5207808E0A3F6DF
:1002730008DFFAE0A3FFE0A3C0E0E0A3C0E0E0A34F
:10028300C0E0E0A3C0E0E4C5A8858210858311C562
:10029300A8D083D08222C0D02510C582C0E0E5114A
:1002A30034FFC583C0E0E510C3958224F310AF0883
:1002B3008583118582108008858311858210D2AFD2
:1002C300C8F0A3E9F0A3EAF0A3EBF0A37908E709E8
:1002D300F0A3D8FAECF0A3EDF0A3EEF0A3EFF0A3B4
:1002E300D0E0F0A3D0E0F0A3D0E0F0A3E520F0A3AA
:1002F300E5F0F0A322851183851082E0C0E0A3E03E
:10030300F9A3E0FAA3E0FBA37808E0F608A3DFFA79
:10031300E0FCA3E0FDA3E0FEA3E0FFA3E0C0E0A3B5
:10032300E0C0E0A3E0F5D0A3E0F520A3E0A3F5F05F
:10033300E4C5A8858311858210C5A8D082D083D057
:10034300E0F8D0E03274028000C0E0F4041201DA75
:10035300D0E012016D2274028000CCC0E0EDC0E059
:10036300E510C39CCCAD1150011D10AF068C108D50
:100373001180068C108D11D2AF12017AD0E0FDD01E
:10038300E0FC22D083D082C5F0E493A3C5F0C395EB
:10039300F0F5F0E493A3C395F04005E5F004800184
:1003A300E475F002A42582F582E5F03583F583E454
:1003B30093A3C0E0E493C0E022D083D082CCC0E01A
:1003C300E493A360061203E61470FAE493A36006B1
:1003D3001204051470FAD0E0FCE493A3C0E0E493A4
:1003E300C0E022C0E0E493A3D39C5010E493A3C3E2
:1003F3009C400AD0E0D0E0D0E00203D9A3A3A3D06D
:10040300E022C0E0E493A36C7009D0E0D0E0D0E038
:100413000203D9A3A3D0E022C082C08374FE1201D9
:10042300AA12046812047385108285118374AAF0DA
:10043300A3E4F0851082851183E07004C2AF80FECF
:1004430074021201C0D083D0822275CB4475CC04D0
:10045300EA33333354F8F5CD43CB10A2D950FC75AE
:10046300CB00C2D92243FE0143FE02C290C29122B5
:10047300438F0243F7012212041B80031205787A8B
:10048300007B0012148AE970F3A2914005790212ED
:10049300058AA2904005790112058A1204A380FE01
:1004A30074F712020174FE1201AA80031205787A0E
:1004B300017B0412165CE970F3A2915005790212D4
:1004C300058AA2905026790112058A801F740C6A4E
:1004D30070010F0EEEC39402406A74026F700D79BF
:1004E3000212058AE0F9121660E960547C007D006F
:1004F3007A04790312166EA281500B7AFA7B0012EA
:100503000A2A7E01800DA2A050ED7AFA7B00120A1E
:100513002A7E027C007D007A05790312166E900410
:1005230000E004F0C0E074011201F5D0E0F07401C2
:100533006E7004740180027402851082851183F049
:100543007F007E0075080175090078081203487C56
:1005530002EC1201F5AA82AB83900401E0F91214B4
:10056300D974021201C0E9FA60030204D0790112BE
:10057300058A0204DD790112058A790212058A7A55
:10058300E87B03120A2A227401697006639001E56D
:1005930090227402697005639002E5902274F71249
:1005A300020175081B75090078081203487C007D59
:1005B300007A037B04122E2F74021201C090624A48
:1005C300E064A56004C2AF80FE906249E07004C29B
:1005D300AF80FE53BEFBE59DA2E650FA0078F879A2
:1005E30001001208CF7001E970F775C600E59E702F
:1005F300FC43BE0474149061A9F0743F9061ABF0A6
:1006030074F8906196F074859061A8F0745A9061C3
:10061300ACF074159061B2F0E4906182F0741090C4
:1006230061B5F0740E9061B6F074039061B7F07425
:10063300099061FAF074FF9061E5F0906172F090B7
:100643006173F0906189E054F34408F075E1E3903D
:100653006199E0A2E050F8780079007C10E8C33398
:10066300F8E933F99061A7E0A2E0E492E048F81CCE
:10067300EC70EA748048F5BCE9F5BC75E1EF75E10F
:10068300ED75E1ED906189E054F3F074019004029B
:10069300F0906180E0C2E0F0906181E05497F090C7
:1006A300618AE0C2E0F0747F906194F079001208EF
:1006B300D97902120913439A019004207433F0A3E9
:1006C300E4F0120B11D2AF02090E74F7120201EA21
:1006D300FEEBFF8909750800900402E064017004D1
:1006E300C2AF80FE120AF75391FD900422E08E827E
:1006F3008F83A3A3A3F0900422E004F074018E82FD
:100703008F83A3F074888E828F83A3A3F075E1EEA9
:100713008E828F83E0FB74022BF5D97A008005A3C8
:10072300E0F5D90AEAC39B40F6E509700B75E1E9E8
:10073300E591A2E1404A80F8740165096004C2AF03
:1007430080FE7E0480071E120AF7120B1175E1E387
:10075300906199E0A2E050F8A2AFE492E0FAC2AF50
:1007630075E1EA906193E05408FBEAA2E092AFEBF3
:100773006008E591A2E1400880F8EE70C9750801B0
:10078300120AF7900402E064037003120AE7A9084F
:1007930002090EC082C083900403EAFCEBFD741BC4
:1007A30012017A02094CC082C083900402E0640102
:1007B3007004C2AF80FEE0640360067403F0120AA3
:1007C300E702094CC082C083900402E06401700414
:1007D300C2AF80FEE064037006120AF77402F002EF
:1007E300094CC0E074ED120299900402E0640360C6
:1007F30004C2AF80FEE5E9A2E250FA906193E0A261
:10080300E6500EE0A2E7400975E1ED75E1ED02085F
:10081300BB53E9FB747F55D9F508F58285820A74C9
:10082300FF1208C6C3E8941AE99400A2D265D03334
:100833005007E508C3940E500D7A00EAC39508509B
:100843006EE5D90A80F57E037F04750C19750D00DA
:10085300780C1203487C007D007A037B04122E2F50
:1008630074021201C074FE2508900403F074FE1292
:1008730008C68E828F83A3AE82AF83E5D9F01208B8
:10088300CF7001E970EC74B425D990041CF0E5D95C
:10089300FAA2E7501A747F5A90041DF0900404E002
:1008A3006401700B900405E0648870031218D990FA
:1008B300619BE060030207F8759B0053E9FB7F0629
:1008C3000202F8250AF874FF3400F922E824FF181D
:1008D300E934FFF9E82274F71202018908E9C394A5
:1008E300044004C2AF80FE120AF775F005E5082440
:1008F300C0F582E43404F583E0A424D490618FF03E
:10090300900402E064037003120AE77F02020261AB
:1009130074F71202018908120AF7E50824C4F58264
:10092300E43404F583E0906190F0900402E0640302
:100933007003120AE780D4C082C083900402E0648B
:100943000170037402F08001F0D083D08222C08250
:10095300C083900402E0640160061207C77401F0CB
:1009630080E774F81202018A828B83A3A882A98389
:100973008A828B83E0FE74FF6E600574FE6E7009DD
:1009830088828983E064FF6023EA2403FCEB34005C
:10099300FDEA24020A0AEB3400FB8A828B83E064BB
:1009A300FF700D8C828D83E064FF700479018022D7
:1009B300EE906172F088828983E0906173F08A829D
:1009C3008B83E0906174F08C828D83E0906175F08D
:1009D30079007F01020261C082C083906172E0648A
:1009E300FF6008906173E064FF7004C2AF80FE9003
:1009F3006180E0D2E002094BC082C083900402E030
:100A030064036004C2AF80FE906199E0A2E050F8F5
:100A1300906198E0FA74B42AF902094C74F355B45E
:100A23004404F5B4A9BD2274F8120201EAFEEB8076
:100A33000E7AE87B03120B2BEE24FF1EEF34FFFF2D
:100A4300EE7001EF70EB0209D574F6120201900407
:100A530020E0F508A3E0F509A2AFE492E0FAC2AF03
:100A6300740190041EF0EAA2E092AF800CE5082422
:100A7300FFF508E50934FFF509E5087002E50960AB
:100A8300357E3E7F00A2AFE492E0F50AC2AF7A1052
:100A93007B0012044DE50AA2E092AF90041FE070C0
:100AA30012EEF8EFF974FF281E74FF39FFE87001A6
:100AB300E970D2E060B7A2AFE492E0FAC2AFE4908B
:100AC300041FF090041EF0EAA2E092AF7F0302023B
:100AD30061C082C08390041EE06006740190041F0D
:100AE300F002094CC082C08375E1E39061A3E0D2B8
:100AF300E202094BC082C0839061A3E0C2E2F075B9
:100B0300E1EF75E1ED75E1ED75E9FB02094CEEC02E
:100B1300E0120A1FE9540F04FE7AFA7B00120B2B32
:100B23001EEE70F5D0E0FE2274F71202018A088BE4
:100B3300097404780812019BAE08AF09EA7001EB4F
:100B43006028A2AFE492E0F508C2AF7A107B0012EE
:100B5300044DE508A2E092AFEEF8EFF974FF281E0A
:100B630074FF39FFE87001E970D802090EC082C032
:100B730083900402E0F902094C74F7120201EAFEC1
:100B8300EBFF75082875090078081203487C007D7F
:100B9300007AC87B04122E2F74021201C0740390D2
:100BA30004C8F0743D9004C9F074209004CAF07432
:100BB300019004CBF0121F30EEFAEFFB1217B112C3
:100BC30011D6121C4F122ADFEEFAEFFB122261122A
:100BD3002A7C12249E122CEB9004E4E070347402FD
:100BE300F074039004E5F0743F9004EDF09004EE8C
:100BF300F074FF9004EFF0750804780812034812AC
:100C03002044EAFCEBFD7AE77B04122D48740212C0
:100C130001C079007F0202026174F812020174FFBD
:100C23001201AA7B00EB120CE770070BEBC39403D2
:100C330040F374036B70067A007B00805EEB75F003
:100C43000CA424CCFEE5F03404FFEEF8EFF9E488BD
:100C5300828983A3A3A3A3A3A3A3A3A3A3F074023F
:100C630088828983F09004CBE0C0E0E8240BF5820E
:100C7300E93400F583D0E0F09004CBE004F0E0F930
:100C830060F674FF6960F1851082851183AA82ABD7
:100C930083121047E970E1EEFAEFFB74011201C011
:100CA3007F01020261C082C083E48A828B83F0D019
:100CB30083D08222C082C08374FF1201AA8510826E
:100CC300851183AA82AB83121047E96006E0120CF8
:100CD300E76006758200758300AA82AB83740112F4
:100CE30001C080CB75F00CA424CCF582E5F034046C
:100CF300F583E064022274F31202018A0C8B0D89DE
:100D0300097ECC7F047508008E828F83E0640270B5
:100D130034750A04750B00780A120348AC0CAD0D48
:100D2300120E691201C0EA7001EB70198E828F8373
:100D3300A3A3A3A3A3A3A3A3A3A3E065097006EEA0
:100D4300FAEFFB8009120D5640BE7A007B007F0646
:100D53000202611210F0940222C082C083E98A82E7
:100D63008B836001A3A3A3A3A3A3A3A3A3A3E0FCD7
:100D7300EC60078A828B83E0700479028008ECC3FD
:100D8300942040F67900020CB274F11202018A0C2D
:100D93008B0D8C0E8D0F7ECC7F04EA240CF582EB39
:100DA300120FDE543FF5097508008E828F83E064CD
:100DB300026003020E54A3A3A3A3A3A3A3A3A3E0CC
:100DC30065096003020E54743F6509601B750A04CC
:100DD300750B00780A120348E50C2408120E6312FF
:100DE30001C0EA7001EB7069750801EE240BF5820E
:100DF300EF120FDE850E82850F83F0743F65096065
:100E030049E50C240D120FDAA2E750198E828F8365
:100E1300A3A3A3A3A3A3A3A3A3A3E0F9AA0CAB0D2A
:100E2300121B948025A2E35021EE2402F8EF340034
:100E3300F988828983E0FAE50C240E120FDA6A70CE
:100E430006E488828983F0750800120AD4A9088011
:100E53000A1210EA5003020DAD79007F0802026105
:100E6300FCE50D3400FDEE2403120E7022FAEF347C
:100E730000FB122CEF74022274F112020174FE12B1
:100E830001AA89088A0C8B0D7ECC7F04750A027532
:100E93000B00780A1203487C007D0074021201F5EE
:100EA300AA82AB83122E2F74021201C0750902E5C8
:100EB3000C6E7003E50D6F7003020F4E8E828F83ED
:100EC300E064026003020F4EEE2409F50EEF3400D6
:100ED300F50F850E82F583E0FAC3943E506D7401DD
:100EE300650870289004C9E0C39A505FEAF8C3E428
:100EF30098F8E49400F9851082851183E58228F837
:100F0300E58339F9743D28F582E48039750A04755F
:100F13000B00780A120348E50C2403120E63120136
:100F2300C0EA7001EB7024850E82850F83E0F8859B
:100F33001082851183E58228F8E5833400F974E093
:100F430028F58274FF39F5837401F0EE240CFEEF6B
:100F53003400FF1509E5096003020EB279007A0037
:100F63008A0A851082851183E582250AF582E58345
:100F7300120FDE703E74026508700674202AF98031
:100F83003F743DC39AF99004CAE0FAE9C39A404317
:100F93009004C9E0697003E014F0E9850C82850DC3
:100FA30083A3A3A3A3A3A3A3A3A3F074021201C0C7
:100FB300020E5E0AEAC3940240A67402650870C674
:100FC3009004C9E0C399400B9004CAE0C39950CA86
:100FD300E980C6790080C3F582E50D3400F583E02E
:100FE3002274F5120201EAFEEBFF7508028C0AEE89
:100FF300250A121037A2E750348D08EE2508121087
:1010030037697026750804750900780812034812B9
:101013001F7BEAFCEBFDEE2404120E701201C0EA02
:101023007001EB70057508008003750801A9087F3E
:1010330004020261FAEF3400FB740F2AF582E43BE9
:10104300F583E02274F81202017CCC7D047E008CCF
:10105300828D83E064027016EC240BF582ED120F8F
:10106300DE69700AEE8A828B83F0790180110EECBF
:10107300240CFCED3400FDEEC3940340D27900024E
:101083000CA374F31202018A0C8B0D89097ECC7FA9
:10109300047508008E828F83E06402703E750A0433
:1010A300750B00780A120348EE2403FCEF3400FDAD
:1010B300AA0CAB0D122CEF74021201C0EA7001EB03
:1010C30070198E828F83A3A3A3A3A3A3A3A3A3A314
:1010D300E065097006EEFAEFFB80091210EA40B4EE
:1010E3007A007B00020D511210F09403220508EEE2
:1010F300240CFEEF3400FFE508C32274F51202014D
:10110300ECFEEDFF890A8908750900780812034887
:10111300EAFCEBFDEEFAEFFB122D9074021201C014
:10112300E50A120386020258113211581146118E34
:10113300828F83E0F8A3E0F98E828F83E8F0A3E93E
:10114300F080128E828F83780812014F8E828F83F4
:10115300780812015E02103274F512020174FA1259
:1011630001AAEAFEEBFFECFAEDFBE91203860202A9
:101173007B1181117B119D11EEFCEFFD80388E8276
:101183008F83E0FCA3E0FD851082851183ECF0A33F
:10119300EDF085108285118380188E828F83780805
:1011A30012014F74021201F5780812015E740212E3
:1011B30001F5AC82AD8389087509007808120348EC
:1011C300122D9074021201C074061201C002103273
:1011D30079022274F712020175083A75090078083A
:1011E3001203487C007D007A237B04122E2F7402A5
:1011F3001201C078081203487C007D007A5D7B04ED
:10120300122E2F74021201C07F0202026174F612C1
:101213000201E9FC780079007E007F007D00740103
:101223006C70067A237B0480047A5D7B0475090362
:1012330088088A828B83E0601D74016C70210DE045
:101243006404601BA3E0F50AC395095012EAF8EBA6
:10125300F9850A09800974026C6048EAFEEBFF0510
:1012630008EA241DFAEB3400FBE508C3940240C2EC
:10127300EE7001EF7020E87001E970067A007B00E0
:101283008021E8FEE9FF8E828F83A3E0FAECF91256
:1012930012ABE508800874012D8E828F83A3F0EED4
:1012A300FAEFFB7F03020261C082C083740169709D
:1012B3003178237904A2AFE492E0FDC2AF7B0288C8
:1012C300828983E0600BA3E0FCEAC39C5003E01433
:1012D300F0E8241DF8E93400F91BEB70E2EDA2E01D
:1012E30092AFD083D0822274F112020174F81201FA
:1012F300AA851082851183EAF0A3EBF08C0A7402AD
:101303001201F5E4F0A3F0F50EF50F7401697023F3
:101313007E237F04750C03121470FA74016A703E05
:1013230012147DA3E0F9120CB78A0E8B0FEA700139
:10133300EB70077A007B000214668A828B83A3A377
:10134300A3A3A3A3A3A3A3E0F508EA2403F8EB3420
:1013530000F974061201F5E8F0A3E9F0800AEA70D7
:10136300D212147DA3E0F5087401650A70057509AE
:10137300018003750903750D02A2AFE492E0FAC27E
:10138300AF8E828F83E0650960030214467404F014
:10139300EAA2E092AFEE240EF582EF3400F583E08B
:1013A300543F6508600302143E12147064017021F7
:1013B300743F65087009E50E2403F8E50F8005EE18
:1013C300240AF8EF3400F974041201F5E8F0A3E9F4
:1013D300F0750A04750B00780A12034874081201A9
:1013E300F5E0FCA3E0FD74061201F5E0FAA3E0FBCF
:1013F300122CEF74021201C01214706003EA703BE6
:101403008E828F83A3AA82AB83E0C3950C502C7486
:10141300021201F5E07002A3E0600D74021201F5FF
:10142300E0F8121483E509F08A828B83E0F50C74EB
:10143300021201F5EEF0A3EFF0800D8E828F83E5AB
:101443000980F5EAA2E092AFEE241DFEEF3400FF1F
:10145300150DE50D600302137C74021201F5E0FA29
:10146300A3E0FB74081201C07F08020261851082A9
:10147300851183E0F8121483E0228510828511839D
:10148300A3E0F58388822274F812020174FF12012B
:10149300AAEAFEEBFF900497E070281205A0EEFA8B
:1014A300EFFB120B7CE9702412093AE48510828564
:1014B3001183F0AA82AB83121C7C121F7B12096575
:1014C3001209DA7401900497F01222DF74011201F9
:1014D300C07F0102026174F112020174FE1201AABB
:1014E300851082851183EAF0A3EBF089088C0974D7
:1014F300111201F5E0FEA3E0FF120CB78A0C8B0D6D
:10150300750E02120B70E9F50B750A00E50C7002FB
:10151300E50D600F7901AA0CAB0D120D5CE9FA8A97
:101523000E600AA90E74021201C00217AC85108264
:10153300851183E07002A3E060E9E509C3940B50D1
:10154300E2EE7001EF7029850C82850D83A3E0FD27
:10155300AC098510828511831216441217DC8A08A0
:101563008B09AE08AF09EE7001EF704D790380B5BA
:10157300EEA2E0503F74FF65086039E50C2402F5E4
:101583000EE50D3400F50F780E120348850C8285A5
:101593000D83A3E0FDAC0974021201F51216441287
:1015A300189974021201C08A088B09AE08AF097535
:1015B3000A0180B2790202152875080475090078BA
:1015C30008120348E50C2403FCE50D3400FDEE246A
:1015D30006FA1216641201C07901EEFAEFFB121B30
:1015E30040E9F50E6003021526E50A70030215268D
:1015F3007403650B600C7401650B700312093A12D6
:1016030007A9120A4C7403650B600E7401650B7015
:101613000512095180031207C7A2AFE492E0FAC290
:10162300AF850C82850D83A3A3E0600DE4850C8256
:10163300850D83A3A3F0750E0CEAA2E092AF021509
:1016430026E0FAA3E0FB850C82850D83A3A3A3A365
:10165300A3A3A3A3A3A3E0F92212253822122AF0FD
:1016630022EF3400FB122D4874022274F11202019E
:10167300E9FBEAF9ECFEEDFF900497E07013EB123F
:1016830003BC00020594160A94168F1679020217FA
:10169300ACEB120386000AEA166517EA1640175CDC
:1016A30017EA162F1726176E1796171917B21675FE
:1016B30008008E828F83A3AA82AB838E828F83E0FE
:1016C300702BE970178A828B83780C12014FAA0C56
:1016D300AB0DAC0EAD0F1224ED0217AA74016970A5
:1016E3000612250F0217AA7508020217AA640170D1
:1016F300F6E970178A828B83780C12014FAA0CAB20
:101703000DAC0EAD0F12229D0217AA74016970D79A
:101713001222BE0217AAEEFAEFFB1211D3E9F50863
:101723000217AAEEFAEFFB12223580F17401696009
:1017330003E970B3EEFAEFFB1221F380E07403695F
:101743007009EEFAEFFB12204980D2740269709798
:10175300EEFAEFFB1220CB80C4EEFAEFFB12213C32
:1017630080BBEEFAEFFB121EE480B27401696003E2
:101773000216EA7508047509007808120348121F57
:1017830094EAFCEBFDEEFAEFFB122D487402120112
:10179300C0801174016960030216EA121F99E98E71
:1017A300828F83F0750800A9087F08020261C08256
:1017B300C083E490049CF090049DEAF0A3EBF01244
:1017C3001F7B900499EAF0A3EBF0120A1FE990043F
:1017D30098F060F6D083D0822274F1120201890856
:1017E3008A0E8B0F8C0A8D0979021212108A0C8BC8
:1017F3000DA80CA90DE8FEE9FFE87001E970077A6E
:10180300007B0002188C740E250A8E828F83A3A39B
:10181300F0EE240E121B7D54804508F0900498E0EE
:10182300C0E0EE2410F582EF3400F583D0E0F090B1
:101833000498E004F060F8EE240FFAEF3400FB8A1A
:10184300828B83E0121C4354F8450954778A828BB8
:1018530083F088828983E0C2E7F0750B00780A126F
:101863000348AC0EAD0FEE24110A0A1218911201AF
:10187300C07508047509007808120348121B331257
:1018830018911201C0EEFAEFFB7F08020261EF34F8
:1018930000FB121A332274F712020174091201F5C4
:1018A300E0FEA3E0FF1217DCEA7001EB70067A009A
:1018B3007B008014EA24101218D08E828F83F0EA02
:1018C300240F1218D0D2E7F07F02020261F582EBF7
:1018D3003400F583E02274F7120201790112121029
:1018E3008A088B09A808A909E8FEE9FFE87001E95D
:1018F3006013EE24020A0AEF3400FB120796EEFA95
:10190300EFFB121A4F80C174F112020174FE12012F
:10191300AA851082851183ECF0A3EDF08A0A8B0B64
:1019230074111201F5E0F50CA3E0F50D7415120125
:10193300F5E0F50EA3E0F50FE4850C82850D83F049
:101943007C0179011212EA8A088B09AE08AF09EE0D
:101953007001EF7003021A1E750800750900850AED
:1019630082850B83E064017015A3E0F9120CB78A3A
:10197300088B09EA7001EB70057902021A208E8246
:101983008F83A3A3E024F2F50A850C82850D83F0EF
:10199300750B00780A120348EE2411FCEF3400FDA6
:1019A30074021201F5121A281201C0E5087002E54B
:1019B30009600FEE241B121A39F0EE241C121A3997
:1019C300A3F074131201F5E07002A3E0601E750822
:1019D300047509007808120348EE240AFCEF34006A
:1019E300FD74151201F5121A281201C0E50E7002DA
:1019F300E50F6012EE240FF582EF1218D35407851A
:101A03000E82850F83F08E828F83A3E0FA79011211
:101A130012ABE48E828F83F0F98002790474021290
:101A230001C002188CE0FAA3E0021894AA82AB83E7
:101A3300122D48740222F582EF3400F583E0850805
:101A430082850983A3A3A3A3A3A3A32274F31202EE
:101A53000174FF1201AAEAFEEBFFEE240EF50AEF72
:101A63003400F50B850A82F583E0543FF508750CC5
:101A730004750D00780C120348121B33EF3400FB7E
:101A8300122CEF74021201C0EA7001EB7009E48EAC
:101A9300828F83F0021B20850A82850B83E0A2E6F6
:101AA30040ECE50860E8EE2402FAEF3400FBE508B9
:101AB300C39407501CE508C33324EEF582E43404D1
:101AC300F583121B2A1201FFE9640170C1740180BE
:101AD300BE743F6508600EE508C3942040B0E50876
:101AE300C3943F50A9851082851183AC82AD8312C4
:101AF3000D8CE9609974018E828F83F090049DE0D0
:101B03007002A3E06017851082851183E0F99004C9
:101B13009D121B2A1201FFE96003021A917401123C
:101B230001C07F06020261E0F8A3E0F58388822208
:101B3300900499E0FCA3E0FDEE240AFA2274F81263
:101B43000201EAFEEBFFE9FAEE240F121B7D121CE1
:101B53003AFBE04B88828983F0EAF9EE2402FAEF3C
:101B63003400FB1206CDE97004790080027909E4A0
:101B73008E828F83F07F01020261F8EF3400F988CF
:101B8300828983E022C082C08390049BE0F902171C
:101B9300D774F712020174E51201AAE9FEEA240ED2
:101BA3001218D0FF740D1201F5E0121C3AFCE04C40
:101BB300121C43C0E0740D1201F5D0E0F075080467
:101BC3007509007808120348EA2408FCEB3400FD89
:101BD30074061201F5121A2F1201C0780812034875
:101BE300900499E0FCA3E0FD740A1201F5121A2F88
:101BF3001201C0740C1201F5E054C04EF0740E854E
:101C03001082851183F01201F5EFF0740D1201F5C6
:101C1300E05478F0440BF0740C1201F5E0543FF0FB
:101C23007900851082851183AA82AB831206CD7455
:101C33001B1201C00218CB54CF75830475829C22FA
:101C430054BF75830475829BFCE04C2274F7120227
:101C53000175080175090078081203487C007D00AE
:101C63007A9F7B04122E2F74021201C0120A1FE9FD
:101C73009004A0F07F02020261C082C0838A828B3B
:101C8300837A02E0F9C39404500D1208D97C9F7D36
:101C930004740112017AFAEAF9D083D0822274F52E
:101CA30012020174FF1201AAEAFEEBFF7509007D1F
:101CB300017C009004A0E0F9120FE4E9FB70091223
:101CC3000AD4750901021D5674026B6003021D5686
:101CD300750800EE240FF582EF3400F583E012035C
:101CE300860101531DF11CEC1C7508028062750A04
:101CF30004750B00780A120348121F7BEAFCEBFD04
:101D0300EE2404FAEF3400FB122CEF74021201C02C
:101D1300EA7001EB7016EE2410F582EF3400F583C0
:101D2300E0851082851183121EDB8024121FEBEAEB
:101D33007001EB601B780A120348EE2408FCEF34B1
:101D430000FD122CEF74021201C0EA7001EB60C6B1
:101D5300850809A90974011201C07F040202617494
:101D6300F112020174F11201AA8A0E8B0F7E007523
:101D73000801120B70E9F509851082851183AC8285
:101D8300AD8375830475829F740112017A121FEB70
:101D93008A0C8B0DEA7001EB70091220448A0C8BBC
:101DA3000D8E087F0074011201F5EF121EDB74041F
:101DB3001201F5E50CF0A3E50DF074021201F5A88C
:101DC30082A98374061201F5E8F0A3E9F0740812FE
:101DD30001F57402F074091201F57405F07402122E
:101DE30001F57402F09004A0E0C0E074031201F561
:101DF300D0E0F074041201F5AC82AD837A0379026A
:101E030012166E74091201F57405F074021201F5CD
:101E1300A882A98374061201F5E8F0A3E9F0740B14
:101E23001201F5A882A98374041201F5E8F0A3E96D
:101E3300F074036509600C74016509700312093AB3
:101E43001207A9120A4C74036509600E740165092F
:101E5300700512095180031207C774041201F5AC0F
:101E630082AD837A02790212166EE9703BE508604F
:101E730026750A04750B00780A120348AC0CAD0DE5
:101E8300740D1201F5AA82AB83122CEF74021201B6
:101E9300C0EA7001EB70118E0AE50E250AF582E5A2
:101EA3000F3400F583EFF00E9004A0E004F0EE6031
:101EB30004E508700A0FEFC394045003021DA885BC
:101EC3001082851183AA82AB83121C7CEEF9740FF6
:101ED3001201C07F08020261F0AA82AB83121C7C4C
:101EE3002274F8120201EAFEEBFFE91203BC0003BD
:101EF30000FE1E01031F0D121F291F121C7C8028C8
:101F030090049FEEFCEFFD740112017AF980198EA3
:101F1300828F83A3E0FAA3E0FB121D62E98E828F16
:101F230083F07900800279027F0102026174F71263
:101F3300020175080475090078081203487C007DC6
:101F4300007AA17B04122E2F74021201C09004A9FF
:101F5300E0701B78081203487CFC7D047AA57B049F
:101F6300122D4874021201C074019004A9F0800379
:101F73001201C07F02020261C082C0839004A9E003
:101F830060067AA57B0480047AFC7B04D083D0822C
:101F9300227A017B052279022274F7120201790069
:101FA3009004A9E070217508048909780812034890
:101FB300EAFCEBFD7AA57B04122D4874021201C0E2
:101FC30074019004A9F0F980AA74F712020175084C
:101FD300047509007808120348EAFCEBFD7AA17B3B
:101FE30004122D487402808874F712020174FC12E3
:101FF30001AA75080475090078081203487C007D5E
:102003000074021201F5AA82AB83122E2F740212FE
:1020130001C0780812034874021201F5AC82AD8343
:102023007AA17B04122CEF74021201C0EA7001EB57
:1020330070067A007B0080047AA17B047404021F7B
:10204300737ABC7B042274F5120201EAFEEBFF8E65
:10205300828F83A3A3A3A3A3E0F91203BC01050604
:102063006B2001036B206F207D0180027D038E8234
:102073008F83A3A3A3A3E0FC8E828F83A3A3E0FAA1
:10208300A3E0FB1217DC8A088B09A909EA7001E9AE
:10209300602F750A04750B00780A1203488E828F2D
:1020A30083E0FCA3E0FDEA2406FAE93400FB122DE9
:1020B3004874021201C07901AA08AB09121B4080BF
:1020C3000279037F0402026174F712020174FD12A4
:1020D30001AAE4851082851183F08A828B83A3A3EE
:1020E300A3A3A3E0C0E074011201F5D0E0F0EA2459
:1020F30006F508EB3400F50978081203488A828B49
:1021030083120359EA2404F508EB3400F50978082F
:102113001203488A828B83A3A3E0FCA3E0FD740629
:102123001201F5AA82AB8312190A74061201C07454
:10213300031201C07F0202026174F5120201EAFE7A
:10214300EBFF75080074046970091207C71209517F
:102153000221EE740569700612093A0221EE740633
:102163006970398E828F83E0F9120CB7EA7001EB44
:10217300700479028077750A02750B00780A1203DE
:1021830048EA2407FCEB3400FD8E828F83A3AA82E6
:10219300AB83122D4874021201C0804F740769701B
:1021A3000B1209FBE98E828F83F0803F74086970FC
:1021B300051207A9803574096970051207C7802BBA
:1021C300740A6970238E828F83E01203860002757E
:1021D30021E221DE21DA2179028006790180027968
:1021E3000012091379008005750802A9080220C6A8
:1021F30074F7120201EAFEEBFF75080274016970BD
:10220300207508047509007808120348121F7BEA39
:10221300FCEBFDEEFAEFFB122D4874021201C080B5
:1022230009E97009121F9CE96003750800A90802F7
:10223300213774F7120201E9FC8A828B83E0F97477
:102243000E6C60047902801374FF6960F7120CB797
:10225300EA7001EB60EE120CA8790002213774F5E5
:10226300120201900505780812014F7583047582E7
:10227300AA780812013A7010900509780812014FE4
:102283009004AA780812015E9004AEEAF0A3EBF082
:10229300120A1FE99004B0F0803D74F51202018A1E
:1022A300088B098C0A8D0B900505780812013A609A
:1022B300089004AA780812015E801C74F5120201CA
:1022C300EA7001EB60119004AA780812014F8A8228
:1022D3008B83780812015E7F0402026174F5120297
:1022E3000174E51201AA120B70E9F5087F06740F59
:1022F3001201F5AA82AB83121D62E9FA8A097005FD
:1023030079070224757E0080010EEEC39509400310
:102313000224738E0A740F1201F5E582250AFAE589
:10232300833400FB121C7C122044851082851183A8
:10233300EAF0A3EBF074071201F5A882A9837402F3
:102343001201F5E8F0A3E9F074041201F57408F042
:1023530074051201F57403F0790474091201F5ACE4
:1023630082AD837AAA7B0412115B74071201F574A0
:1023730001F09004B0E0C0E074081201F5D0E0F081
:10238300740D1201F57402F0121F99740E1201F507
:10239300E9F0851082851183AC82AD837A037902DB
:1023A30012166E74051201F57403F074071201F529
:1023B300A882A98374021201F5E8F0A3E9F074136B
:1023C3001201F5A882A983851082851183E8F0A301
:1023D300E9F074036508600C740165087003120961
:1023E3003A1207A9120A4C74036508600E7401655A
:1023F30008700512095180031207C78510828511E1
:1024030083AC82AD837A02790212166EE96003020D
:10241300230C74071201F5E0547FFA74016A600714
:10242300EF6A600302230C7508047509007808122B
:102433000348740B1201F5AC82AD8374191201F5D4
:10244300AA82AB83122D4874021201C078081201CC
:102453004FAA08AB09AC0AAD0B1224ED7413120199
:10246300F5AA82AB83121FCC9004B0E004F07F0086
:10247300EFF9741B1201C00222DA74F81202017E12
:10248300007D017C009004B0E0F9120FE4E97004D0
:10249300120AD40EEEF97F0102026174F5120201F1
:1024A300900505780812014F7583047582B1780889
:1024B30012013A701090050D780812014F9004B183
:1024C300780812015E120A1FE99004B9F060F675EC
:1024D300080275090078081203487C007D007AB66B
:1024E3007B04122E2F740202270774F51202018A4D
:1024F300088B098C0A8D0B900505780812013A6048
:10250300089004B1780812015E02270A74F51202DA
:1025130001EA7001EB60119004B1780812014F8A4F
:10252300828B83780812015E02270AAA82AB831288
:102533002D4874022274F512020174EC1201AA8A66
:10254300088B09120C1C8A0A8B0BAE0AAF0BEE70B8
:1025530001EF70030227037901120E7BE9700AEE83
:10256300FAEFFB120CA8022703750A04750B007817
:102573000A120348122044EAFCEBFD74121201F51F
:1025830012252E1201C0A882A983122718740712DC
:1025930001F5A882A98374021201F512271E74049F
:1025A3001201F57409F074051201F57402F079044F
:1025B30074091201F5AC82AD837AB17B0412115B0D
:1025C3008E828F83A3A3A3A3A3A3A3A3A3E0C0E0AB
:1025D300740D1201F5D0E0F09004B9E0C0E0740886
:1025E3001201F5D0E0F0121B88740E1201F5E9F028
:1025F30074071201F57401F0121F99740F1201F59B
:10260300E9F0851082851183AC82AD837A03790268
:1026130012166EE96003022705120B70E9F50A74BE
:10262300051201F57402F074071201F5A882A9835B
:1026330074021201F512271EEE2403F8EF3400F999
:102643001227187403650A600C7401650A7003127B
:10265300093A1207A9120A4C7403650A600E740141
:10266300650A700512095180031207C78510828518
:102673001183AC82AD837A02790212166EE9705E21
:1026830074071201F5E0547FFA74016A6010740351
:102693006A600BEEFAEFFB120CA8790580647402F2
:1026A3008E828F83F074091201F5E08E828F83A3EB
:1026B300A3A3A3A3A3A3A3A3A3F0EE240B12270F07
:1026C300850882850983F08E828F83A3A882A983DC
:1026D300740A1201F5E06440700F7401800DEEFA84
:1026E300EFFB120CA879018019740388828983F0A7
:1026F3009004B9E004F0E070037401F07900800203
:10270300790374141201C07F04020261F582EF346D
:1027130000F583E022851082851183E8F0A3E9F0B8
:102723002274F112020174F81201AAEAFEEBFF8E81
:10273300828F83E0F874F228F874FF3400F9C3E859
:102743009409E99400A2D265D033401A121F99E983
:10275300FAEE241712270F6A600C7902740812012B
:10276300C07F080202617904E91201F5AC82AD83EE
:10277300EE2411FAEF3400FB1210FEC082C08390E6
:1027830004B1780812014FD083D082780812013A3D
:1027930070C8EE241512270FF50AEE2408F50EEF84
:1027A3003400F50FA90AAA0EFB120CF98A088B094B
:1027B300A808A909E87001E9606212293CC0E07425
:1027C300011201F5D0E0F088828983A3A3A3A3A318
:1027D300A3A3A3A3E0C0E074021201F5D0E0F012BA
:1027E3001B8874031201F5E912294E8A088B09A884
:1027F30008A909E8FEE9FFE87001E9601A75080411
:10280300750900780812034812291B1201C07900C8
:10281300EEFAEFFB121B40790102275F9004B5E04B
:10282300700302275D120C1C8A088B09EA7001EB06
:1028330060E5750C04750D00780C120348AC0EAD01
:102843000FEA24030A0A0AEB3400FB1225321201B1
:10285300C0AA08AB097902120E7BE97009AA08AB7A
:1028630009120CA880B19004B8E0640260EFE0F5AF
:102873000C7401250CF0E508240BF582E5091227F9
:1028830012C0E0E50C24B6F582E43404F583D0E00D
:1028930012292BA3E50AF07402850882850983F0C7
:1028A300A3A882A983EE241612270F644070047430
:1028B30001800274038882898312292BE0C0E074AB
:1028C300021201F5D0E0F0121B8874031201F5E93E
:1028D300F012293CC0E074011201F5D0E012294E38
:1028E3008A0A8B0BA80AA90BE8FEE9FFE87001E945
:1028F3007003022860750A04750B00780A120348F6
:1029030012291B1201C07900EEFAEFFB121B40E9FA
:10291300600302286002281AAC0EAD0FEE2406FAFB
:10292300EF3400FB12253222F0850882850983A348
:10293300A3A3A3A3A3A3A3A32274818510828511B8
:1029430083F0EE2410F582EF022712F0EE240DF54A
:1029530082EF3400F583E05407FA7403C39AFD7CD5
:1029630004851082851183AA82AB8379021217DC56
:102973002274F8120201EAFEEBFF7D017C00900451
:10298300B9E0F9120FE4E97007120AD4790180075C
:10299300EEFAEFFB12299F7F0102026174F3120228
:1029A3000174FD1201AAEAFEEBFFEE240FF8EF34E7
:1029B30000F98E828F83E0FA74F22AFA74FF3400EE
:1029C300FB74086A7001EB7009740188828983F0D3
:1029D300801088828983E01203860101702AE52929
:1029E300EF29EEFAEFFB122724022A70750A08EE8C
:1029F3002408F508EF3400F509EE241112270FF926
:102A0300AA08AB09121085EA7001EB6006120CA844
:102A1300750A00748212293EC0E074011201F5D0D8
:102A2300E0F074021201F5E50AF07D037C038510E2
:102A330082851183AA82AB8379021217DC8A0A8BFF
:102A43000BA80AA90BE8FEE9FFE87001E9601E750F
:102A53000A04750B00780A120348AC08AD09122961
:102A63001F1201C07900EEFAEFFB121B40790074CC
:102A7300031201C07F06020261C082C083120A1FD3
:102A8300E99004BAF0D083D0822274F7120201EAEB
:102A9300FEEBFF7D017C009004BAE0F9120FE4E93C
:102AA3007007120AD47901802E750804750900781D
:102AB30008120348121F7BEAFCEBFDEE2404FAEF35
:102AC3003400FB122CEF74021201C0EA7001EB70A8
:102AD300047900800279027F02020261C082C0830E
:102AE300120A1FE99004BBF0D083D0822274F11242
:102AF300020174F31201AAE9FF120CB78A0E8B0FBD
:102B0300750A007E02120B70E9F50CE50E7002E502
:102B13000F600574FF6F70057902022C4574026E15
:102B2300701874091201F5AC82AD837A0179001231
:102B3300166E750B011E7F00803974091201F5AA08
:102B430082AB83121D62E9FA8A0B70E97907022CC2
:102B5300451207C774021201F5AC82AD837A02797C
:102B63000212166EE9700B7E00750A019004BBE039
:102B730004F00FEFC3950B4003022C35E50A600305
:102B8300022C358F0874091201F5E5822508FAE550
:102B9300833400FB121C7CE50E2403F8E50F34009C
:102BA300F974021201F5E8F0A3E9122C4F1201F5B2
:102BB300E8F0A3E9F074061201F57402F074071249
:102BC30001F57401F0851082851183F09004BBE058
:102BD300C0E074011201F5D0E0F074021201F5AC0B
:102BE30082AD837A03790212166E74071201F574AB
:102BF30001122C4F1201F5E8F0A3E9F0740212015F
:102C0300F5E4F0A3F07403650C600C7401650C70BB
:102C13000312093A1207A9120A4C7403650C7003D4
:102C2300022B577401650C6003022B5412095102E5
:102C33002B57EE6003022B20E50A60047900800223
:102C43007901740D1201C07F08020261F0851082C0
:102C5300851183A882A98374042274F5120201EA00
:102C6300FEEBFF7D017C009004BBE0F9120FE4E969
:102C73007007120AD47901806AEE240FFAEF340048
:102C8300FB8A828B83E0640170577D038E828F837E
:102C9300E024F2FC79011217DC8A088B09A909EAFE
:102CA3007001E9603C750A04750B00780A12034849
:102CB300EE2408FCEF3400FDEA2406FAE93400FBB5
:102CC300122D4874021201C0E5082411F582E509AA
:102CD3003400F583E0D2E7F07900AA08AB09121BB0
:102CE3004079007F040202612279002274F8120203
:102CF3000174081201F5E0F8A3E08015A3AA82ABE2
:102D0300838C828D83A3AC82AD83E824FF18E934DE
:102D1300FFF9E87001E960248A828B83E0FE8C82EC
:102D23008D83E06E8A828B8360D2E0F88C828D8300
:102D3300E0FAE8C39AFAE49400FB80047A007B008B
:102D43007F0102026174F712020174091201F5E0B6
:102D5300FEA3E0FFEAF8EBF980188C828D83E0880C
:102D6300828983F0A3A882A9838C828D83A3AC82FA
:102D7300AD838E088F0974FF25081E74FF3509FF84
:102D8300E5087002E50970D27F0202026174F7124E
:102D9300020174091201F5E0F8A3E0F9EAFEEBFF82
:102DA3008A088B09C3EA9CEB9D405EEC28F582ED13
:102DB30039F583C3E5829508E5839509404BEA28F5
:102DC300FAEB39FBAC82AD83122E1E7002E509606B
:102DD30041EC24FF1CED34FFFDEA24FF1AEB34FF22
:102DE300FB8C828D83E08A828B83F080DB8C828DE7
:102DF30083E08A828B83F08C828D83A3AC82AD8344
:102E03008A828B83A3AA82AB83122E1E7002E509EA
:102E130070DBEEFAEFFB7F02020261880889097416
:102E2300FF25081874FF3509F9E5082274F8120222
:102E33000174081201F5E0F8A3E0F98A828B83801C
:102E430003ECF0A3E8FEE9FF74FF2E1874FF3FF9CB
:0B2E5300EE7001EF70EB7F01020261E6
:0000D3012C
:00000001FF
