:030000000200D328
:100083000209BD00000080FB1200E2B90003020078
:10009300CDE490F3FF785079028002F0A3D8FCD925
:1000A300FA90F54EAA82AB839000E578B679018089
:1000B30015E493A3AC82AD838A828B83F0A3AA82D7
:1000C300AB838C828D83D8E9D9E712057A12008637
:1000D30075D00075813F7510FF7511F302008B79A0
:1000E3000122FFFFFFFF1432506E0E2750FF000066
:1000F30000010000000000000000000000000000FC
:1001030000000000000000000000000000000000EC
:1001130000000000000000000000000000000000DC
:1001230000000000000000000000000000000000CC
:1001330000000000000000000000000000000000BC
:1001430000000000000000000000000000000000AC
:10015300000000000000000000000000000000009C
:10016300000000000000000000000000000000008C
:100173000000AA336030E82C4334A9233E3278567A
:10018300341202010101000000000008070605EF18
:10019300BEADDE04030201E066701008A3E06670E2
:1001A3000A08A3E066700408A3E06622E0F608A349
:1001B300E0F608A3E0F608A3E0F622E6F008A3E6DB
:1001C300F008A3E6F008A3E6F022CAC0E0E6F0A335
:1001D30008DAFAD0E0FA22CAC0E0E0A3C582CCC5AF
:1001E30082C583CDC583F0A3C582CCC582C583CD2B
:1001F300C583DAE6D0E0CA22C3E498F8E499F91299
:10020300023C8026C3E49AFAE49BFBE920E7E91267
:10021300023CE498F8E499F922C3E498F8E499F9E4
:1002230012023CE498F8E499F9C3E49AFAE49BFBDC
:1002330022EB20E7CFE920E7E0B90010BB0008E894
:100243008AF084F8AAF022E4FBC8FA22EB70227B3E
:1002530010C833C8C933C9335007C39AC3DBF2800C
:10026300069A50012ADBEAC833F4C8C933F4C9FA41
:100273002275F008E4C833C8C933C933C99AC99B86
:100283005004C92AC93BD5F0ECFBC833F4C8E4C910
:10029300FA22600C08C6C313C618C613C6D5E0F409
:1002A30022251010AF08F510400215118008F51033
:1002B30040021511D2AF22C0D0251010AF08F5109F
:1002C300500205118008F51050020511D2AFD0D0AD
:1002D300222510F58210AF08F51040021511800891
:1002E300F51040021511D2AF851183222510F58236
:1002F300E43511F58322E4732510C582C0E0E511CE
:1003030034FFC583C0E0E510C3958224F9F8E4C542
:10031300A8858311858210C5A8E8CEF0A3E520F057
:10032300A37808E608F0A3DEFAEFF0A3E58124FB47
:10033300F8E608F0A3E608F0A30808E608F0A3E649
:1003430008F0A315811581D0E0FED0E0F8158115E2
:1003530081E8C0E0EEC0E022851183851082E0A32E
:10036300FEE0A3F5207808E0A3F608DFFAE0A3FF98
:10037300E0A3C0E0E0A3C0E0E0A3C0E0E0A3C0E0EE
:10038300E4C5A8858210858311C5A8D083D08222B5
:10039300C0D02510C582C0E0E51134FFC583C0E09D
:1003A300E510C3958224F310AF088583118582106D
:1003B3008008858311858210D2AFC8F0A3E9F0A32A
:1003C300EAF0A3EBF0A37908E709F0A3D8FAECF07D
:1003D300A3EDF0A3EEF0A3EFF0A3D0E0F0A3D0E001
:1003E300F0A3D0E0F0A3E520F0A3E5F0F0A322858D
:1003F3001183851082E0C0E0A3E0F9A3E0FAA3E053
:10040300FBA37808E0F608A3DFFAE0FCA3E0FDA372
:10041300E0FEA3E0FFA3E0C0E0A3E0C0E0A3E0F5BB
:10042300D0A3E0F520A3E0A3F5F0E4C5A8858311EC
:10043300858210C5A8D082D083D0E0F8D0E0327492
:10044300028000C0E0F4041202D4D0E01201CD22F5
:1004530074028000CCC0E0EDC0E0E510C39CCCADDD
:100463001150011D10AF068C108D1180068C108D5C
:1004730011D2AF1201DAD0E0FDD0E0FC22D083D05C
:1004830082C5F0E493A3C5F0C395F0F5F0E493A31C
:10049300C395F04005E5F0048001E475F002A4255E
:1004A30082F582E5F03583F583E493A3C0E0E4931A
:1004B300C0E022D083D082CCC0E0E493A3600612D4
:1004C30004E01470FAE493A360061204FF1470FAB4
:1004D300D0E0FCE493A3C0E0E493C0E022C0E0E4F6
:1004E30093A3D39C5010E493A3C39C400AD0E0D0C1
:1004F300E0D0E00204D3A3A3A3D0E022C0E0E493BE
:10050300A36C7009D0E0D0E0D0E00204D3A3A3D061
:10051300E022C082C08374FE1202A4120568851013
:100523008285118374AAF0A3E4F085108285118378
:10053300E07004C2AF80FE74021202BAD083D0828C
:100543002253CBEFC2D843CB0475F00DEAA4F5CD0B
:1005530074FC55CB4402F5CB43CB10A2D850FC53CB
:10056300CBEFC2D82212056F438F202243FE0143F3
:10057300FE08D290D2932274F41202A4750819755E
:10058300090078081204427C007D007A0A7BF41289
:10059300358674021202BA1205157A1D7B071218EA
:1005A300F5A29350057902120707A290503A7901F8
:1005B30012070780337F000EEEC39419500302061F
:1005C300A2A2AFE492E0FFC2AF90F424E06014E093
:1005D30004F0C3940F400C7401F0F9120707790279
:1005E300120707EFA2E092AF90F409E0602890F4BD
:1005F30007E0C39408501FE024FFFAE434F3FB122E
:10060300193EE970F2E004F0A2AFE492E0FFC2AF5A
:1006130090F4091206FE90F408E060567E008048CC
:1006230074011202EFAC82AD8374021202EFAA824C
:10063300AB838E08E50824FFF582E434F3F583E009
:10064300F91219B2E9702074011202EFE0600A7422
:10065300021202EFE0F9120707A2AFE492E0FFC231
:10066300AF90F4081206FE0E90F407E0FAEEC39A78
:1006730040AEA281400D7AFA7B00120C0512073DB1
:100683000205C47F0075081978081204427C007DB6
:10069300007A0A7BF412358674021202BA7E009045
:1006A300F408E060030205C490F409E06003020566
:1006B300C47A017B00120C05851082851183AC82FC
:1006C300AD837A077903121A1CE0C0E08E08E508AF
:1006D300240AF582E434F4F583D0E0F085108285B2
:1006E3001183E0C394BBA2D265D03350030205B893
:1006F3000F74036F60030205BA8082E014F0EFA267
:10070300E092AF227401697006639001E590227450
:1007130002697005639008E59022C082C083E96096
:100723000C90F408E004F0E490F424800590F409BC
:10073300E004F07900D083D08222C082C08374FFAA
:100743001202A490F423E004F0C394044002E4F002
:10075300E0851082851183F0AC82AD837A00790045
:10076300121A1CD290D293740190F424F01202BA9C
:1007730080C374F71202FB75081875090078081214
:100783000442120A871202BA90DF36E054EF640182
:100793006004C2AF80FE90DF37E0C394035004C20D
:1007A300AF80FE53BEFBE5BEA2E650FA53C6BF437D
:1007B300BE0474F4F5D575D444743C90DF13F0741F
:1007C3001490DF14F0741590DF02F0740590DF04C9
:1007D300F0748E90DF2EF0740990DF25F074129080
:1007E300DF07F0E490DF08F0742190DF09F0747103
:1007F30090DF0AF0747A90DF0BF0742D90DF0CF029
:10080300743B90DF0DF0741390DF0EF0742290DFD1
:100813000FF074F890DF10F0746290DF11F0741D24
:1008230090DF15F0741C90DF16F074C790DF17F09B
:10083300E490DF18F074B090DF19F074B690DF1A0B
:10084300F0741090DF1BF0120AE5741F90DF1FF0A5
:10085300748890DF23F0743190DF24F0740290F4F5
:1008630025F07900120D607E007F0075E1027508A6
:100873001475090590DF3CE0545070237A407B00E7
:10088300120BBEE50824C0F508E50934FFF509C3DA
:10089300E5089401E5099400A2D265D03350D57AD6
:1008A30010EEC333FEEF33FF90DF3AE0A2E0E492B1
:1008B300E04EFE1AEA70EA74804EF5BCEFF5BC1206
:1008C3000B7690F4407433F0A3E4F090F44274E2B6
:1008D300F0A37404F0439A01D2AF020C0074F71230
:1008E30002FBEAFEEBFF890975080090F425E0643A
:1008F300017004C2AF80FE120B76EF90F444F0EE69
:1009030090F445F074DF90F446F074D990F447F016
:100913007420120B48744190F44BF0E509701143B5
:10092300D60175E103E5E9A2E450FA53E9EF8064E7
:10093300740165096004C2AF80FE750904801C124E
:100943000B76120AF7E9540F04FE90F442E0FAA37F
:10095300E0FB120BBE1EEE70F1150943D60175E1E3
:100963000290DF3BE0640D70F87E147F0590DF3C5E
:10097300E054507005120CF150F375E10390DF3B26
:10098300E0640D6008E5E9A2E450FA809EE5097091
:10099300AE750801120B7690F425E0640370031220
:1009A3000AFDA908020C00C082C08390F426EAFC69
:1009B300EBFD74181201DA020B93C0E074F1120319
:1009C3009390F425E064036004C2AF80FEE5E9A2DE
:1009D300E4502BE5E9A2E6502553E9EF53E9BF5371
:1009E3009BFCE59B120B76750816750900780812B7
:1009F3000442120A871202BA120AFD020A8253E95A
:100A0300EF539BFCE59B75080275090078081204F7
:100A13004290F426E0042426FCE434F4FD7A3C7B83
:100A2300F41234E774021202BAE0FA90F43DE0A241
:100A3300E7503B8A0874012508F8E43400F9E89488
:100A430017E99400C365D0335024EAC3940B401EC6
:100A53007A277BF4120DC4E9701490F43CE0F91288
:100A63000D0DE9F090F43DE0C2E7F0121C69750842
:100A7300167808120442120A871202BA43D6017F7B
:100A8300020203F27C007D007A267BF41235867421
:100A9300022274F81202FB90F425E064016013A2B1
:100AA300AFE492E0FEC2AF120BA17401F0EEA2E03C
:100AB30092AF020CECC082C083E5C6A2E65004C22A
:100AC300AF80FE90F425E064017014120AE574020D
:100AD30090F425F075E10490DF3BE0640170F802C7
:100AE3000B9374EA90DF1CF0742A90DF1DF0E490FE
:100AF300DF1EF02243B404A9BC2274F71202FB7474
:100B0300DF90F444F074D990F445F074F490F44613
:100B1300F0742690F447F07480120B48741190F42B
:100B23004BF075D6817508167509007808120442D2
:100B3300120A871202BA43D601120B9875E10243D7
:100B43009110020C0090F448F0741890F449F0747A
:100B53001390F44AF022C082C08390F425E064012C
:100B63007004C2AF80FEE0640360067403F0120AEF
:100B7300FD801DC082C0835391EF75E10490DF3B7C
:100B8300E0640170F875D68153D1FE120B98800092
:100B9300D083D08222539BFCE59B53E9EF22C08292
:100BA300C08390F425E064017004C2AF80FEE0646A
:100BB300037006120B767402F080D574F71202FBF1
:100BC3008A088B0974047808120295AE08AF09EA03
:100BD3007001EB6028A2AFE492E0F508C2AF7A108F
:100BE3007B00120544E508A2E092AFEEF8EFF9743A
:100BF300FF281E74FF39FFE87001E970D87F0202F5
:100C0300035B74F81202FBEAFEEB800E7AF47B01BD
:100C1300120BBEEE24FF1EEF34FFFFEE7001EF70E8
:100C2300EB020CEC74F61202FB90F440E0F508A31F
:100C3300E0F509A2AFE492E0FAC2AF740190F43F89
:100C4300F0EAA2E092AF800CE50824FFF508E5097D
:100C530034FFF509E5087002E50960357E1F7F0062
:100C6300A2AFE492E0F50AC2AF7A107B001205440A
:100C7300E50AA2E092AF90F43EE07012EEF8EFF9CD
:100C830074FF281E74FF39FFE87001E970D2E06039
:100C9300B7A2AFE492E0FAC2AFE490F43EF090F46E
:100CA3003FF0EAA2E092AF7F0302035BC082C083FE
:100CB30090F43FE06006740190F43EF0020B9374ED
:100CC300F81202FB90F425E064036004C2AF80FED7
:100CD3007E147F0590DF3CE054507005120CF150F8
:100CE300F390DF3AE0F9120D0D7F0102035B7A40C6
:100CF3007B00120BBEEE24C0FEEF34FFFFC3EE9465
:100D030001EF9400A2D265D03322C008C009E9C321
:100D13009480E94019F879FF7A027B001202348843
:100D230008890974B72508F874FF3509800BC313C4
:100D3300F874B728F874FF3400F9C3E89480E99491
:100D4300FFA2D265D03350027880E8F9D009D008E9
:100D530022C082C08390F425E0F9020B9374F7124A
:100D630002FB8908E9C394044004C2AF80FE120B5E
:100D730076E5082452F582E434F5F583E090DF0646
:100D8300F090F425E064037003120AFD020C007472
:100D9300F71202FB8908E9C394034004C2AF80FE43
:100DA300120B76E5082456F582E434F5F583E090DA
:100DB300DF2EF090F425E064037003120AFD020CA9
:100DC3000074F81202FB90F44CE070047900803850
:100DD3007E007D007C008C82A882120E19FF120E09
:100DE3000EE06F70010EE8244EF582E434F5F583CE
:100DF300E06F70010D0CECC3940440DA74046D6071
:100E0300CB74046E60C67901020CECE82459F582B8
:100E1300E434F5F58322EA28F582EB3400F583E028
:100E23002274F71202FBEAFEEBFF750880750900D6
:100E330078081204427C007D007A5E7BF5123586C9
:100E430074021202BA740990F55EF0743D90F55F76
:100E5300F0742090F560F0740190F561F01226D0E3
:100E6300EEFAEFFB121B6412159012235712339400
:100E7300EEFAEFFB1229F3123211122D60123442F3
:100E830090F5D2E070347402F0740390F5D3F074EB
:100E93003F90F5DBF090F5DCF074FF90F5DDF07535
:100EA300080478081204421227C5EAFCEBFD7AD540
:100EB3007BF512349F74021202BA79007F02020397
:100EC3005BC082C0837B00EB120F8970070BEBC3FF
:100ED300940940F374096B70067A007B00800FEB72
:100EE300120F90AA82AB83120EFDAA82AB838005F8
:100EF30074011202BAD083D08222C082C08374FFED
:100F03001202A4E48A828B83A3A3A3A3A3A3A3A310
:100F1300A3A3F074028A828B83F090F561E0C0E0B2
:100F2300EA240BF582EB3400F583D0E0F090F56111
:100F3300E004F0E0F960F674FF6960F185108285E2
:100F43001183AA82AB831213D7E970E180A2C08216
:100F5300C083E48A828B83F0809BC082C08374FF4A
:100F63001202A4851082851183AA82AB831213D740
:100F7300E96006E0120F896006758200758300AA96
:100F830082AB83020EF3120F90E064022275F00C21
:100F9300A42472F582E5F034F5F5832274F312028A
:100FA300FB8A0C8B0D89097E727FF57508008E8292
:100FB3008F83E064027034750A04750B00780A129B
:100FC3000442AC0CAD0D12135E1202BAEA7001EBCF
:100FD30070198E828F83A3A3A3A3A3A3A3A3A3A305
:100FE300E065097006EEFAEFFB800912108A40BE35
:100FF3007A007B000210D67A627BF52274F112022A
:10100300FB750A00750B007E727FF5750800EA24F4
:1010130005F50EEB3400F50F8E828F83E0640260DA
:1010230005E06401701F750C04750D00780C120443
:1010330042AC0EAD0F12135E1202BAEA7001EB70EE
:10104300087900803D8E0A8F0B12108A40CAE50A88
:101053007002E50B60EB7401850A82850B83F075E2
:1010630008047509007808120442AC0EAD0FE50AB6
:101073002403FAE50B3400FB12349F74021202BA04
:1010830079017F0802035B12148294082274F3121D
:1010930002FB8A0A8B0B7E727FF57508008E828FA6
:1010A30083E064017024750C04750D00780C120440
:1010B300421213541202BAEA7001EB700DEEFAEF0A
:1010C300FB120EFDEEFAEFFB800912108A40CE7A76
:1010D300007B007F0602035BC082C083E98A828BA8
:1010E300836001A3A3A3A3A3A3A3A3A3A3E0FCECF3
:1010F30060078A828B83E0700479028008ECC394D2
:101103002040F67900020EF874F11202FB8A0C8B70
:101113000D8C0E8D0F7E727FF58A828B83A3A3A322
:10112300A3A3A3A3A3A3E0543FF5097508008E82EC
:101133008F83E0640260030211DBA3A3A3A3A3A331
:10114300A3A3A3E0650960030211DB743F65096093
:101153001E750A04750B00780A120442E50C240577
:10116300FCE50D12135B1202BAEA7001EB706975AC
:101173000801EE240BF582EF12134E850E82850FC4
:1011830083F0743F65096049E50C240A12134AA2EF
:10119300E750198E828F83A3A3A3A3A3A3A3A3A31F
:1011A300A3E0F9AA0CAB0D121FCD8025A2E35021B9
:1011B300EE2402F8EF3400F988828983E0FAE50C23
:1011C300240B12134A6A7006E488828983F0750837
:1011D30000120CAFA908800A12147C5003021131CB
:1011E300790002108574F11202FB74F81202A489CB
:1011F300088A0C8B0D7E727FF5750A08750B0078D3
:101203000A1204427C007D0074021202EFAA82AB30
:101213008312358674021202BA750908E50C6E70E2
:1012230003E50D6F70030212BE8E828F83E06402AA
:1012330060030212BEEE2409F50EEF3400F50F85AC
:101243000E82F583E0FAC3943E5070740165087012
:101253002890F55FE0C39A5062EAF8C3E498F8E493
:101263009400F9851082851183E58228F8E5833996
:10127300F9743D28F582E4803C750A04750B007807
:101283000A120442E50C2403FCE50D12135B12025F
:10129300BAEA7001EB7024850E82850F83E0F8852E
:1012A3001082851183E58228F8E5833400F974E020
:1012B30028F58274FF39F5837401F0EE240CFEEFF8
:1012C3003400FF1509E509600302121F79007A0053
:1012D3008A0A851082851183E582250AF582E583D2
:1012E30012134E703E74026508700674202AF9804A
:1012F3003F743DC39AF990F560E0FAE9C39A40431D
:1013030090F55FE0697003E014F0E9850C82850DC8
:1013130083A3A3A3A3A3A3A3A3A3F074081202BA52
:101323000210850AEAC3940840A67402650870C6D1
:1013330090F55FE0C399400B90F560E0C39950CA04
:10134300E980C6790080C3F582E50D3400F583E0BA
:1013530022E50A2405FCE50B3400FDEE2403FAEF35
:101363003400FB12344674022274F51202FBEAFEC7
:10137300EBFF7508028C0AEE250A1213C7A2E75089
:101383003C8D08EE25081213C769702E7508047585
:101393000900780812044212271BEAFCEBFD8E8237
:1013A3008F83A3AA82AB8312344674021202BAEA71
:1013B3007001EB70057508008003750801A9087FAB
:1013C3000402035BFAEF3400FB740C2AF582E43B5E
:1013D300F583E02274F81202FB7C727DF57E008CAB
:1013E300828D83E064027016EC240BF582ED1213F8
:1013F3004E69700AEE8A828B83F0790180110EECBC
:10140300240CFCED3400FDEEC3940940D279007F37
:101413000102035B74F31202FB8A0C8B0D89097EB4
:10142300727FF57508008E828F83E06402703E75CB
:101433000A04750B00780A120442EE2403FCEF340D
:1014430000FDAA0CAB0D12344674021202BAEA7004
:1014530001EB70198E828F83A3A3A3A3A3A3A3A3DA
:10146300A3A3E065097006EEFAEFFB800912147C72
:1014730040B47A007B000210D6121482940922052C
:1014830008EE240CFEEF3400FFE508C322E9FB79E4
:1014930000EA6B601FEBC39A500EEAC394FD40064B
:1014A300EBC39403400E0922EBC394FD4006EAC349
:1014B300940340F22274F51202FBECFEEDFF890A5D
:1014C30089087509007808120442EAFCEBFDEEFA7C
:1014D300EFFB1234E774021202BAE50A1204800227
:1014E300021215EC14121500158E828F83E0F8A3F7
:1014F300E0F98E828F83E8F0A3E9F080128E828F69
:101503008378081201AF8E828F8378081201BE029E
:1015130013C274F51202FB74FA1202A4EAFEEBFF83
:10152300ECFAEDFBE9120480020235153B15351583
:101533005715EEFCEFFD80388E828F83E0FCA3E02D
:10154300FD851082851183ECF0A3EDF08510828573
:10155300118380188E828F8378081201AF74021270
:1015630002EF78081201BE74021202EFAC82AD835F
:10157300890875090078081204421234E7740212CC
:1015830002BA74061202BA0213C279022274F71263
:1015930002FB75089C75090078081204427C007DE3
:1015A300007A4D7BF412358674021202BA75083440
:1015B30078081204427C007D007AE97BF4123586B8
:1015C30074021202BA7F0202035B74F51202FBE992
:1015D300FC780079007E007F007D0074016C700947
:1015E3007A4D7BF475090680077AE97BF475090265
:1015F30074012509F50A8808800EEAFEEBFF050849
:10160300EA241AFAEB3400FBE508C39509502B8A48
:10161300828B83E0601D74016C70E30DE0640460F1
:10162300DDA3E0F50BC3950A50D4EAF8EBF9850B7B
:101633000A80CB74026C70C28033EE7001EF7020AD
:10164300E87001E970067A007B008021E8FEE9FF7B
:101653008E828F83A3E0FAECF9121675E5088008F1
:1016630074012D8E828F83A3F0EEFAEFFB7F0402C9
:10167300035BC082C0837401697031784D79F4A231
:10168300AFE492E0FDC2AF7B0688828983E0600B02
:10169300A3E0FCEAC39C5003E014F0E8241AF8E941
:1016A3003400F91BEB70E2EDA2E092AFD083D0825D
:1016B3002274F11202FB74F61202A474041202EFF4
:1016C300EAF0A3EBF08C09851082851183E4F0A383
:1016D300F0F50EF50F74061202EFE4F0A3F07401B7
:1016E30069703B7E4D7FF4750C0774041202EFE0C2
:1016F3002401F8A3E03400F9E8FAE9FB74041202C8
:10170300EF181218D3FC74016C70368A828B83E055
:10171300F9120F5D8A0E8B0FEA7001EB70077A00E6
:101723007B000218C78A828B83A3A3A3A3A3A3A3CB
:10173300A3A3E0F508EA2403F8EB3400F974088066
:1017430043EC70098A828B83E0F508803F74026C56
:1017530070CC8A828B83E0F8A3E0F9E8240EF5824B
:10176300E93400F583E0F508E82405FAE93400FBE1
:1017730074081202EFEAF0A3EBF0E8240FF8E9345F
:1017830000F974061202EFE8F0A3E9F074016509A9
:1017930070057509018003750903750D06A2AFE491
:1017A30092E0FAC2AF8E828F83E06509600302186C
:1017B300A67404F0EAA2E092AFEE240BF582EF34B4
:1017C30000F583E0543F6508707274041202EF124F
:1017D30018D1FA74016A7014743F65087009E50E34
:1017E3002403F8E50F800FEE2407800874026A7063
:1017F30012EE2403F8EF3400F974021202EFE8F05A
:10180300A3E9F0750A04750B00780A120442740AFE
:101813001202EFE0FCA3E0FD74041202EF1218DBE6
:101823001202BA74041202EF1218D160367406124F
:1018330002EFE07002A3E0700CEA60278E828F83D0
:10184300E509F08063780A120442EE2407FCEF34C2
:1018530000FD74081202EF1218DB1202BAEA7001DB
:10186300EB70D98E828F83A3AA82AB83E0C3950CDE
:1018730050CA851082851183E07002A3E060118550
:101883001082851183E0F8A3E0F5838882E509F0EF
:101893008A828B83E0F50C851082851183EEF0A399
:1018A300EF809FEAA2E092AFEE241AFEEF3400FF2E
:1018B300150DE50D60030217A0851082851183E0E5
:1018C300FAA3E0FB740A1202BA7F0802035BE0F892
:1018D300A3E0F5838882E022E0FAA3E0FB1234461A
:1018E30074022274016970057A4D7BF4227AE97BD4
:1018F300F42274F81202FB74FF1202A4EAFEEBFF57
:1019030090F51DE07022120775EEFAEFFB120E241C
:10191300E9701E120AB8E4851082851183F0AA8249
:10192300AB83122384120B59740190F51DF0122C12
:101933005674011202BA7F0102035B74F71202FBB1
:101943008A828B83120D54E9F50879001230EA7408
:10195300036508600C740165087003120AB8120B62
:10196300597E007F00123095E9FA8A0970187A0AC5
:101973007B00120C05EE24010EEF3400FFC3EE943E
:10198300F4EF940140DF74036508600E7401650889
:101993007005120A958003120BA1E50970097901FC
:1019A3001230EA79018003F079007F0202035B744D
:1019B300F31202FB74FD1202A4890AEAFEEBFF8C08
:1019C300088D09120F5D7902EA7001EB6041191964
:1019D3001210DBE970397401851082851183F012CE
:1019E30002EFE50AF0750A00750B00780A1204424B
:1019F300780A1204427808120442EEFCEFFD7406E2
:101A03001202EFAA82AB83121C9A74061202BA74F2
:101A1300031202BA7F0602035B74F11202FBE9FBB5
:101A2300EAF9ECFEEDFF90F51DE07013EB1204B63E
:101A3300000205421A0A421A3D1A7902021B5FEBA1
:101A4300120480000A981A181B981AEE1A0A1B131C
:101A53001BDD1AD41A211B491BC71A601A7508000B
:101A63008E828F83A3AA82AB838E828F83E0702BB7
:101A7300E970178A828B83780C1201AFAA0CAB0D25
:101A8300AC0EAD0F122DAF021B5D7401697006120F
:101A93002DD1021B5D750802021B5D640170F6E91E
:101AA30070178A828B83780C1201AFAA0CAB0DAC32
:101AB3000EAD0F122A56021B5D74016970D7122AEC
:101AC30077021B5DEEFAEFFB12158DE9F508021B99
:101AD3005DEEFAEFFB1229C780F17401696003E937
:101AE30070B3EEFAEFFB12298580E0740369700985
:101AF300EEFAEFFB1227CA80D27402697097EEFAEE
:101B0300EFFB12284E80C4EEFAEFFB1228BF80BB16
:101B130012297480B6EEFAEFFB12260A80AD740127
:101B2300696003021A98750804750900780812049D
:101B330042122734EAFCEBFDEEFAEFFB12349F74FA
:101B4300021202BA80117401696003021A98122703
:101B530039E98E828F83F0750800A9087F08020394
:101B63005BC082C083E490F521F0742090F522F0ED
:101B730090F523EAF0A3EBF012271B90F51FEAF090
:101B8300A3EBF0120AF7E990F51EF060F6D083D0CC
:101B9300822274F11202FB89088A0E8B0F8C0A8D44
:101BA3000979021215CD8A0C8B0DA80CA90DE8FE3C
:101BB300E9FFE87001E970077A007B00021C4E74AC
:101BC3000B250A8E828F83A3A3F0EE240B121FB67C
:101BD30054804508F090F51EE0C0E0EE240DF58238
:101BE300EF3400F583D0E0F090F51EE004F060F8E8
:101BF300EE240CFAEF3400FB8A828B83E01220631D
:101C030054F8450954778A828B83F088828983E06C
:101C1300C2E7F0750B00780A120442AC0EAD0FEE6A
:101C2300240E0A0A121C5A1202BA75080475090016
:101C3300780812044290F51FE0FCA3E0FDEE2407B0
:101C4300FA121C5A1202BAEEFAEFFB800574021262
:101C530002BA7F0802035BEF3400FB12349F740265
:101C6300227F0202035B74F71202FB79011215CD86
:101C73008A088B09A808A909E8FEE9FFE87001E9C9
:101C83006013EE24020A0AEF3400FB1209AAEEFAEB
:101C9300EFFB121DCB80CA74F11202FB74FE120219
:101CA300A4851082851183ECF0A3EDF08A0A8B0BD7
:101CB30074111202EFE0F50CA3E0F50D7415120296
:101CC300EFE0F50EA3E0F50FE4850C82850D83F0BC
:101CD3007C0179011216B48A088B09AE08AF09EEAC
:101CE3007001EF7003021DB2750800750900850AC3
:101CF30082850B83E064017015A3E0F9120F5D8AFE
:101D0300088B09EA7001EB70057902021DB48E821B
:101D13008F83A3A3E024F5F50A850C82850D83F058
:101D2300750B00780A120442EE240EFCEF3400FD1A
:101D330074021202EFE0FAA3E0FB121C5E1202BA75
:101D4300E5087002E509600FEE2418121DB7F0EEE6
:101D53002419121DB7A3F074131202EFE07002A34B
:101D6300E060237508047509007808120442EE2424
:101D730007FCEF3400FD74151202EFE0FAA3E0FB59
:101D8300121C5E1202BAE50E7002E50F600C1222FD
:101D9300295407850E82850F83F08E828F83A3E0FB
:101DA300FA7901121675E48E828F83F0F980027935
:101DB30004021C50F582EF12208085088285098376
:101DC300A3A3A3A3A3A3A32274F11202FB74FE1281
:101DD30002A48A088B09122076543FFE750A047503
:101DE3000B00780A12044290F51FE0FCA3E0FDEA21
:101DF3002407FAEB12234E1202BAEA7001EB700BBE
:101E0300E4850882850983F0021C50121F6DA2E647
:101E130040EEEE60EBC39407502E121F59EEC3330E
:101E230024DCF582E434F5F583121F641202F9E928
:101E3300FA74016A7004740180C774026A70C1AADB
:101E430008AB0912208680C0743F6E600CEEC39409
:101E53002040ADEEC3943F50A7E5082403F50CE5FD
:101E6300093400F50D780A120442AC0CAD0D90F55F
:101E73001FE0FAA3E0FB12344674021202BAEA70BE
:101E830001EB7005750A018028750A00743F6E70B6
:101E930071750E04750F00780E1204421227C5AC3B
:101EA3000CAD0D12344674021202BAEA7001EB70E3
:101EB30051851082851183AC82AD83121F59121193
:101EC3000BE97003021E03E50A7007AA08AB0912A7
:101ED30020867401850882850983F090F523E070DC
:101EE30002A3E07003021E0B851082851183E0F9C3
:101EF30090F523121F641202F9E96003021E030224
:101F03001E0BE508240CFEE5093400FF74011202E0
:101F1300EFAC82AD83AA0CAB0D122C59EA7001EB26
:101F23006023121F59122251E96003021E03121F7C
:101F33006DA2E75003021E038E828F83E0C2E7F097
:101F43007403021E048E828F83E054306420600386
:101F5300021E42021E03E5082402FAE5093400FBCF
:101F630022E0F8A3E0F583888222E508240BF582BA
:101F7300E5091220802274F81202FBEAFEEBFFE966
:101F8300FAEE240C121FB612205AFBE04B8882890A
:101F930083F0EAF9EE2402FAEF3400FB1208E0E9D9
:101FA3007004790080027909E48E828F83F07F01C7
:101FB30002035BF8EF3400F988828983E022C08250
:101FC300C08390F521E0F9021B9074F71202FB74B1
:101FD300E81202A4E9FE122076FF740A1202EFE06F
:101FE30012205AFCE04C122063C0E0740A1202EF84
:101FF300D0E0F07508047509007808120442EA2459
:1020030005FCEB3400FD74031202EF12206F120281
:10201300BA780812044290F51FE0FCA3E0FD7407B0
:102023001202EF12206F1202BA74091202EFE05487
:10203300C04E1222331202EFEFF0740A1202EFE0E5
:102043005478F0440BF074091202EFE0543F12226B
:102053003E1202BA021C6454CF7583F575822222A4
:1020630054BF7583F5758221FCE04C22AA82AB83B1
:10207300021C5EEA240BF582EB122080223400F569
:1020830083E02274F81202FBEAFEEBFF122229FA24
:1020930074075AFB74FF2BFCEB601774F85A4CF06F
:1020A3007A017B00120C057901EEFAEFFB121F791E
:1020B3008006E48E828F83F0021FB174F31202FB59
:1020C30074FD1202A48A0C8B0D8908EA2508F8EB2B
:1020D3003400F9740C28F582E439F583E0F50974CA
:1020E30002851082851183F074011202EFEAF0A3D6
:1020F300EBF07C02851082851183AA82AB83790180
:102103001216B48A0A8B0BA80AA90BE8FEE9FFE8AA
:102113007001E96006EEFAEFFB805179021218E6CE
:102123008A0A8B0BAE0AAF0B7508008E828F83E091
:102133006403702D750A04750B00780A120442E5D6
:102143000C2405FCE50D3400FD1223491202BAEA02
:102153007001EB700CEE240B12222C543F650960C6
:10216300B412233B940240C37A007B00740312022F
:10217300BA7F0602035B74F51202FB74E81202A431
:10218300EAFEEBFFEE240E12222CF508740A12026B
:10219300EFE0548F7583F5758221FAE04A4420C03D
:1021A300E0740A1202EFD0E0F0750A04750B0078B0
:1021B3000A120442EE2405FCEF3400FD74031202FC
:1021C300EF12206F1202BA780A120442EE240FFCB7
:1021D300EF3400FD74071202EF12206F1202BA747B
:1021E300091202EFE054C04508FA12223390F51E9B
:1021F300E0C0E0740B1202EFD0E0F090F51EE004B3
:10220300F0740A1202EFE05471F0D2E0F074BF5A96
:102213004480C0E074091202EFD0E012223E1202A1
:10222300BA7F0402035BEE240CF582EF12208022B6
:10223300F0740B851082851183F022F079008510EC
:1022430082851183AA82AB831208E074182274F189
:102253001202FB8A0A8B0B8A828B83E024F8F5092E
:1022630079011218E68A0C8B0DAE0CAF0D750800C0
:1022730085098285820E8E828F83E0640360030268
:10228300232CA3A3E0F874F828F874FF3400F9E5CD
:102293000E687001E9600302232C750C04750D00B0
:1022A300780C120442850A82850B83A3AC82AD832A
:1022B3001223491202BAEA7001EB706D780C120412
:1022C30042E50A2405FCE50B3400FDEE2407122346
:1022D3004C1202BAEA7001EB704F750C01780C12C4
:1022E3000442E50A2409FCE50B3400FDEE240B123D
:1022F300234C1202BAEA7001EB702E74FE250EF520
:102303000C74FF3400F50D780C120442E50A240B1B
:10231300FCE50B3400FDEE240D12234C1202BAEA45
:102323007001EB70047901800C12233B9406500377
:102333000222797900021C550508EE241AFEEF34B7
:1023430000FFE508C322EE2403FAEF3400FB123446
:102353004674022274F71202FB75080175090078AE
:10236300081204427C007D007A257BF512358674C1
:10237300021202BA120AF7E990F526F07F0202036D
:102383005BC082C0838A828B837A02E0F9C39404A0
:10239300500D120D607C257DF574011201DAFAEA05
:1023A300F9D083D0822274F31202FB74FE1202A4CA
:1023B3008A088B097E007D017C0090F526E0F912E6
:1023C300136CE9FB7007120CAF0E02248074016BCF
:1023D30070030E80F474026B6003022480E508240A
:1023E3000CF582E5093400F583E0640260030224FE
:1023F300807482851082851183F0E508240DF582AF
:10240300E5093400F583E0C0E074011202EFD0E087
:10241300F07D017C02851082851183AA82AB8379CA
:1024230005121B958A0A8B0BA90BEA7001E9604D13
:10243300750C048E0D780C120442E5082405FCE5A6
:10244300093400FDEA24030A0A0AE93400FB1234C2
:102453009F74021202BAE508240BF582E5093400E1
:10246300F583E0C0E0E50A240DF582E50B3400F5C1
:1024730083D0E0F07900AA0AAB0B121F79EEF9744E
:10248300021202BA7F0602035B74F11202FB74F1BB
:102493001202A48A0E8B0F7E00750801120D54E9F7
:1024A300F509851082851183AC82AD837583F5753B
:1024B300822574011201DA12276C8A0C8B0DEA70E3
:1024C30001EB70091227C58A0C8B0D8E087F0074EF
:1024D300011202EFEFF0AA82AB8312238474041279
:1024E30002EFE50CF0A3E50DF074021202EFA882EF
:1024F300A98374061202EFE8F0A3E9F0740812024C
:10250300EF7402F074091202EF7405F07402120200
:10251300EF7402F090F526E0C0E074031202EFD0EE
:10252300E0F074041202EFAC82AD837A03790212F5
:102533001A1C74091202EF7405F074021202EFA858
:1025430082A98374061202EFE8F0A3E9F0740B1278
:1025530002EFA882A98374041202EFE8F0A3E9F062
:1025630074036509600C740165097003120AB812DB
:102573000B59120C2774036509600E740165097009
:1025830005120A958003120BA174041202EFAC82A8
:10259300AD837A027902121A1CE9703BE5086026C2
:1025A300750A04750B00780A120442AC0CAD0D7465
:1025B3000D1202EFAA82AB8312344674021202BADE
:1025C300EA7001EB70118E0AE50E250AF582E50F1C
:1025D3003400F583EFF00E90F526E004F0EE60048E
:1025E300E508700A0FEFC3940450030224D2851048
:1025F30082851183AA82AB83122384EEF9740F12AE
:1026030002BA7F0802035B74F81202FB74F8120229
:10261300A4EAFEEBFFE91204B60003002926019E9B
:10262300260DAD26C4268E828F83E0FAC394045010
:10263300617401851082851183F01202EFEAF012B2
:1026430027C574021202EFEAF0A3EBF0851082852E
:102653001183A882A98374041202EFE8F0A3E9F0BE
:1026630074061202EF7402F074071202EF7405F09D
:1026730074021202EFAC82AD837A037902121A1C40
:102683007AFA7B00120C05AC82AD837A03790212CD
:102693001A1CEEFAEFFB122384802890F525EEFC3A
:1026A300EFFD74011201DAF980198E828F83A3E0A2
:1026B300FAA3E0FB12248CE98E828F83F0790080E9
:1026C30002790274081202BA7F0102035B74F712E3
:1026D30002FB75080475090078081204427C007D2A
:1026E300007A277BF512358674021202BA90F52F11
:1026F300E0701B78081204427CEA7DF57A2B7BF5A7
:1027030012349F74021202BA740190F52FF0800301
:102713001202BA7F0202035BC082C08390F52FE0EE
:1027230060067A2B7BF580047AEA7BF5D083D0822E
:10273300227AEF7BF52279022274F71202FB7900E9
:1027430090F52FE070217508048909780812044276
:10275300EAFCEBFD7A2B7BF512349F74021202BA6A
:10276300740190F52FF0F980AA74F71202FB74FC40
:102773001202A475080475090078081204427C004B
:102783007D0074021202EFAA82AB831235867402B3
:102793001202BA780812044274021202EFAC82AD3C
:1027A300837A277BF512344674021202BAEA700167
:1027B300EB70067A007B0080047A277BF5740402B1
:1027C30027137A4E7BF52274F51202FBEAFEEBFF28
:1027D3008E828F83A3A3A3A3A3E0F91204B60105FA
:1027E30006EC270103EC27F0277D0180027D038E91
:1027F300828F83A3A3A3A3E0FC8E828F83A3A3E092
:10280300FAA3E0FB121B958A088B09A909EA700158
:10281300E96031750A04750B00780A1204428E824E
:102823008F83E0FCA3E0FDEA24030A0A0AE93400EB
:10283300FB12349F74021202BA7901AA08AB09127F
:102843001F79800279037F0402035B74F71202FB92
:1028530074FD1202A4E4851082851183F08A828BB1
:1028630083A3A3A3A3A3E0C0E074011202EFD0E00B
:10287300F0EA2406F508EB3400F50978081204425F
:102883008A828B83120453EA2404F508EB3400F59F
:102893000978081204428A828B83A3A3E0FCA3E095
:1028A300FD74061202EFAA82AB83121C9A740612FD
:1028B30002BA74031202BA7F0202035B74F51202B6
:1028C300FBEAFEEBFF7508007404697009120BA1A3
:1028D300120A9502296F7405697009120AB8120B5E
:1028E3005902296F74066970398E828F83E0F91259
:1028F3000F5DEA7001EB700479028072750A02754C
:102903000B00780A120442EA2407FCEB3400FD8E24
:10291300828F83A3AA82AB8312349F74021202BAFA
:10292300804A740769700B120CC2E98E828F83F0A0
:10293300803A74086960A77409697005120BA18055
:102943002B740A6970238E828F83E0120480000245
:10295300FB2863295F295B297902800679018002BC
:102963007900120D9279008005750802A9080228E2
:1029730049740B697004790180027902122CD179B0
:10298300002274F71202FBEAFEEBFF7508027401E2
:10299300697020750804750900780812044212272B
:1029A3001BEAFCEBFDEEFAEFFB12349F74021202FA
:1029B300BA8009E9700912273CE96003750800A988
:1029C300080228BA74F71202FBE9FC8A828B83E0BF
:1029D300F9740E6C60047902801374FF6960F71256
:1029E3000F5DEA7001EB60EE120F5179000228BA15
:1029F30074F51202FB90F5F378081201AF7583F5B5
:102A0300758230780812019A701090F5F7780812E1
:102A130001AF90F53078081201BE90F534EAF0A3C7
:102A2300EBF0120AF7E990F536F090F5FB7808120F
:102A330001AFAA08AB09AC0AAD0B122DAF7401901C
:102A4300F539F0120FFA90F537EAF0A3EBF07F04B3
:102A530002035B74F51202FB8A088B098C0A8D0B47
:102A630090F5F3780812019A600890F5307808120F
:102A730001BE80DA74F51202FBEA7001EB6011907B
:102A8300F53078081201AF8A828B8378081201BE71
:102A930080BC74F31202FB74F41202A4EAFEEBFF8F
:102AA3008E828F83E0F874F528F874FF3400F9C33D
:102AB300E89408E99400A2D265D0334018EE2413B9
:102AC300F582EF3400F583E0F508122739E965084C
:102AD3006003022C4C790474011202EFAC82AD83C3
:102AE300EE240EFAEF3400FB1214B8C082C08390B8
:102AF300F53078081201AFD083D082780812019A9A
:102B03006003022C4C74011202EFAA82AB83122DD4
:102B1300D1790474071202EFAC82AD8374011202FF
:102B2300EFAA82AB83121515740B1202EFE4F07453
:102B3300051202EF7481F0EE240DF582EF3400F5F7
:102B430083E0C0E074061202EFD0E0F07D017C0761
:102B530074051202EFAA82AB837903121B958A08CC
:102B63008B09A808A909880A890BE87001E9700391
:102B7300022C4CEE2405F508EF3400F509750C041E
:102B8300750D00780C120442AC08AD09EA24030A5F
:102B93000A0AE93400FB12349F74021202BAEE24CB
:102BA30012F582EF3400F583E0601FEEFAEFFB12BB
:102BB3000FFFE9601590F534E07002A3E0600B7934
:102BC3000090F534122CC81202F98E828F83A3A3CE
:102BD300A3A3A3A3A3A3A3A3E0A2E65063851082A8
:102BE300851183AC82AD83AA08AB09122C59EA7014
:102BF30001EB704790F537E0FEA3E0FF8E828F83F1
:102C0300E0FAC394035042780C120442AC08AD09B5
:102C1300EA75F005A4F8A9F090F537E028FAA3E0E7
:102C2300398A82F583A3AA82AB8312349F7402127A
:102C330002BA8E828F83E004F08005E0F9123386B6
:102C43007900AA0AAB0B121F79740C1202BA7F0621
:102C530002035B79002274F11202FB8A0E8B0F8C44
:102C6300088D0990F537E02401FEA3E03400FF75D9
:102C73000A00800A050AEE2405FEEF3400FF90F5F2
:102C830037122CC8E0FAE50AC39A5030750C047564
:102C93000D00780C120442AC0EAD0FEEFAEFFB12EE
:102CA300344674021202BAEA7001EB70C7850882D7
:102CB300850983E50AF0EEFAEFFB80047A007B00D6
:102CC3007F0802035BE0F8A3E0F583888222C082D9
:102CD300C083740169700474018001E490F539F0D4
:102CE300D083D0822274F81202FBEAFEEBFF750850
:102CF300007D017C0090F536E0F912136CE9FB705E
:102D030008120CAF750801804D74016B70057508CE
:102D130002804374026B703E90F539E06038EE2414
:102D23000CF8EF3400F98E828F83E0FA74F52AFAF7
:102D330074FF3400FB74076A7001EB700974018837
:102D4300828983F0800988828983E064017007EEB9
:102D5300FAEFFB122A95A9087F0102035B74F512AF
:102D630002FB90F5F378081201AF7583F575823A8B
:102D7300780812019A701090F5FF78081201AF904D
:102D8300F53A78081201BE120AF7E990F548F060A7
:102D9300F675080875090078081204427C007D0066
:102DA3007A3F7BF51235867402022DF674F5120212
:102DB300FB8A088B098C0A8D0B90F5F378081201B6
:102DC3009A600890F53A78081201BE022DF974F55D
:102DD3001202FBEA7001EB601190F53A78081201D8
:102DE300AF8A828B8378081201BE022DF912349FB9
:102DF3007402221202BA7F0402035B74F11202FB13
:102E030074F81202A48A088B098A828B83E0F8740F
:102E1300F528F874FF3400F9C3E89409E99400A293
:102E2300D265D033401B122739E9FAE5082414127E
:102E33002FE26A600C790274081202BA7F08020357
:102E43005B7904E91202EFAC82AD83E508240EFA44
:102E5300E5093400FB1214B8C082C08390F53A78B8
:102E63000C1201AFD083D082780C12019A70C6E5A0
:102E7300082412122FE2F50AE5082405F50EE509E8
:102E83003400F50FA90AAA0EFB120F9F8A0C8B0DB3
:102E9300A80CA90DE8FEE9FFE87001E960491230CA
:102EA30006C0E074011202EFD0E0123019C0E074E2
:102EB300021202EFD0E0F0121FC174031202EFE915
:102EC30012302D7001E9601A750A04750B00780A37
:102ED300120442122FF51202BA7900AA08AB0912A2
:102EE3001F797901022E3A90F53EE07003022E38E5
:102EF300AA08AB091210908A0C8B0DAE0CAF0DEE25
:102F03007001EF700B120EC48A0C8B0DAE0CAF0D5B
:102F1300EE7001EF60CC750C04750D00780C120493
:102F230042AC0EAD0FEE2403FAEF3400FB122DF08A
:102F33001202BAEEFAEFFB79021211E8E97009EE18
:102F4300FAEFFB120F51809A90F547E0640860EFA7
:102F5300E0F50C7401250C122FECC0E0E50C243FC6
:102F6300F582E434F5F583D0E012301EA3E50AF0D0
:102F730074028E828F83F0A3A882A983E5082413A9
:102F8300122FE26440700474018002740388828902
:102F930083123019C0E074021202EFD0E0F0121F66
:102FA300C174031202EFE9F0123006C0E07401129B
:102FB30002EFD0E012302D7001E96083750A0475C9
:102FC3000B00780A120442122FF51202BA7900AAF2
:102FD30008AB09121F79E96003022F42022EE5F5BF
:102FE30082E5093400F583E022F0EE240BF582EF4D
:102FF30080F1AC0EAD0FEA24030A0A0AE93400FBA0
:10300300022DF07481851082851183F0E508240D6B
:10301300F582E50980CD12301EE022F08E828F8387
:10302300A3A3A3A3A3A3A3A3A322F0850882850933
:1030330083A3A3A3A3A3A3A3A3A3A3E05407FA7403
:1030430003C39AFD7C04851082851183AA82AB8316
:103053007902121B958A088B09A909EA2274F812CE
:1030630002FBEAFEEBFF7D017C0090F548E0F912DC
:10307300136CE9FB7007120CAF7901801074016BBC
:10308300700479028007EEFAEFFB1231017F01022F
:10309300035B74F71202FB7900A2AFE492E0FAC279
:1030A300AF90F547E06036E014F0EAA2E092AF0992
:1030B3001230EA90F53FE0F97C0090F547E0FAEC36
:1030C300C39A501E8C08E508243FFAE434F5FB8AC2
:1030D300828B83A3E08A828B83F00C80DDEAA2E0FB
:1030E30092AF7F0202035BC082C083E970047A015E
:1030F30080027A00EA90F53EF0D083D0822274F306
:103103001202FB74FD1202A4EAFEEBFF750800EE47
:10311300240CF8EF3400F98E828F83E0FA74F52AD9
:10312300FA74FF3400FB74086A7001EB70097401D0
:1031330088828983F0801088828983E01204800169
:103143000105324A316A31EEFAEFFB122DFEE9FA3C
:1031530090F53EE0600302320574016A70030232A7
:1031630005750802023205750908EE2405F50CEF12
:103173003400F50DEE240EF582EF122FE6F9AA0CBA
:10318300AB0D121417EA7001EB6006120F517509AB
:10319300007482851082851183F0EE240DF582EF91
:1031A300122FE6C0E074011202EFD0E0F0740212B5
:1031B30002EFE509F07D037C03851082851183AA64
:1031C30082AB837902121B958A0A8B0BA80AA90B7F
:1031D300E8FEE9FFE87001E96028750A04750B0051
:1031E300780A120442AC0CAD0DEE24030A0A0AEF6E
:1031F3003400FB122DF01202BA7900EEFAEFFB1243
:103203001F79A90874031202BA7F0602035B74F7DD
:103213001202FB120AF7E990F54CF07508037509E1
:103223000078081204427C007D007A497BF5123550
:103233008674021202BA7F0202035B74F71202FB66
:10324300EAFEEBFF7D017C0090F54CE0F912136C74
:10325300E9FB7007120CAF7901804874016B7004AD
:103263007902803F75080475090078081204421238
:10327300271BEAFCEBFD8E828F83A3AA82AB83120A
:10328300344674021202BAEA7001EB70D3EE240CD6
:10329300F582EF12337564017007EEFAEFFB123219
:1032A300A87900809174F61202FB74FF1202A4EA5B
:1032B300FEEBFFEE240DF582EF123375F50A851050
:1032C30082851183AC82AD83EE2405FAEF3400FBD3
:1032D300122C59EAF8EBF9EA7001EB700302336739
:1032E300E82404F508E93400F50912337BE070168D
:1032F300850882850983E50AF0851082851183128A
:10330300337B74018012AA0A850882850983E0F958
:10331300121490E9604EE50AF07902EEFAEFFB121F
:1033230020BE8A088B09A808A909E87001E9602D65
:1033330088828983A3E0FA7901121675E508240CC3
:1033430012337154F84401F0E508240B123371D29F
:10335300E7F07900AA08AB09121F798007EEFAEFAC
:10336300FB12217974011202BA7F0302035BF58217
:10337300E5093400F583E022E02449F582E434F5DD
:10338300F5832274F71202FBE912337CE4F0023274
:1033930039C082C083120AF7E990F54DF0D083D08B
:1033A30082227F0402035B74F51202FBEAFEEBFF49
:1033B3007D017C0090F54DE0F912136CE9FA70077A
:1033C300120CAF7901807574016A70047902806C04
:1033D300EE240CFAEF3400FB8A828B83E0640170E5
:1033E300597D038E828F83E024F5FC7901121B95AE
:1033F3008A088B09A909EA7001E9603E750A047518
:103403000B00780A120442EE2405FCEF3400FDEAB7
:1034130024030A0A0AE93400FB12349F74021202DD
:10342300BAE508240EF582E5093400F583E0D2E716
:10343300F07900AA08AB09121F7979000233A5229B
:1034430079002274F81202FB74081202EFE0F8A369
:10345300E08015A3AA82AB838C828D83A3AC82AD5B
:1034630083E824FF18E934FFF9E87001E960248A4E
:10347300828B83E0FE8C828D83E06E8A828B8360F5
:10348300D2E0F88C828D83E0FAE8C39AFAE49400E0
:10349300FB80047A007B007F0102035B74F7120256
:1034A300FB74091202EFE0FEA3E0FFEAF8EBF980F8
:1034B300188C828D83E088828983F0A3A882A983F4
:1034C3008C828D83A3AC82AD838E088F0974FF2514
:1034D300081E74FF3509FFE5087002E50970D27F05
:1034E3000202035B74F71202FB74091202EFE0F8A5
:1034F300A3E0F9EAFEEBFF8A088B09C3EA9CEB9D84
:10350300405EEC28F582ED39F583C3E5829508E545
:10351300839509404BEA28FAEB39FBAC82AD831261
:1035230035757002E5096041EC24FF1CED34FFFDA5
:10353300EA24FF1AEB34FFFB8C828D83E08A828BB3
:1035430083F080DB8C828D83E08A828B83F08C8294
:103553008D83A3AC82AD838A828B83A3AA82AB8340
:103563001235757002E50970DBEEFAEFFB7F02029C
:10357300035B8808890974FF25081874FF3509F966
:10358300E5082274F81202FB74081202EFE0F8A3B4
:10359300E0F98A828B838003ECF0A3E8FEE9FF74F1
:1035A300FF2E1874FF3FF9EE7001EF70EB7F0102FD
:0235B300035BB8
:0000D3012C
:00000001FF
