:030000000200D328
:1000830002086B00000080FB1200E2B900030200CB
:10009300CDE490F3FF78B479018002F0A3D8FCD9C2
:1000A300FA90F4B2AA82AB839000E5785479018088
:1000B30015E493A3AC82AD838A828B83F0A3AA82D7
:1000C300AB838C828D83D8E9D9E712051812008699
:1000D30075D00075813F7510FF7511F302008B79A0
:1000E3000122FFFFFFFF0367CAD4FF0000000100E6
:1000F30000000000000000000000000000000000FD
:1001030000000000000000000000000000000000EC
:1001130000000000382360226E1FC723201BCF225C
:10012300795634120201010100000000000807069D
:100133000504030201E066701008A3E066700A0874
:10014300A3E066700408A3E06622E0F608A3E0F6E5
:1001530008A3E0F608A3E0F622E6F008A3E6F00819
:10016300A3E6F008A3E6F022CAC0E0E6F0A308DAAB
:10017300FAD0E0FA22CAC0E0E0A3C582CCC582C5AA
:1001830083CDC583F0A3C582CCC582C583CDC5838A
:10019300DAE6D0E0CA22C3E498F8E499F91201DA66
:1001A3008026C3E49AFAE49BFBE920E7E91201DA2B
:1001B300E498F8E499F922C3E498F8E499F9120170
:1001C300DAE498F8E499F9C3E49AFAE49BFB22EBA6
:1001D30020E7CFE920E7E0B90010BB0008E88AF088
:1001E30084F8AAF022E4FBC8FA22EB70227B10C841
:1001F30033C8C933C9335007C39AC3DBF280069AA5
:1002030050012ADBEAC833F4C8C933F4C9FA2275AA
:10021300F008E4C833C8C933C933C99AC99B500429
:10022300C92AC93BD5F0ECFBC833F4C8E4C9FA22A8
:10023300600C08C6C313C618C613C6D5E0F422253E
:100243001010AF08F510400215118008F510400298
:100253001511D2AF22C0D0251010AF08F5105002EF
:1002630005118008F51050020511D2AFD0D0222518
:1002730010F58210AF08F510400215118008F51033
:1002830040021511D2AF851183222510F582E43582
:1002930011F58322E4732510C582C0E0E51134FF14
:1002A300C583C0E0E510C3958224F9F8E4C5A885A9
:1002B3008311858210C5A8E8CEF0A3E520F0A378CA
:1002C30008E608F0A3DEFAEFF0A3E58124FBF8E6E5
:1002D30008F0A3E608F0A30808E608F0A3E608F090
:1002E300A315811581D0E0FED0E0F815811581E8D2
:1002F300C0E0EEC0E022851183851082E0A3FEE01A
:10030300A3F5207808E0A3F608DFFAE0A3FFE0A353
:10031300C0E0E0A3C0E0E0A3C0E0E0A3C0E0E4C528
:10032300A8858210858311C5A8D083D08222C0D02E
:100333002510C582C0E0E51134FFC583C0E0E51098
:10034300C3958224F310AF0885831185821080083A
:10035300858311858210D2AFC8F0A3E9F0A3EAF038
:10036300A3EBF0A37908E709F0A3D8FAECF0A3ED27
:10037300F0A3EEF0A3EFF0A3D0E0F0A3D0E0F0A35E
:10038300D0E0F0A3E520F0A3E5F0F0A322851183EC
:10039300851082E0C0E0A3E0F9A3E0FAA3E0FBA3A9
:1003A3007808E0F608A3DFFAE0FCA3E0FDA3E0FE93
:1003B300A3E0FFA3E0C0E0A3E0C0E0A3E0F5D0A387
:1003C300E0F520A3E0A3F5F0E4C5A88583118582B9
:1003D30010C5A8D082D083D0E0F8D0E03274028078
:1003E30000C0E0F404120272D0E012016B22740226
:1003F3008000CCC0E0EDC0E0E510C39CCCAD115053
:10040300011D10AF068C108D1180068C108D11D23A
:10041300AF120178D0E0FDD0E0FC22D083D082C5BA
:10042300F0E493A3C5F0C395F0F5F0E493A3C3956B
:10043300F04005E5F0048001E475F002A42582F59F
:1004430082E5F03583F583E493A3C0E0E493C0E051
:1004530022D083D082CCC0E0E493A3600612047E52
:100463001470FAE493A3600612049D1470FAD0E0AA
:10047300FCE493A3C0E0E493C0E022C0E0E493A3D0
:10048300D39C5010E493A3C39C400AD0E0D0E0D0A7
:10049300E0020471A3A3A3D0E022C0E0E493A36C21
:1004A3007009D0E0D0E0D0E0020471A3A3D0E02231
:1004B300C082C08374FE1202421205068510828533
:1004C300118374AAF0A3E4F0851082851183E07090
:1004D30004C2AF80FE7402120258D083D08222532A
:1004E300CBEFC2D843CB0475F00DEAA4F5CD74FC71
:1004F30055CB4402F5CB43CB10A2D850FC53CBEFE2
:10050300C2D82212050D438F202243FE0143FE0869
:10051300D290D293221204B37A007B00121540A228
:1005230093500579021205D8A2905005790112055E
:10053300D8A2815004A28550F812054180FE74F8B8
:1005430012029974FE12024279021205D87901123D
:1005530005D87C007D007A0479031216BC7E057AE7
:10056300E87B03120AB71EEE70F579011205D8A2D3
:10057300815004A28550031205EE7C007D007A05AC
:1005830079031216BC7C007D007A0879031216BC2D
:100593007AFA7B00120AB77C007D007A0479031291
:1005A30016BC851082851183AC82AD83740112025F
:1005B3008DAA82AB8379FF121652E970A08510824F
:1005C300851183E06097740112028DE06401708DE0
:1005D3001205EE80887401697006639001E590222C
:1005E3007402697005639008E59022C082C0837429
:1005F300FF1202427C007D007A0579031216BC7457
:1006030001851082851183F07A647B00120AB77C1E
:1006130001AA82AB8379FF12157879021205D8807B
:10062300E774F71202997508187509007808120320
:10063300E012093512025890DF36E054EF6481600E
:1006430004C2AF80FE90DF37E0C394045004C2AF0E
:1006530080FE53BEFBE5BEA2E650FA53C6BF43BEBF
:100663000474F4F5D575D41E743C90DF13F0741440
:1006730090DF14F0741590DF02F0740590DF04F03E
:1006830074FE90DF2EF0740990DF25F0740A90DF7A
:1006930007F0E490DF08F0745D90DF09F074449094
:1006A300DF0AF074EC90DF0BF0742D90DF0CF07424
:1006B3003B90DF0DF0747390DF0EF0742390DF0F27
:1006C300F0743B90DF10F0E490DF11F0741D90DFC5
:1006D30015F0741C90DF16F074C790DF17F0E490E8
:1006E300DF18F074B290DF19F074B690DF1AF0746B
:1006F3001090DF1BF0120993741190DF1FF07488C0
:1007030090DF23F0743190DF24F0740290F3FFF054
:100713007900120C127E007F0075E1027508E875FE
:10072300090390DF3CE0545070237A407B00120AA7
:1007330070E50824C0F508E50934FFF509C3E508A9
:100743009401E5099400A2D265D03350D57A10EE16
:10075300C333FEEF33FF90DF3AE0A2E0E492E04ED2
:10076300FE1AEA70EA74804EF5BCEFF5BC120A2457
:1007730090F41A7433F0A3E4F090F41C74E2F0A341
:100783007404F0439A01D2AF020AB274F7120299C9
:10079300EAFEEBFF890975080090F3FFE06401703E
:1007A30004C2AF80FE120A24EF90F41EF0EE90F420
:1007B3001FF074DF90F420F074D990F421F07420CA
:1007C3001209F6744190F425F0E509701143D6013E
:1007D30075E103E5E9A2E450FA53E9EF806474019B
:1007E30065096004C2AF80FE750904801C120A24E7
:1007F3001209A5E9540F04FE90F41CE0FAA3E0FBF0
:10080300120A701EEE70F1150943D60175E10290CC
:10081300DF3BE0640D70F87EE87F0390DF3CE0543B
:10082300507005120BA350F375E10390DF3BE064B6
:100833000D6008E5E9A2E450FA809EE50970AE7503
:100843000801120A2490F3FFE0640370031209AB5A
:10085300A908020AB2C082C08390F400EAFCEBFD4F
:100863007418120178020A45C0E074F11203319042
:10087300F3FFE064036004C2AF80FEE5E9A2E45045
:100883002BE5E9A2E6502553E9EF53E9BF539BFC5F
:10089300E59B120A2475081675090078081203E00F
:1008A3001209351202581209AB02093053E9EF530A
:1008B3009BFCE59B75080275090078081203E0901C
:1008C300F400E0042400FCE434F4FD7A167BF41213
:1008D300246B7402120258E0FA90F417E0A2E75076
:1008E3003B8A0874012508F8E43400F9E89417E911
:1008F3009400C365D0335024EAC3940B401E7A019D
:100903007BF4120C92E9701490F416E0F9120BBF09
:10091300E9F090F417E0C2E7F01218617508167851
:10092300081203E012093512025843D6017F02026E
:1009330003907C007D007A007BF412250A74022266
:1009430074F812029990F3FFE064016013A2AFE41C
:1009530092E0FEC2AF120A537401F0EEA2E092AF2E
:10096300020B9EC082C083E5C6A2E65004C2AF80DC
:10097300FE90F3FFE064017014120993740290F384
:10098300FFF075E10490DF3BE0640170F8020A4573
:1009930074EA90DF1CF0740A90DF1DF0E490DF1E10
:1009A300F02243B404A9BC2274F712029974DF90B5
:1009B300F41EF074D990F41FF074F490F420F074E2
:1009C3000090F421F074801209F6741190F425F06C
:1009D30075D68175081675090078081203E01209A7
:1009E3003512025843D601120A4A75E102439110A7
:1009F300020AB290F422F0741890F423F074139066
:100A0300F424F022C082C08390F3FFE064017004F9
:100A1300C2AF80FEE0640360067403F01209AB808A
:100A230021C082C0835391EF75E10490DF3BE06402
:100A33000170F875D68153D1FE120A4A800490DF03
:100A430003F0D083D08222539BFCE59B53E9EF2232
:100A5300C082C08390F3FFE064017004C2AF80FEE4
:100A6300E064037006120A247402F080D574F7124E
:100A730002998A088B0974047808120233AE08AF0E
:100A830009EA7001EB6028A2AFE492E0F508C2AF77
:100A93007A107B001204E2E508A2E092AFEEF8EFD1
:100AA300F974FF281E74FF39FFE87001E970D87FDD
:100AB300020202F974F8120299EAFEEB800E7AF44C
:100AC3007B01120A70EE24FF1EEF34FFFFEE70016C
:100AD300EF70EB020B9E74F612029990F41AE0F594
:100AE30008A3E0F509A2AFE492E0FAC2AF74019063
:100AF300F419F0EAA2E092AF800CE50824FFF508B0
:100B0300E50934FFF509E5087002E50960357E1F44
:100B13007F00A2AFE492E0F50AC2AF7A107B001225
:100B230004E2E50AA2E092AF90F418E07012EEF846
:100B3300EFF974FF281E74FF39FFE87001E970D2E2
:100B4300E060B7A2AFE492E0FAC2AFE490F418F029
:100B530090F419F0EAA2E092AF7F030202F9C08297
:100B6300C08390F419E06006740190F418F0020A4F
:100B73004574F812029990F3FFE064036004C2AF76
:100B830080FE7EE87F0390DF3CE054507005120B3B
:100B9300A350F390DF3AE0F9120BBF7F010202F991
:100BA3007A407B00120A70EE24C0FEEF34FFFFC3CD
:100BB300EE9401EF9400A2D265D03322C008C0099D
:100BC300E9C39480E94019F879FF7A027B001201A6
:100BD300D28808890974B92508F874FF3509800B90
:100BE300C313F874B928F874FF3400F9C3E8948088
:100BF300E994FFA2D265D03350027880E8F9D00996
:100C0300D00822C082C08390F3FFE0F9020A457442
:100C1300F71202998908E9C394044004C2AF80FE25
:100C2300120A24E50824B6F582E434F4F583E0904F
:100C3300DF06F090F3FFE0640370031209AB020ACE
:100C4300B2C082C0838A828B83E064FF700479011F
:100C5300801FE090DF05F07C008C82A8827900126F
:100C63000CE7C0E0120CDCD0E0F00CECC3940440C1
:100C7300E8020A45C082C08390F4BAE064FF7004BE
:100C8300C2AF80FE740190F426F07407020A417427
:100C9300F812029990F426E07004790080387E00FF
:100CA3007D007C008C82A882120CE7FF120CDCE032
:100CB3006F70010EE824B2F582E434F4F583E06F3B
:100CC30070010D0CECC3940440DA74046D60CB74B2
:100CD300046E60C67901020B9EE824BAF582E434FF
:100CE300F4F58322EA28F582EB3400F583E02274DD
:100CF300F7120299EAFEEBFF7508257509007808DB
:100D03001203E07C007D007ABF7BF412250A740293
:100D1300120258740390F4BFF0743D90F4C0F07461
:100D23002090F4C1F0740190F4C2F0121B23EEFA88
:100D3300EFFB12177112128D121B1F122322EEFAF0
:100D4300EFFB121DD31222BE121F8F1223C690F483
:100D5300D9E070347402F0740390F4DAF0743F90C5
:100D6300F4E1F090F4E2F074FF90F4E3F07508041A
:100D730078081203E0121BDEEAFCEBFD7ADB7BF45E
:100D8300122423740212025879007F020202F974BA
:100D9300F812029974FF1202427B00EB120E5C7090
:100DA300070BEBC3940340F374036B70067A007B69
:100DB30000805DEB75F00BA424C3FEE5F034F4FF73
:100DC300EEF8EFF9E488828983A3A3A3A3A3A3A3E3
:100DD300A3A3F0740288828983F090F4C2E088822E
:100DE3008983A3A3A3A3A3A3A3A3A3A3F090F4C260
:100DF300E004F0E0F960F674FF6960F18510828524
:100E03001183AA82AB83121164E970E1EEFAEFFB5E
:100E130074011202587F010202F9C082C083E48A7E
:100E2300828B83F0D083D08222C082C08374FF126E
:100E33000242851082851183AA82AB83121164E971
:100E43006006E0120E5C6006758200758300AA825C
:100E5300AB83740112025880CB75F00BA424C3F545
:100E630082E5F034F4F583E064022274F31202990C
:100E73008A0C8B0D89097EC37FF47508008E828FDF
:100E830083E064027033750A04750B00780A120359
:100E9300E0AC0CAD0D120F8B120258EA7001EB702F
:100EA300188E828F83A3A3A3A3A3A3A3A3A3E06505
:100EB300097006EEFAEFFB8009120ECA40BF7A00F2
:100EC3007B007F060202F91211AA940222C082C09B
:100ED30083E98A828B836001A3A3A3A3A3A3A3A310
:100EE300A3E0FCEC60078A828B83E07004790280C4
:100EF30008ECC3942040F67900020E2774F1120225
:100F0300998A0C8B0D8C0E8D0F7EC37FF48A828B96
:100F130083A3A3A3A3A3A3A3A3A3E0543FF50975AA
:100F230008008E828F83E06402704BA3A3A3A3A364
:100F3300A3A3A3E06509703E743F6509601B750AAE
:100F430004750B00780A1203E0E50C2405120F85E3
:100F5300120258EA7001EB701D8E828F83A3A3A344
:100F6300A3A3A3A3A3A3A3E0850E82850F83F012FB
:100F73000B61790180071211A440A779007F080251
:100F830002F9FCE50D3400FDEE2402FAEF3400FB18
:100F93001223CA74022274F112029974FE120242DD
:100FA30089088A0C8B0D7EC37FF4750A02750B00CA
:100FB300780A1203E07C007D00740212028DAA827B
:100FC300AB8312250A7402120258750902E50C6EEE
:100FD3007003E50D6F700302106C8E828F83E064E3
:100FE30002600302106CEE2408F50EEF3400F50FD7
:100FF300850E82F583E0FAC3943E506D7401650853
:10100300702890F4C0E0C39A505FEAF8C3E498F8FC
:10101300E49400F9851082851183E58228F8E5833D
:1010230039F9743D28F582E48039750A04750B009B
:10103300780A1203E0E50C2402120F85120258EA23
:101043007001EB7024850E82850F83E0F885108292
:10105300851183E58228F8E5833400F974E028F5E7
:101063008274FF39F5837401F0EE240BFEEF340034
:10107300FF1509E5096003020FD079007A008A0A97
:10108300851082851183E582250AF582E583340084
:10109300F583E0703D74026508700674202AF980B8
:1010A3003E743DC39AF990F4C1E0FAE9C39A404211
:1010B30090F4C0E0697003E014F0E9850C82850DBB
:1010C30083A3A3A3A3A3A3A3A3F0740212025802AE
:1010D3000F800AEAC3940240A57402650870C790A2
:1010E300F4C0E0C399400B90F4C1E0C39950CBE93D
:1010F30080C7790080C474F5120299EAFEEBFF758C
:1011030008028C0AEE250A121154A2E7503C8D08FE
:10111300EE250812115469702E75080475090078BC
:10112300081203E0121B6EEAFCEBFD8E828F83A391
:10113300AA82AB831223CA7402120258EA7001EB2B
:1011430070057508008003750801A9087F04020271
:10115300F9FAEF3400FB740C2AF582E43BF583E0E3
:101163002274F81202997CC37DF47E008C828D83F5
:10117300E064027018A3A3A3A3A3A3A3A3A3A3E060
:1011830069700AEE8A828B83F0790180110EEC2458
:101193000BFCED3400FDEEC3940340D07900020E46
:1011A300181211AA9403220508EE240BFEEF340053
:1011B300FFE508C32274F5120299ECFEEDFF890ADC
:1011C300890875090078081203E0EAFCEBFDEEFAE2
:1011D300EFFB12246B7402120258E50A12041E027A
:1011E300021212EC11121200128E828F83E0F8A306
:1011F300E0F98E828F83E8F0A3E9F080128E828F6C
:1012030083780812014D8E828F83780812015C0265
:10121300114F74F512029974FA120242EAFEEBFFBF
:10122300ECFAEDFBE912041E020235123B123512F1
:101233005712EEFCEFFD80388E828F83E0FCA3E033
:10124300FD851082851183ECF0A3EDF08510828576
:10125300118380188E828F83780812014D740212D5
:10126300028D780812015C740212028DAC82AD8388
:10127300890875090078081203E012246B740212BE
:101283000258740612025802114F74F7120299752C
:10129300083475090078081203E07C007D007A2782
:1012A3007BF412250A740212025878081203E07CB8
:1012B300007D007A5B7BF412250A74021202587FC8
:1012C300020202F974F6120299E9FC780079007EB1
:1012D300007F007D0074016C70067A277BF4800424
:1012E3007A5B7BF475090388088A828B83E0601D2F
:1012F30074016C70210DE06404601BA3E0F50AC364
:1013030095095012EAF8EBF9850A09800974026C11
:101313006048EAFEEBFF0508EA241AFAEB3400FB07
:10132300E508C3940240C2EE7001EF7020E870013B
:10133300E970067A007B008021E8FEE9FF8E828F48
:1013430083A3E0FAECF9121362E508800874012D17
:101353008E828F83A3F0EEFAEFFB7F030202F9C0C4
:1013630082C0837401697031782779F4A2AFE49263
:10137300E0FDC2AF7B0288828983E0600BA3E0FCBF
:10138300EAC39C5003E014F0E8241AF8E93400F9A6
:101393001BEB70E2EDA2E092AFD083D0822274F116
:1013A30012029974F8120242851082851183EAF0C1
:1013B300A3EBF08C0A740212028DE4F0A3F0F50E95
:1013C300F50F74016970237E277FF4750C031215E2
:1013D30026FA74016A703D121533A3E0F9120E2C3C
:1013E3008A0E8B0FEA7001EB70077A007B000215FF
:1013F3001C8A828B83A3A3A3A3A3A3A3A3E0F508BF
:10140300EA2402F8EB3400F9740612028DE8F0A323
:10141300E9F0800AEA70D3121533A3E0F5087401EA
:10142300650A70057509018003750903750D02A22C
:10143300AFE492E0FAC2AF8E828F83E06509600366
:101443000214FC7404F0EAA2E092AFEE240BF582DE
:10145300EF3400F583E0543F650860030214F4128F
:10146300152664017021743F65087009E50E240296
:10147300F8E50F8005EE2407F8EF3400F974041241
:10148300028DE8F0A3E9F0750A04750B00780A12DF
:1014930003E0740812028DE0FCA3E0FD740612025F
:1014A3008DE0FAA3E0FB1223CA740212025812154C
:1014B300266003EA703B8E828F83A3AA82AB83E00C
:1014C300C3950C502C740212028DE07002A3E060ED
:1014D3000D740212028DE0F8121539E509F08A82C3
:1014E3008B83E0F50C740212028DEEF0A3EFF08013
:1014F3000D8E828F83E50980F5EAA2E092AFEE2498
:101503001AFEEF3400FF150DE50D6003021432746B
:101513000212028DE0FAA3E0FB74081202587F085E
:101523000202F9851082851183E0F8121539E02251
:10153300851082851183A3E0F58388822274F812D3
:101543000299EAFEEBFF90F48FE07019120624EE85
:10155300FAEFFB120CF2E97012120966121B6E12FB
:101563000C44120C777401F0121E147F010202F96D
:101573007F020202F974F7120299750800750900D7
:1015830078081203E0121592740212025880E17473
:10159300F11202998A088B098C0A740F12028DE0EA
:1015A300F50EA3E0F50F120E2C8A0C8B0DAE0CAFCB
:1015B3000D750B02120C06EE7001EF600F7901EE50
:1015C300FAEFFB120ED0E9FA8A0B6007A90B7F082A
:1015D3000202F9E5087002E50960F1E50AC3940B1C
:1015E30050EAE50E7002E50F702D8E828F83A3E023
:1015F300FDAC0AAA08AB098E828F83A3A3A3A3A37E
:10160300A3A3A3A3E0F912179C8A088B09EA70012C
:10161300EB7008790380B7790280B3750A04750B00
:1016230000780A1203E0EE2402FCEF3400FDEA2402
:10163300030A0A0AEB3400FB122423740212025831
:101643007901AA08AB09121AC6E9F50B0215CF7482
:10165300F312029974FD120242890AEAFEEBFF8C2F
:10166300088D09120E2C7902EA7001EB60411919F9
:10167300120ED0E970397401851082851183F0123E
:10168300028DE50AF0750A00750B00780A1203E073
:10169300780A1203E078081203E0EEFCEFFD74060B
:1016A30012028DAA82AB8312189574061202587423
:1016B300031202587F060202F974F7120299E9FB3A
:1016C300EAF9ECFEEDFF90F48FE07013EB12045493
:1016D300000205E2160AE216DD16790202176EEB26
:1016E30012041E0206DD1614173017DD160117F853
:1016F3001639175E17EEFAEFFB121DA7806D740102
:10170300696003E970D4EEFAEFFB121D65805C801B
:10171300C97403697009EEFAEFFB121BE3804C7482
:10172300026970B6EEFAEFFB121C67803EEEFAEF29
:10173300FB121CD88035740169709F750804750904
:101743000078081203E0121B87EAFCEBFDEEFAEFC8
:10175300FB1224237402120258800E74016970AFC5
:10176300121B8CE98E828F83F07900021573C0827D
:10177300C083E490F494F090F495EAF0A3EBF012B4
:101783001B6E90F491EAF0A3EBF01209A5E990F433
:1017930090F060F6D083D0822274F1120299890806
:1017A3008A0E8B0F8C0A8D0979021212C78A0C8B51
:1017B3000DA80CA90DE8FEE9FFE87001E970077AAE
:1017C300007B0002185C740B250A8E828F83A3A30F
:1017D300F0EE240B121B0854804508F090F490E0BF
:1017E300C0E0EE240DF582EF3400F583D0E0F090F5
:1017F300F490E004F060F8EE240CFAEF3400FB8A76
:10180300828B83E054BF7583F4758293FCE04C5460
:10181300F8450954778A828B83F088828983E0C2F2
:10182300E7F0750B00780A1203E0AC0EAD0FEE245F
:101833000E0A0AEF3400FB122423740212025875B5
:10184300080475090078081203E0121AB51224235C
:101853007402120258EEFAEFFB7F080202F974F7E2
:1018630012029979011212C78A088B09A808A909DB
:10187300E8FEE9FFE87001E96013EE24020A0AEFCB
:101883003400FB120858EEFAEFFB1219D57F02025F
:1018930002F974F112029974FE12024285108285D4
:1018A3001183ECF0A3EDF08A0A8B0B741112028DF5
:1018B300E0F50CA3E0F50D741512028DE0F50EA30F
:1018C300E0F50FE4850C82850D83F07C017901122C
:1018D30013A18A088B09AE08AF09EE7001EF7003FC
:1018E3000219AB750800750900850A82850B83E030
:1018F30064017015A3E0F9120E2C8A088B09EA70B3
:1019030001EB700579020219AD8E828F83A3A3E0E8
:1019130024F5F50A850C82850D83F0750B00780A92
:101923001203E0EE240EFCEF3400FD740212028D6C
:101933001219B5120258E5087002E509600FEE248A
:10194300181219C0F0EE24191219C0A3F07413125F
:10195300028DE07002A3E0601E750804750900782B
:10196300081203E0EE2407FCEF3400FD74151202A5
:101973008D1219B5120258E50E7002E50F6014EED0
:10198300240CF582EF3400F583E05407850E82853D
:101993000F83F08E828F83A3E0FA7901121362E43E
:1019A3008E828F83F0F98002790474021202580246
:1019B300185CE0FAA3E0FB122423740222F582EF01
:1019C3003400F583E0850882850983A3A3A3A3A339
:1019D300A32274F312029974FF120242EAFEEBFF90
:1019E300EE240BF50AEF3400F50B850A82F583E04C
:1019F300543FF508750C04750D00780C1203E012C2
:101A03001AB51223CA7402120258EA7001EB700964
:101A1300E48E828F83F0021AA2850A82850B83E00B
:101A2300A2E640ECE50860E8EE2402FAEF3400FB9E
:101A3300E508C39407501CE508C33324E2F582E4A8
:101A430034F4F583121AAC120297E9640170C1747D
:101A53000180BE743F6508600EE508C3942040B062
:101A6300E508C3943F50A9851082851183AC82ADEC
:101A730083120EFFE9609974018E828F83F090F4D4
:101A830095E07002A3E06017851082851183E0F969
:101A930090F495121AAC120297E96003021A1374B8
:101AA300011202587F060202F9E0F8A3E0F58388E9
:101AB300822290F491E0FCA3E0FDEE2407FAEF34D8
:101AC30000FB2274F8120299EAFEEBFFE9FAEE2416
:101AD3000C121B0854CF7583F4758294FBE04B887A
:101AE300828983F0EAF9EE2402FAEF3400FB12074D
:101AF3008EE97004790080027909E48E828F83F085
:101B03007F010202F9F8EF3400F988828983E02229
:101B1300C082C08390F493E0F902179722790022E0
:101B230074F712029975080475090078081203E026
:101B33007C007D007A977BF412250A740212025806
:101B430090F49FE0701B78081203E07CF07DF47A38
:101B53009B7BF41224237402120258740190F49FA5
:101B6300F080031202587F020202F9C082C0839000
:101B7300F49FE060067A9B7BF480047AF07BF4D0D8
:101B830083D082227AF57BF42279022274F712023F
:101B930099790090F49FE070217508048909780809
:101BA3001203E0EAFCEBFD7A9B7BF412242374021C
:101BB300120258740190F49FF0F980AA74F712028C
:101BC3009975080475090078081203E0EAFCEBFD37
:101BD3007A977BF4122423740280887AB27BF422EE
:101BE30074F5120299EAFEEBFF8E828F83A3A3A3FF
:101BF300A3A3E0F9120454010506051C0103051C07
:101C0300091C7D0180027D038E828F83A3A3A3A37E
:101C1300E0FC8E828F83A3A3E0FAA3E0FB12179C60
:101C23008A088B09A909EA7001E96031750A04750C
:101C33000B00780A1203E08E828F83E0FCA3E0FDA1
:101C4300EA24030A0A0AE93400FB12242374021269
:101C530002587901AA08AB09121AC6800279037FD8
:101C6300040202F974F712029974FD120242E48528
:101C73001082851183F08A828B83A3A3A3A3A3E09D
:101C8300C0E0740112028DD0E0F0EA2406F508EBFF
:101C93003400F50978081203E08A828B831203F17A
:101CA300EA2404F508EB3400F50978081203E08A06
:101CB300828B83A3A3E0FCA3E0FD740612028DAA2A
:101CC30082AB8312189574061202587403120258D9
:101CD3007F020202F974F5120299EAFEEBFF75081E
:101CE300007404697008120A53120943806F740563
:101CF300697005120966806574066970398E828F72
:101D030083E0F9120E2CEA7001EB70047902804F24
:101D1300750A02750B00780A1203E0EA2406FCEB4D
:101D23003400FD8E828F83A3AA82AB831224237493
:101D3300021202588027740769700B120B74E98E24
:101D4300828F83F080177408697005120A07800D6B
:101D53007409697005120A538003750802A9080201
:101D63001C6274F7120299EAFEEBFF750802740114
:101D730069702075080475090078081203E0121BC6
:101D83006EEAFCEBFDEEFAEFFB122423740212025F
:101D9300588009E97009121B8FE96003750800A9CF
:101DA30008021CD374F7120299E9FC8A828B83E040
:101DB300F9740E6C60047902801374FF6960F71282
:101DC3000E2CEA7001EB60EE120E1D7900021CD39B
:101DD30074F512029990F4F9780812014D7583F4A1
:101DE3007582A07808120138701090F4FD780812FB
:101DF300014D90F4A0780812015C90F4A4EAF0A3DA
:101E0300EBF01209A5E990F4A6F080007F0402022A
:101E1300F974F512029974E9120242120C06E9FEF2
:101E23007F06121BDE851082851183EAF0A3EBF097
:101E3300740712028DA882A983740212028DE8F03E
:101E4300A3E9F0740412028D7408F0740512028D74
:101E53007403F07904740912028DAC82AD837AA005
:101E63007BF4121215740712028D7401F090F4A61C
:101E7300E0C0E0740812028DD0E0F0740D12028D00
:101E83007402F0121B8C740E12028DE9F08510821D
:101E9300851183AC82AD837A0379021216BC740573
:101EA30012028D7403F0740712028DA882A9837441
:101EB3000212028DE8F0A3E9F0740F12028DA882DA
:101EC300A983851082851183E8F0A3E9F074036E7A
:101ED300600B74016E7003120966120A07120AD9A5
:101EE30074036E600D74016E700512094380031252
:101EF3000A53851082851183AC82AD837A027902FD
:101F03001216BCE9705B740712028DE0547FFA74F9
:101F1300016A6004EF6A704975080475090078085E
:101F23001203E0740B12028DAC82AD83741512029E
:101F33008DAA82AB831224237402120258780812EA
:101F4300014DAA08AB09AC0AAD0B121FDD740F12C9
:101F5300028DAA82AB83121BBF90F4A6E004F07F2C
:101F630000EFF97417120258021E0F74F812029947
:101F73007E007D017C0090F4A6E0F91210F9E9706F
:101F830004120B610EEEF97F010202F974F51202DD
:101F93009990F4F9780812014D7583F47582A77846
:101FA30008120138701090F501780812014D90F471
:101FB300A7780812015C1209A5E990F4AFF060F666
:101FC30075080275090078081203E07C007D007A29
:101FD300AC7BF412250A7402802174F51202998AEB
:101FE300088B098C0A8D0B90F4F97808120138607C
:101FF3000890F4A7780812015C80031202587F044A
:102003000202F974F112029974F8120242EAFEEB29
:10201300FF8E828F83E0F874F528F874FF3400F99B
:10202300C3E89409E99400A2D265D033401A121B85
:102033008CE9FAEE24141222146A600C79027408F3
:102043001202587F080202F97904E912028DAC8268
:10205300AD83EE240EFAEF3400FB1211B8C082C038
:102063008390F4A7780812014DD083D082780812A8
:10207300013870C8EE2412122214F50AEE2405F575
:102083000EEF3400F50FA90AAA0EFB120E6E8A0892
:102093008B09A808A909E87001E96061122204C04C
:1020A300E0740112028DD0E0F088828983A3A3A398
:1020B300A3A3A3A3A3E0C0E0740212028DD0E0F0B7
:1020C300121B13740312028DE91222328A088B0940
:1020D300A808A909E8FEE9FFE87001E9601A750894
:1020E3000475090078081203E01221F012025879EE
:1020F30000EEFAEFFB121AC6790102204190F4AB0D
:10210300E0700302203F120D928A088B09EA7001E6
:10211300EB60E5750C04750D00780C1203E0AC0E52
:10212300AD0FEA24020A0AEB1221FB120258AA0895
:10213300AB097902120F99E97009AA08AB09120ECB
:102143001D80B590F4AEE0640260EFE0F50C74011D
:10215300250C12221DA3E0C0E0E50C24ACF582E4BB
:1021630034F4F583D0E012221DE50AF074028508E9
:1021730082850983F0A3A882A983EE241312221473
:10218300644070047401800274038882898312227C
:1021930022E0C0E0740212028DD0E0F0121B13742F
:1021A3000312028DE9F0122204C0E0740112028DC1
:1021B300D0E01222328A0A8B0BA80AA90BE8FEE9A7
:1021C300FFE87001E9700302213D750A04750B00F5
:1021D300780A1203E01221F01202587900EEFAEFA6
:1021E300FB121AC6E9600302213D0220FBAC0EADCF
:1021F3000FEE24030A0A0AEF3400FB1224237402AD
:10220300227481851082851183F0EE240D1222142D
:1022130022F582EF3400F583E022122222A322F07A
:10222300850882850983A3A3A3A3A3A3A3A322123F
:10223300224F5407FA7403C39AFD7C0485108285E8
:102243001183AA82AB83790212179C22F08E828FAC
:1022530083A3A3A3A3A3A3A3A3A3A3E02274F8121A
:102263000299EAFEEBFF7D017C0090F4AFE0F912E6
:1022730010F9E97007120B617901803AEE240CF82A
:10228300EF3400F98E828F83E0FA74F52AFA74FF33
:102293003400FB74086A7001EB7009740188828949
:1022A30083F0800988828983E064017007EEFAEF86
:1022B300FB12200679007F010202F9C082C083125B
:1022C30009A5E990F4B0F0D083D0822274F712020A
:1022D30099EAFEEBFF7D017C0090F4B0E0F9121067
:1022E300F9E97007120B617901802F7508047509EC
:1022F3000078081203E0121B6EEAFCEBFD8E828F5E
:1023030083A3AA82AB831223CA7402120258EA700F
:1023130001EB70047900800279027F020202F9C0A6
:1023230082C0831209A5E990F4B1F0D083D0822250
:102333007F040202F974F5120299EAFEEBFF7D01B4
:102343007C0090F4B1E0F91210F9E97007120B6107
:102353007901806CEE240CFAEF3400FB8A828B83C4
:10236300E0640170597D038E828F83E024F5FC794C
:102373000112179C8A088B09A909EA7001E9603EDA
:10238300750A04750B00780A1203E0EE2405FCEFCE
:102393003400FDEA24030A0A0AE93400FB12242369
:1023A3007402120258E508240EF582E5093400F59B
:1023B30083E0D2E7F07900AA08AB09121AC67900C4
:1023C3000223332279002274F8120299740812024C
:1023D3008DE0F8A3E08015A3AA82AB838C828D8362
:1023E300A3AC82AD83E824FF18E934FFF9E8700158
:1023F300E960248A828B83E0FE8C828D83E06E8A7F
:10240300828B8360D2E0F88C828D83E0FAE8C39AF2
:10241300FAE49400FB80047A007B007F010202F956
:1024230074F7120299740912028DE0FEA3E0FFEA29
:10243300F8EBF980188C828D83E088828983F0A37E
:10244300A882A9838C828D83A3AC82AD838E088FEF
:102453000974FF25081E74FF3509FFE5087002E5BE
:102463000970D27F020202F974F7120299740912F9
:10247300028DE0F8A3E0F9EAFEEBFF8A088B09C3BB
:10248300EA9CEB9D405EEC28F582ED39F583C3E5CC
:10249300829508E5839509404BEA28FAEB39FBACB2
:1024A30082AD831224F97002E5096041EC24FF1C1C
:1024B300ED34FFFDEA24FF1AEB34FFFB8C828D839E
:1024C300E08A828B83F080DB8C828D83E08A828B2F
:1024D30083F08C828D83A3AC82AD838A828B83A3AA
:1024E300AA82AB831224F97002E50970DBEEFAEFDE
:1024F300FB7F020202F98808890974FF2508187412
:10250300FF3509F9E5082274F812029974081202DA
:102513008DE0F8A3E0F98A828B838003ECF0A3E8D3
:10252300FEE9FF74FF2E1874FF3FF9EE7001EF70A0
:06253300EB7F010202F93A
:0000D3012C
:00000001FF
