:030000000200D328
:100083000207A100000080FB1200E2B90003020096
:10009300CDE490F3FF78B979018002F0A3D8FCD9BD
:1000A300FA90F4B7AA82AB839000E5785379018084
:1000B30015E493A3AC82AD838A828B83F0A3AA82D7
:1000C300AB838C828D83D8E9D9E71204941200861E
:1000D30075D00075813F7510FF7511F302008B79A0
:1000E3000122FFFFFFFF0F14191A060B7F01000007
:1000F30000000000000000000000000000000000FD
:1001030000000000000000000000000000000000EC
:100113000000007721A020BD1D042271190F217951
:100123005634120201010100000000000807060511
:1001330004030201E066701008A3E066700A08A3D6
:10014300E066700408A3E06622E0F608A3E0F60880
:10015300A3E0F608A3E0F622E6F008A3E6F008A37E
:10016300E6F008A3E6F022CAC0E0E6F0A308DAFA54
:10017300D0E0FA22CAC0E0E0A3C582CCC582C58321
:10018300CDC583F0A3C582CCC582C583CDC583DA33
:10019300E6D0E0CA22600C08C6C313C618C613C64D
:1001A300D5E0F422251010AF08F510400215118098
:1001B30008F51040021511D2AF22C0D0251010AFA0
:1001C30008F510500205118008F51050020511D2F0
:1001D300AFD0D0222510F58210AF08F510400215DC
:1001E300118008F51040021511D2AF851183222525
:1001F30010F582E43511F58322E4732510C582C01E
:10020300E0E51134FFC583C0E0E510C3958224F90E
:10021300F8E4C5A8858311858210C5A8E8CEF0A3AC
:10022300E520F0A37808E608F0A3DEFAEFF0A3E5F3
:100233008124FBF8E608F0A3E608F0A30808E60823
:10024300F0A3E608F0A315811581D0E0FED0E0F815
:1002530015811581E8C0E0EEC0E022851183851089
:1002630082E0A3FEE0A3F5207808E0A3F608DFFA16
:10027300E0A3FFE0A3C0E0E0A3C0E0E0A3C0E0E0B0
:10028300A3C0E0E4C5A8858210858311C5A8D083E7
:10029300D08222C0D02510C582C0E0E51134FFC54D
:1002A30083C0E0E510C3958224F310AF0885831162
:1002B3008582108008858311858210D2AFC8F0A390
:1002C300E9F0A3EAF0A3EBF0A37908E709F0A3D8D8
:1002D300FAECF0A3EDF0A3EEF0A3EFF0A3D0E0F07F
:1002E300A3D0E0F0A3D0E0F0A3E520F0A3E5F0F085
:1002F300A322851183851082E0C0E0A3E0F9A3E087
:10030300FAA3E0FBA37808E0F608A3DFFAE0FCA376
:10031300E0FDA3E0FEA3E0FFA3E0C0E0A3E0C0E0B4
:10032300A3E0F5D0A3E0F520A3E0A3F5F0E4C5A88E
:10033300858311858210C5A8D082D083D0E0F8D000
:10034300E03274028000C0E0F4041201D7D0E0125E
:10035300016A2274028000CCC0E0EDC0E0E510C366
:100363009CCCAD1150011D10AF068C108D11800671
:100373008C108D11D2AF120177D0E0FDD0E0FC22BA
:10038300D083D082C5F0E493A3C5F0C395F0F5F014
:10039300E493A3C395F04005E5F0048001E475F010
:1003A30002A42582F582E5F03583F583E493A3C0A7
:1003B300E0E493C0E022D083D082CCC0E0E493A3F6
:1003C30060061203E31470FAE493A36006120402B6
:1003D3001470FAD0E0FCE493A3C0E0E493C0E022FD
:1003E300C0E0E493A3D39C5010E493A3C39C400ABE
:1003F300D0E0D0E0D0E00203D6A3A3A3D0E022C094
:10040300E0E493A36C7009D0E0D0E0D0E00203D61F
:10041300A3A3D0E022C082C08374FE1201A71204FA
:100423008285108285118374AAF0A3E41204797083
:1004330004C2AF80FE74021201BDD083D08222C0F9
:1004430082C08374FE1201A7851082851183EAF0AE
:10045300A3EB120479F5A474011201F2E0F5A5757A
:10046300C30075A60075A70075C301E5C3A2E650D6
:10047300FA75C30080BFF0851082851183E02212D4
:100483000489438F202243FE0143FE08D290D29376
:10049300221204187A007B00121394A29350057958
:1004A30002120554A29050057901120554A28150FD
:1004B30004A28550F81204BD80FE74F81201FE7484
:1004C300FE1201A7790212055479011205547C002A
:1004D3007D007A04790312150D7E057AE87B0312F9
:1004E30009DC1EEE70F57901120554A2815004A2B5
:1004F30085500312056A7C007D007A057903121585
:100503000D7C007D007A08790312150D7AFA7B00C1
:100513001209DC7C007D007A04790312150D851025
:1005230082851183AC82AD8374011201F2AA82AB7E
:100533008379FF1214A3E970A0851082851183E0EB
:10054300609774011201F2E06401708D12056A80F4
:10055300887401697006639001E5902274026970E2
:1005630005639008E59022C082C08374FF1201A73F
:100573007C007D007A05790312150D7401851082C4
:10058300851183F07A647B001209DC7C01AA82ABBB
:100593008379FF1213CC790212055480E774F712A2
:1005A30001FE75081B75090078081203457C007D60
:1005B300007A007BF412234774021201BD90DF61BD
:1005C300E064856004C2AF80FE90DF60E0C3940303
:1005D3005004C2AF80FE53BEFBE5BEA2E650FA0054
:1005E30078F879010012088B7001E970F775C6007D
:1005F300E5C670FC43BE0474FF90DF4CF090DF4B04
:100603001208EDE0A2E440FB740290DF05F075E10F
:10061300E28024780079007C10E8C333F8E933F9E9
:1006230090DF3AE0A2E0E492E048F81CEC70EA7450
:100633008048F5BCE9F5BC90DF39E0641F70D475E0
:10064300E1E575E1E675E1E6E490DF05F012090AFC
:10065300743290DF0CF074F590DF0DF090DF02E060
:10066300C2E3F0747F90DF4FF079001208957902AE
:10067300120B1B439A0190F41D7433F0A3E4F012A0
:100683000AB0D2AF0208CA74F71201FEEAFEEBFF0A
:10069300890975080090F3FFE064017004C2AF801C
:1006A300FE120AA053E9BF90F41FE08E828F83A34A
:1006B300A3A3F090F41FE004F074018E828F83A350
:1006C300F074888E828F83A3A3F075E1E78E828F07
:1006D30083E0FB74022BF5D97A008005A3E0F5D9FA
:1006E3000AEAC39B40F6E509700B75E1E3E5E9A26D
:1006F300E6404980F8740165096004C2AF80FE7E5C
:100703000480071E120AA0120AB075E1E27AE07BA8
:1007130001120ACAA2AFE492E0FAC2AF75E1E49013
:10072300DF62E05410FBEAA2E092AFEB6008E5E978
:10073300A2E6400880F8EE70CA750801120AA0907C
:10074300F3FFE064037003120A99A9080208CAC000
:1007530082C08390F400EAFCEBFD741B1201770264
:1007630008E8C082C08390F3FFE064017004C2AF65
:1007730080FEE0640360067403F0120A990208E83D
:10078300C082C08390F3FFE064017004C2AF80FEB7
:10079300E064037006120AA07402F00208E8C0E0E5
:1007A30074ED120296759B00E5E9A2E54003020889
:1007B3004590F3FFE064036070C2AF80FE7E007F6C
:1007C300F4750C19750D00780C1203457C007D003F
:1007D3007A007BF412234774021201BD74FE2508CC
:1007E30090F400F074FE1208828E828F83A3AE828F
:1007F300AF83E5D9F012088B7001E970EC74D3254F
:10080300D990F419F0E5D9FAA2E7501A747F5A90F7
:10081300F41AF090F401E06401700B90F402E064C8
:100823008870031216B253E9DFE5E9A2E55013908D
:10083300DF62E0A2E25013E0A2E3400E75E1E67549
:10084300E1E675E9FF7F060202F5747F55D9F508E5
:10085300F58285820A74FF120882C3E8941AE99428
:1008630000A2D265D033500AE508C3940E400302B8
:1008730007C07A00EAC3950850ACE5D90A80F5258C
:100883000AF874FF3400F922E824FF18E934FFF969
:10089300E82274F71201FE8908E9C394044004C2F4
:1008A300AF80FE120AA075F005E50824BBF582E4CB
:1008B30034F4F583E0A4242E90DF11F090F3FFE0ED
:1008C30064037003120A997F0202025EC082C0832E
:1008D30090F3FFE06401700A74021208EDE0A2E4F1
:1008E30040FB8001F0D083D08222F090DF17E0C27A
:1008F300E3F022C082C08390F3FFE064016006123C
:10090300078312090A80DE90DF17E0D2E3F0740157
:1009130090F3FFF02274F81201FE8A828B83A3A85E
:1009230082A9838A828B83E0FE74FF6E600574FE66
:100933006E700988828983E064FF6023EA2403FCE4
:10094300EB3400FDEA24020A0AEB3400FB8A828BB3
:1009530083E064FF700D8C828D83E064FF70047903
:10096300018022EE90DF4CF088828983E090DF4B98
:10097300F08A828B83E090DF4EF08C828D83E0904F
:10098300DF4DF079007F0102025EC082C08390DFF9
:100993004CE064FF600890DF4BE064FF7004C2AF7B
:1009A30080FE90DF02E0D2E30208E7C082C08390BA
:1009B300F3FFE064036004C2AF80FE7AE07B0112C0
:1009C3000ACA90DF07E0FA74D32AF90208E874F33D
:1009D30055B44404F5B4A9BD2274F81201FEEAFE2D
:1009E300EB800E7ADC7B05120ACAEE24FF1EEF347D
:1009F300FFFFEE7001EF70EB02098874F61201FE3F
:100A030090F41DE0F508A3E0F509A2AFE492E0FA43
:100A1300C2AF740190F41BF0EAA2E092AF800CE540
:100A23000824FFF508E50934FFF509E5087002E538
:100A33000960357E5D7F00A2AFE492E0F50AC2AFA4
:100A43007A107B00120442E50AA2E092AF90F41CF4
:100A5300E07012EEF8EFF974FF281E74FF39FFE817
:100A63007001E970D2E060B7A2AFE492E0FAC2AFDE
:100A7300E490F41CF090F41BF0EAA2E092AF7F0341
:100A830002025EC082C08390F41BE0600674019092
:100A9300F41CF00208E875E1E2439120225391DF50
:100AA30075E1E575E1E675E1E675E9DF22EEC0E0A3
:100AB3001209D1E9540F04FE7AFA7B00120ACA1E06
:100AC300EE70F5D0E0FE2274F71201FE8A088B095E
:100AD30074047808120198AE08AF09EA7001EB605C
:100AE30028A2AFE492E0F508C2AF7A107B001204AB
:100AF30042E508A2E092AFEEF8EFF974FF281E7406
:100B0300FF39FFE87001E970D80208CAC082C083C8
:100B130090F3FFE0F90208E874F71201FE8908E98F
:100B2300C394034004C2AF80FE120AA0E50824BFA9
:100B3300F582E434F4F583E090DF0BF090F3FFE00B
:100B430064037003120A990208CA74F71201FEEAD9
:100B5300FEEBFF75082575090078081203457C0034
:100B63007D007AC37BF412234774021201BD740320
:100B730090F4C3F0743D90F4C4F0742090F4C5F085
:100B8300740190F4C6F0121974EEFAEFFB1215C259
:100B93001210E1121970122161EEFAEFFB121C22FE
:100BA3001220FE121DDE12220390F4DDE070347475
:100BB30002F0740390F4DEF0743F90F4E5F090F4E7
:100BC300E6F074FF90F4E7F0750804780812034523
:100BD300121A2FEAFCEBFD7ADF7BF4122260740217
:100BE3001201BD79007F0202025E74F81201FE74E5
:100BF300FF1201A77B00EB120CB770070BEBC3943A
:100C03000340F374036B70067A007B00805DEB7521
:100C1300F00BA424C7FEE5F034F4FFEEF8EFF9E49B
:100C230088828983A3A3A3A3A3A3A3A3A3F074028A
:100C330088828983F090F4C6E088828983A3A3A382
:100C4300A3A3A3A3A3A3A3F090F4C6E004F0E0F945
:100C530060F674FF6960F1851082851183AA82AB07
:100C630083120FB8E970E1EEFAEFFB74011201BDD4
:100C73007F0102025EC082C083E48A828B83F0D04C
:100C830083D08222C082C08374FF1201A7851082A1
:100C9300851183AA82AB83120FB8E96006E0120CB8
:100CA300B76006758200758300AA82AB8374011254
:100CB30001BD80CB75F00BA424C7F582E5F034F4B5
:100CC300F583E064022274F31201FE8A0C8B0D8912
:100CD300097EC77FF47508008E828F83E0640270FB
:100CE30033750A04750B00780A120345AC0CAD0D7D
:100CF300120DE31201BDEA7001EB70188E828F832F
:100D0300A3A3A3A3A3A3A3A3A3E065097006EEFA79
:100D1300EFFB8009120D2540BF7A007B007F06029E
:100D2300025E120FFE940222C082C083E98A828B84
:100D3300836001A3A3A3A3A3A3A3A3A3E0FCEC60E9
:100D4300078A828B83E0700479028008ECC39420C5
:100D530040F67900020C8274F11201FE8A0C8B0DAD
:100D63008C0E8D0F7EC77FF4EA240CF582EB3400E2
:100D7300F583E0543FF5097508008E828F83E064A4
:100D830002704BA3A3A3A3A3A3A3A3E06509703E8F
:100D9300743F6509601B750A04750B00780A12031A
:100DA30045E50C2408120DDD1201BDEA7001EB705C
:100DB3001D8E828F83A3A3A3A3A3A3A3A3A3A3E0B3
:100DC300850E82850F83F0120A8679018007120F40
:100DD300F840A779007F0802025EFCE50D3400FDB0
:100DE300EE2402120DEA22FAEF3400FB12220774FA
:100DF300022274F11201FE74FE1201A789088A0C03
:100E03008B0D7EC77FF4750A02750B00780A1203F7
:100E1300457C007D0074021201F2AA82AB83122387
:100E23004774021201BD750902E50C6E7003E50DEE
:100E33006F7003020EC88E828F83E0640260030228
:100E43000EC8EE2408F50EEF3400F50F850E82F57B
:100E530083E0FAC3943E506D74016508702890F4E2
:100E6300C4E0C39A505FEAF8C3E498F8E49400F945
:100E7300851082851183E58228F8E58339F9743D6D
:100E830028F582E48039750A04750B00780A120389
:100E930045E50C2402120DDD1201BDEA7001EB7071
:100EA30024850E82850F83E0F8851082851183E502
:100EB3008228F8E5833400F974E028F58274FF3959
:100EC300F5837401F0EE240BFEEF3400FF1509E502
:100ED300096003020E2C79007A008A0A8510828544
:100EE3001183E582250AF582E5833400F583E070FA
:100EF3003D74026508700674202AF9803E743DC370
:100F03009AF990F4C5E0FAE9C39A404290F4C4E038
:100F1300697003E014F0E9850C82850D83A3A3A314
:100F2300A3A3A3A3A3F074021201BD020DD80AEA7E
:100F3300C3940240A57402650870C790F4C4E0C36B
:100F430099400B90F4C5E0C39950CBE980C7790071
:100F530080C474F51201FEEAFEEBFF7508028C0AE9
:100F6300EE250A120FA8A2E750348D08EE250812C9
:100F73000FA86970267508047509007808120345DF
:100F83001219BFEAFCEBFDEE2404120DEA1201BDB7
:100F9300EA7001EB70057508008003750801A90864
:100FA3007F0402025EFAEF3400FB740F2AF582E439
:100FB3003BF583E02274F81201FE7CC77DF47E00CA
:100FC3008C828D83E064027018A3A3A3A3A3A3A3BD
:100FD300A3A3A3E069700AEE8A828B83F079018070
:100FE300110EEC240BFCED3400FDEEC3940340D052
:100FF3007900020C73120FFE9403220508EE240BF2
:10100300FEEF3400FFE508C32274F51201FEECFE87
:10101300EDFF890A89087509007808120345EAFC7F
:10102300EBFDEEFAEFFB1222A874021201BDE50AF2
:10103300120383020266104010661054108E828FD2
:1010430083E0F8A3E0F98E828F83E8F0A3E9F080D0
:10105300128E828F83780812014C8E828F837808D8
:1010630012015B020FA374F51201FE74FA1201A7B9
:10107300EAFEEBFFECFAEDFBE912038302028910AF
:101083008F108910AB10EEFCEFFD80388E828F83BA
:10109300E0FCA3E0FD851082851183ECF0A3EDF065
:1010A30085108285118380188E828F8378081201C0
:1010B3004C74021201F2780812015B74021201F2FD
:1010C300AC82AD83890875090078081203451222A2
:1010D300A874021201BD74061201BD020FA374F7B6
:1010E3001201FE75083A75090078081203457C0061
:1010F3007D007A207BF412234774021201BD780825
:101103001203457C007D007A5A7BF4122347740254
:101113001201BD7F0202025E74F61201FEE9FC7841
:101123000079007E007F007D0074016C70067A20D8
:101133007BF480047A5A7BF475090388088A828BCE
:1011430083E0601D74016C70210DE06404601BA3D7
:10115300E0F50AC395095012EAF8EBF9850A09800C
:101163000974026C6048EAFEEBFF0508EA241DFAE5
:10117300EB3400FBE508C3940240C2EE7001EF704C
:1011830020E87001E970067A007B008021E8FEE91F
:10119300FF8E828F83A3E0FAECF91211B6E5088083
:1011A3000874012D8E828F83A3F0EEFAEFFB7F0389
:1011B30002025EC082C0837401697031782079F4C1
:1011C300A2AFE492E0FDC2AF7B0288828983E06034
:1011D3000BA3E0FCEAC39C5003E014F0E8241DF8E1
:1011E300E93400F91BEB70E2EDA2E092AFD083D0BB
:1011F300822274F11201FE74F81201A78510828510
:101203001183EAF0A3EBF08C0A74021201F2E4F00A
:10121300A3F0F50EF50F74016970237E207FF4753A
:101223000C0312137AFA74016A703D121387A3E058
:10123300F9120C878A0E8B0FEA7001EB70077A00A4
:101243007B000213708A828B83A3A3A3A3A3A3A30C
:10125300A3E0F508EA2402F8EB3400F9740612015E
:10126300F2E8F0A3E9F0800AEA70D3121387A3E04F
:10127300F5087401650A7005750901800375090392
:10128300750D02A2AFE492E0FAC2AF8E828F83E0C3
:10129300650960030213507404F0EAA2E092AFEE12
:1012A300240EF582EF3400F583E0543F65086003B4
:1012B30002134812137A64017021743F65087009A0
:1012C300E50E2402F8E50F8005EE240AF8EF34005A
:1012D300F974041201F2E8F0A3E9F0750A04750B3E
:1012E30000780A12034574081201F2E0FCA3E0FD42
:1012F30074061201F2E0FAA3E0FB12220774021251
:1013030001BD12137A6003EA703B8E828F83A3AA16
:1013130082AB83E0C3950C502C74021201F2E0708F
:1013230002A3E0600D74021201F2E0F812138DE5DE
:1013330009F08A828B83E0F50C74021201F2EEF05D
:10134300A3EFF0800D8E828F83E50980F5EAA2E09A
:1013530092AFEE241DFEEF3400FF150DE50D600383
:1013630002128674021201F2E0FAA3E0FB7408127F
:1013730001BD7F0802025E851082851183E0F812A9
:10138300138DE022851082851183A3E0F583888283
:101393002274F81201FEEAFEEBFF90F494E0701958
:1013A3001205A0EEFAEFFB120B4DE970121208CFF3
:1013B3001219BF12091812098D7401F0121C637FF0
:1013C3000102025E7F0202025E74F71201FE7508DB
:1013D3000075090078081203451213E6740212011E
:1013E300BD80E174F11201FE8A088B098C0A740F27
:1013F3001201F2E0F50EA3E0F50F120C878A0C8BB5
:101403000DAE0CAF0D750B02120B0FEE7001EF60FA
:101413000F7901EEFAEFFB120D2BE9FA8A0B600745
:10142300A90B7F0802025EE5087002E50960F1E599
:101433000AC3940B50EAE50E7002E50F702D8E82FD
:101443008F83A3E0FDAC0AAA08AB098E828F83A326
:10145300A3A3A3A3A3A3A3A3E0F91215ED8A088B67
:1014630009EA7001EB7008790380B7790280B375DC
:101473000A04750B00780A120345EE2402FCEF34CC
:1014830000FDEA2406FAEB3400FB12226074021218
:1014930001BD7901AA08AB09121917E9F50B808080
:1014A30074F31201FE74FD1201A7890AEAFEEBFF31
:1014B3008C088D09120C877902EA7001EB604119DF
:1014C30019120D2BE970397401851082851183F08F
:1014D3001201F2E50AF0750A00750B00780A12038F
:1014E30045780A1203457808120345EEFCEFFD74B4
:1014F300061201F2AA82AB831216E674061201BD2C
:1015030074031201BD7F0602025E74F71201FEE945
:10151300FBEAF9ECFEEDFF90F494E07013EB120399
:10152300B900020533150A33152E1579020215BFCA
:10153300EB12038302062E15651581152E15521520
:1015430049158A15AF15EEFAEFFB121BF6806D7481
:1015530001696003E970D4EEFAEFFB121BB4805CFF
:1015630080C97403697009EEFAEFFB121A34804CD8
:1015730074026970B6EEFAEFFB121AB6803EEEFA09
:10158300EFFB121B278035740169709F7508047582
:10159300090078081203451219D8EAFCEBFDEEFAAC
:1015A300EFFB12226074021201BD800E7401697098
:1015B300AF1219DDE98E828F83F079000213C7C061
:1015C30082C083E490F499F090F49AEAF0A3EBF0EC
:1015D3001219BF90F496EAF0A3EBF01209D1E99047
:1015E300F495F060F6D083D0822274F11201FE8963
:1015F300088A0E8B0F8C0A8D09790212111B8A0C33
:101603008B0DA80CA90DE8FEE9FFE87001E970074E
:101613007A007B000216AD740E250A8E828F83A397
:10162300A3F0EE240E12195954804508F090F49556
:10163300E0C0E0EE2410F582EF3400F583D0E0F053
:1016430090F495E004F060F8EE240FFAEF3400FB19
:101653008A828B83E054BF7583F4758298FCE04CD7
:1016630054F8450954778A828B83F088828983E012
:10167300C2E7F0750B00780A120345AC0EAD0FEE0E
:1016830024110A0AEF3400FB12226074021201BD16
:101693007508047509007808120345121906122209
:1016A3006074021201BDEEFAEFFB7F0802025E7462
:1016B300F71201FE790112111B8A088B09A808A9E8
:1016C30009E8FEE9FFE87001E96013EE24020A0A63
:1016D300EF3400FB120752EEFAEFFB1218267F02DB
:1016E30002025E74F11201FE74FE1201A7851082DC
:1016F300851183ECF0A3EDF08A0A8B0B74111201B0
:10170300F2E0F50CA3E0F50D74151201F2E0F50E0D
:10171300A3E0F50FE4850C82850D83F07C0179014C
:101723001211F58A088B09AE08AF09EE7001EF704C
:10173300030217FC750800750900850A82850B836F
:10174300E064017015A3E0F9120C878A088B09EA9B
:101753007001EB700579020217FE8E828F83A3A3BB
:10176300E024F2F50A850C82850D83F0750B007871
:101773000A120345EE2411FCEF3400FD740212013A
:10178300F21218061201BDE5087002E509600FEEBA
:10179300241B121811F0EE241C121811A3F0741359
:1017A3001201F2E07002A3E0601E750804750900DF
:1017B3007808120345EE240AFCEF3400FD74151279
:1017C30001F21218061201BDE50E7002E50F601456
:1017D300EE240FF582EF3400F583E05407850E8283
:1017E300850F83F08E828F83A3E0FA79011211B6FD
:1017F300E48E828F83F0F98002790474021201BDB2
:101803000216ADE0FAA3E0FB122260740222F58215
:10181300EF3400F583E0850882850983A3A3A3A39E
:10182300A3A32274F31201FE74FF1201A7EAFEEBD5
:10183300FFEE240EF50AEF3400F50B850A82F583DB
:10184300E0543FF508750C04750D00780C12034540
:1018530012190612220774021201BDEA7001EB701D
:1018630009E48E828F83F00218F3850A82850B8345
:10187300E0A2E640ECE50860E8EE2402FAEF34006B
:10188300FBE508C39407501CE508C33324E6F5823F
:10189300E434F4F5831218FD1201FCE9640170C10C
:1018A300740180BE743F6508600EE508C394204050
:1018B300B0E508C3943F50A9851082851183AC829B
:1018C300AD83120D5AE9609974018E828F83F09073
:1018D300F49AE07002A3E06017851082851183E01B
:1018E300F990F49A1218FD1201FCE96003021864DE
:1018F30074011201BD7F0602025EE0F8A3E0F583E6
:1019030088822290F496E0FCA3E0FDEE240AFAEF2D
:101913003400FB2274F81201FEEAFEEBFFE9FAEE53
:10192300240F12195954CF7583F4758299FBE04B38
:1019330088828983F0EAF9EE2402FAEF3400FB127D
:10194300068AE97004790080027909E48E828F8324
:10195300F07F0102025EF8EF3400F988828983E0A8
:1019630022C082C08390F498E0F90215E82279003E
:101973002274F71201FE7508047509007808120332
:10198300457C007D007A9C7BF4122347740212018C
:10199300BD90F4A4E0701B78081203457CF47DF439
:1019A3007AA07BF412226074021201BD740190F4D8
:1019B300A4F080031201BD7F0202025EC082C083D5
:1019C30090F4A4E060067AA07BF480047AF47BF4BC
:1019D300D083D082227AF97BF42279022274F7121F
:1019E30001FE790090F4A4E0702175080489097858
:1019F30008120345EAFCEBFD7AA07BF41222607423
:101A0300021201BD740190F4A4F0F980AA74F712D4
:101A130001FE7508047509007808120345EAFCEB1A
:101A2300FD7A9C7BF4122260740280887AB77BF47F
:101A33002274F51201FEEAFEEBFF8E828F83A3A3CD
:101A4300A3A3A3E0F91203B9010506561A0103562D
:101A53001A5A1A7D0180027D038E828F83A3A3A36A
:101A6300A3E0FC8E828F83A3A3E0FAA3E0FB12150D
:101A7300ED8A088B09A909EA7001E9602F750A0448
:101A8300750B00780A1203458E828F83E0FCA3E076
:101A9300FDEA2406FAE93400FB1222607402120103
:101AA300BD7901AA08AB09121917800279037F04D3
:101AB30002025E74F71201FE74FD1201A7E48510A1
:101AC30082851183F08A828B83A3A3A3A3A3E0C09F
:101AD300E074011201F2D0E0F0EA2406F508EB34D9
:101AE30000F50978081203458A828B83120356EAAC
:101AF3002404F508EB3400F50978081203458A82BB
:101B03008B83A3A3E0FCA3E0FD74061201F2AA8277
:101B1300AB831216E674061201BD74031201BD7F76
:101B23000202025E74F51201FEEAFEEBFF75080085
:101B330074046970081207831208F6806F740569CC
:101B430070051208CF806574066970398E828F83A1
:101B5300E0F9120C87EA7001EB70047902804F758B
:101B63000A02750B00780A120345EA2406FCEB34DB
:101B730000FD8E828F83A3AA82AB8312226074023C
:101B83001201BD8027740769700B1209AEE98E82BA
:101B93008F83F080177408697005120765800D74D0
:101BA300096970051207838003750802A908021AE0
:101BB300B174F71201FEEAFEEBFF750802740169C6
:101BC300702075080475090078081203451219BFBF
:101BD300EAFCEBFDEEFAEFFB12226074021201BD88
:101BE3008009E970091219E0E96003750800A90882
:101BF300021B2274F71201FEE9FC8A828B83E0F94F
:101C0300740E6C60047902801374FF6960F7120C20
:101C130087EA7001EB60EE120C787900021B2274E4
:101C2300F51201FE90F4FD780812014C7583F475EA
:101C330082A57808120137701090F5017808120117
:101C43004C90F4A5780812015B90F4A9EAF0A3EB99
:101C5300F01209D1E990F4ABF080007F0402025E38
:101C630074F51201FE74E91201A7120B0FE9FE7F4E
:101C730006121A2F851082851183EAF0A3EBF07404
:101C8300071201F2A882A98374021201F2E8F0A3F9
:101C9300E9F074041201F27408F074051201F2748D
:101CA30003F0790474091201F2AC82AD837AA57B47
:101CB300F412106974071201F27401F090F4ABE0AE
:101CC300C0E074081201F2D0E0F0740D1201F27456
:101CD30002F01219DD740E1201F2E9F0851082850B
:101CE3001183AC82AD837A03790212150D74051248
:101CF30001F27403F074071201F2A882A98374023B
:101D03001201F2E8F0A3E9F0740F1201F2A882A91C
:101D130083851082851183E8F0A3E9F074036E6074
:101D23000B74016E70031208CF1207651209FE745B
:101D3300036E600D74016E70051208F680031207BE
:101D430083851082851183AC82AD837A0279021276
:101D5300150DE9705B74071201F2E0547FFA740108
:101D63006A6004EF6A7049750804750900780812FF
:101D73000345740B1201F2AC82AD8374151201F2A8
:101D8300AA82AB8312226074021201BD7808120189
:101D93004CAA08AB09AC0AAD0B121E2C740F12012E
:101DA300F2AA82AB83121A1090F4ABE004F07F0026
:101DB300EFF974171201BD021C5E74F81201FE7E66
:101DC300007D017C0090F4ABE0F9120F55E970043B
:101DD300120A860EEEF97F0102025E74F51201FE0D
:101DE30090F4FD780812014C7583F47582AC780881
:101DF300120137701090F505780812014C90F4AC7D
:101E0300780812015B1209D1E990F4B4F060F67519
:101E1300080275090078081203457C007D007AB139
:101E23007BF41223477402802174F51201FE8A08A1
:101E33008B098C0A8D0B90F4FD780812013760082A
:101E430090F4AC780812015B80031201BD7F040299
:101E5300025E74F11201FE74F81201A7EAFEEBFFB1
:101E63008E828F83E0F874F228F874FF3400F9C38C
:101E7300E89409E99400A2D265D033401A1219DD1F
:101E8300E9FAEE24171220616A600C7902740812D1
:101E930001BD7F0802025E7904E91201F2AC82AD52
:101EA30083EE2411FAEF3400FB12100CC082C083BE
:101EB30090F4AC780812014CD083D08278081201D8
:101EC3003770C8EE2415122061F50AEE2408F50ECA
:101ED300EF3400F50FA90AAA0EFB120CC98A088B6E
:101EE30009A808A909E87001E96061122051C0E05E
:101EF30074011201F2D0E0F088828983A3A3A3A323
:101F0300A3A3A3A3E0C0E074021201F2D0E0F01295
:101F1300196474031201F2E912207F8A088B09A85D
:101F230008A909E8FEE9FFE87001E9601A750804E9
:101F3300750900780812034512203F1201BD79008C
:101F4300EEFAEFFB1219177901021E9090F4B0E03C
:101F53007003021E8E120BED8A088B09EA7001EBE7
:101F630060E5750C04750D00780C120345AC0EADDD
:101F73000FEA24020A0AEB1220481201BDAA08AB99
:101F8300097902120DF5E97009AA08AB09120C7858
:101F930080B590F4B3E0640260EFE0F50C740125C2
:101FA3000C12206AA3E0C0E0E50C24B1F582E4340E
:101FB300F4F583D0E012206AE50AF0740285088202
:101FC300850983F0A3A882A983EE241612206164F5
:101FD3004070047401800274038882898312206F25
:101FE300E0C0E074021201F2D0E0F012196474034D
:101FF3001201F2E9F0122051C0E074011201F2D093
:10200300E012207F8A0A8B0BA80AA90BE8FEE9FFDE
:10201300E87001E97003021F8C750A04750B0078E0
:102023000A12034512203F1201BD7900EEFAEFFBBD
:10203300121917E96003021F8C021F4AAC0EAD0F81
:10204300EE2406FAEF3400FB12226074022274813C
:10205300851082851183F0EE241012206122F5820F
:10206300EF3400F583E02212206FA322F08508826B
:10207300850983A3A3A3A3A3A3A3A322F0EE240D03
:102083001220615407FA7403C39AFD7C04851082FD
:10209300851183AA82AB8379021215ED2274F8129B
:1020A30001FEEAFEEBFF7D017C0090F4B4E0F9123F
:1020B3000F55E97007120A867901803AEE240FF86A
:1020C300EF3400F98E828F83E0FA74F22AFA74FFF8
:1020D3003400FB74086A7001EB700974018882890B
:1020E30083F0800988828983E064017007EEFAEF48
:1020F300FB121E5579007F0102025EC082C083126B
:1021030009D1E990F4B5F0D083D0822274F712019B
:10211300FEEAFEEBFF7D017C0090F4B5E0F9120FBF
:1021230055E97007120A867901802E75080475092E
:102133000078081203451219BFEAFCEBFDEE2404F4
:10214300FAEF3400FB12220774021201BDEA700198
:10215300EB70047900800279027F0202025EC08282
:10216300C0831209D1E990F4B6F0D083D082227FE4
:102173000402025E74F51201FEEAFEEBFF7D017CB0
:102183000090F4B6E0F9120F55E97007120A867948
:1021930001806AEE240FFAEF3400FB8A828B83E01E
:1021A300640170577D038E828F83E024F2FC7901F2
:1021B3001215ED8A088B09A909EA7001E9603C75DB
:1021C3000A04750B00780A120345EE2408FCEF3469
:1021D30000FDEA2406FAE93400FB122260740212BD
:1021E30001BDE5082411F582E5093400F583E0D249
:1021F300E7F07900AA08AB091219177900022172D6
:102203002279002274F81201FE74081201F2E0F838
:10221300A3E08015A3AA82AB838C828D83A3AC82B7
:10222300AD83E824FF18E934FFF9E87001E960247D
:102233008A828B83E0FE8C828D83E06E8A828B831D
:1022430060D2E0F88C828D83E0FAE8C39AFAE494D2
:1022530000FB80047A007B007F0102025E74F712A8
:1022630001FE74091201F2E0FEA3E0FFEAF8EBF9C4
:1022730080188C828D83E088828983F0A3A882A949
:10228300838C828D83A3AC82AD838E088F0974FF08
:1022930025081E74FF3509FFE5087002E50970D2B1
:1022A3007F0202025E74F71201FE74091201F2E06A
:1022B300F8A3E0F9EAFEEBFF8A088B09C3EA9CEB7B
:1022C3009D405EEC28F582ED39F583C3E5829508E0
:1022D300E5839509404BEA28FAEB39FBAC82AD83E1
:1022E3001223367002E5096041EC24FF1CED34FF34
:1022F300FDEA24FF1AEB34FFFB8C828D83E08A8294
:102303008B83F080DB8C828D83E08A828B83F08CDD
:10231300828D83A3AC82AD838A828B83A3AA82AB93
:10232300831223367002E50970DBEEFAEFFB7F02BE
:1023330002025E8808890974FF25081874FF3509AD
:10234300F9E5082274F81201FE74081201F2E0F8AC
:10235300A3E0F98A828B838003ECF0A3E8FEE9FF14
:1023630074FF2E1874FF3FF9EE7001EF70EB7F01DD
:0323730002025E05
:0000D3012C
:00000001FF
