:030000000200D328
:1000830002091700000080FB1200E2B9000302001E
:10009300CDE490F3FF78BA79018002F0A3D8FCD9BC
:1000A300FA90F4B8AA82AB839000E578587901807E
:1000B30015E493A3AC82AD838A828B83F0A3AA82D7
:1000C300AB838C828D83D8E9D9E712051C12008695
:1000D30075D00075813F7510FF7511F302008B79A0
:1000E300012212345678FFFFFFFF1432506EFF00D7
:1000F30000000100000000000000000000000000FC
:1001030000000000000000000000000000000000EC
:100113000000000000000000A72663258D2036277D
:100123003F1C3E26795634120201010100000000F3
:10013300000807060504030201E066701008A3E047
:1001430066700A08A3E066700408A3E06622E0F67E
:1001530008A3E0F608A3E0F608A3E0F622E6F00819
:10016300A3E6F008A3E6F008A3E6F022CAC0E0E69F
:10017300F0A308DAFAD0E0FA22CAC0E0E0A3C5820D
:10018300CCC582C583CDC583F0A3C582CCC582C54A
:1001930083CDC583DAE6D0E0CA22C3E498F8E499B4
:1001A300F91201DE8026C3E49AFAE49BFBE920E717
:1001B300E91201DEE498F8E499F922C3E498F8E43B
:1001C30099F91201DEE498F8E499F9C3E49AFAE4A0
:1001D3009BFB22EB20E7CFE920E7E0B90010BB004F
:1001E30008E88AF084F8AAF022E4FBC8FA22EB704C
:1001F300227B10C833C8C933C9335007C39AC3DB42
:10020300F280069A50012ADBEAC833F4C8C933F4F2
:10021300C9FA2275F008E4C833C8C933C933C99A87
:10022300C99B5004C92AC93BD5F0ECFBC833F4C8B9
:10023300E4C9FA22600C08C6C313C618C613C6D590
:10024300E0F422251010AF08F510400215118008C4
:10025300F51040021511D2AF22C0D0251010AF08FF
:10026300F510500205118008F51050020511D2AFA8
:10027300D0D0222510F58210AF08F51040021511D9
:100283008008F51040021511D2AF85118322251085
:10029300F582E43511F58322E4732510C582C0E0AD
:1002A300E51134FFC583C0E0E510C3958224F9F856
:1002B300E4C5A8858311858210C5A8E8CEF0A3E51F
:1002C30020F0A37808E608F0A3DEFAEFF0A3E581B7
:1002D30024FBF8E608F0A3E608F0A30808E608F014
:1002E300A3E608F0A315811581D0E0FED0E0F81550
:1002F300811581E8C0E0EEC0E0228511838510827C
:10030300E0A3FEE0A3F5207808E0A3F608DFFAE017
:10031300A3FFE0A3C0E0E0A3C0E0E0A3C0E0E0A34C
:10032300C0E0E4C5A8858210858311C5A8D083D019
:100333008222C0D02510C582C0E0E51134FFC583F9
:10034300C0E0E510C3958224F310AF0885831185BF
:1003530082108008858311858210D2AFC8F0A3E98B
:10036300F0A3EAF0A3EBF0A37908E709F0A3D8FA26
:10037300ECF0A3EDF0A3EEF0A3EFF0A3D0E0F0A335
:10038300D0E0F0A3D0E0F0A3E520F0A3E5F0F0A3E4
:1003930022851183851082E0C0E0A3E0F9A3E0FA8F
:1003A300A3E0FBA37808E0F608A3DFFAE0FCA3E0F0
:1003B300FDA3E0FEA3E0FFA3E0C0E0A3E0C0E0A351
:1003C300E0F5D0A3E0F520A3E0A3F5F0E4C5A8850C
:1003D3008311858210C5A8D082D083D0E0F8D0E005
:1003E3003274028000C0E0F404120276D0E01201FD
:1003F3006F2274028000CCC0E0EDC0E0E510C39C26
:10040300CCAD1150011D10AF068C108D1180068CE0
:10041300108D11D2AF12017CD0E0FDD0E0FC22D0D0
:1004230083D082C5F0E493A3C5F0C395F0F5F0E45F
:1004330093A3C395F04005E5F0048001E475F00251
:10044300A42582F582E5F03583F583E493A3C0E028
:10045300E493C0E022D083D082CCC0E0E493A360D5
:10046300061204821470FAE493A360061204A11422
:1004730070FAD0E0FCE493A3C0E0E493C0E022C0B0
:10048300E0E493A3D39C5010E493A3C39C400AD00D
:10049300E0D0E0D0E0020475A3A3A3D0E022C0E043
:1004A300E493A36C7009D0E0D0E0D0E0020475A31C
:1004B300A3D0E022C082C08374FE12024612050A52
:1004C30085108285118374AAF0A3E4F085108285D8
:1004D3001183E07004C2AF80FE740212025CD08309
:1004E300D0822253CBEFC2D843CB0475F00DEAA4DC
:1004F300F5CD74FC55CB4402F5CB43CB10A2D850B9
:10050300FC53CBEFC2D822120511438F202243FEA6
:100513000143FE08D290D293221204B7800312063D
:10052300AD7A007B001215ECE970F3C290C293E43C
:1005330090F400F090F4B8780812015190F4017827
:10054300081201607C007DF47A01790A1217DBA29C
:1005530081400A79011206B9120607800CA2855060
:10056300EE79021206B912056E80FE74F812029D2E
:1005730074FC1202467403120291AA82AB83121610
:100583001FE970F179011206B97C007D007A0479C4
:10059300031217DB12069A801A851082851183E0F5
:1005A30064016005E064027005E0F91206B9E490A5
:1005B300F3FFF07402120291AC82AD838510828541
:1005C3001183AA82AB837403120291E0F912176DAF
:1005D300E970B67402120291E060AE7401120291E6
:1005E300E0FE60B590F3FFE0C39E50C7851082859F
:1005F3001183E064016005E064027005E0F912060E
:10060300B9EE80AB74F812029D74FD1202467E00AF
:1006130079021206B980031206AD7402120291AA7E
:1006230082AB831217D7E970EEA2934005790212C9
:1006330006B9740280027401851082851183F090DB
:10064300F3FFE004F0C0E07401120291D0E0F07C0B
:10065300007D007A0479031217DB12068B12068BD6
:1006630012069A7C02851082851183AA82AB83ECE1
:10067300120291E0F9121693E970D479011206B9C6
:100683000E74075E60B080AA7AE87B03120B637A6C
:10069300E87B03120B63227AE87B03120B637C0073
:1006A3007D007A0579031217DB2279011206B979E5
:1006B300021206B980D97401697006639001E5904E
:1006C300227402697005639008E5902274F71202A0
:1006D3009D75081875090078081203E41209E112E0
:1006E300025C90DF36E054EF64016004C2AF80FE29
:1006F30090DF37E0C394035004C2AF80FE53BEFBC8
:10070300E5BEA2E650FA53C6BF43BE0474F4F5D562
:1007130075D424743C90DF13F0741490DF14F074D8
:100723001590DF02F0740590DF04F0748E90DF2ED5
:10073300F0740990DF25F0741290DF07F0E490DF86
:1007430008F0742190DF09F0747190DF0AF0747A75
:1007530090DF0BF0742D90DF0CF0743B90DF0DF005
:10076300741390DF0EF0742290DF0FF074F890DFB3
:1007730010F0746290DF11F0741D90DF15F0741C9B
:1007830090DF16F074C790DF17F0E490DF18F07471
:10079300B090DF19F074B690DF1AF0741090DF1B7D
:1007A300F0120A3F741F90DF1FF0748890DF23F06C
:1007B300743190DF24F0740290F405F07900120C88
:1007C300BE7E007F0075E10275081475090590DF90
:1007D3003CE0545070237A407B00120B1CE5082444
:1007E300C0F508E50934FFF509C3E5089401E509F7
:1007F3009400A2D265D03350D57A10EEC333FEEF06
:1008030033FF90DF3AE0A2E0E492E04EFE1AEA7092
:10081300EA74804EF5BCEFF5BC120AD090F4207454
:1008230033F0A3E4F090F42274E2F0A37404F043F1
:100833009A01D2AF020B5E74F712029DEAFEEBFF40
:10084300890975080090F405E064017004C2AF8063
:10085300FE120AD0EF90F424F0EE90F425F074DF4A
:1008630090F426F074D990F427F07420120AA2743D
:100873004190F42BF0E509701143D60175E103E5CE
:10088300E9A2E450FA53E9EF806474016509600456
:10089300C2AF80FE750904801C120AD0120A51E906
:1008A300540F04FE90F422E0FAA3E0FB120B1C1E8B
:1008B300EE70F1150943D60175E10290DF3BE06468
:1008C3000D70F87E147F0590DF3CE05450700512E4
:1008D3000C4F50F375E10390DF3BE0640D6008E5D6
:1008E300E9A2E450FA809EE50970AE750801120A88
:1008F300D090F405E064037003120A57A908020BB1
:100903005EC082C08390F406EAFCEBFD741812010A
:100913007C020AF1C0E074F112033590F405E0643F
:10092300036004C2AF80FEE5E9A2E4502BE5E9A22F
:10093300E6502553E9EF53E9BF539BFCE59B120AAD
:10094300D075081675090078081203E41209E1123C
:10095300025C120A570209DC53E9EF539BFCE59B47
:1009630075080275090078081203E490F406E004A0
:100973002406FCE434F4FD7A1C7BF41227DA7402B7
:1009830012025CE0FA90F41DE0A2E7503B8A08747F
:10099300012508F8E43400F9E89417E99400C365E5
:1009A300D0335024EAC3940B401E7A077BF4120D14
:1009B3003EE9701490F41CE0F9120C6BE9F090F42A
:1009C3001DE0C2E7F012198075081678081203E4D7
:1009D3001209E112025C43D6017F020203947C00F8
:1009E3007D007A067BF412287974022274F81202CD
:1009F3009D90F405E064016013A2AFE492E0FEC2AF
:100A0300AF120AFF7401F0EEA2E092AF020C4AC0EB
:100A130082C083E5C6A2E65004C2AF80FE90F4050F
:100A2300E064017014120A3F740290F405F075E15A
:100A33000490DF3BE0640170F8020AF174EA90DF8E
:100A43001CF0742A90DF1DF0E490DF1EF02243B403
:100A530004A9BC2274F712029D74DF90F424F0748D
:100A6300D990F425F074F490F426F0740690F427EA
:100A7300F07480120AA2741190F42BF075D681756C
:100A8300081675090078081203E41209E112025CE2
:100A930043D601120AF675E102439110020B5E90F0
:100AA300F428F0741890F429F0741390F42AF022C7
:100AB300C082C08390F405E064017004C2AF80FE7D
:100AC300E0640360067403F0120A578021C082C0F9
:100AD300835391EF75E10490DF3BE0640170F87597
:100AE300D68153D1FE120AF6800490DF03F0D0833F
:100AF300D08222539BFCE59B53E9EF22C082C08343
:100B030090F405E064017004C2AF80FEE0640370FA
:100B130006120AD07402F080D574F712029D8A0877
:100B23008B0974047808120237AE08AF09EA700122
:100B3300EB6028A2AFE492E0F508C2AF7A107B0025
:100B43001204E6E508A2E092AFEEF8EFF974FF288D
:100B53001E74FF39FFE87001E970D87F020202FDBD
:100B630074F812029DEAFEEB800E7AF47B01120BFD
:100B73001CEE24FF1EEF34FFFFEE7001EF70EB025B
:100B83000C4A74F612029D90F420E0F508A3E0F5F8
:100B930009A2AFE492E0FAC2AF740190F41FF0EA45
:100BA300A2E092AF800CE50824FFF508E50934FFC5
:100BB300F509E5087002E50960357E1F7F00A2AFE5
:100BC300E492E0F50AC2AF7A107B001204E6E50A6C
:100BD300A2E092AF90F41EE07012EEF8EFF974FF0A
:100BE300281E74FF39FFE87001E970D2E060B7A2F4
:100BF300AFE492E0FAC2AFE490F41EF090F41FF079
:100C0300EAA2E092AF7F030202FDC082C08390F4A8
:100C13001FE06006740190F41EF0020AF174F812EA
:100C2300029D90F405E064036004C2AF80FE7E146D
:100C33007F0590DF3CE054507005120C4F50F39049
:100C4300DF3AE0F9120C6B7F010202FD7A407B0070
:100C5300120B1CEE24C0FEEF34FFFFC3EE9401EF32
:100C63009400A2D265D03322C008C009E9C394809E
:100C7300E94019F879FF7A027B001201D6880889C6
:100C83000974B72508F874FF3509800BC313F8748A
:100C9300B728F874FF3400F9C3E89480E994FFA2FD
:100CA300D265D03350027880E8F9D009D00822C049
:100CB30082C08390F405E0F9020AF174F712029DF1
:100CC3008908E9C394044004C2AF80FE120AD0E548
:100CD3000824C0F582E434F4F583E090DF06F09055
:100CE300F405E064037003120A57020B5EC082C06E
:100CF300838A828B83E064FF70047901801FE09014
:100D0300DF05F07C008C82A8827900120D93C0E08D
:100D1300120D88D0E0F00CECC3940440E8020AF111
:100D2300C082C08390F4C4E064FF7004C2AF80FE4D
:100D3300740190F42CF07407020AED74F812029D0A
:100D430090F42CE07004790080387E007D007C00F4
:100D53008C82A882120D93FF120D88E06F70010E32
:100D6300E824BCF582E434F4F583E06F70010D0CE4
:100D7300ECC3940440DA74046D60CB74046E60C6F3
:100D83007901020C4AE824C4F582E434F4F58322A1
:100D9300EA28F582EB3400F583E02274F712029D12
:100DA300EAFEEBFF75082575090078081203E47C59
:100DB300007D007AC97BF4122879740212025C74F4
:100DC3000390F4C9F0743D90F4CAF0742090F4CB0E
:100DD300F0740190F4CCF0121C42EEFAEFFB1218FF
:100DE30090121339121C3E122691EEFAEFFB121EDB
:100DF300F212262D1220AE12273590F4E3E0703460
:100E03007402F0740390F4E4F0743F90F4EBF09008
:100E1300F4ECF074FF90F4EDF07508047808120315
:100E2300E4121CFDEAFCEBFD7AE57BF412279274D5
:100E33000212025C79007F020202FD74F812029D25
:100E430074FF1202467B00EB120F0870070BEBC313
:100E5300940340F374036B70067A007B00805DEBB0
:100E630075F00BA424CDFEE5F034F4FFEEF8EFF9B2
:100E7300E488828983A3A3A3A3A3A3A3A3A3F07456
:100E83000288828983F090F4CCE088828983A3A3CB
:100E9300A3A3A3A3A3A3A3A3F090F4CCE004F0E043
:100EA300F960F674FF6960F1851082851183AA8267
:100EB300AB83121210E970E1EEFAEFFB7401120238
:100EC3005C7F010202FDC082C083E48A828B83F0CF
:100ED300D083D08222C082C08374FF120246851061
:100EE30082851183AA82AB83121210E96006E01295
:100EF3000F086006758200758300AA82AB837401B4
:100F030012025C80CB75F00BA424CDF582E5F0349E
:100F1300F4F583E064022274F312029D8A0C8B0DB4
:100F230089097ECD7FF47508008E828F83E0640289
:100F33007033750A04750B00780A1203E4AC0CAD28
:100F43000D12103712025CEA7001EB70188E828F5B
:100F530083A3A3A3A3A3A3A3A3A3E065097006EE9E
:100F6300FAEFFB8009120F7640BF7A007B007F0601
:100F73000202FD121256940222C082C083E98A82C1
:100F83008B836001A3A3A3A3A3A3A3A3A3E0FCEC6C
:100F930060078A828B83E0700479028008ECC39433
:100FA3002040F67900020ED374F112029D8A0C8B55
:100FB3000D8C0E8D0F7ECD7FF48A828B83A3A3A32A
:100FC300A3A3A3A3A3A3E0543FF5097508008E824E
:100FD3008F83E06402704BA3A3A3A3A3A3A3A3E003
:100FE3006509703E743F6509601B750A04750B0043
:100FF300780A1203E4E50C240512103112025CEAAC
:101003007001EB701D8E828F83A3A3A3A3A3A3A35D
:10101300A3A3A3E0850E82850F83F0120C0D790143
:10102300800712125040A779007F080202FDFCE5F9
:101033000D3400FDEE2402FAEF3400FB122739745D
:10104300022274F112029D74FE12024689088A0C70
:101053008B0D7ECD7FF4750A02750B00780A12039F
:10106300E47C007D007402120291AA82AB831228F1
:1010730079740212025C750902E50C6E7003E50DCA
:101083006F70030211188E828F83E0640260030283
:101093001118EE2408F50EEF3400F50F850E82F5D6
:1010A30083E0FAC3943E506D74016508702890F490
:1010B300CAE0C39A505FEAF8C3E498F8E49400F9ED
:1010C300851082851183E58228F8E58339F9743D1B
:1010D30028F582E48039750A04750B00780A120337
:1010E300E4E50C240212103112025CEA7001EB7089
:1010F30024850E82850F83E0F8851082851183E5B0
:101103008228F8E5833400F974E028F58274FF3906
:10111300F5837401F0EE240BFEEF3400FF1509E5AF
:1011230009600302107C79007A008A0A851082859F
:101133001183E582250AF582E5833400F583E070A7
:101143003D74026508700674202AF9803E743DC31D
:101153009AF990F4CBE0FAE9C39A404290F4CAE0DA
:10116300697003E014F0E9850C82850D83A3A3A3C2
:10117300A3A3A3A3A3F0740212025C02102C0AEA35
:10118300C3940240A57402650870C790F4CAE0C313
:1011930099400B90F4CBE0C39950CBE980C7790019
:1011A30080C474F512029DEAFEEBFF7508028C0AF7
:1011B300EE250A121200A2E7503C8D08EE25081214
:1011C300120069702E75080475090078081203E48B
:1011D300121C8DEAFCEBFD8E828F83A3AA82AB8364
:1011E300122739740212025CEA7001EB700575086C
:1011F300008003750801A9087F040202FDFAEF3499
:1012030000FB740C2AF582E43BF583E02274F812A8
:10121300029D7CCD7DF47E008C828D83E064027020
:1012230018A3A3A3A3A3A3A3A3A3A3E069700AEE94
:101233008A828B83F0790180110EEC240BFCED3450
:1012430000FDEEC3940340D07900020EC41212567F
:101253009403220508EE240BFEEF3400FFE508C3D8
:101263002274F512029DECFEEDFF890A89087509C7
:101273000078081203E4EAFCEBFDEEFAEFFB122719
:10128300DA740212025CE50A1204220202BE129808
:1012930012BE12AC128E828F83E0F8A3E0F98E8225
:1012A3008F83E8F0A3E9F080128E828F837808128F
:1012B30001518E828F8378081201600211FB74F54D
:1012C30012029D74FA120246EAFEEBFFECFAEDFB02
:1012D300E91204220202E112E712E1120313EEFC07
:1012E300EFFD80388E828F83E0FCA3E0FD851082C2
:1012F300851183ECF0A3EDF08510828511838018AE
:101303008E828F8378081201517402120291780839
:101313001201607402120291AC82AD8389087509CF
:101323000078081203E41227DA740212025C7406CE
:1013330012025C0211FB74F712029D7508347509E1
:101343000078081203E47C007D007A2D7BF41228D8
:1013530079740212025C78081203E47C007D007A3F
:10136300617BF4122879740212025C7F020202FD8F
:1013730074F612029DE9FC780079007E007F007DFF
:101383000074016C70067A2D7BF480047A617BF41F
:1013930075090388088A828B83E0601D74016C7071
:1013A300210DE06404601BA3E0F50AC39509501204
:1013B300EAF8EBF9850A09800974026C6048EAFED1
:1013C300EBFF0508EA241AFAEB3400FBE508C394A3
:1013D3000240C2EE7001EF7020E87001E970067AF6
:1013E300007B008021E8FEE9FF8E828F83A3E0FA71
:1013F300ECF912140EE508800874012D8E828F8398
:10140300A3F0EEFAEFFB7F030202FDC082C08374F8
:1014130001697031782D79F4A2AFE492E0FDC2AF97
:101423007B0288828983E0600BA3E0FCEAC39C50C3
:1014330003E014F0E8241AF8E93400F91BEB70E236
:10144300EDA2E092AFD083D0822274F112029D7498
:10145300F8120246851082851183EAF0A3EBF08C23
:101463000A7402120291E4F0A3F0F50EF50F740171
:101473006970237E2D7FF4750C031215D2FA740163
:101483006A703D1215DFA3E0F9120ED88A0E8B0F96
:10149300EA7001EB70077A007B000215C88A828B21
:1014A30083A3A3A3A3A3A3A3A3E0F508EA2402F8B9
:1014B300EB3400F97406120291E8F0A3E9F0800A14
:1014C300EA70D31215DFA3E0F5087401650A70050D
:1014D3007509018003750903750D02A2AFE492E05B
:1014E300FAC2AF8E828F83E0650960030215A87488
:1014F30004F0EAA2E092AFEE240BF582EF3400F59C
:1015030083E0543F650860030215A01215D26401FD
:101513007021743F65087009E50E2402F8E50F8019
:1015230005EE2407F8EF3400F97404120291E8F091
:10153300A3E9F0750A04750B00780A1203E4740832
:10154300120291E0FCA3E0FD7406120291E0FAA3FB
:10155300E0FB122739740212025C1215D26003EA0F
:10156300703B8E828F83A3AA82AB83E0C3950C501A
:101573002C7402120291E07002A3E0600D74021257
:101583000291E0F81215E5E509F08A828B83E0F514
:101593000C7402120291EEF0A3EFF0800D8E828F95
:1015A30083E50980F5EAA2E092AFEE241AFEEF3458
:1015B30000FF150DE50D60030214DE7402120291A3
:1015C300E0FAA3E0FB740812025C7F080202FD85C7
:1015D3001082851183E0F81215E5E02285108285DB
:1015E3001183A3E0F58388822274F812029DEAFE38
:1015F300EBFF90F495E070191206CFEEFAEFFB12B1
:101603000D9EE97012120A12121C8D120CF0120DAB
:10161300237401F0121F337F010202FD74F71202DB
:101623009D8A828B83120CB2E9F508790012261683
:1016330074036508600C740165087003120A1212C2
:101643000AB37E007F001225C1E9FA8A0970187A6D
:101653000A7B00120B63EE24010EEF3400FFC3EE8E
:1016630094F4EF940140DF74036508600E74016520
:101673000870051209EF8003120AFFE50970097962
:101683000112261679018003F079007F020202FD20
:1016930074F712029D75080075090078081203E4B7
:1016A3001216AD740212025C80E174F112029D8A7B
:1016B300088B098C0A740F120291E0F50EA3E0F572
:1016C3000F120ED88A0C8B0DAE0CAF0D750B0212D8
:1016D3000CB2EE7001EF600F7901EEFAEFFB120F1F
:1016E3007CE9FA8A0B6007A90B7F080202FDE50873
:1016F3007002E50960F1E50AC3940B50EAE50E7048
:1017030002E50F702D8E828F83A3E0FDAC0AAA0839
:10171300AB098E828F83A3A3A3A3A3A3A3A3A3E055
:10172300F91218BB8A088B09EA7001EB7008790378
:1017330080B7790280B3750A04750B00780A120327
:10174300E4EE2402FCEF3400FDEA24030A0A0AEB68
:101753003400FB122792740212025C7901AA08ABCF
:1017630009121BE5E9F50B0216EA74F312029D74E4
:10177300FD120246890AEAFEEBFF8C088D09120E60
:10178300D87902EA7001EB60411919120F7CE970F4
:10179300397401851082851183F0120291E50AF0F4
:1017A300750A00750B00780A1203E4780A1203E441
:1017B30078081203E4EEFCEFFD7406120291AA828C
:1017C300AB831219B4740612025C740312025C7FB9
:1017D300060202FD1221252274F712029DE9FBEA9B
:1017E300F9ECFEEDFF90F495E07013EB1204580052
:1017F300020501180A0118FC17790202188DEB1271
:1018030004220206FC1733184F18FC172018171868
:1018130058187D18EEFAEFFB121EC6806D7401692D
:101823006003E970D4EEFAEFFB121E84805C80C97A
:101833007403697009EEFAEFFB121D02804C740207
:101843006970B6EEFAEFFB121D86803EEEFAEFFBEF
:10185300121DF78035740169709F750804750900BE
:1018630078081203E4121CA6EAFCEBFDEEFAEFFB88
:10187300122792740212025C800E74016970AF1217
:101883001CABE98E828F83F0790002168EC082C072
:1018930083E490F49AF090F49BEAF0A3EBF0121C2B
:1018A3008D90F497EAF0A3EBF0120A51E990F496C5
:1018B300F060F6D083D0822274F112029D89088AE7
:1018C3000E8B0F8C0A8D0979021213738A0C8B0D00
:1018D300A80CA90DE8FEE9FFE87001E970077A009A
:1018E3007B0002197B740B250A8E828F83A3A3F0DE
:1018F300EE240B121C2754804508F090F496E0C0A8
:10190300E0EE240DF582EF3400F583D0E0F090F49F
:1019130096E004F060F8EE240CFAEF3400FB8A82C0
:101923008B83E054BF7583F4758299FCE04C54F8C3
:10193300450954778A828B83F088828983E0C2E7E2
:10194300F0750B00780A1203E4AC0EAD0FEE240E13
:101953000A0AEF3400FB122792740212025C750824
:101963000475090078081203E4121BD41227927439
:101973000212025CEEFAEFFB7F080202FD74F7121B
:10198300029D79011213738A088B09A808A909E833
:10199300FEE9FFE87001E96013EE24020A0AEF345E
:1019A30000FB120904EEFAEFFB121AF47F020202A3
:1019B300FD74F112029D74FE120246851082851198
:1019C30083ECF0A3EDF08A0A8B0B7411120291E001
:1019D300F50CA3E0F50D7415120291E0F50EA3E0EA
:1019E300F50FE4850C82850D83F07C0179011214D7
:1019F3004D8A088B09AE08AF09EE7001EF70030240
:101A03001ACA750800750900850A82850B83E0648C
:101A1300017015A3E0F9120ED88A088B09EA700148
:101A2300EB70057902021ACC8E828F83A3A3E02484
:101A3300F5F50A850C82850D83F0750B00780A1283
:101A430003E4EE240EFCEF3400FD74021202911243
:101A53001AD412025CE5087002E509600FEE24183F
:101A6300121ADFF0EE2419121ADFA3F07413120214
:101A730091E07002A3E0601E750804750900780800
:101A83001203E4EE2407FCEF3400FD7415120291F7
:101A9300121AD412025CE50E7002E50F6014EE24F4
:101AA3000CF582EF3400F583E05407850E82850F31
:101AB30083F08E828F83A3E0FA790112140EE48EF1
:101AC300828F83F0F980027904740212025C021996
:101AD3007BE0FAA3E0FB122792740222F582EF3433
:101AE30000F583E0850882850983A3A3A3A3A3A3A9
:101AF3002274F312029D74FF120246EAFEEBFFEE1C
:101B0300240BF50AEF3400F50B850A82F583E054C4
:101B13003FF508750C04750D00780C1203E4121BD5
:101B2300D4122739740212025CEA7001EB7009E4E3
:101B33008E828F83F0021BC1850A82850B83E0A20C
:101B4300E640ECE50860E8EE2402FAEF3400FBE53A
:101B530008C39407501CE508C33324ECF582E4342E
:101B6300F4F583121BCB12029BE9640170C174016B
:101B730080BE743F6508600EE508C3942040B0E55D
:101B830008C3943F50A9851082851183AC82AD832D
:101B9300120FABE9609974018E828F83F090F49BEE
:101BA300E07002A3E06017851082851183E0F9904D
:101BB300F49B121BCB12029BE96003021B327401DC
:101BC30012025C7F060202FDE0F8A3E0F58388823F
:101BD3002290F497E0FCA3E0FDEE2407FAEF340033
:101BE300FB2274F812029DEAFEEBFFE9FAEE240CE5
:101BF300121C2754CF7583F475829AFBE04B8882BD
:101C03008983F0EAF9EE2402FAEF3400FB12083A72
:101C1300E97004790080027909E48E828F83F07F72
:101C2300010202FDF8EF3400F988828983E022C0C3
:101C330082C08390F499E0F90218B62279002274E5
:101C4300F712029D75080475090078081203E47CF5
:101C5300007D007A9D7BF4122879740212025C9055
:101C6300F4A5E0701B78081203E47CFA7DF47AA1F2
:101C73007BF4122792740212025C740190F4A5F0B3
:101C8300800312025C7F020202FDC082C08390F4D3
:101C9300A5E060067AA17BF480047AFA7BF4D08312
:101CA300D082227AFF7BF42279022274F712029DFA
:101CB300790090F4A5E07021750804890978081269
:101CC30003E4EAFCEBFD7AA17BF41227927402127F
:101CD300025C740190F4A5F0F980AA74F712029DD6
:101CE30075080475090078081203E4EAFCEBFD7A31
:101CF3009D7BF4122792740280887ABC7BF4227451
:101D0300F512029DEAFEEBFF8E828F83A3A3A3A3AA
:101D1300A3E0F9120458010506241D0103241D281C
:101D23001D7D0180027D038E828F83A3A3A3A3E085
:101D3300FC8E828F83A3A3E0FAA3E0FB1218BB8A75
:101D4300088B09A909EA7001E96031750A04750B6A
:101D530000780A1203E48E828F83E0FCA3E0FDEA9D
:101D630024030A0A0AE93400FB12279274021202BE
:101D73005C7901AA08AB09121BE5800279037F0491
:101D83000202FD74F712029D74FD120246E48510EF
:101D930082851183F08A828B83A3A3A3A3A3E0C0CC
:101DA300E07401120291D0E0F0EA2406F508EB3466
:101DB30000F50978081203E48A828B831203F5EA9B
:101DC3002404F508EB3400F50978081203E48A8249
:101DD3008B83A3A3E0FCA3E0FD7406120291AA8205
:101DE300AB831219B4740612025C740312025C7F93
:101DF300020202FD74F512029DEAFEEBFF75080074
:101E03007404697008120AFF1209EF806F74056980
:101E13007005120A12806574066970398E828F8389
:101E2300E0F9120ED8EA7001EB70047902804F7565
:101E33000A02750B00780A1203E4EA2406FCEB3469
:101E430000FD8E828F83A3AA82AB83122792740232
:101E530012025C8027740769700B120C20E98E82D2
:101E63008F83F080177408697005120AB3800D74AC
:101E730009697005120AFF8003750802A908021D8B
:101E83008174F712029DEAFEEBFF75080274016983
:101E9300702075080475090078081203E4121C8D7C
:101EA300EAFCEBFDEEFAEFFB122792740212025CDE
:101EB3008009E97009121CAEE96003750800A908DE
:101EC300021DF274F712029DE9FC8A828B83E0F90A
:101ED300740E6C60047902801374FF6960F7120E4C
:101EE300D8EA7001EB60EE120EC97900021DF2749C
:101EF300F512029D90F50378081201517583F4756C
:101F030082A6780812013C701090F5077808120138
:101F13005190F4A6780812016090F4AAEAF0A3EBBA
:101F2300F0120A51E990F4ACF080007F040202FD44
:101F330074F512029D74E9120246120CB2E9FE7F97
:101F430006121CFD851082851183EAF0A3EBF07461
:101F530007120291A882A9837402120291E8F0A3E6
:101F6300E9F074041202917408F07405120291747A
:101F730003F079047409120291AC82AD837AA67BD3
:101F8300F41212C174071202917401F090F4ACE0E0
:101F9300C0E07408120291D0E0F0740D1202917443
:101FA30002F0121CAB740E120291E9F085108285C7
:101FB3001183AC82AD837A0379021217DB740512A5
:101FC30002917403F07407120291A882A983740228
:101FD300120291E8F0A3E9F0740F120291A882A90A
:101FE30083851082851183E8F0A3E9F074036E60A2
:101FF3000B74016E7003120A12120AB3120B85746A
:10200300036E600D74016E70051209EF8003120AEE
:10201300FF851082851183AC82AD837A0279021227
:1020230017DBE9705B7407120291E0547FFA7401C5
:102033006A6004EF6A70497508047509007808122C
:1020430003E4740B120291AC82AD837415120291F6
:10205300AA82AB83122792740212025C78081201DF
:1020630051AA08AB09AC0AAD0B1220FC740F120283
:1020730091AA82AB83121CDE90F4ACE004F07F00E3
:10208300EFF9741712025C021F2E74F812029D7E80
:10209300007D017C0090F4ACE0F91211A5E9700415
:1020A300120C0D0EEEF97F010202FD74F512029D72
:1020B30090F50378081201517583F47582AD7808A1
:1020C30012013C701090F50B780812015190F4AD99
:1020D3007808120160120A51E990F4B5F060F675C0
:1020E300080275090078081203E47C007D007AB2C7
:1020F3007BF41228797402802174F512029D8A08F8
:102103008B098C0A8D0B90F503780812013C60084B
:1021130090F4AD7808120160800312025C7F040220
:1021230002FD74F512029D74EC1202468A088B09B3
:10213300120E3E8A0A8B0BAE0AAF0BEE7001EF70E4
:10214300030223027901121045E9700AEEFAEFFB4C
:10215300120EC9022302750A04750B00780A1203D2
:10216300E4121CFDEAFCEBFD7412120291AA82AB8D
:102173008312250112025CA882A98385108285112E
:1021830083E8F0A3E9F07407120291A882A983748B
:1021930002120291E8F0A3E9F074041202917409A7
:1021A300F074051202917402F07904740912029119
:1021B300AC82AD837AAD7BF41212C18E828F83A37E
:1021C300A3A3A3A3A3A3A3E0C0E0740D120291D021
:1021D300E0F090F4B5E0C0E07408120291D0E0F0B2
:1021E300121C32740E120291E9F0740712029174F8
:1021F30001F0121CAB740F120291E9F08510828575
:102203001183AC82AD837A0379021217DBE9600391
:10221300022304120CB2E9F50A7405120291740246
:10222300F07407120291A882A9837402120291E842
:10223300F0A3E9F0EE2402F8EF3400F9851082856B
:102243001183E8F0A3E9F07403650A600C74016577
:102253000A7003120A12120AB3120B857403650A79
:10226300600E7401650A70051209EF8003120AFFFC
:10227300851082851183AC82AD837A0279021217AD
:10228300DBE970597407120291E0547FFA74016A12
:10229300601074036A600BEEFAEFFB120EC9790546
:1022A300805F74028E828F83F07409120291E08E34
:1022B300828F83A3A3A3A3A3A3A3A3A312255285BE
:1022C3000882850983F08E828F83A3A882A98374F1
:1022D3000A120291E06440700F7401800DEEFAEF70
:1022E300FB120EC979018019740388828983F090E7
:1022F300F4B5E004F0E070037401F0790080027932
:1023030003741402211D74F112029D74F812024623
:10231300EAFEEBFF8E828F83E0F874F528F874FFF2
:102323003400F9C3E89409E99400A2D265D033409C
:102333001A121CABE9FAEE24141225176A600C7901
:1023430002740812025C7F080202FD7904E912029A
:1023530091AC82AD83EE240EFAEF3400FB121264CB
:10236300C082C08390F4AD7808120151D083D0822B
:10237300780812013C70C8EE2412122517F50AEEF4
:102383002405F50EEF3400F50FA90AAA0EFB120F70
:102393001A8A088B09A808A909E87001E960611283
:1023A3002507C0E07401120291D0E0F0888289838E
:1023B300A3A3A3A3A3A3A3A3E0C0E0740212029167
:1023C300D0E0F0121C327403120291E91225358A0F
:1023D300088B09A808A909E8FEE9FFE87001E9608C
:1023E3001A75080475090078081203E41224F3121D
:1023F300025C7900EEFAEFFB121BE579010223443C
:1024030090F4B1E07003022342120E3E8A088B0956
:10241300EA7001EB60E5750C04750D00780C12038E
:10242300E4AC0EAD0FEA24020A0AEB1224FE1202F8
:102433005CAA08AB097902121045E97009AA08AB36
:1024430009120EC980B590F4B4E0640260EFE0F5C0
:102453000C7401250C122520A3E0C0E0E50C24B286
:10246300F582E434F4F583D0E0122520E50AF07414
:1024730002850882850983F0A3A882A983EE241329
:1024830012251764407004740180027403888289E2
:1024930083122525E0C0E07402120291D0E0F0120D
:1024A3001C327403120291E9F0122507C0E0740193
:1024B300120291D0E01225358A0A8B0BA80AA90BC8
:1024C300E8FEE9FFE87001E97003022440750A049D
:1024D300750B00780A1203E41224F312025C7900EC
:1024E300EEFAEFFB121BE5E960030224400223FE30
:1024F300AC0EAD0FEE24030A0A0AEF3400FB1227D9
:10250300927402227481851082851183F0EE240D6A
:1025130012251722F582EF3400F583E022122525D8
:10252300A322F0850882850983A3A3A3A3A3A3A35E
:10253300A3221225525407FA7403C39AFD7C04851F
:102543001082851183AA82AB8379021218BB22F011
:102553008E828F83A3A3A3A3A3A3A3A3A3A3E022F6
:1025630074F812029DEAFEEBFF7D017C0090F4B546
:10257300E0F91211A5E97007120C0D7901803AEE0A
:10258300240CF8EF3400F98E828F83E0FA74F52A75
:10259300FA74FF3400FB74086A7001EB700974016C
:1025A30088828983F0800988828983E064017007C7
:1025B300EEFAEFFB12230979007F010202FD74F7A3
:1025C30012029D7900A2AFE492E0FAC2AF90F4B494
:1025D300E06036E014F0EAA2E092AF09122616900A
:1025E300F4B2E0F97C0090F4B4E0FAECC39A501E24
:1025F3008C08E50824B2FAE434F4FB8A828B83A3C3
:10260300E08A828B83F00C80DDEAA2E092AF7F0246
:102613000202FDC082C083E970047A0180027A005D
:10262300EA90F4B1F0D083D08222C082C083120A30
:1026330051E990F4B6F0D083D0822274F712029D50
:10264300EAFEEBFF7D017C0090F4B6E0F91211A5E0
:10265300E97007120C0D7901802F750804750900C4
:1026630078081203E4121C8DEAFCEBFD8E828F8343
:10267300A3AA82AB83122739740212025CEA7001A7
:10268300EB70047900800279027F020202FDC082AE
:10269300C083120A51E990F4B7F0D083D082227F2D
:1026A300040202FD74F512029DEAFEEBFF7D017C3C
:1026B3000090F4B7E0F91211A5E97007120C0D7937
:1026C30001806CEE240CFAEF3400FB8A828B83E0EA
:1026D300640170597D038E828F83E024F5FC7901B8
:1026E3001218BB8A088B09A909EA7001E9603E75D3
:1026F3000A04750B00780A1203E4EE2405FCEF3498
:1027030000FDEA24030A0A0AE93400FB1227927443
:102713000212025CE508240EF582E5093400F58314
:10272300E0D2E7F07900AA08AB09121BE5790002B1
:1027330026A22279002274F812029D7408120291D3
:10274300E0F8A3E08015A3AA82AB838C828D83A3D8
:10275300AC82AD83E824FF18E934FFF9E87001E99E
:1027630060248A828B83E0FE8C828D83E06E8A8272
:102773008B8360D2E0F88C828D83E0FAE8C39AFA07
:10278300E49400FB80047A007B007F010202FD7465
:10279300F712029D7409120291E0FEA3E0FFEAF82A
:1027A300EBF980188C828D83E088828983F0A3A85B
:1027B30082A9838C828D83A3AC82AD838E088F091B
:1027C30074FF25081E74FF3509FFE5087002E5094B
:1027D30070D27F020202FD74F712029D7409120285
:1027E30091E0F8A3E0F9EAFEEBFF8A088B09C3EA5C
:1027F3009CEB9D405EEC28F582ED39F583C3E582C1
:102803009508E5839509404BEA28FAEB39FBAC823E
:10281300AD831228687002E5096041EC24FF1CEDCA
:1028230034FFFDEA24FF1AEB34FFFB8C828D83E037
:102833008A828B83F080DB8C828D83E08A828B8318
:10284300F08C828D83A3AC82AD838A828B83A3AA0F
:1028530082AB831228687002E50970DBEEFAEFFBA6
:102863007F020202FD8808890974FF25081874FF96
:102873003509F9E5082274F812029D7408120291D1
:10288300E0F8A3E0F98A828B838003ECF0A3E8FEEF
:10289300E9FF74FF2E1874FF3FF9EE7001EF70EB40
:0528A3007F010202FDAF
:0000D3012C
:00000001FF
