:030000000200D328
:1000830002081000000080FB1200E2B90003020026
:10009300CDE490040078BC79018002F0A3D8FCD9A8
:1000A300FA9004BBAA82AB839000E5785379018070
:1000B30015E493A3AC82AD838A828B83F0A3AA82D7
:1000C300AB838C828D83D8E9D9E71204771200863B
:1000D30075D00075812F75100075110402008B799E
:1000E3000122FFFFFFFF0F14191A2575D501000028
:1000F30000000000000000000000000000000000FD
:1001030000000000000000000000000000000000EC
:10011300000000C623EF221B1E5324CF195E237950
:100123005634120201010100000000000807060511
:1001330004030201E066701008A3E066700A08A3D6
:10014300E066700408A3E06622E0F608A3E0F60880
:10015300A3E0F608A3E0F622E6F008A3E6F008A37E
:10016300E6F008A3E6F022CAC0E0E6F0A308DAFA54
:10017300D0E0FA22CAC0E0E0A3C582CCC582C58321
:10018300CDC583F0A3C582CCC582C583CDC583DA33
:10019300E6D0E0CA22600C08C6C313C618C613C64D
:1001A300D5E0F422251010AF08F510400215118098
:1001B30008F51040021511D2AF22C0D0251010AFA0
:1001C30008F510500205118008F51050020511D2F0
:1001D300AFD0D0222510F58210AF08F510400215DC
:1001E300118008F51040021511D2AF851183222525
:1001F30010F582E43511F58322E4732510C582C01E
:10020300E0E51134FFC583C0E0E510C3958224F90E
:10021300F8E4C5A8858311858210C5A8E8CEF0A3AC
:10022300E520F0A37808E608F0A3DEFAEFF0A3E5F3
:100233008124FBF8E608F0A3E608F0A30808E60823
:10024300F0A3E608F0A315811581D0E0FED0E0F815
:1002530015811581E8C0E0EEC0E022851183851089
:1002630082E0A3FEE0A3F5207808E0A3F608DFFA16
:10027300E0A3FFE0A3C0E0E0A3C0E0E0A3C0E0E0B0
:10028300A3C0E0E4C5A8858210858311C5A8D083E7
:10029300D08222C0D02510C582C0E0E51134FFC54D
:1002A30083C0E0E510C3958224F310AF0885831162
:1002B3008582108008858311858210D2AFC8F0A390
:1002C300E9F0A3EAF0A3EBF0A37908E709F0A3D8D8
:1002D300FAECF0A3EDF0A3EEF0A3EFF0A3D0E0F07F
:1002E300A3D0E0F0A3D0E0F0A3E520F0A3E5F0F085
:1002F300A322851183851082E0C0E0A3E0F9A3E087
:10030300FAA3E0FBA37808E0F608A3DFFAE0FCA376
:10031300E0FDA3E0FEA3E0FFA3E0C0E0A3E0C0E0B4
:10032300A3E0F5D0A3E0F520A3E0A3F5F0E4C5A88E
:10033300858311858210C5A8D082D083D0E0F8D000
:10034300E03274028000C0E0F4041201D7D0E0125E
:10035300016A2274028000CCC0E0EDC0E0E510C366
:100363009CCCAD1150011D10AF068C108D11800671
:100373008C108D11D2AF120177D0E0FDD0E0FC22BA
:10038300D083D082C5F0E493A3C5F0C395F0F5F014
:10039300E493A3C395F04005E5F0048001E475F010
:1003A30002A42582F582E5F03583F583E493A3C0A7
:1003B300E0E493C0E022D083D082CCC0E0E493A3F6
:1003C30060061203E31470FAE493A36006120402B6
:1003D3001470FAD0E0FCE493A3C0E0E493C0E022FD
:1003E300C0E0E493A3D39C5010E493A3C39C400ABE
:1003F300D0E0D0E0D0E00203D6A3A3A3D0E022C094
:10040300E0E493A36C7009D0E0D0E0D0E00203D61F
:10041300A3A3D0E022C082C08374FE1201A71204FA
:100423006512047085108285118374AAF0A3E4F029
:10043300851082851183E07004C2AF80FE740212BE
:1004430001BDD083D0822275CB4475CC04EA33330B
:100453003354F8F5CD43CB10A2D950FC75CB00C271
:10046300D92243FE0143FE02C290C29122438F026E
:1004730043F701221204187A537B051213EEA2915B
:100483004005790212053DA2904005790112053D10
:10049300A2814004A2A050F81204A080FE74F812B6
:1004A30001FE74FE1201A77E008011790112053D41
:1004B300790212053D7AE87B03120A557A027B041E
:1004C300121567E970E5A2915005790212053D7C8A
:1004D300007D007A08790312156B740285108285FA
:1004E3001183F07AE87B03120A55EE60217AE87BE8
:1004F30003120A55EEC3940240077AE87B03120AFB
:1005030055EEC3940340077AE87B03120A5574013E
:100513002E5403FE900400E004F0C0E074011201C5
:10052300F2D0E0F07C02851082851183AA82AB832E
:10053300900402E0F912142680A97401697006631D
:100543009001E590227402697005639002E59022A0
:1005530074F81201FE74FD1201A7900402E06970A1
:100563005B851082851183AC82AD8374011201F225
:10057300AA82AB83900402E0F91214FDE9703D8571
:100583001082851183E0603474021201F2E0FE9060
:1005930004016012E0C39E501F74011201F2E0F9DE
:1005A30012053DEE800EE0600F74011201F2E0F9D6
:1005B30012053DE4900401F079018002790074038F
:1005C3001201BD7F0102025E74F71201FE75081B62
:1005D30075090078081203457C007D007A047B04CA
:1005E30012259674021201BD90624AE064A560046C
:1005F300C2AF80FE906249E07004C2AF80FE53BE7A
:10060300FBE59DA2E650FA0078F87901001208FA9A
:100613007001E970F775C600E59E70FC43BE047473
:10062300149061A9F0743F9061ABF074F8906196F7
:10063300F074859061A8F0745A9061ACF0741590D1
:1006430061B2F0E4906182F074109061B5F0740EC1
:100653009061B6F074039061B7F074099061FAF099
:1006630074FF9061E5F0906172F0906173F09061B6
:1006730089E054F34408F075E1E3906199E0A2E066
:1006830050F8780079007C10E8C333F8E933F99027
:1006930061A7E0A2E0E492E048F81CEC70EA748001
:1006A30048F5BCE9F5BC75E1EF75E1ED75E1ED9059
:1006B3006189E054F3F07401900403F0906180E0E9
:1006C300C2E0F0906181E05497F090618AE0C2E06B
:1006D300F0747F906194F079001209047902120991
:1006E3003E439A019004217433F0A3E4F0120B3CCF
:1006F300D2AF02093974F71201FEEAFEEBFF890952
:10070300750800900403E064017004C2AF80FE1218
:100713000B225391FD900423E08E828F83A3A3A326
:10072300F0900423E004F074018E828F83A3F074AD
:10073300888E828F83A3A3F075E1EE8E828F83E090
:10074300FB74022BF5D97A008005A3E0F5D90AEAF8
:10075300C39B40F6E509700B75E1E9E591A2E14021
:100763004A80F8740165096004C2AF80FE7E04808C
:10077300071E120B22120B3C75E1E3906199E0A274
:10078300E050F8A2AFE492E0FAC2AF75E1EA9061FB
:1007930093E05408FBEAA2E092AFEB6008E591A274
:1007A300E1400880F8EE70C9750801120B2290042D
:1007B30003E064037003120B12A908020939C08213
:1007C300C083900404EAFCEBFD741B120177020959
:1007D30077C082C083900403E064017004C2AF80D9
:1007E300FEE0640360067403F0120B12020977C083
:1007F30082C083900403E064017004C2AF80FEE012
:1008030064037006120B227402F0020977C0E074CD
:10081300ED120296900403E064036004C2AF80FE0D
:10082300E5E9A2E250FA906193E0A2E6500EE0A25D
:10083300E7400975E1ED75E1ED0208E653E9FB7464
:100843007F55D9F508F58285820A74FF1208F1C332
:10085300E8941AE99400A2D265D0335007E508C39F
:10086300940E500D7A00EAC39508506EE5D90A80BC
:10087300F57E047F04750C19750D00780C12034581
:100883007C007D007A047B0412259674021201BD5C
:1008930074FE2508900404F074FE1208F18E828F12
:1008A30083A3AE82AF83E5D9F01208FA7001E97031
:1008B300EC74B425D990041DF0E5D9FAA2E7501AD7
:1008C300747F5A90041EF0900405E06401700B904D
:1008D3000406E06488700312171090619BE06003C4
:1008E300020823759B0053E9FB7F060202F5250AE4
:1008F300F874FF3400F922E824FF18E934FFF9E81B
:100903002274F71201FE8908E9C394044004C2AFBC
:1009130080FE120B2275F005E50824BFF582E4344E
:1009230004F583E0A424D490618FF0900403E06481
:10093300037003120B127F0202025E74F71201FEB0
:100943008908120B22E50824C3F582E43404F583F5
:10095300E0906190F0900403E064037003120B12C3
:1009630080D4C082C083900403E0640170037402E6
:10097300F08001F0D083D08222C082C08390040330
:10098300E0640160061207F27401F080E774F81264
:1009930001FE8A828B83A3A882A9838A828B83E048
:1009A300FE74FF6E600574FE6E700988828983E0B1
:1009B30064FF6023EA2403FCEB3400FDEA24020A0B
:1009C3000AEB3400FB8A828B83E064FF700D8C8218
:1009D3008D83E064FF700479018022EE906172F0F0
:1009E30088828983E0906173F08A828B83E09061CF
:1009F30074F08C828D83E0906175F079007F010241
:100A0300025EC082C083906172E064FF60089061FF
:100A130073E064FF7004C2AF80FE906180E0D2E0B7
:100A2300020976C082C083900403E064036004C2B9
:100A3300AF80FE906199E0A2E050F8906198E0FAEF
:100A430074B42AF902097774F355B44404F5B4A9CC
:100A5300BD2274F81201FEEAFEEB800E7AE87B03F6
:100A6300120B56EE24FF1EEF34FFFFEE7001EF7002
:100A7300EB020A0074F61201FE900421E0F508A3CC
:100A8300E0F509A2AFE492E0FAC2AF740190041F4B
:100A9300F0EAA2E092AF800CE50824FFF508E5092F
:100AA30034FFF509E5087002E50960357E3E7F00F5
:100AB300A2AFE492E0F50AC2AF7A107B0012044AB7
:100AC300E50AA2E092AF900420E07012EEF8EFF98D
:100AD30074FF281E74FF39FFE87001E970D2E060EB
:100AE300B7A2AFE492E0FAC2AFE4900420F090041E
:100AF3001FF0EAA2E092AF7F0302025EC082C083CE
:100B030090041FE060067401900420F0020977C08E
:100B130082C08375E1E39061A3E0D2E2020976C06B
:100B230082C0839061A3E0C2E2F075E1EF75E1ED6D
:100B330075E1ED75E9FB020977EEC0E0120A4AE9B7
:100B4300540F04FE7AFA7B00120B561EEE70F5D09A
:100B5300E0FE2274F71201FE8A088B0974047808F8
:100B6300120198AE08AF09EA7001EB6028A2AFE466
:100B730092E0F508C2AF7A107B0012044AE508A29E
:100B8300E092AFEEF8EFF974FF281E74FF39FFE827
:100B93007001E970D8020939C082C083900403E070
:100BA300F902097774F71201FEEAFEEBFF750825D7
:100BB30075090078081203457C007D007AC77B0421
:100BC30012259674021201BD74039004C7F0743D9C
:100BD3009004C8F074209004C9F074019004CAF022
:100BE3001219D2EEFAEFFB12162012113B1219CE94
:100BF3001223B0EEFAEFFB121C8012234D121E3C9F
:100C03001224529004E1E070347402F074039004EF
:100C1300E2F0743F9004E9F09004EAF074FF90046A
:100C2300EBF07508047808120345121A8DEAFCEB01
:100C3300FD7AE37B041224AF74021201BD79007FB5
:100C43000202025E74F81201FE74FF1201A77B0018
:100C5300EB120D1170070BEBC3940340F374036B9A
:100C630070067A007B00805DEB75F00BA424CBFE4D
:100C7300E5F03404FFEEF8EFF9E488828983A3A357
:100C8300A3A3A3A3A3A3A3F0740288828983F090F0
:100C930004CAE088828983A3A3A3A3A3A3A3A3A3D2
:100CA300A3F09004CAE004F0E0F960F674FF696011
:100CB300F1851082851183AA82AB83121012E97029
:100CC300E1EEFAEFFB74011201BD7F0102025EC087
:100CD30082C083E48A828B83F0D083D08222C08255
:100CE300C08374FF1201A7851082851183AA82AB8A
:100CF30083121012E96006E0120D1160067582007E
:100D0300758300AA82AB8374011201BD80CB75F099
:100D13000BA424CBF582E5F03404F583E0640222CE
:100D230074F31201FE8A0C8B0D89097ECB7F047547
:100D330008008E828F83E064027033750A04750B9A
:100D430000780A120345AC0CAD0D120E3D1201BD25
:100D5300EA7001EB70188E828F83A3A3A3A3A3A3CE
:100D6300A3A3A3E065097006EEFAEFFB8009120D59
:100D73007F40BF7A007B007F0602025E1210589408
:100D83000222C082C083E98A828B836001A3A3A36A
:100D9300A3A3A3A3A3A3E0FCEC60078A828B83E055
:100DA300700479028008ECC3942040F67900020CA9
:100DB300DC74F11201FE8A0C8B0D8C0E8D0F7ECB31
:100DC3007F04EA240CF582EB3400F583E0543FF50D
:100DD300097508008E828F83E06402704BA3A3A37E
:100DE300A3A3A3A3A3E06509703E743F6509601B39
:100DF300750A04750B00780A120345E50C240812E2
:100E03000E371201BDEA7001EB701D8E828F83A332
:100E1300A3A3A3A3A3A3A3A3A3E0850E82850F8308
:100E2300F0120AFF7901800712105240A779007F60
:100E33000802025EFCE50D3400FDEE2402120E44AE
:100E430022FAEF3400FB12245674022274F11201C9
:100E5300FE74FE1201A789088A0C8B0D7ECB7F04DA
:100E6300750A02750B00780A1203457C007D007435
:100E7300021201F2AA82AB8312259674021201BDFB
:100E8300750902E50C6E7003E50D6F7003020F2206
:100E93008E828F83E064026003020F22EE2408F542
:100EA3000EEF3400F50F850E82F583E0FAC3943E0E
:100EB300506D7401650870289004C8E0C39A505FB0
:100EC300EAF8C3E498F8E49400F985108285118365
:100ED300E58228F8E58339F9743D28F582E4803901
:100EE300750A04750B00780A120345E50C240212F7
:100EF3000E371201BDEA7001EB7024850E82850F57
:100F030083E0F8851082851183E58228F8E5833430
:100F130000F974E028F58274FF39F5837401F0EE6B
:100F2300240BFEEF3400FF1509E5096003020E866A
:100F330079007A008A0A851082851183E582250A61
:100F4300F582E5833400F583E0703D740265087033
:100F53000674202AF9803E743DC39AF99004C9E0CF
:100F6300FAE9C39A40429004C8E0697003E014F0C0
:100F7300E9850C82850D83A3A3A3A3A3A3A3A3F055
:100F830074021201BD020E320AEAC3940240A57430
:100F930002650870C79004C8E0C399400B9004C968
:100FA300E0C39950CBE980C7790080C474F512017E
:100FB300FEEAFEEBFF7508028C0AEE250A12100208
:100FC300A2E750348D08EE250812100269702675C9
:100FD30008047509007808120345121A1DEAFCEB90
:100FE300FDEE2404120E441201BDEA7001EB7005FC
:100FF3007508008003750801A9087F0402025EFAE0
:10100300EF3400FB740F2AF582E43BF583E022748E
:10101300F81201FE7CCB7D047E008C828D83E0641C
:10102300027018A3A3A3A3A3A3A3A3A3A3E069701C
:101033000AEE8A828B83F0790180110EEC240BFC7B
:10104300ED3400FDEEC3940340D07900020CCD12C1
:1010530010589403220508EE240BFEEF3400FFE53D
:1010630008C32274F51201FEECFEEDFF890A89081C
:101073007509007808120345EAFCEBFDEEFAEFFB75
:101083001224F774021201BDE50A1203830202C09F
:10109300109A10C010AE108E828F83E0F8A3E0F98F
:1010A3008E828F83E8F0A3E9F080128E828F83789B
:1010B3000812014C8E828F83780812015B020FFDA8
:1010C30074F51201FE74FA1201A7EAFEEBFFECFAC3
:1010D300EDFBE91203830202E310E910E3100511AB
:1010E300EEFCEFFD80388E828F83E0FCA3E0FD856C
:1010F3001082851183ECF0A3EDF0851082851183B6
:1011030080188E828F83780812014C74021201F2C8
:10111300780812015B74021201F2AC82AD83890874
:1011230075090078081203451224F774021201BDF1
:1011330074061201BD020FFD74F71201FE75083A21
:1011430075090078081203457C007D007A247B042E
:1011530012259674021201BD78081203457C007DA6
:10116300007A5E7B0412259674021201BD7F02028F
:10117300025E74F61201FEE9FC780079007E007FBE
:10118300007D0074016C70067A247B0480047A5E0F
:101193007B0475090388088A828B83E0601D7401D0
:1011A3006C70210DE06404601BA3E0F50AC395098C
:1011B3005012EAF8EBF9850A09800974026C604859
:1011C300EAFEEBFF0508EA241DFAEB3400FBE50811
:1011D300C3940240C2EE7001EF7020E87001E97021
:1011E300067A007B008021E8FEE9FF8E828F83A3CD
:1011F300E0FAECF9121210E508800874012D8E82D2
:101203008F83A3F0EEFAEFFB7F0302025EC082C07E
:1012130083740169703178247904A2AFE492E0FD0C
:10122300C2AF7B0288828983E0600BA3E0FCEAC340
:101233009C5003E014F0E8241DF8E93400F91BEB9B
:1012430070E2EDA2E092AFD083D0822274F112015A
:10125300FE74F81201A7851082851183EAF0A3EBCF
:10126300F08C0A74021201F2E4F0A3F0F50EF50F0C
:1012730074016970237E247F04750C031213D4FA5E
:1012830074016A703D1213E1A3E0F9120CE18A0EB6
:101293008B0FEA7001EB70077A007B000213CA8A96
:1012A300828B83A3A3A3A3A3A3A3A3E0F508EA24A8
:1012B30002F8EB3400F974061201F2E8F0A3E9F046
:1012C300800AEA70D31213E1A3E0F5087401650AFA
:1012D30070057509018003750903750D02A2AFE45A
:1012E30092E0FAC2AF8E828F83E065096003021336
:1012F300AA7404F0EAA2E092AFEE240EF582EF3472
:1013030000F583E0543F650860030213A21213D46F
:1013130064017021743F65087009E50E2402F8E545
:101323000F8005EE240AF8EF3400F974041201F279
:10133300E8F0A3E9F0750A04750B00780A12034577
:1013430074081201F2E0FCA3E0FD74061201F2E05E
:10135300FAA3E0FB12245674021201BD1213D460E7
:1013630003EA703B8E828F83A3AA82AB83E0C3958B
:101373000C502C74021201F2E07002A3E0600D74B1
:10138300021201F2E0F81213E7E509F08A828B8377
:10139300E0F50C74021201F2EEF0A3EFF0800D8E73
:1013A300828F83E50980F5EAA2E092AFEE241DFE69
:1013B300EF3400FF150DE50D60030212E074021215
:1013C30001F2E0FAA3E0FB74081201BD7F080202F8
:1013D3005E851082851183E0F81213E7E022851001
:1013E30082851183A3E0F58388822274F81201FEBB
:1013F300EAFEEBFF900498E070191205CBEEFAEFCA
:10140300FB120BA7E97012120965121A1D1209903B
:10141300120A057401F0121CC17F0102025E7F02F1
:1014230002025E74F71201FE750800750900780860
:1014330012034512144074021201BD80E174F112CB
:1014430001FE8A088B098C0A740F1201F2E0F50E73
:10145300A3E0F50F120CE18A0C8B0DAE0CAF0D75EA
:101463000B02120B9BEE7001EF600F7901EEFAEFA6
:10147300FB120D85E9FA8A0B6007A90B7F080202AC
:101483005EE5087002E50960F1E50AC3940B50EAD2
:10149300E50E7002E50F702D8E828F83A3E0FDAC05
:1014A3000AAA08AB098E828F83A3A3A3A3A3A3A332
:1014B300A3A3E0F912164B8A088B09EA7001EB70BB
:1014C30008790380B7790280B3750A04750B007835
:1014D3000A120345EE2402FCEF3400FDEA2406FA67
:1014E300EB3400FB1224AF74021201BD7901AA0888
:1014F300AB09121975E9F50B808074F31201FE74C0
:10150300FD1201A7890AEAFEEBFF8C088D09120C74
:10151300E17902EA7001EB60411919120D85E97056
:10152300397401851082851183F01201F2E50AF006
:10153300750A00750B00780A120345780A120345F1
:101543007808120345EEFCEFFD74061201F2AA823D
:10155300AB8312174474061201BD74031201BD7FDD
:101563000602025E121EB32274F71201FEE9FBEAC1
:10157300F9ECFEEDFF900498E07013EB1203B90051
:10158300020591150A91158C15790202161DEB12AD
:10159300038302068C15C315DF158C15B015A7152B
:1015A300E8150D16EEFAEFFB121C54806D740169F9
:1015B3006003E970D4EEFAEFFB121C12805C80C961
:1015C3007403697009EEFAEFFB121A92804C7402ED
:1015D3006970B6EEFAEFFB121B14803EEEFAEFFBD6
:1015E300121B858035740169709F750804750900A5
:1015F3007808120345121A36EAFCEBFDEEFAEFFB0C
:101603001224AF74021201BD800E74016970AF120F
:101613001A3BE98E828F83F07900021421C082C0C5
:1016230083E490049DF090049EEAF0A3EBF0121A79
:101633001D90049AEAF0A3EBF0120A4AE990049988
:10164300F060F6D083D0822274F11201FE89088AF9
:101653000E8B0F8C0A8D0979021211758A0C8B0D72
:10166300A80CA90DE8FEE9FFE87001E970077A000C
:101673007B0002170B740E250A8E828F83A3A3F0BF
:10168300EE240E1219B754804508F0900499E0C077
:10169300E0EE2410F582EF3400F583D0E0F09004FF
:1016A30099E004F060F8EE240FFAEF3400FB8A822D
:1016B3008B83E054BF75830475829CFCE04C54F823
:1016C300450954778A828B83F088828983E0C2E755
:1016D300F0750B00780A120345AC0EAD0FEE241122
:1016E3000A0AEF3400FB1224AF74021201BD75081D
:1016F3000475090078081203451219641224AF74A3
:10170300021201BDEEFAEFFB7F0802025E74F712CC
:1017130001FE79011211758A088B09A808A909E845
:10172300FEE9FFE87001E96013EE24020A0AEF34D0
:1017330000FB1207C1EEFAEFFB1218847F020202CC
:101743005E74F11201FE74FE1201A78510828511E9
:1017530083ECF0A3EDF08A0A8B0B74111201F2E013
:10176300F50CA3E0F50D74151201F2E0F50EA3E0FC
:10177300F50FE4850C82850D83F07C01790112124B
:101783004F8A088B09AE08AF09EE7001EF700302B0
:10179300185A750800750900850A82850B83E06471
:1017A300017015A3E0F9120CE18A088B09EA7001B4
:1017B300EB7005790202185C8E828F83A3A3E02469
:1017C300F2F50A850C82850D83F0750B00780A12F9
:1017D3000345EE2411FCEF3400FD74021201F212F2
:1017E30018641201BDE5087002E509600FEE241BC1
:1017F30012186FF0EE241C12186FA3F07413120169
:10180300F2E07002A3E0601E750804750900780811
:10181300120345EE240AFCEF3400FD74151201F2A5
:101823001218641201BDE50E7002E50F6014EE2478
:101833000FF582EF3400F583E05407850E82850FA0
:1018430083F08E828F83A3E0FA7901121210E48E63
:10185300828F83F0F98002790474021201BD0217AA
:101863000BE0FAA3E0FB1224AF740222F582EF34FB
:1018730000F583E0850882850983A3A3A3A3A3A31B
:101883002274F31201FE74FF1201A7EAFEEBFFEECE
:10189300240EF50AEF3400F50B850A82F583E05434
:1018A3003FF508750C04750D00780C1203451219E9
:1018B3006412245674021201BDEA7001EB7009E44C
:1018C3008E828F83F0021951850A82850B83E0A2F1
:1018D300E640ECE50860E8EE2402FAEF3400FBE5AD
:1018E30008C39407501CE508C33324EAF582E434A3
:1018F30004F58312195B1201FCE9640170C17401E0
:1019030080BE743F6508600EE508C3942040B0E5CF
:1019130008C3943F50A9851082851183AC82AD839F
:10192300120DB4E9609974018E828F83F090049E46
:10193300E07002A3E06017851082851183E0F990BF
:10194300049E12195B1201FCE960030218C27401C0
:101953001201BD7F0602025EE0F8A3E0F5838882F0
:101963002290049AE0FCA3E0FDEE240AFAEF34008F
:10197300FB2274F81201FEEAFEEBFFE9FAEE240FF4
:101983001219B754CF75830475829DFBE04B88828F
:101993008983F0EAF9EE2402FAEF3400FB1206F829
:1019A300E97004790080027909E48E828F83F07FE5
:1019B3000102025EF8EF3400F988828983E022C0D5
:1019C30082C08390049CE0F90216462279002274B7
:1019D300F71201FE75080475090078081203457CA7
:1019E300007D007AA07B0412259674021201BD903B
:1019F30004A8E0701B78081203457CF87D047AA4E0
:101A03007B041224AF74021201BD74019004A8F088
:101A130080031201BD7F0202025EC082C083900474
:101A2300A8E060067AA47B0480047AF87B04D08360
:101A3300D082227AFD7B042279022274F71201FEFE
:101A430079009004A8E070217508048909780812C8
:101A53000345EAFCEBFD7AA47B041224AF74021263
:101A630001BD74019004A8F0F980AA74F71201FE75
:101A73007508047509007808120345EAFCEBFD7A42
:101A8300A07B041224AF740280887ABB7B04227487
:101A9300F51201FEEAFEEBFF8E828F83A3A3A3A3BD
:101AA300A3E0F91203B9010506B41A0103B41AB885
:101AB3001A7D0180027D038E828F83A3A3A3A3E0FB
:101AC300FC8E828F83A3A3E0FAA3E0FB12164B8A5A
:101AD300088B09A909EA7001E9602F750A04750BDF
:101AE30000780A1203458E828F83E0FCA3E0FDEAAF
:101AF3002406FAE93400FB1224AF74021201BD7903
:101B030001AA08AB09121975800279037F04020246
:101B13005E74F71201FE74FD1201A7E4851082853D
:101B23001183F08A828B83A3A3A3A3A3E0C0E074F1
:101B3300011201F2D0E0F0EA2406F508EB3400F5D7
:101B43000978081203458A828B83120356EA240418
:101B5300F508EB3400F50978081203458A828B8374
:101B6300A3A3E0FCA3E0FD74061201F2AA82AB83F7
:101B730012174474061201BD74031201BD7F0202E1
:101B8300025E74F51201FEEAFEEBFF7508007404B1
:101B93006970081207F212097C806F740569700579
:101BA300120965806574066970398E828F83E0F946
:101BB300120CE1EA7001EB70047902804F750A029E
:101BC300750B00780A120345EA2406FCEB3400FD8A
:101BD3008E828F83A3AA82AB831224AF7402120175
:101BE300BD8027740769700B120A26E98E828F83E2
:101BF300F0801774086970051207D4800D740969A1
:101C030070051207F28003750802A908021B0F74FE
:101C1300F71201FEEAFEEBFF7508027401697020FA
:101C23007508047509007808120345121A1DEAFCA9
:101C3300EBFDEEFAEFFB1224AF74021201BD800933
:101C4300E97009121A3EE96003750800A908021B2E
:101C53008074F71201FEE9FC8A828B83E0F9740E2B
:101C63006C60047902801374FF6960F7120CE1EA77
:101C73007001EB60EE120CD27900021B8074F51236
:101C830001FE900501780812014C7583047582A941
:101C930078081201377010900505780812014C90EE
:101CA30004A9780812015B9004ADEAF0A3EBF012EB
:101CB3000A4AE99004AFF080007F0402025E74F5E3
:101CC3001201FE74E91201A7120B9BE9FE7F0612B3
:101CD3001A8D851082851183EAF0A3EBF074071245
:101CE30001F2A882A98374021201F2E8F0A3E9F0D9
:101CF30074041201F27408F074051201F27403F013
:101D0300790474091201F2AC82AD837AA97B0412BF
:101D130010C374071201F27401F09004AFE0C0E045
:101D230074081201F2D0E0F0740D1201F27402F0A3
:101D3300121A3B740E1201F2E9F0851082851183A9
:101D4300AC82AD837A03790212156B74051201F22A
:101D53007403F074071201F2A882A98374021201BA
:101D6300F2E8F0A3E9F0740F1201F2A882A98385C7
:101D73001082851183E8F0A3E9F074036E600B749D
:101D8300016E70031209651207D4120A7774036E89
:101D9300600D74016E700512097C80031207F285D1
:101DA3001082851183AC82AD837A02790212156B9E
:101DB300E9705B74071201F2E0547FFA74016A6000
:101DC30004EF6A7049750804750900780812034521
:101DD300740B1201F2AC82AD8374151201F2AA8264
:101DE300AB831224AF74021201BD780812014CAA0E
:101DF30008AB09AC0AAD0B121E8A740F1201F2AACA
:101E030082AB83121A6E9004AFE004F07F00EFF907
:101E130074171201BD021CBC74F81201FE7E007D12
:101E2300017C009004AFE0F9120FAFE97004120ACD
:101E3300FF0EEEF97F0102025E74F51201FE9005BA
:101E430001780812014C7583047582B07808120179
:101E5300377010900509780812014C9004B0780887
:101E630012015B120A4AE99004B8F060F6750802A1
:101E730075090078081203457C007D007AB57B0460
:101E83001225967402802174F51201FE8A088B09CB
:101E93008C0A8D0B900501780812013760089004B5
:101EA300B0780812015B80031201BD7F0402025E59
:101EB30074F51201FE74EC1201A78A088B09120C47
:101EC300478A0A8B0BAE0AAF0BEE7001EF70030269
:101ED300209D7901120E4FE9700AEEFAEFFB120C06
:101EE300D202209D750A04750B00780A120345126D
:101EF3001A8DEAFCEBFD74121201F2AA82AB831273
:101F0300229A1201BDA882A983851082851183E8D4
:101F1300F0A3E9F074071201F2A882A983740212F4
:101F230001F2E8F0A3E9F074041201F27409F07409
:101F3300051201F27402F0790474091201F2AC8201
:101F4300AD837AB07B041210C38E828F83A3A3A3C5
:101F5300A3A3A3A3A3E0C0E0740D1201F2D0E0F0A9
:101F63009004B8E0C0E074081201F2D0E0F0121956
:101F7300C2740E1201F2E9F074071201F27401F057
:101F8300121A3B740F1201F2E9F085108285118356
:101F9300AC82AD837A03790212156BE960030220E8
:101FA3009F120B9BE9F50A74051201F27402F07497
:101FB300071201F2A882A98374021201F2E8F0A3C6
:101FC300E9F0EE2402F8EF3400F9851082851183DD
:101FD300E8F0A3E9F07403650A600C7401650A7004
:101FE300031209651207D4120A777403650A600E97
:101FF3007401650A700512097C80031207F28510CB
:1020030082851183AC82AD837A02790212156BE962
:10201300706674071201F2E0547FFA74016A60106B
:1020230074036A600BEEFAEFFB120CD27905806C35
:1020330074028E828F83F074091201F2E08E828F14
:1020430083A3A3A3A3A3A3A3A3A3F08E828F83A39A
:10205300A3A3A3A3A3A3A3A3A3E0850882850983C2
:10206300F08E828F83A3A882A983740A1201F2E0FF
:102073006440700F7401800DEEFAEFFB120CD279FD
:10208300018019740388828983F09004B8E004F016
:10209300E070037401F07900800279037414021E66
:1020A300AB74F11201FE74F81201A7EAFEEBFF8E86
:1020B300828F83E0F874F228F874FF3400F9C3E8E0
:1020C3009409E99400A2D265D033401A121A3BE96D
:1020D300FAEE24171222B06A600C79027408120116
:1020E300BD7F0802025E7904E91201F2AC82AD837E
:1020F300EE2411FAEF3400FB121066C082C0839005
:1021030004B0780812014CD083D0827808120137CA
:1021130070C8EE24151222B0F50AEE2408F50EEF6E
:102123003400F50FA90AAA0EFB120D238A088B09A6
:10213300A808A909E87001E960611222A0C0E0744F
:10214300011201F2D0E0F088828983A3A3A3A3A3A1
:10215300A3A3A3E0C0E074021201F2D0E0F01219CD
:10216300C274031201F2E91222CE8A088B09A8086D
:10217300A909E8FEE9FFE87001E9601A750804752A
:102183000900780812034512228E1201BD7900EE70
:10219300FAEFFB12197579010220DF9004B4E070A5
:1021A300030220DD120C478A088B09EA7001EB60F9
:1021B300E5750C04750D00780C120345AC0EAD0FDC
:1021C300EA24020A0AEB1222971201BDAA08AB09FC
:1021D3007902120E4FE97009AA08AB09120CD280DA
:1021E300B59004B7E0640260EFE0F50C7401250CD0
:1021F3001222B9A3E0C0E0E50C24B5F582E434046F
:10220300F583D0E01222B9E50AF0740285088285CD
:102213000983F0A3A882A983EE24161222B0644096
:102223007004740180027403888289831222BEE0E1
:10223300C0E074021201F2D0E0F01219C27403126A
:1022430001F2E9F01222A0C0E074011201F2D0E021
:102253001222CE8A0A8B0BA80AA90BE8FEE9FFE833
:102263007001E970030221DB750A04750B00780A1B
:1022730012034512228E1201BD7900EEFAEFFB1212
:102283001975E960030221DB022199AC0EAD0FEE53
:102293002406FAEF3400FB1224AF74022274818502
:1022A3001082851183F0EE24101222B022F582EF02
:1022B3003400F583E0221222BEA322F08508828532
:1022C3000983A3A3A3A3A3A3A3A322F0EE240D1224
:1022D30022B05407FA7403C39AFD7C0485108285E7
:1022E3001183AA82AB83790212164B2274F812016E
:1022F300FEEAFEEBFF7D017C009004B8E0F9120FCB
:10230300AFE97007120AFF7901803AEE240FF8EF64
:102313003400F98E828F83E0FA74F22AFA74FF3460
:1023230000FB74086A7001EB700974018882898369
:10233300F0800988828983E064017007EEFAEFFB7D
:102343001220A479007F0102025EC082C083120AB8
:102353004AE99004B9F0D083D0822274F71201FEC7
:10236300EAFEEBFF7D017C009004B9E0F9120FAFA8
:10237300E97007120AFF7901802E750804750900B8
:102383007808120345121A1DEAFCEBFDEE2404FA49
:10239300EF3400FB12245674021201BDEA7001EB04
:1023A30070047900800279027F0202025EC082C05B
:1023B30083120A4AE99004BAF0D083D082227F04C0
:1023C30002025E74F51201FEEAFEEBFF7D017C0062
:1023D3009004BAE0F9120FAFE97007120AFF79010E
:1023E300806AEE240FFAEF3400FB8A828B83E06469
:1023F3000170577D038E828F83E024F2FC790112F2
:10240300164B8A088B09A909EA7001E9603C750A31
:1024130004750B00780A120345EE2408FCEF340020
:10242300FDEA2406FAE93400FB1224AF7402120118
:10243300BDE5082411F582E5093400F583E0D2E710
:10244300F07900AA08AB0912197579000223C12299
:1024530079002274F81201FE74081201F2E0F8A365
:10246300E08015A3AA82AB838C828D83A3AC82AD5B
:1024730083E824FF18E934FFF9E87001E960248A4E
:10248300828B83E0FE8C828D83E06E8A828B8360F5
:10249300D2E0F88C828D83E0FAE8C39AFAE49400E0
:1024A300FB80047A007B007F0102025E74F7120155
:1024B300FE74091201F2E0FEA3E0FFEAF8EBF980F3
:1024C300188C828D83E088828983F0A3A882A983F4
:1024D3008C828D83A3AC82AD838E088F0974FF2514
:1024E300081E74FF3509FFE5087002E50970D27F05
:1024F3000202025E74F71201FE74091201F2E0F89F
:10250300A3E0F9EAFEEBFF8A088B09C3EA9CEB9D83
:10251300405EEC28F582ED39F583C3E5829508E545
:10252300839509404BEA28FAEB39FBAC82AD831261
:1025330025857002E5096041EC24FF1CED34FFFDA5
:10254300EA24FF1AEB34FFFB8C828D83E08A828BB3
:1025530083F080DB8C828D83E08A828B83F08C8294
:102563008D83A3AC82AD838A828B83A3AA82AB8340
:102573001225857002E50970DBEEFAEFFB7F02029C
:10258300025E8808890974FF25081874FF3509F964
:10259300E5082274F81201FE74081201F2E0F8A3B0
:1025A300E0F98A828B838003ECF0A3E8FEE9FF74F1
:1025B300FF2E1874FF3FF9EE7001EF70EB7F0102FD
:0225C300025EB6
:0000D3012C
:00000001FF
