:030000000200D328
:100083000207C600000080FB1200E2B90003020071
:10009300CDE490040078BC79018002F0A3D8FCD9A8
:1000A300FA9004BBAA82AB839000E5785379018070
:1000B30015E493A3AC82AD838A828B83F0A3AA82D7
:1000C300AB838C828D83D8E9D9E71204771200863B
:1000D30075D00075812F75100075110402008B799E
:1000E3000122FFFFFFFF0F14191A2575D501000028
:1000F30000000000000000000000000000000000FD
:1001030000000000000000000000000000000000EC
:1001130000000062221F213C1EEF22F019FA218009
:100123005634120201010100000000000807060511
:1001330004030201E066701008A3E066700A08A3D6
:10014300E066700408A3E06622E0F608A3E0F60880
:10015300A3E0F608A3E0F622E6F008A3E6F008A37E
:10016300E6F008A3E6F022CAC0E0E6F0A308DAFA54
:10017300D0E0FA22CAC0E0E0A3C582CCC582C58321
:10018300CDC583F0A3C582CCC582C583CDC583DA33
:10019300E6D0E0CA22600C08C6C313C618C613C64D
:1001A300D5E0F422251010AF08F510400215118098
:1001B30008F51040021511D2AF22C0D0251010AFA0
:1001C30008F510500205118008F51050020511D2F0
:1001D300AFD0D0222510F58210AF08F510400215DC
:1001E300118008F51040021511D2AF851183222525
:1001F30010F582E43511F58322E4732510C582C01E
:10020300E0E51134FFC583C0E0E510C3958224F90E
:10021300F8E4C5A8858311858210C5A8E8CEF0A3AC
:10022300E520F0A37808E608F0A3DEFAEFF0A3E5F3
:100233008124FBF8E608F0A3E608F0A30808E60823
:10024300F0A3E608F0A315811581D0E0FED0E0F815
:1002530015811581E8C0E0EEC0E022851183851089
:1002630082E0A3FEE0A3F5207808E0A3F608DFFA16
:10027300E0A3FFE0A3C0E0E0A3C0E0E0A3C0E0E0B0
:10028300A3C0E0E4C5A8858210858311C5A8D083E7
:10029300D08222C0D02510C582C0E0E51134FFC54D
:1002A30083C0E0E510C3958224F310AF0885831162
:1002B3008582108008858311858210D2AFC8F0A390
:1002C300E9F0A3EAF0A3EBF0A37908E709F0A3D8D8
:1002D300FAECF0A3EDF0A3EEF0A3EFF0A3D0E0F07F
:1002E300A3D0E0F0A3D0E0F0A3E520F0A3E5F0F085
:1002F300A322851183851082E0C0E0A3E0F9A3E087
:10030300FAA3E0FBA37808E0F608A3DFFAE0FCA376
:10031300E0FDA3E0FEA3E0FFA3E0C0E0A3E0C0E0B4
:10032300A3E0F5D0A3E0F520A3E0A3F5F0E4C5A88E
:10033300858311858210C5A8D082D083D0E0F8D000
:10034300E03274028000C0E0F4041201D7D0E0125E
:10035300016A2274028000CCC0E0EDC0E0E510C366
:100363009CCCAD1150011D10AF068C108D11800671
:100373008C108D11D2AF120177D0E0FDD0E0FC22BA
:10038300D083D082C5F0E493A3C5F0C395F0F5F014
:10039300E493A3C395F04005E5F0048001E475F010
:1003A30002A42582F582E5F03583F583E493A3C0A7
:1003B300E0E493C0E022D083D082CCC0E0E493A3F6
:1003C30060061203E31470FAE493A36006120402B6
:1003D3001470FAD0E0FCE493A3C0E0E493C0E022FD
:1003E300C0E0E493A3D39C5010E493A3C39C400ABE
:1003F300D0E0D0E0D0E00203D6A3A3A3D0E022C094
:10040300E0E493A36C7009D0E0D0E0D0E00203D61F
:10041300A3A3D0E022C082C08374FE1201A71204FA
:100423006512047085108285118374AAF0A3E4F029
:10043300851082851183E07004C2AF80FE740212BE
:1004430001BDD083D0822275CB4475CC04EA33330B
:100453003354F8F5CD43CB10A2D950FC75CB00C271
:10046300D92243FE0143FE02C290C29122438F026E
:1004730043F7012274FE1201A71204187A047B05C4
:100483001213A4A291400579021204EEA290400532
:1004930079011204EEA2814004A2A050F87E0079F3
:1004A300011204EE7A017B041213D7E970F674018A
:1004B300851082851183F07C007D007A0879031210
:1004C300158C900402E060FA0E74011201F2EEF052
:1004D3007C02851082851183AA82AB83900401E09C
:1004E300F912144BE4900402F080D774016970068A
:1004F300639001E590227402697005639002E590B0
:100503002274F81201FE74FD1201A7900401E06940
:100513007060851082851183AC82AD8374011201F2
:10052300F2AA82AB83900401E0F9121522E970422A
:10053300851082851183E0603974021201F2E0FEB6
:100543009004006012E0C39E501F74011201F2E098
:10055300F91204EEEE800EE0600F74011201F2E076
:10056300F91204EEE4900400F07401900402F0F92F
:100573008002790074031201BD7F0102025E74F7E9
:100583001201FE75081B75090078081203457C00EB
:100593007D007A047B0412243274021201BD90623E
:1005A3004AE064A56004C2AF80FE906249E0700433
:1005B300C2AF80FE53BEFBE59DA2E650FA0078F879
:1005C3007901001208B07001E970F775C600E59E65
:1005D30070FC43BE0474149061A9F0743F9061AB46
:1005E300F074F8906196F074859061A8F0745A9055
:1005F30061ACF074159061B2F0E4906182F0741014
:100603009061B5F0740E9061B6F074039061B7F029
:1006130074099061FAF074FF9061E5F0906172F0F3
:10062300906173F0906189E054F34408F075E1E35D
:10063300906199E0A2E050F8780079007C10E8C35B
:1006430033F8E933F99061A7E0A2E0E492E048F8D7
:100653001CEC70EA748048F5BCE9F5BC75E1EF75F4
:10066300E1ED75E1ED906189E054F3F074019004DC
:1006730003F0906180E0C2E0F0906181E05497F074
:1006830090618AE0C2E0F0747F906194F079001287
:1006930008BA79021208F4439A019004217433F0E2
:1006A300A3E4F0120AF2D2AF0208EF74F71201FECC
:1006B300EAFEEBFF8909750800900403E06401700A
:1006C30004C2AF80FE120AD85391FD900423E08E3A
:1006D300828F83A3A3A3F0900423E004F074018E1C
:1006E300828F83A3F074888E828F83A3A3F075E136
:1006F300EE8E828F83E0FB74022BF5D97A0080059E
:10070300A3E0F5D90AEAC39B40F6E509700B75E14E
:10071300E9E591A2E1404A80F8740165096004C2E9
:10072300AF80FE7E0480071E120AD8120AF275E11A
:10073300E3906199E0A2E050F8A2AFE492E0FAC23C
:10074300AF75E1EA906193E05408FBEAA2E092AF4F
:10075300EB6008E591A2E1400880F8EE70C97508E6
:1007630001120AD8900403E064037003120AC8A9B3
:10077300080208EFC082C083900404EAFCEBFD7416
:100783001B12017702092DC082C083900403E06429
:10079300017004C2AF80FEE0640360067403F012CC
:1007A3000AC802092DC082C083900403E06401706B
:1007B30004C2AF80FEE064037006120AD87402F02C
:1007C30002092DC0E074ED120296900403E0640365
:1007D3006004C2AF80FEE5E9A2E250FA906193E0C3
:1007E300A2E6500EE0A2E7400975E1ED75E1ED02E6
:1007F300089C53E9FB747F55D9F508F58285820A75
:1008030074FF1208A7C3E8941AE99400A2D265D032
:10081300335007E508C3940E500D7A00EAC39508D8
:10082300506EE5D90A80F57E047F04750C19750DA9
:1008330000780C1203457C007D007A047B041224AB
:100843003274021201BD74FE2508900404F074FE94
:100853001208A78E828F83A3AE82AF83E5D9F012ED
:1008630008B07001E970EC74B425D990041DF0E56B
:10087300D9FAA2E7501A747F5A90041EF090040527
:10088300E06401700B900406E06488700312173172
:1008930090619BE060030207D9759B0053E9FB7FDE
:1008A300060202F5250AF874FF3400F922E824FF52
:1008B30018E934FFF9E82274F71201FE8908E9C345
:1008C30094044004C2AF80FE120AD875F005E5080F
:1008D30024BFF582E43404F583E0A424D490618F2B
:1008E300F0900403E064037003120AC87F0202025B
:1008F3005E74F71201FE8908120AD8E50824C3F5CD
:1009030082E43404F583E0906190F0900403E064A2
:10091300037003120AC880D4C082C083900403E02A
:10092300640170037402F08001F0D083D08222C08E
:1009330082C083900403E0640160061207A8740177
:10094300F080E774F81201FE8A828B83A3A882A940
:10095300838A828B83E0FE74FF6E600574FE6E7083
:100963000988828983E064FF6023EA2403FCEB3473
:1009730000FDEA24020A0AEB3400FB8A828B83E03F
:1009830064FF700D8C828D83E064FF7004790180B5
:1009930022EE906172F088828983E0906173F08A1D
:1009A300828B83E0906174F08C828D83E09061751B
:1009B300F079007F0102025EC082C083906172E021
:1009C30064FF6008906173E064FF7004C2AF80FE4F
:1009D300906180E0D2E002092CC082C083900403BE
:1009E300E064036004C2AF80FE906199E0A2E0502E
:1009F300F8906198E0FA74B42AF902092D74F3555A
:100A0300B44404F5B4A9BD2274F81201FEEAFEEB66
:100A1300800E7AE87B03120B0CEE24FF1EEF34FFEB
:100A2300FFEE7001EF70EB0209B674F61201FE904F
:100A33000421E0F508A3E0F509A2AFE492E0FAC2CD
:100A4300AF740190041FF0EAA2E092AF800CE508B6
:100A530024FFF508E50934FFF509E5087002E50907
:100A630060357E3E7F00A2AFE492E0F50AC2AF7A22
:100A7300107B0012044AE50AA2E092AF900420E042
:100A83007012EEF8EFF974FF281E74FF39FFE87057
:100A930001E970D2E060B7A2AFE492E0FAC2AFE43A
:100AA300900420F090041FF0EAA2E092AF7F0302CB
:100AB300025EC082C08390041FE06006740190044C
:100AC30020F002092DC082C08375E1E39061A3E0A9
:100AD300D2E202092CC082C0839061A3E0C2E2F09B
:100AE30075E1EF75E1ED75E1ED75E9FB02092DEEB9
:100AF300C0E0120A00E9540F04FE7AFA7B00120BDD
:100B03000C1EEE70F5D0E0FE2274F71201FE8A0887
:100B13008B0974047808120198AE08AF09EA7001D2
:100B2300EB6028A2AFE492E0F508C2AF7A107B0035
:100B330012044AE508A2E092AFEEF8EFF974FF2839
:100B43001E74FF39FFE87001E970D80208EFC08214
:100B5300C083900403E0F902092D74F71201FEEA41
:100B6300FEEBFF75082575090078081203457C0024
:100B73007D007AC77B0412243274021201BD740310
:100B83009004C7F0743D9004C8F074209004C9F039
:100B930074019004CAF01219F3EEFAEFFB12164136
:100BA3001210F11219EF12224CEEFAEFFB121CA1F4
:100BB3001221E9121E5D1222EE9004E1E0703474FA
:100BC30002F074039004E2F0743F9004E9F090049F
:100BD300EAF074FF9004EBF07508047808120345FB
:100BE300121AAEEAFCEBFD7AE37B0412234B740288
:100BF3001201BD79007F0202025E74F81201FE74D5
:100C0300FF1201A77B00EB120CC770070BEBC39419
:100C13000340F374036B70067A007B00805DEB7511
:100C2300F00BA424CBFEE5F03404FFEEF8EFF9E477
:100C330088828983A3A3A3A3A3A3A3A3A3F074027A
:100C430088828983F09004CAE088828983A3A3A35E
:100C5300A3A3A3A3A3A3A3F09004CAE004F0E0F921
:100C630060F674FF6960F1851082851183AA82ABF7
:100C730083120FC8E970E1EEFAEFFB74011201BDB4
:100C83007F0102025EC082C083E48A828B83F0D03C
:100C930083D08222C082C08374FF1201A785108291
:100CA300851183AA82AB83120FC8E96006E0120C98
:100CB300C76006758200758300AA82AB8374011234
:100CC30001BD80CB75F00BA424CBF582E5F0340491
:100CD300F583E064022274F31201FE8A0C8B0D8902
:100CE300097ECB7F047508008E828F83E0640270D7
:100CF30033750A04750B00780A120345AC0CAD0D6D
:100D0300120DF31201BDEA7001EB70188E828F830E
:100D1300A3A3A3A3A3A3A3A3A3E065097006EEFA69
:100D2300EFFB8009120D3540BF7A007B007F06027E
:100D3300025E12100E940222C082C083E98A828B63
:100D4300836001A3A3A3A3A3A3A3A3A3E0FCEC60D9
:100D5300078A828B83E0700479028008ECC39420B5
:100D630040F67900020C9274F11201FE8A0C8B0D8D
:100D73008C0E8D0F7ECB7F04EA240CF582EB3400BE
:100D8300F583E0543FF5097508008E828F83E06494
:100D930002704BA3A3A3A3A3A3A3A3E06509703E7F
:100DA300743F6509601B750A04750B00780A12030A
:100DB30045E50C2408120DED1201BDEA7001EB703C
:100DC3001D8E828F83A3A3A3A3A3A3A3A3A3A3E0A3
:100DD300850E82850F83F0120AB579018007121000
:100DE3000840A779007F0802025EFCE50D3400FD90
:100DF300EE2402120DFA22FAEF3400FB1222F274EF
:100E0300022274F11201FE74FE1201A789088A0CF2
:100E13008B0D7ECB7F04750A02750B00780A1203D3
:100E2300457C007D0074021201F2AA82AB83122476
:100E33003274021201BD750902E50C6E7003E50DF3
:100E43006F7003020ED88E828F83E0640260030208
:100E53000ED8EE2408F50EEF3400F50F850E82F55B
:100E630083E0FAC3943E506D7401650870289004C2
:100E7300C8E0C39A505FEAF8C3E498F8E49400F931
:100E8300851082851183E58228F8E58339F9743D5D
:100E930028F582E48039750A04750B00780A120379
:100EA30045E50C2402120DED1201BDEA7001EB7051
:100EB30024850E82850F83E0F8851082851183E5F2
:100EC3008228F8E5833400F974E028F58274FF3949
:100ED300F5837401F0EE240BFEEF3400FF1509E5F2
:100EE300096003020E3C79007A008A0A8510828524
:100EF3001183E582250AF582E5833400F583E070EA
:100F03003D74026508700674202AF9803E743DC35F
:100F13009AF99004C9E0FAE9C39A40429004C8E000
:100F2300697003E014F0E9850C82850D83A3A3A304
:100F3300A3A3A3A3A3F074021201BD020DE80AEA5E
:100F4300C3940240A57402650870C79004C8E0C347
:100F530099400B9004C9E0C39950CBE980C779004D
:100F630080C474F51201FEEAFEEBFF7508028C0AD9
:100F7300EE250A120FB8A2E750348D08EE250812A9
:100F83000FB86970267508047509007808120345BF
:100F9300121A3EEAFCEBFDEE2404120DFA1201BD17
:100FA300EA7001EB70057508008003750801A90854
:100FB3007F0402025EFAEF3400FB740F2AF582E429
:100FC3003BF583E02274F81201FE7CCB7D047E00A6
:100FD3008C828D83E064027018A3A3A3A3A3A3A3AD
:100FE300A3A3A3E069700AEE8A828B83F079018060
:100FF300110EEC240BFCED3400FDEEC3940340D042
:101003007900020C8312100E9403220508EE240BC0
:10101300FEEF3400FFE508C32274F51201FEECFE77
:10102300EDFF890A89087509007808120345EAFC6F
:10103300EBFDEEFAEFFB12239374021201BDE50AF6
:10104300120383020276105010761064108E828F82
:1010530083E0F8A3E0F98E828F83E8F0A3E9F080C0
:10106300128E828F83780812014C8E828F837808C8
:1010730012015B020FB374F51201FE74FA1201A799
:10108300EAFEEBFFECFAEDFBE9120383020299108F
:101093009F109910BB10EEFCEFFD80388E828F837A
:1010A300E0FCA3E0FD851082851183ECF0A3EDF055
:1010B30085108285118380188E828F8378081201B0
:1010C3004C74021201F2780812015B74021201F2ED
:1010D300AC82AD8389087509007808120345122391
:1010E3009374021201BD74061201BD020FB374F7AB
:1010F3001201FE75083A75090078081203457C0051
:101103007D007A247B0412243274021201BD780814
:101113001203457C007D007A5E7B04122432740244
:101123001201BD7F0202025E74F61201FEE9FC7831
:101133000079007E007F007D0074016C70067A24C4
:101143007B0480047A5E7B0475090388088A828B9A
:1011530083E0601D74016C70210DE06404601BA3C7
:10116300E0F50AC395095012EAF8EBF9850A0980FC
:101173000974026C6048EAFEEBFF0508EA241DFAD5
:10118300EB3400FBE508C3940240C2EE7001EF703C
:1011930020E87001E970067A007B008021E8FEE90F
:1011A300FF8E828F83A3E0FAECF91211C6E5088063
:1011B3000874012D8E828F83A3F0EEFAEFFB7F0379
:1011C30002025EC082C0837401697031782479049D
:1011D300A2AFE492E0FDC2AF7B0288828983E06024
:1011E3000BA3E0FCEAC39C5003E014F0E8241DF8D1
:1011F300E93400F91BEB70E2EDA2E092AFD083D0AB
:10120300822274F11201FE74F81201A785108285FF
:101213001183EAF0A3EBF08C0A74021201F2E4F0FA
:10122300A3F0F50EF50F74016970237E247F047516
:101233000C0312138AFA74016A703D121397A3E028
:10124300F9120C978A0E8B0FEA7001EB70077A0084
:101253007B000213808A828B83A3A3A3A3A3A3A3EC
:10126300A3E0F508EA2402F8EB3400F9740612014E
:10127300F2E8F0A3E9F0800AEA70D3121397A3E02F
:10128300F5087401650A7005750901800375090382
:10129300750D02A2AFE492E0FAC2AF8E828F83E0B3
:1012A300650960030213607404F0EAA2E092AFEEF2
:1012B300240EF582EF3400F583E0543F65086003A4
:1012C30002135812138A64017021743F6508700970
:1012D300E50E2402F8E50F8005EE240AF8EF34004A
:1012E300F974041201F2E8F0A3E9F0750A04750B2E
:1012F30000780A12034574081201F2E0FCA3E0FD32
:1013030074061201F2E0FAA3E0FB1222F274021255
:1013130001BD12138A6003EA703B8E828F83A3AAF6
:1013230082AB83E0C3950C502C74021201F2E0707F
:1013330002A3E0600D74021201F2E0F812139DE5BE
:1013430009F08A828B83E0F50C74021201F2EEF04D
:10135300A3EFF0800D8E828F83E50980F5EAA2E08A
:1013630092AFEE241DFEEF3400FF150DE50D600373
:1013730002129674021201F2E0FAA3E0FB7408125F
:1013830001BD7F0802025E851082851183E0F81299
:10139300139DE022851082851183A3E0F583888263
:1013A3002274F81201FEEAFEEBFF900498E0701934
:1013B300120581EEFAEFFB120B5DE9701212091BA5
:1013C300121A3E1209461209BB7401F0121CE27F85
:1013D3000102025E74F71201FE8A828B83120B51A3
:1013E300E9F50879001221D274036508600C7401D1
:1013F3006508700312091B12078A7E007F00122101
:101403007DE9FA8A0970187A0A7B00120A0BEE2426
:10141300010EEF3400FFC3EE94F4EF940140DF7448
:10142300036508600E7401650870051209328003B4
:101433001207A8E509700979011221D27901800305
:10144300F079007F0202025E74F71201FE75080054
:10145300750900780812034512146574021201BD60
:1014630080E174F11201FE8A088B098C0A740F1251
:1014730001F2E0F50EA3E0F50F120C978A0C8B0D29
:10148300AE0CAF0D750B02120B51EE7001EF600F36
:101493007901EEFAEFFB120D3BE9FA8A0B6007A91B
:1014A3000B7F0802025EE5087002E50960F1E50AB8
:1014B300C3940B50EAE50E7002E50F702D8E828FF8
:1014C30083A3E0FDAC0AAA08AB098E828F83A3A392
:1014D300A3A3A3A3A3A3A3E0F912166C8A088B0901
:1014E300EA7001EB7008790380B7790280B3750A5B
:1014F30004750B00780A120345EE2402FCEF340056
:10150300FDEA2406FAEB3400FB12234B74021201AA
:10151300BD7901AA08AB09121996E9F50B8080740D
:10152300F31201FE74FD1201A7890AEAFEEBFF8C98
:10153300088D09120C977902EA7001EB60411919C1
:10154300120D3BE970397401851082851183F01205
:1015530001F2E50AF0750A00750B00780A120345DB
:10156300780A1203457808120345EEFCEFFD740672
:101573001201F2AA82AB8312176574061201BD74BD
:10158300031201BD7F0602025E74F71201FEE9FB3E
:10159300EAF9ECFEEDFF900498E07013EB1203B947
:1015A300000205B2150AB215AD15790202163EEB1B
:1015B3001203830206AD15E4150016AD15D115C847
:1015C3001509162E16EEFAEFFB121C75806D7401C9
:1015D300696003E970D4EEFAEFFB121C33805C8080
:1015E300C97403697009EEFAEFFB121AB3804C74E5
:1015F300026970B6EEFAEFFB121B35803EEEFAEF8E
:10160300FB121BA68035740169709F750804750968
:10161300007808120345121A57EAFCEBFDEEFAEFC5
:10162300FB12234B74021201BD800E74016970AF6B
:10163300121A5CE98E828F83F07900021446C0820D
:10164300C083E490049DF090049EEAF0A3EBF012B3
:101653001A3E90049AEAF0A3EBF0120A00E9900410
:1016630099F060F6D083D0822274F11201FE8908CA
:101673008A0E8B0F8C0A8D09790212112B8A0C8B1F
:101683000DA80CA90DE8FEE9FFE87001E970077ADF
:10169300007B0002172C740E250A8E828F83A3A36E
:1016A300F0EE240E1219D854804508F0900499E006
:1016B300C0E0EE2410F582EF3400F583D0E0F09023
:1016C3000499E004F060F8EE240FFAEF3400FB8A8B
:1016D300828B83E054BF75830475829CFCE04C5479
:1016E300F8450954778A828B83F088828983E0C224
:1016F300E7F0750B00780A120345AC0EAD0FEE242C
:10170300110A0AEF3400FB12234B74021201BD7558
:101713000804750900780812034512198512234B32
:1017230074021201BDEEFAEFFB7F0802025E74F74A
:101733001201FE790112112B8A088B09A808A90945
:10174300E8FEE9FFE87001E96013EE24020A0AEFFC
:101753003400FB120777EEFAEFFB1218A57F0202A3
:10176300025E74F11201FE74FE1201A785108285D8
:101773001183ECF0A3EDF08A0A8B0B74111201F2C2
:10178300E0F50CA3E0F50D74151201F2E0F50EA3DC
:10179300E0F50FE4850C82850D83F07C017901125D
:1017A30012058A088B09AE08AF09EE7001EF7003CA
:1017B30002187B750800750900850A82850B83E092
:1017C30064017015A3E0F9120C978A088B09EA707B
:1017D30001EB7005790202187D8E828F83A3A3E04B
:1017E30024F2F50A850C82850D83F0750B00780AC7
:1017F300120345EE2411FCEF3400FD74021201F2D2
:101803001218851201BDE5087002E509600FEE2488
:101813001B121890F0EE241C121890A3F0741312EC
:1018230001F2E07002A3E0601E75080475090078F8
:1018330008120345EE240AFCEF3400FD741512016F
:10184300F21218851201BDE50E7002E50F6014EE69
:10185300240FF582EF3400F583E05407850E82856B
:101863000F83F08E828F83A3E0FA79011211C6E40D
:101873008E828F83F0F98002790474021201BD0213
:10188300172CE0FAA3E0FB12234B740222F582EF3C
:101893003400F583E0850882850983A3A3A3A3A36A
:1018A300A32274F31201FE74FF1201A7EAFEEBFFF9
:1018B300EE240EF50AEF3400F50B850A82F583E07A
:1018C300543FF508750C04750D00780C120345128E
:1018D30019851222F274021201BDEA7001EB70093C
:1018E300E48E828F83F0021972850A82850B83E06E
:1018F300A2E640ECE50860E8EE2402FAEF3400FBD0
:10190300E508C39407501CE508C33324EAF582E4D1
:101913003404F58312197C1201FCE9640170C1746B
:101923000180BE743F6508600EE508C3942040B093
:10193300E508C3943F50A9851082851183AC82AD1D
:1019430083120D6AE9609974018E828F83F090048B
:101953009EE07002A3E06017851082851183E0F991
:1019630090049E12197C1201FCE960030218E374CF
:10197300011201BD7F0602025EE0F8A3E0F5838851
:10198300822290049AE0FCA3E0FDEE240AFAEF34ED
:1019930000FB2274F81201FEEAFEEBFFE9FAEE24E3
:1019A3000F1219D854CF75830475829DFBE04B88C1
:1019B300828983F0EAF9EE2402FAEF3400FB12067F
:1019C300AEE97004790080027909E48E828F83F096
:1019D3007F0102025EF8EF3400F988828983E022F6
:1019E300C082C08390049CE0F9021667227900222A
:1019F30074F71201FE75080475090078081203458F
:101A03007C007D007AA07B0412243274021201BD93
:101A13009004A8E0701B78081203457CF87D047AD3
:101A2300A47B0412234B74021201BD74019004A819
:101A3300F080031201BD7F0202025EC082C0839068
:101A430004A8E060067AA47B0480047AF87B04D0BF
:101A530083D082227AFD7B042279022274F7120159
:101A6300FE79009004A8E0702175080489097808BC
:101A7300120345EAFCEBFD7AA47B0412234B7402A8
:101A83001201BD74019004A8F0F980AA74F7120141
:101A9300FE7508047509007808120345EAFCEBFD9E
:101AA3007AA07B0412234B740280887ABB7B0422C6
:101AB30074F51201FEEAFEEBFF8E828F83A3A3A3CC
:101AC300A3A3E0F91203B9010506D51A0103D51A38
:101AD300D91A7D0180027D038E828F83A3A3A3A3E2
:101AE300E0FC8E828F83A3A3E0FAA3E0FB12166CC3
:101AF3008A088B09A909EA7001E9602F750A047540
:101B03000B00780A1203458E828F83E0FCA3E0FD6D
:101B1300EA2406FAE93400FB12234B74021201BDD6
:101B23007901AA08AB09121996800279037F04028E
:101B3300025E74F71201FE74FD1201A7E4851082A0
:101B4300851183F08A828B83A3A3A3A3A3E0C0E0C0
:101B530074011201F2D0E0F0EA2406F508EB340038
:101B6300F50978081203458A828B83120356EA2407
:101B730004F508EB3400F50978081203458A828BD3
:101B830083A3A3E0FCA3E0FD74061201F2AA82ABD7
:101B93008312176574061201BD74031201BD7F021F
:101BA30002025E74F51201FEEAFEEBFF7508007493
:101BB300046970081207A8120932806F74056970EE
:101BC3000512091B806574066970398E828F83E064
:101BD300F9120C97EA7001EB70047902804F750AD1
:101BE30002750B00780A120345EA2406FCEB340065
:101BF300FD8E828F83A3AA82AB8312234B740212BE
:101C030001BD8027740769700B1209DCE98E828F8E
:101C130083F08017740869700512078A800D7409B0
:101C23006970051207A88003750802A908021B3012
:101C330074F71201FEEAFEEBFF7508027401697086
:101C4300207508047509007808120345121A3EEA44
:101C5300FCEBFDEEFAEFFB12234B74021201BD8085
:101C630009E97009121A5FE96003750800A90802FF
:101C73001BA174F71201FEE9FC8A828B83E0F974DD
:101C83000E6C60047902801374FF6960F7120C977D
:101C9300EA7001EB60EE120C887900021BA174F567
:101CA3001201FE900501780812014C7583047582B8
:101CB300A978081201377010900505780812014CB5
:101CC3009004A9780812015B9004ADEAF0A3EBF04D
:101CD300120A00E99004AFF080007F0402025E74F0
:101CE300F51201FE74E91201A7120B51E9FE7F06FA
:101CF300121AAE851082851183EAF0A3EBF0740704
:101D03001201F2A882A98374021201F2E8F0A3E996
:101D1300F074041201F27408F074051201F27403F2
:101D2300F0790474091201F2AC82AD837AA97B04C1
:101D330012107974071201F27401F09004AFE0C03D
:101D4300E074081201F2D0E0F0740D1201F2740293
:101D5300F0121A5C740E1201F2E9F08510828511FB
:101D630083AC82AD837A03790212158C7405120158
:101D7300F27403F074071201F2A882A983740212A9
:101D830001F2E8F0A3E9F0740F1201F2A882A9832B
:101D9300851082851183E8F0A3E9F074036E600B6C
:101DA30074016E700312091B12078A120A2D740341
:101DB3006E600D74016E700512093280031207A85C
:101DC300851082851183AC82AD837A027902121564
:101DD3008CE9705B74071201F2E0547FFA74016AB4
:101DE3006004EF6A704975080475090078081203E6
:101DF30045740B1201F2AC82AD8374151201F2AA81
:101E030082AB8312234B74021201BD780812014C7A
:101E1300AA08AB09AC0AAD0B121EAB740F1201F288
:101E2300AA82AB83121A8F9004AFE004F07F00EF15
:101E3300F974171201BD021CDD74F81201FE7E0055
:101E43007D017C009004AFE0F9120F65E970041284
:101E53000AB50EEEF97F0102025E74F51201FE90DF
:101E63000501780812014C7583047582B078081255
:101E730001377010900509780812014C9004B0786E
:101E83000812015B120A00E99004B8F060F67508C5
:101E93000275090078081203457C007D007AB57B42
:101EA300041224327402802174F51201FE8A088B15
:101EB300098C0A8D0B900501780812013760089090
:101EC30004B0780812015B80031201BD7F04020293
:101ED3005E74F11201FE74F81201A7EAFEEBFF8EA5
:101EE300828F83E0F874F228F874FF3400F9C3E8B2
:101EF3009409E99400A2D265D033401A121A5CE91E
:101F0300FAEE24171220E06A600C790274081201B9
:101F1300BD7F0802025E7904E91201F2AC82AD834F
:101F2300EE2411FAEF3400FB12101CC082C0839020
:101F330004B0780812014CD083D08278081201379C
:101F430070C8EE24151220E0F50AEE2408F50EEF12
:101F53003400F50FA90AAA0EFB120CD98A088B09C3
:101F6300A808A909E87001E960611220D0C0E074F3
:101F7300011201F2D0E0F088828983A3A3A3A3A373
:101F8300A3A3A3E0C0E074021201F2D0E0F012199F
:101F9300E374031201F2E91220FE8A088B09A808F0
:101FA300A909E8FEE9FFE87001E9601A75080475FC
:101FB300090078081203451220BE1201BD7900EE14
:101FC300FAEFFB1219967901021F0F9004B4E07027
:101FD30003021F0D120BFD8A088B09EA7001EB60E7
:101FE300E5750C04750D00780C120345AC0EAD0FAE
:101FF300EA24020A0AEB1220C71201BDAA08AB09A0
:102003007902120E05E97009AA08AB09120C88803F
:10201300B59004B7E0640260EFE0F50C7401250CA1
:102023001220E9A3E0C0E0E50C24B5F582E4340412
:10203300F583D0E01220E9E50AF074028508828571
:102043000983F0A3A882A983EE24161220E064403A
:102053007004740180027403888289831220EEE085
:10206300C0E074021201F2D0E0F01219E37403121B
:1020730001F2E9F01220D0C0E074011201F2D0E0C5
:102083001220FE8A0A8B0BA80AA90BE8FEE9FFE8D7
:102093007001E9700302200B750A04750B00780ABE
:1020A3001203451220BE1201BD7900EEFAEFFB12B6
:1020B3001996E9600302200B021FC9AC0EAD0FEEA7
:1020C3002406FAEF3400FB12234B74022274818539
:1020D3001082851183F0EE24101220E022F582EFA6
:1020E3003400F583E0221220EEA322F085088285D6
:1020F3000983A3A3A3A3A3A3A3A322F0EE240D12F6
:1021030020E05407FA7403C39AFD7C04851082858A
:102113001183AA82AB83790212166C2274F812011E
:10212300FEEAFEEBFF7D017C009004B8E0F9120F9C
:1021330065E97007120AB57901803AEE240FF8EFCA
:102143003400F98E828F83E0FA74F22AFA74FF3432
:1021530000FB74086A7001EB70097401888289833B
:10216300F0800988828983E064017007EEFAEFFB4F
:10217300121ED479007F0102025E74F71201FE7908
:1021830000A2AFE492E0FAC2AF9004B7E06036E099
:1021930014F0EAA2E092AF091221D29004B5E0F95B
:1021A3007C009004B7E0FAECC39A501E8C08E50853
:1021B30024B5FAE43404FB8A828B83A3E08A828BFE
:1021C30083F00C80DDEAA2E092AF7F0202025EC0E0
:1021D30082C083E970047A0180027A00EA9004B431
:1021E300F0D083D08222C082C083120A00E9900417
:1021F300B9F0D083D0822274F71201FEEAFEEBFF1E
:102203007D017C009004B9E0F9120F65E9700712B3
:102213000AB57901802E7508047509007808120340
:1022230045121A3EEAFCEBFDEE2404FAEF3400FB00
:102233001222F274021201BDEA7001EB70047900FC
:10224300800279027F0202025EC082C083120A000A
:10225300E99004BAF0D083D082227F0402025E7434
:10226300F51201FEEAFEEBFF7D017C009004BAE06B
:10227300F9120F65E97007120AB57901806AEE2435
:102283000FFAEF3400FB8A828B83E0640170577D81
:10229300038E828F83E024F2FC790112166C8A0884
:1022A3008B09A909EA7001E9603C750A04750B0002
:1022B300780A120345EE2408FCEF3400FDEA2406F5
:1022C300FAE93400FB12234B74021201BDE5082422
:1022D30011F582E5093400F583E0D2E7F07900AA2D
:1022E30008AB09121996790002225D227900227443
:1022F300F81201FE74081201F2E0F8A3E08015A3BE
:10230300AA82AB838C828D83A3AC82AD83E824FF46
:1023130018E934FFF9E87001E960248A828B83E0CD
:10232300FE8C828D83E06E8A828B8360D2E0F88C90
:10233300828D83E0FAE8C39AFAE49400FB80047A7E
:10234300007B007F0102025E74F71201FE74091222
:1023530001F2E0FEA3E0FFEAF8EBF980188C828D2E
:1023630083E088828983F0A3A882A9838C828D83EA
:10237300A3AC82AD838E088F0974FF25081E74FFFA
:102383003509FFE5087002E50970D27F0202025E9B
:1023930074F71201FE74091201F2E0F8A3E0F9EAFE
:1023A300FEEBFF8A088B09C3EA9CEB9D405EEC2899
:1023B300F582ED39F583C3E5829508E583950940F8
:1023C3004BEA28FAEB39FBAC82AD8312242170026D
:1023D300E5096041EC24FF1CED34FFFDEA24FF1AFC
:1023E300EB34FFFB8C828D83E08A828B83F080DB6E
:1023F3008C828D83E08A828B83F08C828D83A3AC65
:1024030082AD838A828B83A3AA82AB831224217039
:1024130002E50970DBEEFAEFFB7F0202025E880839
:10242300890974FF25081874FF3509F9E508227432
:10243300F81201FE74081201F2E0F8A3E0F98A82AF
:102443008B838003ECF0A3E8FEE9FF74FF2E18747E
:0E245300FF3FF9EE7001EF70EB7F0102025EB9
:0000D3012C
:00000001FF
