:030000000200D328
:1000830002088C00000080FB1200E2B900030200AA
:10009300CDE490F3FF78B879018002F0A3D8FCD9BE
:1000A300FA90F4B6AA82AB839000E5785A7901807E
:1000B30015E493A3AC82AD838A828B83F0A3AA82D7
:1000C300AB838C828D83D8E9D9E712051E12008693
:1000D30075D00075813F7510FF7511F302008B79A0
:1000E3000122FFFFFFFF1432506E0E2750FF000066
:1000F30000010000000000000000000000000000FC
:1001030000000000000000000000000000000000EC
:1001130000000000000000000000352E4B2B52268B
:10012300C62E731E642C7956381202010101000099
:100133000000000807060504030201E066701008CA
:10014300A3E066700A08A3E066700408A3E06622D1
:10015300E0F608A3E0F608A3E0F608A3E0F622E63B
:10016300F008A3E6F008A3E6F008A3E6F022CAC06D
:10017300E0E6F0A308DAFAD0E0FA22CAC0E0E0A38E
:10018300C582CCC582C583CDC583F0A3C582CCC54A
:1001930082C583CDC583DAE6D0E0CA22C3E498F8EA
:1001A300E499F91201E08026C3E49AFAE49BFBE99F
:1001B30020E7E91201E0E498F8E499F922C3E4980E
:1001C300F8E499F91201E0E498F8E499F9C3E49AA0
:1001D300FAE49BFB22EB20E7CFE920E7E0B900102C
:1001E300BB0008E88AF084F8AAF022E4FBC8FA22EC
:1001F300EB70227B10C833C8C933C9335007C39A85
:10020300C3DBF280069A50012ADBEAC833F4C8C97B
:1002130033F4C9FA2275F008E4C833C8C933C933C3
:10022300C99AC99B5004C92AC93BD5F0ECFBC83312
:10023300F4C8E4C9FA22600C08C6C313C618C6136F
:10024300C6D5E0F422251010AF08F51040021511B1
:100253008008F51040021511D2AF22C0D02510102E
:10026300AF08F510500205118008F5105002051172
:10027300D2AFD0D0222510F58210AF08F51040027E
:1002830015118008F51040021511D2AF8511832294
:100293002510F582E43511F58322E4732510C58218
:1002A300C0E0E51134FFC583C0E0E510C3958224A7
:1002B300F9F8E4C5A8858311858210C5A8E8CEF0B6
:1002C300A3E520F0A37808E608F0A3DEFAEFF0A395
:1002D300E58124FBF8E608F0A3E608F0A30808E6A6
:1002E30008F0A3E608F0A315811581D0E0FED0E065
:1002F300F815811581E8C0E0EEC0E0228511838501
:100303001082E0A3FEE0A3F5207808E0A3F608DF5F
:10031300FAE0A3FFE0A3C0E0E0A3C0E0E0A3C0E0F5
:10032300E0A3C0E0E4C5A8858210858311C5A8D0E9
:1003330083D08222C0D02510C582C0E0E51134FFEE
:10034300C583C0E0E510C3958224F310AF0885830D
:10035300118582108008858311858210D2AFC8F081
:10036300A3E9F0A3EAF0A3EBF0A37908E709F0A36C
:10037300D8FAECF0A3EDF0A3EEF0A3EFF0A3D0E0F6
:10038300F0A3D0E0F0A3D0E0F0A3E520F0A3E5F0E4
:10039300F0A322851183851082E0C0E0A3E0F9A3D6
:1003A300E0FAA3E0FBA37808E0F608A3DFFAE0FC99
:1003B300A3E0FDA3E0FEA3E0FFA3E0C0E0A3E0C051
:1003C300E0A3E0F5D0A3E0F520A3E0A3F5F0E4C5B6
:1003D300A8858311858210C5A8D082D083D0E0F888
:1003E300D0E03274028000C0E0F404120278D0E05E
:1003F3001201712274028000CCC0E0EDC0E0E51070
:10040300C39CCCAD1150011D10AF068C108D118013
:10041300068C108D11D2AF12017ED0E0FDD0E0FC2E
:1004230022D083D082C5F0E493A3C5F0C395F0F541
:10043300F0E493A3C395F04005E5F0048001E4756F
:10044300F002A42582F582E5F03583F583E493A3D6
:10045300C0E0E493C0E022D083D082CCC0E0E49338
:10046300A360061204841470FAE493A360061204D2
:10047300A31470FAD0E0FCE493A3C0E0E493C0E0DB
:1004830022C0E0E493A3D39C5010E493A3C39C4005
:100493000AD0E0D0E0D0E0020477A3A3A3D0E02207
:1004A300C0E0E493A36C7009D0E0D0E0D0E0020494
:1004B30077A3A3D0E022C082C08374FE1202481245
:1004C300050C85108285118374AAF0A3E4F08510CE
:1004D30082851183E07004C2AF80FE740212025E53
:1004E300D083D0822253CBEFC2D843CB0475F00D17
:1004F300EAA4F5CD74FC55CB4402F5CB43CB10A253
:10050300D850FC53CBEFC2D822120513438F2022BD
:1005130043FE0143FE08D290D293221204B9800312
:1005230012061C7A007B0012165CE970F3A293504A
:1005330005790212062EA2905005790112062E1299
:10054300054780FE74F712029F74FE12024880036F
:1005530012061C7A007BF412182EE970F3A2934062
:1005630005790212062EA2904026790112062E80EA
:100573001F740C6A70010F0EEEC39402406A74027A
:100583006F700D790212062EE0F9121832E96054E9
:100593007C007D007A047903121840A281400B7A13
:1005A300FA7B00120AD87E01800DA28550ED7AFAFB
:1005B3007B00120AD87E027C007D007A0579031243
:1005C300184090F3FFE004F0C0E07401120293D0EE
:1005D300E0F074016E70047401800274028510826D
:1005E300851183F07F007E00750801750900780886
:1005F3001203E67C02EC120293AA82AB8390F4000E
:10060300E0F91216AB740212025EE9FA6003020506
:1006130074790112062E020581790112062E7902E0
:1006230012062E7AE87B03120AD822740169700637
:10063300639001E590227402697005639008E59068
:100643002274F712029F75081875090078081203BF
:10065300E612095612025E90DF36E054EF64016041
:1006630004C2AF80FE90DF37E0C394035004C2AFEF
:1006730080FE53BEFBE5BEA2E650FA53C6BF43BE9F
:100683000474F4F5D575D420743C90DF13F074141E
:1006930090DF14F0741590DF02F0740590DF04F01E
:1006A300748E90DF2EF0740990DF25F0741290DFC2
:1006B30007F0E490DF08F0741090DF09F074B09055
:1006C300DF0AF0747190DF0BF0742D90DF0CF0747F
:1006D3003B90DF0DF0741390DF0EF0742290DF0F68
:1006E300F074F890DF10F0746290DF11F0741D90D5
:1006F300DF15F0741C90DF16F074C790DF17F0E479
:1007030090DF18F074B090DF19F074B690DF1AF030
:10071300741090DF1BF01209B4741F90DF1FF07484
:100723008890DF23F0743190DF24F0740290F40199
:10073300F07900120C337E007F0075E10275081416
:1007430075090590DF3CE0545070237A407B00121A
:100753000A91E50824C0F508E50934FFF509C3E566
:10076300089401E5099400A2D265D03350D57A10DC
:10077300EEC333FEEF33FF90DF3AE0A2E0E492E012
:100783004EFE1AEA70EA74804EF5BCEFF5BC120A0D
:100793004590F41C7433F0A3E4F090F41E74E2F07B
:1007A300A37404F0439A01D2AF020AD374F712027E
:1007B3009FEAFEEBFF890975080090F401E06401EC
:1007C3007004C2AF80FE120A45EF90F420F0EE9061
:1007D300F421F074DF90F422F074D990F423F074D0
:1007E30020120A17744190F427F0E509701143D6DB
:1007F3000175E103E5E9A2E450FA53E9EF8064747B
:100803000165096004C2AF80FE750904801C120AE9
:10081300451209C6E9540F04FE90F41EE0FAA3E062
:10082300FB120A911EEE70F1150943D60175E10220
:1008330090DF3BE0640D70F87E147F0590DF3CE0B1
:1008430054507005120BC450F375E10390DF3BE085
:10085300640D6008E5E9A2E450FA809EE50970AEF4
:10086300750801120A4590F401E06403700312094C
:10087300CCA908020AD3C082C08390F402EAFCEB3D
:10088300FD741812017E020A66C0E074F112033788
:1008930090F401E064036004C2AF80FEE5E9A2E4E2
:1008A300502BE5E9A2E6502553E9EF53E9BF539BEB
:1008B300FCE59B120A4575081675090078081203B2
:1008C300E612095612025E1209CC02095153E9EFEE
:1008D300539BFCE59B75080275090078081203E633
:1008E30090F402E0042402FCE434F4FD7A187BF46F
:1008F300122F6A740212025EE0FA90F419E0A2E782
:10090300503B8A0874012508F8E43400F9E8941789
:10091300E99400C365D0335024EAC3940B401E7A94
:10092300037BF4120CE5E9701490F418E0F9120B50
:10093300E0E9F090F419E0C2E7F0121AAB7508167B
:1009430078081203E612095612025E43D6017F02AB
:100953000203967C007D007A027BF4123009740254
:100963002274F812029F90F401E064016013A2AFB5
:10097300E492E0FEC2AF120A747401F0EEA2E092B8
:10098300AF020BBFC082C083E5C6A2E65004C2AF6C
:1009930080FE90F401E0640170141209B4740290B3
:1009A300F401F075E10490DF3BE0640170F8020AA2
:1009B3006674EA90DF1CF0742A90DF1DF0E490DF88
:1009C3001EF02243B404A9BC2274F712029F74DF01
:1009D30090F420F074D990F421F074F490F422F0A0
:1009E300740290F423F07480120A17741190F427A0
:1009F300F075D68175081675090078081203E6129A
:100A0300095612025E43D601120A6B75E102439145
:100A130010020AD390F424F0741890F425F07413A0
:100A230090F426F022C082C08390F401E064017048
:100A330004C2AF80FEE0640360067403F01209CCC5
:100A43008021C082C0835391EF75E10490DF3BE0C6
:100A5300640170F875D68153D1FE120A6B8004903D
:100A6300DF03F0D083D08222539BFCE59B53E9EF55
:100A730022C082C08390F401E064017004C2AF809D
:100A8300FEE064037006120A457402F080D574F721
:100A930012029F8A088B0974047808120239AE087F
:100AA300AF09EA7001EB6028A2AFE492E0F508C257
:100AB300AF7A107B001204E8E508A2E092AFEEF8EB
:100AC300EFF974FF281E74FF39FFE87001E970D84D
:100AD3007F020202FF74F812029FEAFEEB800E7A95
:100AE300F47B01120A91EE24FF1EEF34FFFFEE7038
:100AF30001EF70EB020BBF74F612029F90F41CE03F
:100B0300F508A3E0F509A2AFE492E0FAC2AF7401DD
:100B130090F41BF0EAA2E092AF800CE50824FFF505
:100B230008E50934FFF509E5087002E50960357E3B
:100B33001F7F00A2AFE492E0F50AC2AF7A107B00F8
:100B43001204E8E50AA2E092AF90F41AE07012EE04
:100B5300F8EFF974FF281E74FF39FFE87001E9709C
:100B6300D2E060B7A2AFE492E0FAC2AFE490F41A25
:100B7300F090F41BF0EAA2E092AF7F030202FFC001
:100B830082C08390F41BE06006740190F41AF002B3
:100B93000A6674F812029F90F401E064036004C2D1
:100BA300AF80FE7E147F0590DF3CE0545070051249
:100BB3000BC450F390DF3AE0F9120BE07F0102021D
:100BC300FF7A407B00120A91EE24C0FEEF34FFFF50
:100BD300C3EE9401EF9400A2D265D03322C008C0C3
:100BE30009E9C39480E94019F879FF7A027B00127E
:100BF30001D88808890974B72508F874FF35098076
:100C03000BC313F874B728F874FF3400F9C3E894DE
:100C130080E994FFA2D265D03350027880E8F9D0FE
:100C230009D00822C082C08390F401E0F9020A6669
:100C330074F712029F8908E9C394044004C2AF8089
:100C4300FE120A45E50824BAF582E434F4F583E09C
:100C530090DF06F090F401E0640370031209CC0204
:100C63000AD374F712029F8908E9C394034004C2AC
:100C7300AF80FE120A45E50824BEF582E434F4F59C
:100C830083E090DF2EF090F401E064037003120917
:100C9300CC020AD3C082C0838A828B83E064FF7054
:100CA300047901801FE090DF05F07C008C82A8822C
:100CB3007900120D3AC0E0120D2FD0E0F00CECC316
:100CC300940440E8020A66C082C08390F4C1E064E1
:100CD300FF7004C2AF80FE740190F428F074070221
:100CE3000A6274F812029F90F428E070047900807D
:100CF300387E007D007C008C82A882120D3AFF12A0
:100D03000D2FE06F70010EE824B6F582E434F4F59C
:100D130083E06F70010D0CECC3940440DA74046D2E
:100D230060CB74046E60C67901020BBFE824C1F581
:100D330082E434F4F58322EA28F582EB3400F58368
:100D4300E02274F712029FEAFEEBFF75082875098B
:100D53000078081203E67C007D007AC67BF412302B
:100D630009740212025E740390F4C6F0743D90F4A9
:100D7300C7F0742090F4C8F0740190F4C9F0122104
:100D830003EEFAEFFB1219831213A8121E21122C81
:100D9300B7EEFAEFFB122436122C53122673122EDF
:100DA300C590F4E2E070347402F0740390F4E3F05D
:100DB300743F90F4EBF090F4ECF074FF90F4EDF0EA
:100DC30075080478081203E6122217EAFCEBFD7A91
:100DD300E57BF4122F22740212025E79007F020275
:100DE30002FF74F812029F74FF1202487B00EB1299
:100DF3000EB070070BEBC3940340F374036B7006E0
:100E03007A007B00805EEB75F00CA424CAFEE5F04B
:100E130034F4FFEEF8EFF9E488828983A3A3A3A354
:100E2300A3A3A3A3A3A3F0740288828983F090F4FD
:100E3300C9E0C0E0E8240BF582E93400F583D0E093
:100E4300F090F4C9E004F0E0F960F674FF6960F132
:100E5300851082851183AA82AB83121219E970E18E
:100E6300EEFAEFFB740112025E7F010202FFC08201
:100E7300C083E48A828B83F0D083D08222C082C075
:100E83008374FF120248851082851183AA82AB8383
:100E9300121219E96006E0120EB060067582007541
:100EA3008300AA82AB83740112025E80CB75F00CBF
:100EB300A424CAF582E5F034F4F583E064022274D5
:100EC300F312029F8A0C8B0D89097ECA7FF4750881
:100ED300008E828F83E064027034750A04750B0000
:100EE300780A1203E6AC0CAD0D12103712025EEA5B
:100EF3007001EB70198E828F83A3A3A3A3A3A3A373
:100F0300A3A3A3E065097006EEFAEFFB8009120FB5
:100F13001F40BE7A007B007F060202FF1212C294BA
:100F23000222C082C083E98A828B836001A3A3A3C8
:100F3300A3A3A3A3A3A3A3E0FCEC60078A828B83F0
:100F4300E0700479028008ECC3942040F679000233
:100F53000E7B74F112029F8A0C8B0D8C0E8D0F7E0B
:100F6300CA7FF48A828B83A3A3A3A3A3A3A3A3A36C
:100F7300E0543FF5097508008E828F83E0640260B8
:100F830003021022A3A3A3A3A3A3A3A3A3E065091E
:100F93006003021022743F6509601B750A04750B18
:100FA30000780A1203E6E50C240512103112025EE2
:100FB300EA7001EB7069750801EE240BF582EF12FC
:100FC30011A8850E82850F83F0743F65096049E59A
:100FD3000C240A1211A4A2E750198E828F83A3A3B3
:100FE300A3A3A3A3A3A3A3A3E0F9AA0CAB0D121D70
:100FF300668025A2E35021EE2402F8EF3400F9883D
:10100300828983E0FAE50C240B1211A46A7006E4CA
:1010130088828983F0750800120B82A908800A125E
:1010230012BC5003020F7B79007F080202FFFCE52C
:101033000D3400FDEE2403FAEF3400FB122EC974C5
:10104300022274F112029F74FE12024889088A0C6C
:101053008B0D7ECA7FF4750A02750B00780A1203A2
:10106300E67C007D007402120293AA82AB831230E5
:1010730009740212025E750902E50C6E7003E50D38
:101083006F70030211188E828F83E0640260030283
:101093001118EE2409F50EEF3400F50F850E82F5D5
:1010A30083E0FAC3943E506D74016508702890F490
:1010B300C7E0C39A505FEAF8C3E498F8E49400F9F0
:1010C300851082851183E58228F8E58339F9743D1B
:1010D30028F582E48039750A04750B00780A120337
:1010E300E6E50C240312103112025EEA7001EB7084
:1010F30024850E82850F83E0F8851082851183E5B0
:101103008228F8E5833400F974E028F58274FF3906
:10111300F5837401F0EE240CFEEF3400FF1509E5AE
:1011230009600302107C79007A008A0A851082859F
:101133001183E582250AF582E5831211A8703E74B6
:10114300026508700674202AF9803F743DC39AF93A
:1011530090F4C8E0FAE9C39A404390F4C7E0697099
:1011630003E014F0E9850C82850D83A3A3A3A3A355
:10117300A3A3A3A3F0740212025E02102C0AEAC313
:10118300940240A67402650870C690F4C7E0C39940
:10119300400B90F4C8E0C39950CAE980C679008037
:1011A300C3F582E50D3400F583E02274F512029F46
:1011B300EAFEEBFF7508028C0AEE250A121209A259
:1011C300E7503C8D08EE250812120969702E750848
:1011D3000475090078081203E612214EEAFCEBFDC0
:1011E3008E828F83A3AA82AB83122EC9740212024A
:1011F3005EEA7001EB70057508008003750801A9AC
:10120300087F040202FFFAEF3400FB740C2AF58214
:10121300E43BF583E02274F812029F7CCA7DF47EDE
:10122300008C828D83E064027016EC240BF582ED52
:101233001211A869700AEE8A828B83F079018011FA
:101243000EEC240CFCED3400FDEEC3940340D27984
:1012530000020E6C74F312029F8A0C8B0D89097EB7
:10126300CA7FF47508008E828F83E06402703E7536
:101273000A04750B00780A1203E6EE2403FCEF342C
:1012830000FDAA0CAB0D122EC9740212025EEA70A5
:1012930001EB70198E828F83A3A3A3A3A3A3A3A39C
:1012A300A3A3E065097006EEFAEFFB80091212BCF6
:1012B30040B47A007B00020F1A1212C29403220573
:1012C30008EE240CFEEF3400FFE508C32274F51288
:1012D300029FECFEEDFF890A890875090078081260
:1012E30003E6EAFCEBFDEEFAEFFB122F6A7402123F
:1012F300025EE50A12042402022A1304132A1318B5
:10130300138E828F83E0F8A3E0F98E828F83E8F057
:10131300A3E9F080128E828F8378081201538E82A4
:101323008F83780812016202120474F512029F740B
:10133300FA120248EAFEEBFFECFAEDFBE912042491
:1013430002024D1353134D136F13EEFCEFFD803860
:101353008E828F83E0FCA3E0FD851082851183ECF0
:10136300F0A3EDF085108285118380188E828F8320
:1013730078081201537402120293780812016274FE
:1013830002120293AC82AD838908750900780812B2
:1013930003E6122F6A740212025E740612025E02E0
:1013A300120479022274F712029F7508347509003A
:1013B30078081203E67C007D007A297BF412300959
:1013C300740212025E78081203E67C007D007A5DE7
:1013D3007BF4123009740212025E7F020202FF7470
:1013E300F612029FE9FC780079007E007F007D0001
:1013F30074016C70067A297BF480047A5D7BF47542
:10140300090388088A828B83E0601D74016C702154
:101413000DE06404601BA3E0F50AC395095012EACA
:10142300F8EBF9850A09800974026C6048EAFEEB5F
:10143300FF0508EA241AFAEB3400FBE508C394021B
:1014430040C2EE7001EF7020E87001E970067A0087
:101453007B008021E8FEE9FF8E828F83A3E0FAEC14
:10146300F912147DE508800874012D8E828F83A301
:10147300F0EEFAEFFB7F030202FFC082C083740128
:10148300697031782979F4A2AFE492E0FDC2AF7BB1
:101493000288828983E0600BA3E0FCEAC39C5003CB
:1014A300E014F0E8241AF8E93400F91BEB70E2EDDC
:1014B300A2E092AFD083D0822274F112029F74F81B
:1014C300120248851082851183EAF0A3EBF08C0A9F
:1014D3007402120293E4F0A3F0F50EF50F740169A0
:1014E30070237E297FF4750C03121642FA74016A85
:1014F300703E12164FA3E0F9120E808A0E8B0FEA8C
:101503007001EB70077A007B000216388A828B83A6
:10151300A3A3A3A3A3A3A3A3A3E0F508EA2403F827
:10152300EB3400F97406120293E8F0A3E9F0800AA1
:10153300EA70D212164FA3E0F5087401650A70052C
:101543007509018003750903750D02A2AFE492E0EA
:10155300FAC2AF8E828F83E06509600302161874A6
:1015630004F0EAA2E092AFEE240BF582EF3400F52B
:1015730083E0543F650860030216101216426401AB
:101583007021743F65087009E50E2403F8E50F80A8
:1015930005EE2407F8EF3400F97404120293E8F01F
:1015A300A3E9F0750A04750B00780A1203E67408C0
:1015B300120293E0FCA3E0FD7406120293E0FAA387
:1015C300E0FB122EC9740212025E1216426003EA95
:1015D300703B8E828F83A3AA82AB83E0C3950C50AA
:1015E3002C7402120293E07002A3E0600D740212E5
:1015F3000293E0F8121655E509F08A828B83E0F531
:101603000C7402120293EEF0A3EFF0800D8E828F22
:1016130083E50980F5EAA2E092AFEE241AFEEF34E7
:1016230000FF150DE50D600302154E7402120293BF
:10163300E0FAA3E0FB740812025E7F080202FF8552
:101643001082851183E0F8121655E02285108285F9
:101653001183A3E0F58388822274F812029F74FF3A
:10166300120248EAFEEBFF90F491E0702812064460
:10167300EEFAEFFB120D45E97024120987E4851099
:1016830082851183F0AA82AB83121E4E12214E1261
:101693000C97120CCA740190F491F01224B47401E3
:1016A30012025E7F010202FF74F112029F74FE12A6
:1016B3000248851082851183EAF0A3EBF089088C38
:1016C300097411120293E0FEA3E0FF120E808A0C4C
:1016D3008B0D750E02120C27E9F50B750A00E50C4C
:1016E3007002E50D600F7901AA0CAB0D120F25E90D
:1016F300FA8A0E600AA90E740212025E02197E852E
:101703001082851183E07002A3E060E9E509C394C8
:101713000B50E2EE7001EF7029850C82850D83A3D7
:10172300E0FDAC098510828511831218161219AEDB
:101733008A088B09AE08AF09EE7001EF704D79038B
:1017430080B5EEA2E0503F74FF65086039E50C24D4
:1017530002F50EE50D3400F50F780E1203E6850C45
:1017630082850D83A3E0FDAC097402120293121863
:1017730016121A6B740212025E8A088B09AE08AF46
:1017830009750A0180B279020216FA75080475090F
:101793000078081203E6E50C2403FCE50D3400FD94
:1017A300EE2403FA12183612025E7901EEFAEFFB09
:1017B300121D12E9F50E60030216F8E50A70030222
:1017C30016F87403650B600C7401650B7003120942
:1017D30087120A28120AFA7403650B600E740165F6
:1017E3000B70051209648003120A74A2AFE492E03D
:1017F300FAC2AF850C82850D83A3A3E0600DE48557
:101803000C82850D83A3A3F0750E0CEAA2E092AFC0
:101813000216F8E0FAA3E0FB850C82850D83A3A3EF
:10182300A3A3A3A3A3A3A3A3E0F92212270D221228
:101833002CC822EF3400FB122F2274022274F112FF
:10184300029FE9FBEAF9ECFEEDFF90F491E07013DF
:10185300EB12045A00020566180A66186118790229
:1018630002197EEB120424000ABC183719BC1812A3
:10187300192E19BC180119F81840196819EB1884A6
:10188300187508008E828F83A3AA82AB838E828F02
:1018930083E0702BE970178A828B83780C120153D3
:1018A300AA0CAB0DAC0EAD0F1226C202197C74014B
:1018B3006970061226E402197C75080202197C6419
:1018C3000170F6E970178A828B83780C120153AA90
:1018D3000CAB0DAC0EAD0F12247202197C740169AE
:1018E30070D712249302197CEEFAEFFB1213A5E9C9
:1018F300F50802197CEEFAEFFB12240A80F1740159
:10190300696003E970B3EEFAEFFB1223C880E07459
:1019130003697009EEFAEFFB12221C80D27402698C
:101923007097EEFAEFFB1222A080C4EEFAEFFB12DF
:10193300231180BBEEFAEFFB1220B780B27401696A
:1019430060030218BC75080475090078081203E6E1
:10195300122167EAFCEBFDEEFAEFFB122F22740271
:1019630012025E801174016960030218BC12216CBB
:10197300E98E828F83F0750800A9087F080202FFB1
:10198300C082C083E490F496F090F497EAF0A3EB5E
:10199300F012214E90F493EAF0A3EBF01209C6E99A
:1019A30090F492F060F6D083D0822274F112029FF9
:1019B30089088A0E8B0F8C0A8D0979021213E28A29
:1019C3000C8B0DA80CA90DE8FEE9FFE87001E97086
:1019D300077A007B00021A5E740B250A8E828F83BE
:1019E300A3A3F0EE240B121D4F54804508F090F48E
:1019F30092E0C0E0EE240DF582EF3400F583D0E0F1
:101A0300F090F492E004F060F8EE240CFAEF340066
:101A1300FB8A828B83E0121E1554F8450954778A9A
:101A2300828B83F088828983E0C2E7F0750B0078AC
:101A33000A1203E6AC0EAD0FEE240E0A0A121A6365
:101A430012025E75080475090078081203E6121D78
:101A530005121A6312025EEEFAEFFB7F080202FF21
:101A6300EF3400FB121C052274F712029F74091253
:101A73000293E0FEA3E0FF1219AEEA7001EB7006D9
:101A83007A007B008014EA240D121AA28E828F83BF
:101A9300F0EA240C121AA2D2E7F07F020202FFF549
:101AA30082EB3400F583E02274F712029F7901126E
:101AB30013E28A088B09A808A909E8FEE9FFE87080
:101AC30001E96013EE24020A0AEF3400FB120879DD
:101AD300EEFAEFFB121C2180C174F112029F74FE17
:101AE300120248851082851183ECF0A3EDF08A0A77
:101AF3008B0B7411120293E0F50CA3E0F50D741532
:101B0300120293E0F50EA3E0F50FE4850C82850D38
:101B130083F07C0179011214BC8A088B09AE08AFEB
:101B230009EE7001EF7003021BF0750800750900E0
:101B3300850A82850B83E064017015A3E0F9120E18
:101B4300808A088B09EA7001EB70057902021BF2A7
:101B53008E828F83A3A3E024F5F50A850C82850D7D
:101B630083F0750B00780A1203E6EE240EFCEF34C3
:101B730000FD7402120293121BFA12025EE5087052
:101B830002E509600FEE2418121C0BF0EE24191263
:101B93001C0BA3F07413120293E07002A3E0601E07
:101BA30075080475090078081203E6EE2407FCEFB4
:101BB3003400FD7415120293121BFA12025EE50E35
:101BC3007002E50F6012EE240CF582EF121AA55491
:101BD30007850E82850F83F08E828F83A3E0FA79C7
:101BE3000112147DE48E828F83F0F98002790474EC
:101BF3000212025E021A5EE0FAA3E0021A66AA82E9
:101C0300AB83122F22740222F582EF3400F583E0B6
:101C1300850882850983A3A3A3A3A3A3A32274F3A3
:101C230012029F74FF120248EAFEEBFFEE240BF54B
:101C33000AEF3400F50B850A82F583E0543FF5087B
:101C4300750C04750D00780C1203E6121D05EF34B4
:101C530000FB122EC9740212025EEA7001EB7009D6
:101C6300E48E828F83F0021CF2850A82850B83E067
:101C7300A2E640ECE50860E8EE2402FAEF3400FB4C
:101C8300E508C39407501CE508C33324ECF582E44C
:101C930034F4F583121CFC12029DE9640170C174D3
:101CA3000180BE743F6508600EE508C3942040B010
:101CB300E508C3943F50A9851082851183AC82AD9A
:101CC30083120F55E9609974018E828F83F090F42B
:101CD30097E07002A3E06017851082851183E0F915
:101CE30090F497121CFC12029DE96003021C6374BA
:101CF3000112025E7F060202FFE0F8A3E0F583888B
:101D0300822290F493E0FCA3E0FDEE2407FA227410
:101D1300F812029FEAFEEBFFE9FAEE240C121D4FC4
:101D2300121E0CFBE04B88828983F0EAF9EE240251
:101D3300FAEF3400FB1207AFE970047900800279EF
:101D430009E48E828F83F07F010202FFF8EF3400F3
:101D5300F988828983E022C082C08390F495E0F9F8
:101D63000219A974F712029F74E8120248E9FEEA05
:101D7300240B121AA2FF740A120293E0121E0CFC27
:101D8300E04C121E15C0E0740A120293D0E0F07505
:101D9300080475090078081203E6EA2405FCEB340D
:101DA30000FD7403120293121C0112025E780812E2
:101DB30003E690F493E0FCA3E0FD74071202931290
:101DC3001C0112025E7409120293E054C04EF074B7
:101DD3000B851082851183F0120293EFF0740A12BF
:101DE3000293E05478F0440BF07409120293E05428
:101DF3003FF07900851082851183AA82AB83120795
:101E0300AF741812025E021A9D54CF7583F4758263
:101E1300962254BF7583F4758295FCE04C2274F7C7
:101E230012029F75080175090078081203E67C0009
:101E33007D007A997BF4123009740212025E120952
:101E4300C6E990F49AF07F020202FFC082C0838A3F
:101E5300828B837A02E0F9C39404500D120C337C15
:101E6300997DF4740112017EFAEAF9D083D08222BB
:101E730074F512029F74FF120248EAFEEBFF750924
:101E8300007D017C0090F49AE0F91211AEE9FB7039
:101E930009120B82750901021F2974026B60030288
:101EA3001F29750800EE240CF582EF3400F583E05A
:101EB3001204240101261FC31EBE1E75080280637F
:101EC300750A04750B00780A1203E612214EEAFC28
:101ED300EBFD8E828F83A3AA82AB83122EC9740279
:101EE30012025EEA7001EB7016EE240DF582EF34F8
:101EF30000F583E08510828511831220AE802412C1
:101F030021BEEA7001EB601B780A1203E6EE24059A
:101F1300FCEF3400FD122EC9740212025EEA700156
:101F2300EB60C6850809A909740112025E7F0402E9
:101F330002FF74F112029F74F11202488A0E8B0F92
:101F43007E00750801120C27E9F5098510828511B9
:101F530083AC82AD837583F4758299740112017E1B
:101F63001221BE8A0C8B0DEA7001EB700912221745
:101F73008A0C8B0D8E087F007401120293EF1220DE
:101F8300AE7404120293E50CF0A3E50DF074021293
:101F93000293A882A9837406120293E8F0A3E9F0DE
:101FA30074081202937402F074091202937405F018
:101FB30074021202937402F090F49AE0C0E0740386
:101FC300120293D0E0F07404120293AC82AD837AD0
:101FD30003790212184074091202937405F0740213
:101FE300120293A882A9837406120293E8F0A3E96C
:101FF300F0740B120293A882A9837404120293E86B
:10200300F0A3E9F074036509600C740165097003BA
:10201300120987120A28120AFA74036509600E74FA
:1020230001650970051209648003120A74740412AD
:102033000293AC82AD837A027902121840E9703BB5
:10204300E5086026750A04750B00780A1203E6ACEE
:102053000CAD0D740D120293AA82AB83122EC974B8
:102063000212025EEA7001EB70118E0AE50E250A78
:10207300F582E50F3400F583EFF00E90F49AE00457
:10208300F0EE6004E508700A0FEFC39404500302F6
:102093001F7B851082851183AA82AB83121E4EEEAD
:1020A300F9740F12025E7F080202FFF0AA82AB836B
:1020B300121E4E2274F812029FEAFEEBFFE912048D
:1020C3005A000300D12001D6200DE520FC20121E6A
:1020D3004E802890F499EEFCEFFD740112017EF915
:1020E30080198E828F83A3E0FAA3E0FB121F35E9E8
:1020F3008E828F83F07900800279027F010202FFD2
:1021030074F712029F75080475090078081203E634
:102113007C007D007A9B7BF4123009740212025E0C
:1021230090F4A3E0701B78081203E67CFA7DF47A3E
:102133009F7BF4122F22740212025E740190F4A3A7
:10214300F0800312025E7F020202FFC082C083900E
:10215300F4A3E060067A9F7BF480047AFA7BF4D0E0
:1021630083D082227AFF7BF42279022274F712024F
:102173009F790090F4A3E070217508048909780819
:102183001203E6EAFCEBFD7A9F7BF4122F22740222
:1021930012025E740190F4A3F0F980AA74F712029C
:1021A3009F75080475090078081203E6EAFCEBFD45
:1021B3007A9B7BF4122F227402808874F712029F99
:1021C30074FC12024875080475090078081203E6C6
:1021D3007C007D007402120293AA82AB8312300941
:1021E300740212025E78081203E67402120293ACC0
:1021F30082AD837A9B7BF4122EC9740212025EEACB
:102203007001EB70067A007B0080047A9B7BF47488
:10221300040221467AB67BF42274F512029FEAFE89
:10222300EBFF8E828F83A3A3A3A3A3E0F912045A27
:102233000105063E2201033E2242227D0180027DEA
:10224300038E828F83A3A3A3A3E0FC8E828F83A339
:10225300A3E0FAA3E0FB1219AE8A088B09A909EAE5
:102263007001E96031750A04750B00780A1203E600
:102273008E828F83E0FCA3E0FDEA24030A0A0AE9C5
:102283003400FB122F22740212025E7901AA08ABFA
:1022930009121D12800279037F040202FF74F712F0
:1022A300029F74FD120248E4851082851183F08A2F
:1022B300828B83A3A3A3A3A3E0C0E07401120293C0
:1022C300D0E0F0EA2406F508EB3400F509780812AB
:1022D30003E68A828B831203F7EA2404F508EB34BE
:1022E30000F50978081203E68A828B83A3A3E0FC36
:1022F300A3E0FD7406120293AA82AB83121ADC7464
:102303000612025E740312025E7F020202FF74F57C
:1023130012029FEAFEEBFF7508007404697009124C
:102323000A741209640223C37405697006120987CB
:102333000223C374066970398E828F83E0F9120E0B
:1023430080EA7001EB700479028077750A02750BDD
:1023530000780A1203E6EA2407FCEB3400FD8E82C0
:102363008F83A3AA82AB83122F22740212025E8090
:102373004F740769700B120B95E98E828F83F0807F
:102383003F7408697005120A28803574096970055D
:10239300120A74802B740A6970238E828F83E01271
:1023A300042400024A23B723B323AF237902800610
:1023B300790180027900120C6579008005750802A5
:1023C300A90802229B74F712029FEAFEEBFF75082D
:1023D30002740169702075080475090078081203F6
:1023E300E612214EEAFCEBFDEEFAEFFB122F22740C
:1023F3000212025E8009E9700912216FE960037518
:102403000800A90802230C74F712029FE9FC8A82D0
:102413008B83E0F9740E6C60047902801374FF6996
:1024230060F7120E80EA7001EB60EE120E71790014
:1024330002230C74F512029F90F5037808120153DE
:102443007583F47582A4780812013E701090F50725
:10245300780812015390F4A4780812016290F4A84A
:10246300EAF0A3EBF01209C6E990F4AAF0803D74F8
:10247300F512029F8A088B098C0A8D0B90F503785D
:102483000812013E600890F4A47808120162801CCF
:1024930074F512029FEA7001EB601190F4A47808BE
:1024A3001201538A828B8378081201627F0402022D
:1024B300FF74F512029F74E5120248120C27E9F526
:1024C300087F06740F120293AA82AB83121F35E9A9
:1024D300FA8A097005790702264A7E0080010EEE0A
:1024E300C3950940030226488E0A740F120293E52E
:1024F30082250AFAE5833400FB121E4E1222178549
:102503001082851183EAF0A3EBF07407120293A8FB
:1025130082A9837402120293E8F0A3E9F07404120F
:1025230002937408F074051202937403F07904742F
:1025330009120293AC82AD837AA47BF412132D7437
:10254300071202937401F090F4AAE0C0E074081239
:102553000293D0E0F0740D1202937402F012216C16
:10256300740E120293E9F0851082851183AC82AD5B
:10257300837A03790212184074051202937403F0EC
:102583007407120293A882A9837402120293E8F0DB
:10259300A3E9F07413120293A882A983851082859C
:1025A3001183E8F0A3E9F074036508600C74016516
:1025B300087003120987120A28120AFA74036508BD
:1025C300600E7401650870051209648003120A74B1
:1025D300851082851183AC82AD837A027902121849
:1025E30040E960030224E17407120293E0547FFA86
:1025F30074016A6007EF6A60030224E175080475D9
:10260300090078081203E6740B120293AC82AD83BF
:102613007419120293AA82AB83122F22740212023C
:102623005E7808120153AA08AB09AC0AAD0B122657
:10263300C27413120293AA82AB8312219F90F4AA4D
:10264300E004F07F00EFF9741B12025E0224AF7402
:10265300F812029F7E007D017C0090F4AAE0F9123B
:1026630011AEE97004120B820EEEF97F010202FF34
:1026730074F512029F90F50378081201537583F4E1
:102683007582AB780812013E701090F50B78081232
:10269300015390F4AB78081201621209C6E990F471
:1026A300B3F060F675080275090078081203E67C3A
:1026B300007D007AB07BF412300974020228DC74C6
:1026C300F512029F8A088B098C0A8D0B90F503780B
:1026D3000812013E600890F4AB78081201620228E8
:1026E300DF74F512029FEA7001EB601190F4AB788E
:1026F300081201538A828B8378081201620228DF51
:10270300AA82AB83122F2274022274F512029F74E1
:10271300EC1202488A088B09120DE58A0A8B0BAE6C
:102723000AAF0BEE7001EF70030228D87901121083
:1027330045E9700AEEFAEFFB120E710228D8750A0A
:1027430004750B00780A1203E6122217EAFCEBFD6C
:10275300741212029312270312025EA882A9831233
:1027630028ED7407120293A882A9837402120293BC
:102773001228F374041202937409F074051202937D
:102783007402F079047409120293AC82AD837AABBC
:102793007BF412132D8E828F83A3A3A3A3A3A3A3DE
:1027A300A3A3E0C0E0740D120293D0E0F090F4B361
:1027B300E0C0E07408120293D0E0F0121D5A740EC8
:1027C300120293E9F074071202937401F012216C60
:1027D300740F120293E9F0851082851183AC82ADE8
:1027E300837A037902121840E960030228DA120C93
:1027F30027E9F50A74051202937402F074071202B2
:1028030093A882A98374021202931228F3EE24037D
:10281300F8EF3400F91228ED7403650A600C7401B3
:10282300650A7003120987120A28120AFA740365EB
:102833000A600E7401650A70051209648003120AA6
:1028430074851082851183AC82AD837A027902127A
:102853001840E9705E7407120293E0547FFA740122
:102863006A601074036A600BEEFAEFFB120E717963
:1028730005806474028E828F83F07409120293E0E0
:102883008E828F83A3A3A3A3A3A3A3A3A3A3F0EEE7
:10289300240B1228E4850882850983F08E828F83B6
:1028A300A3A882A983740A120293E06440700F7490
:1028B30001800DEEFAEFFB120E717901801974039A
:1028C30088828983F090F4B3E004F0E0700374012C
:1028D300F0790080027903741412025E7F0402020D
:1028E300FFF582EF3400F583E022851082851183A2
:1028F300E8F0A3E9F02274F112029F74F81202487F
:10290300EAFEEBFF8E828F83E0F874F528F874FFFC
:102913003400F9C3E89409E99400A2D265D03340A6
:102923001A12216CE9FAEE24141228E46A600C7975
:1029330002740812025E7F080202FF7904E91202A0
:1029430093AC82AD83EE240EFAEF3400FB1212D067
:10295300C082C08390F4AB7808120153D083D08235
:10296300780812013E70C8EE24121228E4F50AEE2C
:102973002405F50EEF3400F50FA90AAA0EFB120E7B
:10298300C28A088B09A808A909E87001E9606212E4
:102993002B01C0E07401120293D0E0F08882898396
:1029A300A3A3A3A3A3A3A3A3A3E0C0E0740212025F
:1029B30093D0E0F0121D5A7403120293E9122B25EF
:1029C3008A088B09A808A909E8FEE9FFE87001E96C
:1029D300601A75080475090078081203E6122B13B0
:1029E30012025E7900EEFAEFFB121D127901022941
:1029F3003490F4AFE07003022932120DE58A088B9C
:102A030009EA7001EB60E5750C04750D00780C1292
:102A130003E6AC0EAD0FEA24030A0A0AEB3400FB0B
:102A230012270712025EAA08AB097902121045E9C0
:102A33007009AA08AB09120E7180B190F4B2E06478
:102A43000260EFE0F50C7401250CF0E508240BF5AA
:102A530082E5091228E7C0E0E50C24B0F582E434EE
:102A6300F4F583D0E0122AF0A3E50AF07402850896
:102A730082850983F0A3A882A983EE24131228E494
:102A83006440700474018002740388828983122A6B
:102A9300F0E0C0E07402120293D0E0F0121D5A7409
:102AA30003120293E9F0122B01C0E07401120293A6
:102AB300D0E0122B258A0A8B0BA80AA90BE8FEE9A2
:102AC300FFE87001E97003022A35750A04750B00EB
:102AD300780A1203E6122B1312025E7900EEFAEF64
:102AE300FB121D12E96003022A350229EFF0850863
:102AF30082850983A3A3A3A3A3A3A3A3A32274816E
:102B0300851082851183F0EE240DF582EF0228E70C
:102B1300AC0EAD0FEE24030A0A0AEF3400FB1227B2
:102B23000722122B44A3E05407FA7403C39AFD7CD3
:102B330004851082851183AA82AB8379021219AEB0
:102B430022F08E828F8380AC74F812029FEAFEEB30
:102B5300FF7D017C0090F4B3E0F91211AEE9700738
:102B6300120B8279018007EEFAEFFB122B767F01BD
:102B73000202FF74F312029F74FD120248EAFEEB95
:102B8300FFEE240CF8EF3400F98E828F83E0FA74A1
:102B9300F52AFA74FF3400FB74086A7001EB7009BC
:102BA300740188828983F0801088828983E012040B
:102BB300240101472CBC2BC62BEEFAEFFB1228F99C
:102BC300022C47750A08EE2405F508EF3400F509D1
:102BD300EE240E1228E4F9AA08AB09121257EA7080
:102BE30001EB6006120E71750A007482122B03C08A
:102BF300E07401120293D0E0F07402120293E50A2A
:102C0300F07D037C03851082851183AA82AB8379CF
:102C1300021219AE8A0A8B0BA80AA90BE8FEE9FF78
:102C2300E87001E9601E750A04750B00780A120347
:102C3300E6AC08AD09122B1712025E7900EEFAEF2B
:102C4300FB121D127900740312025E7F060202FF5B
:102C5300C082C0831209C6E990F4B4F0D083D08255
:102C63002274F712029FEAFEEBFF7D017C0090F4D1
:102C7300B4E0F91211AEE97007120B827901802FCB
:102C830075080475090078081203E612214EEAFC60
:102C9300EBFD8E828F83A3AA82AB83122EC97402AB
:102CA30012025EEA7001EB70047900800279027F00
:102CB300020202FFC082C0831209C6E990F4B5F094
:102CC300D083D0822274F112029F74F3120248E976
:102CD300FF120E808A0E8B0F750A007E02120C27DC
:102CE300E9F50CE50E7002E50F600574FF6F7005E2
:102CF3007902022E1D74026E70187409120293ACCD
:102D030082AD837A017900121840750B011E7F0092
:102D130080397409120293AA82AB83121F35E9FA30
:102D23008A0B70E97907022E1D120A7474021202CB
:102D330093AC82AD837A027902121840E9700B7E5C
:102D430000750A0190F4B5E004F00FEFC3950B4052
:102D530003022E0DE50A6003022E0D8F087409127B
:102D63000293E5822508FAE5833400FB121E4EE543
:102D73000E2403F8E50F3400F97402120293E8F00D
:102D8300A3E9122E27120293E8F0A3E9F0740612C6
:102D930002937402F074071202937401F085108297
:102DA300851183F090F4B5E0C0E07401120293D072
:102DB300E0F07402120293AC82AD837A03790212BB
:102DC300184074071202937401122E27120293E81B
:102DD300F0A3E9F07402120293E4F0A3F074036524
:102DE3000C600C7401650C7003120987120A281217
:102DF3000AFA7403650C7003022D2F7401650C60CD
:102E030003022D2C120964022D2FEE6003022CF80D
:102E1300E50A6004790080027901740D12025E7F75
:102E2300080202FFF0851082851183A882A98374AA
:102E3300042274F512029FEAFEEBFF7D017C0090F1
:102E4300F4B5E0F91211AEE97007120B8279018033
:102E53006CEE240CFAEF3400FB8A828B83E064016E
:102E630070597D038E828F83E024F5FC790112195A
:102E7300AE8A088B09A909EA7001E9603E750A0464
:102E8300750B00780A1203E6EE2405FCEF3400FD0F
:102E9300EA24030A0A0AE93400FB122F22740212FD
:102EA300025EE508240EF582E5093400F583E0D2DD
:102EB300E7F07900AA08AB09121D1279007F04021A
:102EC30002FF2279002274F812029F7408120293FF
:102ED300E0F8A3E08015A3AA82AB838C828D83A341
:102EE300AC82AD83E824FF18E934FFF9E87001E907
:102EF30060248A828B83E0FE8C828D83E06E8A82DB
:102F03008B8360D2E0F88C828D83E0FAE8C39AFA6F
:102F1300E49400FB80047A007B007F010202FF74CB
:102F2300F712029F7409120293E0FEA3E0FFEAF88E
:102F3300EBF980188C828D83E088828983F0A3A8C3
:102F430082A9838C828D83A3AC82AD838E088F0983
:102F530074FF25081E74FF3509FFE5087002E509B3
:102F630070D27F020202FF74F712029F74091202E9
:102F730093E0F8A3E0F9EAFEEBFF8A088B09C3EAC2
:102F83009CEB9D405EEC28F582ED39F583C3E58229
:102F93009508E5839509404BEA28FAEB39FBAC82A7
:102FA300AD83122FF87002E5096041EC24FF1CED9C
:102FB30034FFFDEA24FF1AEB34FFFB8C828D83E0A0
:102FC3008A828B83F080DB8C828D83E08A828B8381
:102FD300F08C828D83A3AC82AD838A828B83A3AA78
:102FE30082AB83122FF87002E50970DBEEFAEFFB78
:102FF3007F020202FF8808890974FF25081874FFFD
:103003003509F9E5082274F812029F740812029335
:10301300E0F8A3E0F98A828B838003ECF0A3E8FE57
:10302300E9FF74FF2E1874FF3FF9EE7001EF70EBA8
:053033007F010202FF15
:0000D3012C
:00000001FF
