:030000000200D328
:1000830002071100000080FB1200E2B90003020026
:10009300CDE490F3FF783079028002F0A3D8FCD945
:1000A300FA90F52EAA82AB839000E578557901800A
:1000B30015E493A3AC82AD838A828B83F0A3AA82D7
:1000C300AB838C828D83D8E9D9E71204961200861C
:1000D30075D00075813F7510FF7511F302008B79A0
:1000E300012212345678FFFFFFFF0F14191A060B73
:1000F3007F0100000000000000000000000000007D
:1001030000000000000000000000000000000000EC
:10011300000020FD1D0D1D9720F017951E78563405
:100123001202010101000000000008070605EFBEEE
:10013300ADDE04030201E066701008A3E066700AF6
:1001430008A3E066700408A3E06622E0F608A3E0D3
:10015300F608A3E0F608A3E0F622E6F008A3E6F02B
:1001630008A3E6F008A3E6F022CAC0E0E6F0A3087D
:10017300DAFAD0E0FA22CAC0E0E0A3C582CCC58295
:10018300C583CDC583F0A3C582CCC582C583CDC548
:1001930083DAE6D0E0CA22600C08C6C313C618C6C9
:1001A30013C6D5E0F422251010AF08F51040021550
:1001B300118008F51040021511D2AF22C0D02510CE
:1001C30010AF08F510500205118008F51050020514
:1001D30011D2AFD0D0222510F58210AF08F5104010
:1001E3000215118008F51040021511D2AF85118355
:1001F300222510F582E43511F58322E4732510C519
:1002030082C0E0E51134FFC583C0E0E510C39582E9
:1002130024F9F8E4C5A8858311858210C5A8E8CE22
:10022300F0A3E520F0A37808E608F0A3DEFAEFF0E8
:10023300A3E58124FBF8E608F0A3E608F0A3080889
:10024300E608F0A3E608F0A315811581D0E0FED0FF
:10025300E0F815811581E8C0E0EEC0E02285118346
:10026300851082E0A3FEE0A3F5207808E0A3F6085A
:10027300DFFAE0A3FFE0A3C0E0E0A3C0E0E0A3C097
:10028300E0E0A3C0E0E4C5A8858210858311C5A87A
:10029300D083D08222C0D02510C582C0E0E51134BE
:1002A300FFC583C0E0E510C3958224F310AF088532
:1002B30083118582108008858311858210D2AFC88F
:1002C300F0A3E9F0A3EAF0A3EBF0A37908E709F0C0
:1002D300A3D8FAECF0A3EDF0A3EEF0A3EFF0A3D0D4
:1002E300E0F0A3D0E0F0A3D0E0F0A3E520F0A3E595
:1002F300F0F0A322851183851082E0C0E0A3E0F92A
:10030300A3E0FAA3E0FBA37808E0F608A3DFFAE092
:10031300FCA3E0FDA3E0FEA3E0FFA3E0C0E0A3E0B5
:10032300C0E0A3E0F5D0A3E0F520A3E0A3F5F0E45B
:10033300C5A8858311858210C5A8D082D083D0E05B
:10034300F8D0E03274028000C0E0F4041201D9D086
:10035300E012016C2274028000CCC0E0EDC0E0E545
:1003630010C39CCCAD1150011D10AF068C108D1124
:1003730080068C108D11D2AF120179D0E0FDD0E050
:10038300FC22D083D082C5F0E493A3C5F0C395F0DB
:10039300F5F0E493A3C395F04005E5F0048001E490
:1003A30075F002A42582F582E5F03583F583E493A5
:1003B300A3C0E0E493C0E022D083D082CCC0E0E4C9
:1003C30093A360061203E51470FAE493A360061284
:1003D30004041470FAD0E0FCE493A3C0E0E493C0F7
:1003E300E022C0E0E493A3D39C5010E493A3C39C06
:1003F300400AD0E0D0E0D0E00203D8A3A3A3D0E02A
:1004030022C0E0E493A36C7009D0E0D0E0D0E00216
:1004130003D8A3A3D0E022C082C08374FE1201A933
:1004230012048485108285118374AAF0A3E4120454
:100433007B7004C2AF80FE74021201BFD083D082EE
:1004430022C082C08374FE1201A9851082851183A4
:10045300EAF0A3EB12047BF5A474011201F4E0F5B6
:10046300A575C30075A60075A70075C301E5C3A2F2
:10047300E650FA75C30080BFF0851082851183E0D2
:100483002212048B438F202243FE0143FE08D290A5
:10049300D2932274FB1201A912041A800A1204F1E6
:1004A3007AE87B031208BA7A007B00120FD2E9794B
:1004B3000170EA1204F1E4851082851183F090F54E
:1004C3002E780812014E74011201F4780812015DAE
:1004D300851082851183AC82AD837A00790A12106C
:1004E300047C007D007A0B790412100480FE120450
:1004F300FA79021204FA227401697006639001E525
:1005030090227402697005639008E5902274F712D3
:10051300020075081B75090078081203477C007DEB
:10052300007A007BF41221DA74021201BF90DF61BA
:10053300E064856004C2AF80FE90DF60E0C3940393
:100543005004C2AF80FE53BEFBE5BEA2E650FA00E4
:1005530078F87901001207FB7001E970F775C6009E
:10056300E5C670FC43BE0474FF90DF4CF090DF4B94
:1005730012085CE0A2E440FB740290DF05F075E131
:10058300E28024780079007C10E8C333F8E933F97A
:1005930090DF3AE0A2E0E492E048F81CEC70EA74E1
:1005A3008048F5BCE9F5BC90DF39E0641F70D47571
:1005B300E1E575E1E675E1E6E490DF05F01208791F
:1005C300743290DF0CF074F590DF0DF090DF02E0F1
:1005D300C2E3F0747F90DF4FF079001208057902CF
:1005E300120965439A0190F41D7433F0A3E4F012E9
:1005F3000906D2AF02083A74F7120200EAFEEBFFD3
:10060300890975080090F3FFE064017004C2AF80AC
:10061300FE1208F653E9BF90F41FE08E828F83A386
:10062300A3A3F090F41FE004F074018E828F83A3E0
:10063300F074888E828F83A3A3F075E1E78E828F97
:1006430083E0FB74022BF5D97A008005A3E0F5D98A
:100653000AEAC39B40F6E509700B75E1E3E5E9A2FD
:10066300E6404980F8740165096004C2AF80FE7EEC
:100673000480071E1208F612090675E1E27AE07B90
:1006830001120920A2AFE492E0FAC2AF75E1E4904F
:10069300DF62E05410FBEAA2E092AFEB6008E5E909
:1006A300A2E6400880F8EE70CA7508011208F690B9
:1006B300F3FFE0640370031208EFA90802083AC0CD
:1006C30082C08390F400EAFCEBFD741B12017902F3
:1006D3000857C082C08390F3FFE064017004C2AF87
:1006E30080FEE0640360067403F01208EF0208570B
:1006F300C082C08390F3FFE064017004C2AF80FE48
:10070300E0640370061208F67402F0020857C0E0B2
:1007130074ED120298759B00E5E9A2E54003020718
:10072300B590F3FFE064036070C2AF80FE7E007F8C
:10073300F4750C19750D00780C1203477C007D00CD
:100743007A007BF41221DA74021201BF74FE2508C9
:1007530090F400F074FE1207F28E828F83A3AE82B0
:10076300AF83E5D9F01207FB7001E970EC74D32570
:10077300D990F419F0E5D9FAA2E7501A747F5A9088
:10078300F41AF090F401E06401700B90F402E06459
:100793008870031211BD53E9DFE5E9A2E550139018
:1007A300DF62E0A2E25013E0A2E3400E75E1E675DA
:1007B300E1E675E9FF7F060202F7747F55D9F50874
:1007C300F58285820A74FF1207F2C3E8941AE9944A
:1007D30000A2D265D033500AE508C3940E40030249
:1007E30007307A00EAC3950850ACE5D90A80F525AD
:1007F3000AF874FF3400F922E824FF18E934FFF9FA
:10080300E82274F71202008908E9C394044004C281
:10081300AF80FE1208F675F005E5082436F582E48C
:1008230034F5F583E0A4242E90DF11F090F3FFE07C
:10083300640370031208EF7F02020260C082C08368
:1008430090F3FFE06401700A740212085CE0A2E412
:1008530040FB8000D083D08222F090DF17E0C2E318
:10086300F022C082C08390F3FFE0640160061206A9
:10087300F312087980DE90DF17E0D2E3F074019081
:10088300F3FFF0227F01020260C082C08390F3FF76
:10089300E064036004C2AF80FE7AE07B01120920AA
:1008A30090DF07E0FA74D32AF902085774F355B4BA
:1008B3004404F5B4A9BD2274F8120200EAFEEB80E9
:1008C3000E7ADC7B05120920EE24FF1EEF34FFFFB6
:1008D300EE7001EF70EB020887C082C08390F41BB7
:1008E300E06006740190F41CF002085775E1E243DE
:1008F3009120225391DF75E1E575E1E675E1E67537
:10090300E9DF22EEC0E01208AFE9540F04FE7AFAE1
:100913007B001209201EEE70F5D0E0FE2274F71260
:1009230002008A088B097404780812019AAE08AF92
:1009330009EA7001EB6028A2AFE492E0F508C2AFC8
:100943007A107B00120444E508A2E092AFEEF8EFC0
:10095300F974FF281E74FF39FFE87001E970D802AB
:10096300083A74F71202008908E9C394034004C2E9
:10097300AF80FE1208F6E508243AF582E434F5F573
:1009830083E090DF0BF090F3FFE064037003120841
:10099300EF02083A74F7120200EAFEEBFF75081F34
:1009A30075090078081203477C007D007A3E7BF5C9
:1009B3001221DA74021201BF740190F53EF0743D06
:1009C30090F53FF0742090F540F0740190F541F0FC
:1009D3001217F3EEFAEFFB1210BE120C6E1217EFA2
:1009E300121FEAEEFAEFFB121A8E121E68121D8511
:1009F30012209690F552E070347402F0740390F56F
:100A030053F0743F90F55AF090F55BF074FF90F556
:100A13005CF0750804780812034712188CEAFCEBA3
:100A2300FD7A547BF51220F374021201BF79007F23
:100A33000202026022C082C08374FF1201A98510E2
:100A430082851183AA82AB83120B4FE96014E07590
:100A5300F00BA42452F582E5F034F5F583E064024B
:100A63006006758200758300AA82AB8380057A4293
:100A73007BF52274011201BFD083D0822274F71256
:100A83000200ECFEEDFFEA240CF582EB3400F58363
:100A9300E0543FFC90F552E06402704190F55AE057
:100AA3006C703A743F6C602575080475090078080A
:100AB300120347EA2408FCEB3400FD7A547BF51259
:100AC300209A74021201BFEA7001EB701090F55C7A
:100AD300E08E828F83F01208DC79018002790002B4
:100AE3000A3274F5120200EAFEEBFF7508028C0A63
:100AF300EE250A120B3FA2E7503B8D08EE250812A4
:100B03000B3F69702D7508047509007808120347B7
:100B130012183BEAFCEBFDEE2404FAEF3400FB125F
:100B2300209A74021201BFEA7001EB700575080088
:100B33008003750801A9087F04020260FAEF3400FC
:100B4300FB740F2AF582E43BF583E022C082C08365
:100B530090F552E06402701190F55CE069700AE46C
:100B63008A828B83F0790180027900020A7BE9FB98
:100B73007900EA6B601FEBC39A500EEAC394FD4001
:100B830006EBC39403400E0922EBC394FD4006EA2F
:100B9300C3940340F22274F5120200ECFEEDFF89C8
:100BA3000A89087509007808120347EAFCEBFDEE91
:100BB300FAEFFB12213B74021201BFE50A1203850F
:100BC3000202F30BCD0BF30BE10B8E828F83E0F864
:100BD300A3E0F98E828F83E8F0A3E9F080128E827E
:100BE3008F83780812014E8E828F83780812015DFD
:100BF300020B3A74F512020074FA1201A9EAFEEB31
:100C0300FFECFAEDFBE91203850202160C1C0C162D
:100C13000C380CEEFCEFFD80388E828F83E0FCA352
:100C2300E0FD851082851183ECF0A3EDF085108241
:100C330085118380188E828F83780812014E740287
:100C43001201F4780812015D74021201F4AC82AD52
:100C5300838908750900780812034712213B74023F
:100C63001201BF74061201BF020B3A74F71202009D
:100C73007508AE75090078081203477C007D007A79
:100C8300207BF41221DA74021201BF75083A780846
:100C93001203477C007D007ACE7BF41221DA7402C2
:100CA3001201BF7F0202026074F5120200E9FC78B0
:100CB3000079007E007F007D0074016C70097A204A
:100CC3007BF475090680077ACE7BF47509027401FB
:100CD3002509F50A8808800EEAFEEBFF0508EA24D9
:100CE3001DFAEB3400FBE508C39509502B8A828B70
:100CF30083E0601D74016C70E30DE0640460DDA3A8
:100D0300E0F50BC3950A50D4EAF8EBF9850B0A809A
:100D1300CB74026C70C28033EE7001EF7020E87008
:100D230001E970067A007B008021E8FEE9FF8E82EC
:100D33008F83A3E0FAECF9120D53E50880087401E0
:100D43002D8E828F83A3F0EEFAEFFB7F0402026005
:100D5300C082C0837401697031782079F4A2AFE452
:100D630092E0FDC2AF7B0688828983E0600BA3E03B
:100D7300FCEAC39C5003E014F0E8241DF8E93400B6
:100D8300F91BEB70E2EDA2E092AFD083D082227424
:100D9300F112020074F61201A974041201F4EAF0CC
:100DA300A3EBF08C09851082851183E4F0A3F0F5A1
:100DB3000EF50F74061201F4E4F0A3F074016970E8
:100DC3003B7E207FF4750C0774041201F4E02401C8
:100DD300F8A3E03400F9E8FAE9FB74041201F4180B
:100DE300120FB0FC74016C70358A828B83E0F912A8
:100DF3000A388A0E8B0FEA7001EB70077A007B00CA
:100E0300020FA48A828B83A3A3A3A3A3A3A3A3E018
:100E1300F508EA2402F8EB3400F974088043EC7017
:100E2300098A828B83E0F508803F74026C70CD8A57
:100E3300828B83E0F8A3E0F9E82411F582E934001A
:100E4300F583E0F508E82408FAE93400FB74081296
:100E530001F4EAF0A3EBF0E82412F8E93400F974A2
:100E6300061201F4E8F0A3E9F07401650970057551
:100E730009018003750903750D06A2AFE492E0FA38
:100E8300C2AF8E828F83E065096003020F8374040F
:100E9300F0EAA2E092AFEE240EF582EF3400F58380
:100EA300E0543F6508707274041201F4120FAEFA35
:100EB30074016A7014743F65087009E50E2402F822
:100EC300E50F800FEE240A800874026A7012EE2484
:100ED30006F8EF3400F974021201F4E8F0A3E9F024
:100EE300750A04750B00780A120347740A1201F499
:100EF300E0FCA3E0FD74041201F4120FB81201BF69
:100F030074041201F4120FAE603674061201F4E099
:100F13007002A3E0700CEA60278E828F83E509F0EC
:100F23008063780A120347EE240AFCEF3400FD7451
:100F3300081201F4120FB81201BFEA7001EB70D965
:100F43008E828F83A3AA82AB83E0C3950C50CA859C
:100F53001082851183E07002A3E060118510828501
:100F63001183E0F8A3E0F5838882E509F08A828B98
:100F730083E0F50C851082851183EEF0A3EF809F4B
:100F8300EAA2E092AFEE241DFEEF3400FF150DE55B
:100F93000D6003020E7D851082851183E0FAA3E0C4
:100FA300FB740A1201BF7F08020260E0F8A3E0F5B8
:100FB300838882E022E0FAA3E0FB12209A740222E3
:100FC30074016970057A207BF4227ACE7BF4227453
:100FD300F8120200EAFEEBFF90F508E07013120529
:100FE30010EEFAEFFB120997E9700C12083F120694
:100FF300D57401F0121C7F7F010202607F0202029E
:101003006074F7120200E9FBEAF9ECFEEDFF90F5DC
:1010130008E07013EB1203BB0002052A100A2A1022
:10102300251079020210BBEB120385020625105C22
:101033001078108110491040108610AB10EEFAEFB3
:10104300FB121A6280727401696003E970D4EEFACC
:10105300EFFB121A20806180C97403697009EEFAEC
:10106300EFFB121891805174026970B6EEFAEFFB30
:101073001219138043EEFAEFFB121984803A121A05
:101083000F8035740169709A750804750900780832
:10109300120347121854EAFCEBFDEEFAEFFB1220A1
:1010A300F374021201BF800E74016970AA121859F9
:1010B300E98E828F83F07900020FFFC082C083E440
:1010C30090F50CF0742090F50DF090F50EEAF0A376
:1010D300EBF012183B90F50AEAF0A3EBF01208AF1D
:1010E300E990F509F060F6D083D0822274F1120200
:1010F3000089088A0E8B0F8C0A8D097902120CABBA
:101103008A0C8B0DA80CA90DE8FEE9FFE87001E934
:1011130070077A007B000211B0740E250A8E828F4D
:1011230083A3A3F0EE240E12151E54804508F090FD
:10113300F509E0C0E0EE2410F582EF3400F583D02A
:10114300E0F090F509E004F060F8EE240FFAEF34D4
:1011530000FB8A828B83E054BF7583F575820CFC98
:10116300E04C54F8450954778A828B83F08882894E
:1011730083E0C2E7F0750B00780A120347AC0EADAB
:101183000FEE24110A0A1211B51201BF7508047576
:101193000900780812034790F50AE0FCA3E0FDEE8E
:1011A300240AFA1211B51201BFEEFAEFFB7F08020F
:1011B3000260EF3400FB1213142274F71202007959
:1011C30001120CAB8A088B09A808A909E8FEE9FFFC
:1011D300E87001E96013EE24020A0AEF3400FB12FF
:1011E30006C2EEFAEFFB12132F7F0202026074F1C4
:1011F30012020074FE1201A9851082851183ECF09E
:10120300A3EDF08A0A8B0B74111201F4E0F50CA321
:10121300E0F50D74151201F4E0F50EA3E0F50FE40B
:10122300850C82850D83F07C017901120D928A0869
:101233008B09AE08AF09EE7001EF70030212FF7560
:101243000800750900850A82850B83E06401701527
:10125300A3E0F9120A388A088B09EA7001EB7005DA
:1012630079020213018E828F83A3A3E024F2F50A8D
:10127300850C82850D83F0750B00780A120347EE07
:101283002411FCEF3400FD74021201F4121309124D
:1012930001BFE5087002E509600FEE241B12131A63
:1012A300F0EE241C12131AA3F074131201F4E0706D
:1012B30002A3E0601E75080475090078081203474D
:1012C300EE240AFCEF3400FD74151201F412130925
:1012D3001201BFE50E7002E50F600C1216DE540713
:1012E300850E82850F83F08E828F83A3E0FA7901C6
:1012F300120D53E48E828F83F0F980027904740215
:101303001201BF0211B0E0FAA3E00211B8AA82AB46
:10131300831220F3740222F582EF3400F583E08513
:101323000882850983A3A3A3A3A3A32274F31202B0
:101333000074FE1201A98A088B09EA240EF582EBD8
:101343001216E4543FF50B750C04750D00780C125E
:10135300034790F50AE0FCA3E0FDEA240AFAEB1246
:1013630017E61201BFEA7001EB700DE48508828570
:101373000983F07402021610E508240EF582E509CC
:101383001216E4A2E640E4E50B60E0C39407502F95
:101393001214D1E50BC333245BF582E434F5F583F2
:1013A3001214C81201FEE9FA74016A700474018010
:1013B300BB74026A70B5AA08AB0912152980B4740C
:1013C3003F650B600EE50BC39420409FE50BC39470
:1013D3003F5098E5082406FEE5093400FF780C1217
:1013E3000347EEFCEFFD90F50AE0FAA3E0FB1220C1
:1013F3009A74021201BFEA7001EB7005750A01804D
:1014030023750A00743F650B706B780C1203471247
:10141300188CEEFCEFFD12209A74021201BFEA70E1
:1014230001EB7051851082851183AC82AD83121458
:10143300D1120A80E9700302136EE50A7007AA0845
:10144300AB091215297401850882850983F090F58B
:101453000EE07002A3E070030213768510828511FB
:1014630083E0F990F50E1214C81201FEE96003023D
:10147300136E02137674011201F4AC82AD83EEFA9B
:10148300EFFB121C82EA7001EB60231214D11216D7
:10149300EAE9600302136EE508240EF582E50912FA
:1014A30016E4A2E7500302136E740302136FE508F8
:1014B300240FF582E5091216E45430642060030218
:1014C30013B902136EE0F8A3E0F583888222E508DE
:1014D3002402FAE5093400FB2274F8120200EAFE42
:1014E300EBFFE9FAEE240F12151E54CF7583F57541
:1014F300820DFBE04B88828983F0EAF9EE2402FA3D
:10150300EF3400FB1205FAE97004790080027909CF
:10151300E48E828F83F07F01020260F8EF3400F9DA
:1015230088828983E02274F8120200EAFEEBFF123C
:1015330016DEFA74075AFB74FF2BFCEB601774F882
:101543005A4CF07A017B001208BA7901EEFAEFFBEC
:101553001214DC8006E48E828F83F080B974F31258
:10156300020074FD1201A98A0C8B0D8908EA250873
:10157300F8EB3400F9740F28F582E439F583E0F5CC
:10158300097402851082851183F074011201F4EA53
:10159300F0A3EBF07C02851082851183AA82AB83D2
:1015A3007901120D928A0A8B0BA80AA90BE8FEE9AE
:1015B300FFE87001E96006EEFAEFFB804E79021254
:1015C3000FC38A0A8B0BAE0AAF0B7508008E828F8E
:1015D30083E06403702A750A04750B00780A12030A
:1015E30047E50C2408FCE50D1217DE1201BFEA7073
:1015F30001EB700CEE240E1216E1543F650960B73F
:101603001217D0940240C67A007B0074031201BF04
:101613007F0602026074F512020074E51201A9EA62
:10162300FEEBFFEE24111216E1F508740D1201F41E
:10163300E0548F7583F575820CFAE04A4420C0E0CC
:10164300740D1201F4D0E0F0750A04750B00780AEA
:10165300120347EE2408FCEF3400FD74061201F474
:101663001213101201BF780A120347EE2412FCEF83
:101673003400FD740A1201F41213101201BF740C2A
:101683001201F4E054C04508FAF0740E8510828507
:101693001183F090F509E0C0E0740E1201F4D0E07C
:1016A300F090F509E004F0740D1201F4E05471F0C8
:1016B300D2E0F074BF5A4480C0E0740C1201F4D03D
:1016C300E0F07900851082851183AA82AB8312052D
:1016D300FA741B1201BF7F04020260EE240FF5822D
:1016E300EF3400F583E02274F11202008A0A8B0BB7
:1016F3008A828B83E024F5F5097901120FC38A0CE2
:101703008B0DAE0CAF0D75080085098285820E8E98
:10171300828F83E0640360030217C1A3A3E0F8741C
:10172300F528F874FF3400F9E50E687001E96003E9
:101733000217C1750C04750D00780C120347E50AF6
:101743002404FCE50B1217DE1201BFEA7001EB70F3
:101753006D780C120347E50A2408FCE50B3400FD01
:10176300EE240A1217E41201BFEA7001EB704F7501
:101773000C01780C120347E50A240CFCE50B34003A
:10178300FDEE240E1217E41201BFEA7001EB702E76
:1017930074FE250EF50C74FF3400F50D780C12035E
:1017A30047E50A240EFCE50B3400FDEE2410121766
:1017B300E41201BFEA7001EB70047901800C121787
:1017C300D09406500302171279000211B00508EEF7
:1017D300241DFEEF3400FFE508C3223400FDEE2490
:1017E30006FAEF3400FB12209A74022222790022B7
:1017F30074F712020075080475090078081203478C
:101803007C007D007A107BF51221DA74021201BF8D
:1018130090F518E0701B78081203477C697DF57A10
:10182300147BF51220F374021201BF740190F518B2
:10183300F080007F02020260C082C08390F518E04E
:1018430060067A147BF580047A697BF5D083D082B5
:10185300227A6E7BF52279022274F7120200790054
:1018630090F518E070217508048909780812034778
:10187300EAFCEBFD7A147BF51220F374021201BF2C
:10188300740190F518F0F980AA7A327BF52274F589
:10189300120200EAFEEBFF8E828F83A3A3A3A3A30E
:1018A300E0F91203BB010506B3180103B318B71817
:1018B3007D0180027D038E828F83A3A3A3A3E0FC1B
:1018C3008E828F83A3A3E0FAA3E0FB1210EF8A08B2
:1018D3008B09A909EA7001E9602F750A04750B00E9
:1018E300780A1203478E828F83E0FCA3E0FDEA248B
:1018F30006FAE93400FB1220F374021201BF7901E6
:10190300AA08AB091214DC800279037F0402026087
:1019130074F712020074FD1201A9E4851082851187
:1019230083F08A828B83A3A3A3A3A3E0C0E0740103
:101933001201F4D0E0F0EA2406F508EB3400F509CF
:1019430078081203478A828B83120358EA2404F52A
:1019530008EB3400F50978081203478A828B83A3C6
:10196300A3E0FCA3E0FD74061201F4AA82AB831288
:1019730011F174061201BF74031201BF7F02020248
:101983006074F5120200EAFEEBFF75080074046947
:1019930070081206F3120865806D740569700812E9
:1019A300083F1206D5806074066970398E828F8372
:1019B300E0F9120A38EA7001EB70047902804A7583
:1019C3000A02750B00780A120347EA2406FCEB347B
:1019D30000FD8E828F83A3AA82AB831220F374024D
:1019E3001201BF8022740769700B12088CE98E8282
:1019F3008F83F0801274086960A8740969700512F6
:101A030006F38003750802A90802190E740B6970A6
:101A130004790180027902121CF679002274F7120C
:101A23000200EAFEEBFF7508027401697020750875
:101A330004750900780812034712183BEAFCEBFD12
:101A4300EEFAEFFB1220F374021201BF8009E97072
:101A53000912185CE96003750800A90802197F746C
:101A6300F7120200E9FC8A828B83E0F9740E6C6042
:101A7300047902801374FF6960F7120A38EA70016F
:101A8300EB60EE120A37790002197F74F512020037
:101A930090F572780812014E7583F57582197808EE
:101AA300120139701090F576780812014E90F519ED
:101AB300780812015D90F51DEAF0A3EBF01208AF70
:101AC300E990F51FF090F57A780812014EAA08AB59
:101AD30009AC0AAD0B121DBBE490F522F0120A719A
:101AE30090F520EAF0A3EBF07F0402026074F31296
:101AF300020074F41201A9EAFEEBFF8E828F83E0E9
:101B0300F874F228F874FF3400F9C3E89408E994F0
:101B130000A2D265D0334018EE2416F582EF3400CC
:101B2300F583E0F508121859E965086003021C758E
:101B3300790474011201F4AC82AD83EE2411FAEF3F
:101B43003400FB120B99C082C08390F519780812F8
:101B5300014ED083D08278081201396003021C75CC
:101B630074011201F4AA82AB83121DDC7904740799
:101B73001201F4AC82AD8374011201F4AA82AB8327
:101B8300120BF6740B1201F4E4F074051201F474F1
:101B930081F0EE2410F582EF3400F583E0C0E074A9
:101BA300061201F4D0E0F07D017C0774051201F404
:101BB300AA82AB8379031210EF8A088B09A808A9BC
:101BC30009880A890BE87001E97003021C75EE2489
:101BD30008F508EF3400F509750C04750D00780C51
:101BE300120347AC08AD09EA2406FAE93400FB12F4
:101BF30020F374021201BFEE240DF582EF3400F5D9
:101C030083E0A2E65063851082851183AC82AD83A5
:101C1300AA08AB09121C82EA7001EB704790F52009
:101C2300E0FEA3E0FF8E828F83E0FAC39403504269
:101C3300780C120347AC08AD09EA75F005A4F8A9BE
:101C4300F090F520E028FAA3E0398A82F583A3AA6D
:101C530082AB831220F374021201BF8E828F83E062
:101C630004F08005E0F9121FDC7900AA0AAB0B121D
:101C730014DC740C1201BF7F060202607900227427
:101C8300F11202008A0E8B0F8C088D0990F520E06B
:101C93002401FEA3E03400FF750A00800A050AEE62
:101CA3002405FEEF3400FF90F520E0F8A3E0F58370
:101CB3008882E0FAE50AC39A5030750C04750D006A
:101CC300780C120347AC0EAD0FEEFAEFFB12209A1D
:101CD30074021201BFEA7001EB70C28508828509A4
:101CE30083E50AF0EEFAEFFB80047A007B007F08BD
:101CF300020260C082C083740169700474018001B0
:101D0300E490F522F0D083D0822274F8120200EA24
:101D1300FEEBFF7508007D017C0090F51FE0F912D2
:101D23000AE5E9FB70081208DC750801804D7401AF
:101D33006B7005750802804374026B703E90F52248
:101D4300E06038EE240FF8EF3400F98E828F83E0E1
:101D5300FA74F22AFA74FF3400FB74076A7001EB19
:101D63007009740188828983F0800988828983E0FD
:101D730064017007EEFAEFFB121AF0A9087F010263
:101D8300026074F512020090F572780812014E7524
:101D930083F57582237808120139701090F57E78E7
:101DA3000812014E90F523780812015D1208AFE97D
:101DB30090F528F060F6803D74F51202008A088BD6
:101DC300098C0A8D0B90F57278081201396008901E
:101DD300F523780812015D801C74F5120200EA7085
:101DE30001EB601190F523780812014E8A828B83F0
:101DF300780812015D7F0402026074F8120200EA9F
:101E0300FEEBFF7D017C0090F528E0F9120AE5E97D
:101E1300FB70071208DC7901804674016B7004794A
:101E230002803D7C00EE240FF8EF3400F98E828FA0
:101E330083E0FA74F22AFA74FF3400FB74086A70C0
:101E430001EB7009740188828983F0800988828993
:101E530083E06401700890F527E070020C0CECF944
:101E63007F0102026074F71202001208AFE990F5D5
:101E73002CF075080375090078081203477C007D70
:101E8300007A297BF51221DA74021201BF7F020264
:101E9300026074F7120200EAFEEBFF7D017C009002
:101EA300F52CE0F9120AE5E9FB70071208DC790169
:101EB300804774016B70047902803E7508047509CC
:101EC30000780812034712183BEAFCEBFDEE2404EA
:101ED300FAEF3400FB12209A74021201BFEA700178
:101EE300EB70D4EE240FF582EF121FCB6401700761
:101EF300EEFAEFFB121EFE7900809274F6120200D6
:101F030074FF1201A9EAFEEBFFEE2410F582EF1233
:101F13001FCBF50A851082851183AC82AD83EE2435
:101F230008FAEF3400FB121C82EAF8EBF9EA7001BD
:101F3300EB7003021FBDE82404F508E93400F5093A
:101F4300121FD1E07016850882850983E50AF085A2
:101F53001082851183121FD174018012AA0A850889
:101F630082850983E0F9120B71E9604EE50AF07985
:101F730002EEFAEFFB1215608A088B09A808A9097B
:101F8300E87001E9602D88828983A3E0FA79011260
:101F93000D53E508240F121FC754F84401F0E50858
:101FA300240E121FC7D2E7F07900AA08AB09121456
:101FB300DC8007EEFAEFFB12161874011201BF7FE3
:101FC30003020260F582E5093400F583E022E02490
:101FD30029F582E434F5F5832274F7120200E9123D
:101FE3001FD2E4F0021E90C082C0831208AFE990B2
:101FF300F52DF0D083D082227F0402026074F512A3
:102003000200EAFEEBFF7D017C0090F52DE0F91262
:102013000AE5E9FA70071208DC7901807374016A32
:1020230070047902806AEE240FFAEF3400FB8A828F
:102033008B83E0640170577D038E828F83E024F2EB
:10204300FC79011210EF8A088B09A909EA7001E9EA
:10205300603C750A04750B00780A120347EE2408E6
:10206300FCEF3400FDEA2406FAE93400FB1220F306
:1020730074021201BFE5082411F582E5093400F565
:1020830083E0D2E7F07900AA08AB091214DC7900E7
:10209300021FFB2279002274F81202007408120155
:1020A300F4E0F8A3E08015A3AA82AB838C828D832E
:1020B300A3AC82AD83E824FF18E934FFF9E870018B
:1020C300E960248A828B83E0FE8C828D83E06E8AB2
:1020D300828B8360D2E0F88C828D83E0FAE8C39A26
:1020E300FAE49400FB80047A007B007F0102026023
:1020F30074F712020074091201F4E0FEA3E0FFEA90
:10210300F8EBF980188C828D83E088828983F0A3B1
:10211300A882A9838C828D83A3AC82AD838E088F22
:102123000974FF25081E74FF3509FFE5087002E5F1
:102133000970D27F0202026074F71202007409125E
:1021430001F4E0F8A3E0F9EAFEEBFF8A088B09C388
:10215300EA9CEB9D405EEC28F582ED39F583C3E5FF
:10216300829508E5839509404BEA28FAEB39FBACE5
:1021730082AD831221C97002E5096041EC24FF1C82
:10218300ED34FFFDEA24FF1AEB34FFFB8C828D83D1
:10219300E08A828B83F080DB8C828D83E08A828B62
:1021A30083F08C828D83A3AC82AD838A828B83A3DD
:1021B300AA82AB831221C97002E50970DBEEFAEF44
:1021C300FB7F020202608808890974FF25081874DE
:1021D300FF3509F9E5082274F812020074081201A8
:1021E300F4E0F8A3E0F98A828B838003ECF0A3E8A0
:1021F300FEE9FF74FF2E1874FF3FF9EE7001EF70D4
:06220300EB7F0102026006
:0000D3012C
:00000001FF
