:030000000200D328
:100083000207C800000080FB1200E2B9000302006F
:10009300CDE490040078B979018002F0A3D8FCD9AB
:1000A300FA9004B8AA82AB839000E5785379018073
:1000B30015E493A3AC82AD838A828B83F0A3AA82D7
:1000C300AB838C828D83D8E9D9E71204771200863B
:1000D30075D00075813F75100075110402008B798E
:1000E3000122FFFFFFFF0F14191A2575D501000028
:1000F30000000000000000000000000000000000FD
:1001030000000000000000000000000000000000EC
:100113000000008921B220CF1D16228319212179E5
:100123005634120201010100000000000807060511
:1001330004030201E066701008A3E066700A08A3D6
:10014300E066700408A3E06622E0F608A3E0F60880
:10015300A3E0F608A3E0F622E6F008A3E6F008A37E
:10016300E6F008A3E6F022CAC0E0E6F0A308DAFA54
:10017300D0E0FA22CAC0E0E0A3C582CCC582C58321
:10018300CDC583F0A3C582CCC582C583CDC583DA33
:10019300E6D0E0CA22600C08C6C313C618C613C64D
:1001A300D5E0F422251010AF08F510400215118098
:1001B30008F51040021511D2AF22C0D0251010AFA0
:1001C30008F510500205118008F51050020511D2F0
:1001D300AFD0D0222510F58210AF08F510400215DC
:1001E300118008F51040021511D2AF851183222525
:1001F30010F582E43511F58322E4732510C582C01E
:10020300E0E51134FFC583C0E0E510C3958224F90E
:10021300F8E4C5A8858311858210C5A8E8CEF0A3AC
:10022300E520F0A37808E608F0A3DEFAEFF0A3E5F3
:100233008124FBF8E608F0A3E608F0A30808E60823
:10024300F0A3E608F0A315811581D0E0FED0E0F815
:1002530015811581E8C0E0EEC0E022851183851089
:1002630082E0A3FEE0A3F5207808E0A3F608DFFA16
:10027300E0A3FFE0A3C0E0E0A3C0E0E0A3C0E0E0B0
:10028300A3C0E0E4C5A8858210858311C5A8D083E7
:10029300D08222C0D02510C582C0E0E51134FFC54D
:1002A30083C0E0E510C3958224F310AF0885831162
:1002B3008582108008858311858210D2AFC8F0A390
:1002C300E9F0A3EAF0A3EBF0A37908E709F0A3D8D8
:1002D300FAECF0A3EDF0A3EEF0A3EFF0A3D0E0F07F
:1002E300A3D0E0F0A3D0E0F0A3E520F0A3E5F0F085
:1002F300A322851183851082E0C0E0A3E0F9A3E087
:10030300FAA3E0FBA37808E0F608A3DFFAE0FCA376
:10031300E0FDA3E0FEA3E0FFA3E0C0E0A3E0C0E0B4
:10032300A3E0F5D0A3E0F520A3E0A3F5F0E4C5A88E
:10033300858311858210C5A8D082D083D0E0F8D000
:10034300E03274028000C0E0F4041201D7D0E0125E
:10035300016A2274028000CCC0E0EDC0E0E510C366
:100363009CCCAD1150011D10AF068C108D11800671
:100373008C108D11D2AF120177D0E0FDD0E0FC22BA
:10038300D083D082C5F0E493A3C5F0C395F0F5F014
:10039300E493A3C395F04005E5F0048001E475F010
:1003A30002A42582F582E5F03583F583E493A3C0A7
:1003B300E0E493C0E022D083D082CCC0E0E493A3F6
:1003C30060061203E31470FAE493A36006120402B6
:1003D3001470FAD0E0FCE493A3C0E0E493C0E022FD
:1003E300C0E0E493A3D39C5010E493A3C39C400ABE
:1003F300D0E0D0E0D0E00203D6A3A3A3D0E022C094
:10040300E0E493A36C7009D0E0D0E0D0E00203D61F
:10041300A3A3D0E022C082C08374FE1201A71204FA
:100423006512047085108285118374AAF0A3E4F029
:10043300851082851183E07004C2AF80FE740212BE
:1004430001BDD083D0822275CB4475CC04EA33330B
:100453003354F8F5CD43CB10A2D950FC75CB00C271
:10046300D92243FE0143FE02C290C29122438F026E
:1004730043F701221204187A007B001213A6A291FB
:1004830040057902120537A290400579011205371C
:10049300A2814004A2A050F81204A080FE74F812B6
:1004A30001FE74FE1201A7790212053779011205C4
:1004B300377C007D007A04790312151F7E057AE8E4
:1004C3007B03120A0D1EEE70F57901120537A28126
:1004D3004004A2A0500312054D7C007D007A0579EB
:1004E3000312151F7C007D007A08790312151F7A09
:1004F300FA7B00120A0D7C007D007A047903121541
:100503001F851082851183AC82AD8374011201F2C1
:10051300AA82AB8379FF1214B5E970A08510828596
:100523001183E0609774011201F2E06401708D128F
:10053300054D80887401697006639001E59022740B
:1005430002697005639002E59022C082C08374FF44
:100553001201A77C007D007A05790312151F74012F
:10056300851082851183F07A647B00120A0D7C0169
:10057300AA82AB8379FF1213DE790212053780E773
:1005830074F71201FE75081B7509007808120345FC
:100593007C007D007A017B0412235974021201BD91
:1005A30090624AE064A56004C2AF80FE906249E0B5
:1005B3007004C2AF80FE53BEFBE59DA2E650FA0075
:1005C30078F87901001208B27001E970F775C60076
:1005D300E59E70FC43BE0474149061A9F0743F90CF
:1005E30061ABF074F8906196F074859061A8F07433
:1005F3005A9061ACF074159061B2F0E4906182F0AE
:1006030074109061B5F0740E9061B6F0740390614C
:10061300B7F074099061FAF074FF9061E5F09061AE
:1006230072F0906173F0906189E054F34408F075BF
:10063300E1E3906199E0A2E050F8780079007C1042
:10064300E8C333F8E933F99061A7E0A2E0E492E06C
:1006530048F81CEC70EA748048F5BCE9F5BC75E118
:10066300EF75E1ED75E1ED906189E054F3F074010C
:10067300900400F0906180E0C2E0F0906181E0546A
:1006830097F090618AE0C2E0F0747F906194F07912
:10069300001208BC79021208F6439A0190041E74F2
:1006A30033F0A3E4F0120AF4D2AF0208F174F712A4
:1006B30001FEEAFEEBFF8909750800900400E0647F
:1006C300017004C2AF80FE120ADA5391FD90042038
:1006D300E08E828F83A3A3A3F0900420E004F07440
:1006E300018E828F83A3F074888E828F83A3A3F0FD
:1006F30075E1EE8E828F83E0FB74022BF5D97A00CD
:100703008005A3E0F5D90AEAC39B40F6E509700B1F
:1007130075E1E9E591A2E1404A80F8740165096059
:1007230004C2AF80FE7E0480071E120ADA120AF4A6
:1007330075E1E3906199E0A2E050F8A2AFE492E0A2
:10074300FAC2AF75E1EA906193E05408FBEAA2E0D4
:1007530092AFEB6008E591A2E1400880F8EE70C922
:10076300750801120ADA900400E064037003120AA8
:10077300CAA9080208F1C082C083900401EAFCEB15
:10078300FD741B12017702092FC082C083900400FD
:10079300E064017004C2AF80FEE06403600674038A
:1007A300F0120ACA02092FC082C083900400E064D9
:1007B300017004C2AF80FEE064037006120ADA74AB
:1007C30002F002092FC0E074ED120296900400E0DB
:1007D30064036004C2AF80FEE5E9A2E250FA9061CF
:1007E30093E0A2E6500EE0A2E7400975E1ED75E162
:1007F300ED02089E53E9FB747F55D9F508F5828510
:10080300820A74FF1208A9C3E8941AE99400A2D2D9
:1008130065D0335007E508C3940E500D7A00EAC340
:100823009508506EE5D90A80F57E017F04750C1991
:10083300750D00780C1203457C007D007A017B0462
:1008430012235974021201BD74FE2508900401F0AD
:1008530074FE1208A98E828F83A3AE82AF83E5D97B
:10086300F01208B27001E970EC74B425D990041A3F
:10087300F0E5D9FAA2E7501A747F5A90041BF0905E
:100883000402E06401700B900403E06488700312B7
:1008930016C490619BE060030207DB759B0053E97C
:1008A300FB7F060202F5250AF874FF3400F922E8FB
:1008B30024FF18E934FFF9E82274F71201FE8908CE
:1008C300E9C394044004C2AF80FE120ADA75F0054E
:1008D300E50824BCF582E43404F583E0A424D49031
:1008E300618FF0900400E064037003120ACA7F0270
:1008F30002025E74F71201FE8908120ADAE508247F
:10090300C0F582E43404F583E0906190F090040034
:10091300E064037003120ACA80D4C082C0839004C7
:1009230000E0640170037402F08001F0D083D08290
:1009330022C082C083900400E0640160061207AA0B
:100943007401F080E774F81201FE8A828B83A3A8F6
:1009530082A9838A828B83E0FE74FF6E600574FE36
:100963006E700988828983E064FF6023EA2403FCB4
:10097300EB3400FDEA24020A0AEB3400FB8A828B83
:1009830083E064FF700D8C828D83E064FF700479D3
:10099300018022EE906172F088828983E090617316
:1009A300F08A828B83E0906174F08C828D83E09077
:1009B3006175F079007F0102025EC082C08390619D
:1009C30072E064FF6008906173E064FF7004C2AF7B
:1009D30080FE906180E0D2E002092EC082C0839045
:1009E3000400E064036004C2AF80FE906199E0A25A
:1009F300E050F8906198E0FA74B42AF902092F7470
:100A0300F355B44404F5B4A9BD2274F81201FEEA07
:100A1300FEEB800E7AE87B03120B0EEE24FF1EEF33
:100A230034FFFFEE7001EF70EB0209B874F61201A8
:100A3300FE90041EE0F508A3E0F509A2AFE492E0FE
:100A4300FAC2AF740190041CF0EAA2E092AF800CEA
:100A5300E50824FFF508E50934FFF509E508700208
:100A6300E50960357E3E7F00A2AFE492E0F50AC25D
:100A7300AF7A107B0012044AE50AA2E092AF900419
:100A83001DE07012EEF8EFF974FF281E74FF39FFB2
:100A9300E87001E970D2E060B7A2AFE492E0FAC275
:100AA300AFE490041DF090041CF0EAA2E092AF7F43
:100AB3000302025EC082C08390041CE060067401DE
:100AC30090041DF002092FC082C08375E1E3906199
:100AD300A3E0D2E202092EC082C0839061A3E0C2E8
:100AE300E2F075E1EF75E1ED75E1ED75E9FB020902
:100AF3002FEEC0E0120A02E9540F04FE7AFA7B00DB
:100B0300120B0E1EEE70F5D0E0FE2274F71201FEFA
:100B13008A088B0974047808120198AE08AF09EAB1
:100B23007001EB6028A2AFE492E0F508C2AF7A103F
:100B33007B0012044AE508A2E092AFEEF8EFF974E5
:100B4300FF281E74FF39FFE87001E970D80208F12D
:100B5300C082C083900400E0F902092F74F71201E8
:100B6300FEEAFEEBFF7508257509007808120345B8
:100B73007C007D007AC47B0412235974021201BDE8
:100B830074039004C4F0743D9004C5F07420900481
:100B9300C6F074019004C7F0121986EEFAEFFB1247
:100BA30015D41210F3121982122173EEFAEFFB120D
:100BB3001C34122110121DF01222159004DEE07075
:100BC300347402F074039004DFF0743F9004E6F091
:100BD3009004E7F074FF9004E8F0750804780812B5
:100BE3000345121A41EAFCEBFD7AE07B0412227200
:100BF30074021201BD79007F0202025E74F81201D1
:100C0300FE74FF1201A77B00EB120CC970070BEBFC
:100C1300C3940340F374036B70067A007B00805D1A
:100C2300EB75F00BA424C8FEE5F03404FFEEF8EFF7
:100C3300F9E488828983A3A3A3A3A3A3A3A3A3F013
:100C4300740288828983F09004C7E088828983A331
:100C5300A3A3A3A3A3A3A3A3A3F09004C7E004F0B7
:100C6300E0F960F674FF6960F1851082851183AA4B
:100C730082AB83120FCAE970E1EEFAEFFB74011243
:100C830001BD7F0102025EC082C083E48A828B833E
:100C9300F0D083D08222C082C08374FF1201A78563
:100CA3001082851183AA82AB83120FCAE96006E022
:100CB300120CC96006758200758300AA82AB837427
:100CC300011201BD80CB75F00BA424C8F582E5F0B9
:100CD3003404F583E064022274F31201FE8A0C8B60
:100CE3000D89097EC87F047508008E828F83E064B6
:100CF300027033750A04750B00780A120345AC0CB5
:100D0300AD0D120DF51201BDEA7001EB70188E8264
:100D13008F83A3A3A3A3A3A3A3A3A3E0650970063F
:100D2300EEFAEFFB8009120D3740BF7A007B007F9C
:100D33000602025E121010940222C082C083E98A66
:100D4300828B836001A3A3A3A3A3A3A3A3A3E0FC18
:100D5300EC60078A828B83E0700479028008ECC31D
:100D6300942040F67900020C9474F11201FE8A0C6F
:100D73008B0D8C0E8D0F7EC87F04EA240CF582EB5D
:100D83003400F583E0543FF5097508008E828F83A4
:100D9300E06402704BA3A3A3A3A3A3A3A3E06509E9
:100DA300703E743F6509601B750A04750B00780A71
:100DB300120345E50C2408120DEF1201BDEA700180
:100DC300EB701D8E828F83A3A3A3A3A3A3A3A3A3CB
:100DD300A3E0850E82850F83F0120AB7790180079D
:100DE30012100A40A779007F0802025EFCE50D3469
:100DF30000FDEE2402120DFC22FAEF3400FB122256
:100E03001974022274F11201FE74FE1201A78908FB
:100E13008A0C8B0D7EC87F04750A02750B00780A55
:100E23001203457C007D0074021201F2AA82AB8397
:100E330012235974021201BD750902E50C6E700389
:100E4300E50D6F7003020EDA8E828F83E064026019
:100E530003020EDAEE2408F50EEF3400F50F850ECB
:100E630082F583E0FAC3943E506D740165087028DF
:100E73009004C5E0C39A505FEAF8C3E498F8E49499
:100E830000F9851082851183E58228F8E58339F915
:100E9300743D28F582E48039750A04750B00780ADD
:100EA300120345E50C2402120DEF1201BDEA700195
:100EB300EB7024850E82850F83E0F88510828511FF
:100EC30083E58228F8E5833400F974E028F5827419
:100ED300FF39F5837401F0EE240BFEEF3400FF15A8
:100EE30009E5096003020E3E79007A008A0A85103B
:100EF30082851183E582250AF582E5833400F58333
:100F0300E0703D74026508700674202AF9803E740F
:100F13003DC39AF99004C6E0FAE9C39A40429004AB
:100F2300C5E0697003E014F0E9850C82850D83A3A5
:100F3300A3A3A3A3A3A3A3F074021201BD020DEA0A
:100F43000AEAC3940240A57402650870C79004C5F9
:100F5300E0C399400B9004C6E0C39950CBE980C726
:100F6300790080C474F51201FEEAFEEBFF750802F6
:100F73008C0AEE250A120FBAA2E750348D08EE252B
:100F830008120FBA697026750804750900780812EB
:100F930003451219D1EAFCEBFDEE2404120DFC12F9
:100FA30001BDEA7001EB7005750800800375080147
:100FB300A9087F0402025EFAEF3400FB740F2AF5DE
:100FC30082E43BF583E02274F81201FE7CC87D04C1
:100FD3007E008C828D83E064027018A3A3A3A3A375
:100FE300A3A3A3A3A3E069700AEE8A828B83F0799B
:100FF3000180110EEC240BFCED3400FDEEC39403D1
:1010030040D07900020C851210109403220508EEDB
:10101300240BFEEF3400FFE508C32274F51201FE32
:10102300ECFEEDFF890A890875090078081203456B
:10103300EAFCEBFDEEFAEFFB1222BA74021201BDD9
:10104300E50A120383020278105210781066108E9C
:10105300828F83E0F8A3E0F98E828F83E8F0A3E91F
:10106300F080128E828F83780812014C8E828F83D8
:10107300780812015B020FB574F51201FE74FA12BF
:1010830001A7EAFEEBFFECFAEDFBE9120383020290
:101093009B10A1109B10BD10EEFCEFFD80388E82DB
:1010A3008F83E0FCA3E0FD851082851183ECF0A320
:1010B300EDF085108285118380188E828F837808E6
:1010C30012014C74021201F2780812015B740212CD
:1010D30001F2AC82AD8389087509007808120345D3
:1010E3001222BA74021201BD74061201BD020FB5B9
:1010F30074F71201FE75083A750900780812034562
:101103007C007D007A217B0412235974021201BDF5
:1011130078081203457C007D007A5B7B0412235917
:1011230074021201BD7F0202025E74F61201FEE92F
:10113300FC780079007E007F007D0074016C7006EE
:101143007A217B0480047A5B7B0475090388088A0F
:10115300828B83E0601D74016C70210DE064046078
:101163001BA3E0F50AC395095012EAF8EBF9850AC7
:1011730009800974026C6048EAFEEBFF0508EA2463
:101183001DFAEB3400FBE508C3940240C2EE700184
:10119300EF7020E87001E970067A007B008021E897
:1011A300FEE9FF8E828F83A3E0FAECF91211C8E502
:1011B30008800874012D8E828F83A3F0EEFAEFFB73
:1011C3007F0302025EC082C083740169703178219B
:1011D3007904A2AFE492E0FDC2AF7B0288828983E7
:1011E300E0600BA3E0FCEAC39C5003E014F0E824A6
:1011F3001DF8E93400F91BEB70E2EDA2E092AFD0E9
:1012030083D0822274F11201FE74F81201A78510B3
:1012130082851183EAF0A3EBF08C0A74021201F2C7
:10122300E4F0A3F0F50EF50F74016970237E217FBE
:1012330004750C0312138CFA74016A703D1213992E
:10124300A3E0F9120C998A0E8B0FEA7001EB700779
:101253007A007B000213828A828B83A3A3A3A3A3B6
:10126300A3A3A3E0F508EA2402F8EB3400F974061B
:101273001201F2E8F0A3E9F0800AEA70D31213999D
:10128300A3E0F5087401650A70057509018003750B
:101293000903750D02A2AFE492E0FAC2AF8E828F0A
:1012A30083E0650960030213627404F0EAA2E0922A
:1012B300AFEE240EF582EF3400F583E0543F65086A
:1012C300600302135A12138C64017021743F650882
:1012D3007009E50E2402F8E50F8005EE240AF8EF05
:1012E3003400F974041201F2E8F0A3E9F0750A047A
:1012F300750B00780A12034574081201F2E0FCA38F
:10130300E0FD74061201F2E0FAA3E0FB1222197465
:10131300021201BD12138C6003EA703B8E828F832D
:10132300A3AA82AB83E0C3950C502C74021201F282
:10133300E07002A3E0600D74021201F2E0F81213F0
:101343009FE509F08A828B83E0F50C74021201F2A7
:10135300EEF0A3EFF0800D8E828F83E50980F5EA2E
:10136300A2E092AFEE241DFEEF3400FF150DE50D54
:10137300600302129874021201F2E0FAA3E0FB7414
:10138300081201BD7F0802025E851082851183E089
:10139300F812139FE022851082851183A3E0F58361
:1013A30088822274F81201FEEAFEEBFF900495E0B6
:1013B3007019120583EEFAEFFB120B5FE97012123C
:1013C300091D1219D11209481209BD7401F0121C2A
:1013D300757F0102025E7F0202025E74F71201FE54
:1013E30075080075090078081203451213F8740292
:1013F3001201BD80E174F11201FE8A088B098C0A87
:10140300740F1201F2E0F50EA3E0F50F120C998AA6
:101413000C8B0DAE0CAF0D750B02120B53EE70015E
:10142300EF600F7901EEFAEFFB120D3DE9FA8A0B3B
:101433006007A90B7F0802025EE5087002E50960F8
:10144300F1E50AC3940B50EAE50E7002E50F702D27
:101453008E828F83A3E0FDAC0AAA08AB098E828F2C
:1014630083A3A3A3A3A3A3A3A3A3E0F91215FF8AB2
:10147300088B09EA7001EB7008790380B779028061
:10148300B3750A04750B00780A120345EE2402FCB7
:10149300EF3400FDEA2406FAEB3400FB12227274E7
:1014A300021201BD7901AA08AB09121929E9F50B4A
:1014B300808074F31201FE74FD1201A7890AEAFE0B
:1014C300EBFF8C088D09120C997902EA7001EB602D
:1014D300411919120D3DE970397401851082851186
:1014E30083F01201F2E50AF0750A00750B00780A21
:1014F300120345780A1203457808120345EEFCEF00
:10150300FD74061201F2AA82AB831216F874061256
:1015130001BD74031201BD7F0602025E74F712015E
:10152300FEE9FBEAF9ECFEEDFF900495E07013EBA6
:101533001203B900020545150A4515401579020243
:1015430015D1EB1203830206401577159315401549
:1015530064155B159C15C115EEFAEFFB121C088090
:101563006D7401696003E970D4EEFAEFFB121BC6D8
:10157300805C80C97403697009EEFAEFFB121A46A6
:10158300804C74026970B6EEFAEFFB121AC8803E03
:10159300EEFAEFFB121B398035740169709F7508F1
:1015A3000475090078081203451219EAEAFCEBFDF9
:1015B300EEFAEFFB12227274021201BD800E740167
:1015C3006970AF1219EFE98E828F83F079000213ED
:1015D300D9C082C083E490049AF090049BEAF0A3FC
:1015E300EBF01219D1900497EAF0A3EBF0120A0280
:1015F300E9900496F060F6D083D0822274F1120150
:10160300FE89088A0E8B0F8C0A8D09790212112D1F
:101613008A0C8B0DA80CA90DE8FEE9FFE87001E91F
:1016230070077A007B000216BF740E250A8E828F24
:1016330083A3A3F0EE240E12196B54804508F09097
:101643000496E0C0E0EE2410F582EF3400F583D079
:10165300E0F0900496E004F060F8EE240FFAEF3423
:1016630000FB8A828B83E054BF758304758299FCE7
:10167300E04C54F8450954778A828B83F088828939
:1016830083E0C2E7F0750B00780A120345AC0EAD98
:101693000FEE24110A0AEF3400FB122272740212B5
:1016A30001BD75080475090078081203451219185D
:1016B30012227274021201BDEEFAEFFB7F080202DE
:1016C3005E74F71201FE790112112D8A088B09A8A5
:1016D30008A909E8FEE9FFE87001E96013EE2402B6
:1016E3000A0AEF3400FB120779EEFAEFFB121838FF
:1016F3007F0202025E74F11201FE74FE1201A785DD
:101703001082851183ECF0A3EDF08A0A8B0B741120
:101713001201F2E0F50CA3E0F50D74151201F2E0ED
:10172300F50EA3E0F50FE4850C82850D83F07C01B3
:1017330079011212078A088B09AE08AF09EE70010E
:10174300EF700302180E750800750900850A82857B
:101753000B83E064017015A3E0F9120C998A088BDE
:1017630009EA7001EB700579020218108E828F83EB
:10177300A3A3E024F2F50A850C82850D83F0750B93
:1017830000780A120345EE2411FCEF3400FD7402C5
:101793001201F21218181201BDE5087002E5096082
:1017A3000FEE241B121823F0EE241C121823A3F0AF
:1017B30074131201F2E07002A3E0601E7508047551
:1017C30009007808120345EE240AFCEF3400FD7487
:1017D300151201F21218181201BDE50E7002E50F81
:1017E3006014EE240FF582EF3400F583E05407858F
:1017F3000E82850F83F08E828F83A3E0FA79011224
:1018030011C8E48E828F83F0F98002790474021286
:1018130001BD0216BFE0FAA3E0FB1222727402229A
:10182300F582EF3400F583E0850882850983A3A35D
:10183300A3A3A3A32274F31201FE74FF1201A7EA68
:10184300FEEBFFEE240EF50AEF3400F50B850A825A
:10185300F583E0543FF508750C04750D00780C1200
:10186300034512191812221974021201BDEA7001FC
:10187300EB7009E48E828F83F0021905850A828555
:101883000B83E0A2E640ECE50860E8EE2402FAEF01
:101893003400FBE508C39407501CE508C33324E771
:1018A300F582E43404F58312190F1201FCE9640193
:1018B30070C1740180BE743F6508600EE508C3946F
:1018C3002040B0E508C3943F50A985108285118359
:1018D300AC82AD83120D6CE9609974018E828F83A3
:1018E300F090049BE07002A3E060178510828511DD
:1018F30083E0F990049B12190F1201FCE9600302C3
:10190300187674011201BD7F0602025EE0F8A3E0BF
:10191300F583888222900497E0FCA3E0FDEE240A7D
:10192300FAEF3400FB2274F81201FEEAFEEBFFE942
:10193300FAEE240F12196B54CF75830475829AFB48
:10194300E04B88828983F0EAF9EE2402FAEF34004F
:10195300FB1206B0E97004790080027909E48E82F3
:101963008F83F07F0102025EF8EF3400F9888289E9
:1019730083E022C082C083900499E0F90215FA2221
:1019830079002274F71201FE7508047509007808BE
:101993001203457C007D007A9D7B04122359740257
:1019A3001201BD9004A5E0701B78081203457CF575
:1019B3007D047AA17B0412227274021201BD7401A8
:1019C3009004A5F080031201BD7F0202025EC08273
:1019D300C0839004A5E060067AA17B0480047AF5B5
:1019E3007B04D083D082227AFA7B04227902227488
:1019F300F71201FE79009004A5E0702175080489AF
:101A0300097808120345EAFCEBFD7AA17B04122254
:101A13007274021201BD74019004A5F0F980AA74D6
:101A2300F71201FE7508047509007808120345EAE8
:101A3300FCEBFD7A9D7B04122272740280887AB8D3
:101A43007B042274F51201FEEAFEEBFF8E828F8384
:101A5300A3A3A3A3A3E0F91203B9010506681A011E
:101A630003681A6C1A7D0180027D038E828F83A323
:101A7300A3A3A3E0FC8E828F83A3A3E0FAA3E0FBDE
:101A83001215FF8A088B09A909EA7001E9602F750D
:101A93000A04750B00780A1203458E828F83E0FCDB
:101AA300A3E0FDEA2406FAE93400FB122272740271
:101AB3001201BD7901AA08AB091219298002790321
:101AC3007F0402025E74F71201FE74FD1201A7E4A3
:101AD300851082851183F08A828B83A3A3A3A3A39A
:101AE300E0C0E074011201F2D0E0F0EA2406F50848
:101AF300EB3400F50978081203458A828B831203BD
:101B030056EA2404F508EB3400F509780812034576
:101B13008A828B83A3A3E0FCA3E0FD74061201F287
:101B2300AA82AB831216F874061201BD7403120164
:101B3300BD7F0202025E74F51201FEEAFEEBFF7541
:101B4300080074046970081207AA120934806F74BC
:101B53000569700512091D806574066970398E82E6
:101B63008F83E0F9120C99EA7001EB70047902801B
:101B73004F750A02750B00780A120345EA2406FC26
:101B8300EB3400FD8E828F83A3AA82AB8312227271
:101B930074021201BD8027740769700B1209DEE914
:101BA3008E828F83F08017740869700512078C800A
:101BB3000D74096970051207AA8003750802A90844
:101BC300021AC374F71201FEEAFEEBFF75080274F2
:101BD300016970207508047509007808120345121D
:101BE30019D1EAFCEBFDEEFAEFFB1222727402123A
:101BF30001BD8009E970091219F2E9600375080053
:101C0300A908021B3474F71201FEE9FC8A828B8354
:101C1300E0F9740E6C60047902801374FF6960F755
:101C2300120C99EA7001EB60EE120C8A7900021B28
:101C33003474F51201FE9004FE780812014C75838A
:101C4300047582A67808120137701090050278088F
:101C530012014C9004A6780812015B9004AAEAF0E2
:101C6300A3EBF0120A02E99004ACF080007F0402B7
:101C7300025E74F51201FE74E91201A7120B53E917
:101C8300FE7F06121A41851082851183EAF0A3EBC9
:101C9300F074071201F2A882A98374021201F2E818
:101CA300F0A3E9F074041201F27408F07405120150
:101CB300F27403F0790474091201F2AC82AD837AF1
:101CC300A67B0412107B74071201F27401F09004D6
:101CD300ACE0C0E074081201F2D0E0F0740D120120
:101CE300F27402F01219EF740E1201F2E9F085108A
:101CF30082851183AC82AD837A03790212151F7436
:101D0300051201F27403F074071201F2A882A98389
:101D130074021201F2E8F0A3E9F0740F1201F2A8C1
:101D230082A983851082851183E8F0A3E9F0740307
:101D33006E600B74016E700312091D12078C120A78
:101D43002F74036E600D74016E70051209348003E5
:101D53001207AA851082851183AC82AD837A02793A
:101D63000212151FE9705B74071201F2E0547FFA47
:101D730074016A6004EF6A70497508047509007894
:101D830008120345740B1201F2AC82AD8374151271
:101D930001F2AA82AB8312227274021201BD780887
:101DA30012014CAA08AB09AC0AAD0B121E3E740F0C
:101DB3001201F2AA82AB83121A229004ACE004F05F
:101DC3007F00EFF974171201BD021C7074F8120141
:101DD300FE7E007D017C009004ACE0F9120F67E900
:101DE3007004120AB70EEEF97F0102025E74F51257
:101DF30001FE9004FE780812014C7583047582ADD0
:101E030078081201377010900506780812014C907B
:101E130004AD780812015B120A02E99004B5F06080
:101E2300F675080275090078081203457C007D00E9
:101E33007AB27B041223597402802174F51201FED5
:101E43008A088B098C0A8D0B9004FE7808120137DF
:101E530060089004AD780812015B80031201BD7F16
:101E63000402025E74F11201FE74F81201A7EAFE85
:101E7300EBFF8E828F83E0F874F228F874FF34004E
:101E8300F9C3E89409E99400A2D265D033401A1249
:101E930019EFE9FAEE24171220736A600C790274C1
:101EA300081201BD7F0802025E7904E91201F2AC57
:101EB30082AD83EE2411FAEF3400FB12101EC082B0
:101EC300C0839004AD780812014CD083D082780887
:101ED30012013770C8EE2415122073F50AEE240898
:101EE300F50EEF3400F50FA90AAA0EFB120CDB8ADC
:101EF300088B09A808A909E87001E9606112206349
:101F0300C0E074011201F2D0E0F088828983A3A3B8
:101F1300A3A3A3A3A3A3E0C0E074021201F2D0E041
:101F2300F012197674031201F2E91220918A088BD8
:101F330009A808A909E8FEE9FFE87001E9601A7534
:101F4300080475090078081203451220511201BDD7
:101F53007900EEFAEFFB1219297901021EA290040F
:101F6300B1E07003021EA0120BFF8A088B09EA700E
:101F730001EB60E5750C04750D00780C120345AC9C
:101F83000EAD0FEA24020A0AEB12205A1201BDAA6F
:101F930008AB097902120E07E97009AA08AB091206
:101FA3000C8A80B59004B4E0640260EFE0F50C7431
:101FB30001250C12207CA3E0C0E0E50C24B2F582DD
:101FC300E43404F583D0E012207CE50AF074028542
:101FD3000882850983F0A3A882A983EE2416122020
:101FE30073644070047401800274038882898312CD
:101FF3002081E0C0E074021201F2D0E0F012197601
:1020030074031201F2E9F0122063C0E074011201BB
:10201300F2D0E01220918A0A8B0BA80AA90BE8FEE2
:10202300E9FFE87001E97003021F9E750A04750B4E
:1020330000780A1203451220511201BD7900EEFA0D
:10204300EFFB121929E96003021F9E021F5CAC0E0D
:10205300AD0FEE2406FAEF3400FB12227274022253
:102063007481851082851183F0EE2410122073226F
:10207300F582EF3400F583E022122081A322F0855C
:102083000882850983A3A3A3A3A3A3A3A322F0EE9A
:10209300240D1220735407FA7403C39AFD7C04853C
:1020A3001082851183AA82AB8379021215FF2274F1
:1020B300F81201FEEAFEEBFF7D017C009004B5E01F
:1020C300F9120F67E97007120AB77901803AEE2413
:1020D3000FF8EF3400F98E828F83E0FA74F22AFA54
:1020E30074FF3400FB74086A7001EB700974018893
:1020F300828983F0800988828983E064017007EE16
:10210300FAEFFB121E6779007F0102025EC082C0F4
:1021130083120A02E99004B6F0D083D0822274F7C6
:102123001201FEEAFEEBFF7D017C009004B6E0F9AC
:10213300120F67E97007120AB77901802E75080438
:1021430075090078081203451219D1EAFCEBFDEE7C
:102153002404FAEF3400FB12221974021201BDEABF
:102163007001EB70047900800279027F0202025E43
:10217300C082C083120A02E99004B7F0D083D082F0
:10218300227F0402025E74F51201FEEAFEEBFF7D7C
:10219300017C009004B7E0F9120F67E97007120A97
:1021A300B77901806AEE240FFAEF3400FB8A828B41
:1021B30083E0640170577D038E828F83E024F2FCF9
:1021C30079011215FF8A088B09A909EA7001E960F0
:1021D3003C750A04750B00780A120345EE2408FCCB
:1021E300EF3400FDEA2406FAE93400FB122272748C
:1021F300021201BDE5082411F582E5093400F583D7
:10220300E0D2E7F07900AA08AB0912192979000294
:1022130021842279002274F81201FE74081201F25B
:10222300E0F8A3E08015A3AA82AB838C828D83A3FD
:10223300AC82AD83E824FF18E934FFF9E87001E9C3
:1022430060248A828B83E0FE8C828D83E06E8A8297
:102253008B8360D2E0F88C828D83E0FAE8C39AFA2C
:10226300E49400FB80047A007B007F0102025E7429
:10227300F71201FE74091201F2E0FEA3E0FFEAF88F
:10228300EBF980188C828D83E088828983F0A3A880
:1022930082A9838C828D83A3AC82AD838E088F0940
:1022A30074FF25081E74FF3509FFE5087002E50970
:1022B30070D27F0202025E74F71201FE74091201EA
:1022C300F2E0F8A3E0F9EAFEEBFF8A088B09C3EA20
:1022D3009CEB9D405EEC28F582ED39F583C3E582E6
:1022E3009508E5839509404BEA28FAEB39FBAC8264
:1022F300AD831223487002E5096041EC24FF1CED15
:1023030034FFFDEA24FF1AEB34FFFB8C828D83E05C
:102313008A828B83F080DB8C828D83E08A828B833D
:10232300F08C828D83A3AC82AD838A828B83A3AA34
:1023330082AB831223487002E50970DBEEFAEFFBF0
:102343007F0202025E8808890974FF25081874FF5A
:102353003509F9E5082274F81201FE74081201F236
:10236300E0F8A3E0F98A828B838003ECF0A3E8FE14
:10237300E9FF74FF2E1874FF3FF9EE7001EF70EB65
:052383007F0102025E73
:0000D3012C
:00000001FF
