:030000000200D328
:1000830002086900000080FB1200E2B900030200CD
:10009300CDE490F3FF78B779018002F0A3D8FCD9BF
:1000A300FA90F4B5AA82AB839000E5785479018085
:1000B30015E493A3AC82AD838A828B83F0A3AA82D7
:1000C300AB838C828D83D8E9D9E712051812008699
:1000D30075D00075812F7510FF7511F302008B79B0
:1000E3000122FFFFFFFF0367CAD4FF0000000100E6
:1000F30000000000000000000000000000000000FD
:1001030000000000000000000000000000000000EC
:10011300000000001124CD22DB1FA0248D1BA82387
:100123008056341202010101000000000008070696
:100133000504030201E066701008A3E066700A0874
:10014300A3E066700408A3E06622E0F608A3E0F6E5
:1001530008A3E0F608A3E0F622E6F008A3E6F00819
:10016300A3E6F008A3E6F022CAC0E0E6F0A308DAAB
:10017300FAD0E0FA22CAC0E0E0A3C582CCC582C5AA
:1001830083CDC583F0A3C582CCC582C583CDC5838A
:10019300DAE6D0E0CA22C3E498F8E499F91201DA66
:1001A3008026C3E49AFAE49BFBE920E7E91201DA2B
:1001B300E498F8E499F922C3E498F8E499F9120170
:1001C300DAE498F8E499F9C3E49AFAE49BFB22EBA6
:1001D30020E7CFE920E7E0B90010BB0008E88AF088
:1001E30084F8AAF022E4FBC8FA22EB70227B10C841
:1001F30033C8C933C9335007C39AC3DBF280069AA5
:1002030050012ADBEAC833F4C8C933F4C9FA2275AA
:10021300F008E4C833C8C933C933C99AC99B500429
:10022300C92AC93BD5F0ECFBC833F4C8E4C9FA22A8
:10023300600C08C6C313C618C613C6D5E0F422253E
:100243001010AF08F510400215118008F510400298
:100253001511D2AF22C0D0251010AF08F5105002EF
:1002630005118008F51050020511D2AFD0D0222518
:1002730010F58210AF08F510400215118008F51033
:1002830040021511D2AF851183222510F582E43582
:1002930011F58322E4732510C582C0E0E51134FF14
:1002A300C583C0E0E510C3958224F9F8E4C5A885A9
:1002B3008311858210C5A8E8CEF0A3E520F0A378CA
:1002C30008E608F0A3DEFAEFF0A3E58124FBF8E6E5
:1002D30008F0A3E608F0A30808E608F0A3E608F090
:1002E300A315811581D0E0FED0E0F815811581E8D2
:1002F300C0E0EEC0E022851183851082E0A3FEE01A
:10030300A3F5207808E0A3F608DFFAE0A3FFE0A353
:10031300C0E0E0A3C0E0E0A3C0E0E0A3C0E0E4C528
:10032300A8858210858311C5A8D083D08222C0D02E
:100333002510C582C0E0E51134FFC583C0E0E51098
:10034300C3958224F310AF0885831185821080083A
:10035300858311858210D2AFC8F0A3E9F0A3EAF038
:10036300A3EBF0A37908E709F0A3D8FAECF0A3ED27
:10037300F0A3EEF0A3EFF0A3D0E0F0A3D0E0F0A35E
:10038300D0E0F0A3E520F0A3E5F0F0A322851183EC
:10039300851082E0C0E0A3E0F9A3E0FAA3E0FBA3A9
:1003A3007808E0F608A3DFFAE0FCA3E0FDA3E0FE93
:1003B300A3E0FFA3E0C0E0A3E0C0E0A3E0F5D0A387
:1003C300E0F520A3E0A3F5F0E4C5A88583118582B9
:1003D30010C5A8D082D083D0E0F8D0E03274028078
:1003E30000C0E0F404120272D0E012016B22740226
:1003F3008000CCC0E0EDC0E0E510C39CCCAD115053
:10040300011D10AF068C108D1180068C108D11D23A
:10041300AF120178D0E0FDD0E0FC22D083D082C5BA
:10042300F0E493A3C5F0C395F0F5F0E493A3C3956B
:10043300F04005E5F0048001E475F002A42582F59F
:1004430082E5F03583F583E493A3C0E0E493C0E051
:1004530022D083D082CCC0E0E493A3600612047E52
:100463001470FAE493A3600612049D1470FAD0E0AA
:10047300FCE493A3C0E0E493C0E022C0E0E493A3D0
:10048300D39C5010E493A3C39C400AD0E0D0E0D0A7
:10049300E0020471A3A3A3D0E022C0E0E493A36C21
:1004A3007009D0E0D0E0D0E0020471A3A3D0E02231
:1004B300C082C08374FE1202421205068510828533
:1004C300118374AAF0A3E4F0851082851183E07090
:1004D30004C2AF80FE7402120258D083D08222532A
:1004E300CBEFC2D843CB0475F00DEAA4F5CD74FC71
:1004F30055CB4402F5CB43CB10A2D850FC53CBEFE2
:10050300C2D82212050D438F202243FE0143FE0869
:10051300D290D2932274FE1202421204B37AA57BC4
:100523000512153EA2935005790212058FA2905031
:1005330005790112058FA2815004A28550F87E002F
:10054300790112058F7A007BF4121571E970F67444
:1005530001851082851183F07C007D007A08790380
:1005630012172990F401E060FA0E740112028DEE65
:10057300F07C02851082851183AA82AB8390F400FC
:10058300E0F91215E5E490F401F080D77401697085
:1005930006639001E590227402697005639008E593
:1005A300902274F812029974FD12024290F400E052
:1005B300697060851082851183AC82AD83740112EA
:1005C300028DAA82AB8390F400E0F91216BFE970A2
:1005D30042851082851183E06039740212028DE036
:1005E300FE90F3FF6012E0C39E501F740112028D50
:1005F300E0F912058FEE800EE0600F740112028D98
:10060300E0F912058FE490F3FFF0740190F401F028
:10061300F98002790074031202587F010202F9740F
:10062300F712029975081875090078081203E01289
:10063300093312025890DF36E054EF64816004C23C
:10064300AF80FE90DF37E0C394045004C2AF80FE56
:1006530053BEFBE5BEA2E650FA53C6BF43BE0474C5
:10066300F4F5D575D421743C90DF13F0741490DF46
:1006730014F0741590DF02F0740590DF04F074FE3B
:1006830090DF2EF0740990DF25F0740A90DF07F0F5
:10069300E490DF08F0745D90DF09F0744490DF0AA2
:1006A300F074EC90DF0BF0742D90DF0CF0743B9042
:1006B300DF0DF0747390DF0EF0742390DF0FF0748E
:1006C3003B90DF10F0E490DF11F0741D90DF15F024
:1006D300741C90DF16F074C790DF17F0E490DF18F6
:1006E300F074B290DF19F074B690DF1AF0741090C2
:1006F300DF1BF0120991741190DF1FF0748890DFF3
:1007030023F0743190DF24F0740290F402F0790046
:10071300120C107E007F0075E1027508E87509036D
:1007230090DF3CE0545070237A407B00120A6EE560
:100733000824C0F508E50934FFF509C3E508940169
:10074300E5099400A2D265D03350D57A10EEC333B5
:10075300FEEF33FF90DF3AE0A2E0E492E04EFE1AB0
:10076300EA70EA74804EF5BCEFF5BC120A2290F4ED
:100773001D7433F0A3E4F090F41F74E2F0A3740447
:10078300F0439A01D2AF020AB074F7120299EAFE5B
:10079300EBFF890975080090F402E064017004C25C
:1007A300AF80FE120A22EF90F421F0EE90F422F0D3
:1007B30074DF90F423F074D990F424F074201209B8
:1007C300F4744190F428F0E509701143D60175E102
:1007D30003E5E9A2E450FA53E9EF80647401650983
:1007E3006004C2AF80FE750904801C120A2212093C
:1007F300A3E9540F04FE90F41FE0FAA3E0FB120AEE
:100803006E1EEE70F1150943D60175E10290DF3BD0
:10081300E0640D70F87EE87F0390DF3CE054507095
:1008230005120BA150F375E10390DF3BE0640D600B
:1008330008E5E9A2E450FA809EE50970AE75080167
:10084300120A2290F402E0640370031209A9A908B2
:10085300020AB0C082C08390F403EAFCEBFD741873
:10086300120178020A43C0E074F112033190F402DA
:10087300E064036004C2AF80FEE5E9A2E4502BE527
:10088300E9A2E6502553E9EF53E9BF539BFCE59BEF
:10089300120A2275081675090078081203E0120976
:1008A300331202581209A902092E53E9EF539BFC94
:1008B300E59B75080275090078081203E090F403BC
:1008C300E0042403FCE434F4FD7A197BF412254498
:1008D3007402120258E0FA90F41AE0A2E7503B8A3D
:1008E3000874012508F8E43400F9E89417E9940042
:1008F300C365D0335024EAC3940B401E7A047BF4BF
:10090300120C90E9701490F419E0F9120BBDE9F0A0
:1009130090F41AE0C2E7F01218CE750816780812A0
:1009230003E012093312025843D6017F02020390F7
:100933007C007D007A037BF41225E374022274F8B1
:1009430012029990F402E064016013A2AFE492E012
:10095300FEC2AF120A517401F0EEA2E092AF020B95
:100963009CC082C083E5C6A2E65004C2AF80FE905D
:10097300F402E064017014120991740290F402F01D
:1009830075E10490DF3BE0640170F8020A4374EA06
:1009930090DF1CF0740A90DF1DF0E490DF1EF0225C
:1009A30043B404A9BC2274F712029974DF90F421B2
:1009B300F074D990F422F074F490F423F07403905B
:1009C300F424F074801209F4741190F428F075D6AD
:1009D3008175081675090078081203E012093312AD
:1009E300025843D601120A4875E102439110020AE4
:1009F300B090F425F0741890F426F0741390F42753
:100A0300F022C082C08390F402E064017004C2AF9C
:100A130080FEE0640360067403F01209A98021C01C
:100A230082C0835391EF75E10490DF3BE064017072
:100A3300F875D68153D1FE120A48800490DF03F083
:100A4300D083D08222539BFCE59B53E9EF22C082E3
:100A5300C08390F402E064017004C2AF80FEE064DE
:100A6300037006120A227402F080D574F7120299F9
:100A73008A088B0974047808120233AE08AF09EAB6
:100A83007001EB6028A2AFE492E0F508C2AF7A10E0
:100A93007B001204E2E508A2E092AFEEF8EFF974EE
:100AA300FF281E74FF39FFE87001E970D87F020246
:100AB30002F974F8120299EAFEEB800E7AF47B01D4
:100AC300120A6EEE24FF1EEF34FFFFEE7001EF708B
:100AD300EB020B9C74F612029990F41DE0F508A347
:100AE300E0F509A2AFE492E0FAC2AF740190F41CFE
:100AF300F0EAA2E092AF800CE50824FFF508E509CF
:100B030034FFF509E5087002E50960357E1F7F00B3
:100B1300A2AFE492E0F50AC2AF7A107B001204E2BE
:100B2300E50AA2E092AF90F41BE07012EEF8EFF941
:100B330074FF281E74FF39FFE87001E970D2E0608A
:100B4300B7A2AFE492E0FAC2AFE490F41BF090F4E2
:100B53001CF0EAA2E092AF7F030202F9C082C083D5
:100B630090F41CE06006740190F41BF0020A4374D5
:100B7300F812029990F402E064036004C2AF80FEAD
:100B83007EE87F0390DF3CE054507005120BA150C8
:100B9300F390DF3AE0F9120BBD7F010202F97A40CC
:100BA3007B00120A6EEE24C0FEEF34FFFFC3EE9407
:100BB30001EF9400A2D265D03322C008C009E9C373
:100BC3009480E94019F879FF7A027B001201D288F8
:100BD30008890974B92508F874FF3509800BC31314
:100BE300F874B928F874FF3400F9C3E89480E994E1
:100BF300FFA2D265D03350027880E8F9D009D0083B
:100C030022C082C08390F402E0F9020A4374F7120F
:100C130002998908E9C394044004C2AF80FE120A12
:100C230022E50824B9F582E434F4F583E090DF0685
:100C3300F090F402E0640370031209A9020AB0C041
:100C430082C0838A828B83E064FF70047901801FF2
:100C5300E090DF05F07C008C82A8827900120CE51D
:100C6300C0E0120CDAD0E0F00CECC3940440E802CC
:100C73000A43C082C08390F4BDE064FF7004C2AF36
:100C830080FE740190F429F07407020A3F74F8128D
:100C9300029990F429E07004790080387E007D0089
:100CA3007C008C82A882120CE5FF120CDAE06F70D4
:100CB300010EE824B5F582E434F4F583E06F7001A6
:100CC3000D0CECC3940440DA74046D60CB74046EB1
:100CD30060C67901020B9CE824BDF582E434F4F587
:100CE3008322EA28F582EB3400F583E02274F712BD
:100CF3000299EAFEEBFF75082575090078081203CF
:100D0300E07C007D007AC27BF41225E374021202B8
:100D130058740390F4C2F0743D90F4C3F0742090BF
:100D2300F4C4F0740190F4C5F0121B90EEFAEFFBDB
:100D33001217DE12128B121B8C1223FBEEFAEFFB3F
:100D4300121E40122397121FFC12249F90F4DCE022
:100D530070347402F0740390F4DDF0743F90F4E4A3
:100D6300F090F4E5F074FF90F4E6F0750804780869
:100D73001203E0121C4BEAFCEBFD7ADE7BF4122437
:100D8300FC740212025879007F020202F974F8120D
:100D9300029974FF1202427B00EB120E5A70070B8A
:100DA300EBC3940340F374036B70067A007B0080FB
:100DB3005DEB75F00BA424C6FEE5F034F4FFEEF80A
:100DC300EFF9E488828983A3A3A3A3A3A3A3A3A383
:100DD300F0740288828983F090F4C5E08882898365
:100DE300A3A3A3A3A3A3A3A3A3A3F090F4C5E00485
:100DF300F0E0F960F674FF6960F185108285118374
:100E0300AA82AB83121162E970E1EEFAEFFB74017F
:100E13001202587F010202F9C082C083E48A828BE6
:100E230083F0D083D08222C082C08374FF12024237
:100E3300851082851183AA82AB83121162E9600651
:100E4300E0120E5A6006758200758300AA82AB8396
:100E5300740112025880CB75F00BA424C6F582E509
:100E6300F034F4F583E064022274F31202998A0CDD
:100E73008B0D89097EC67FF47508008E828F83E00F
:100E830064027033750A04750B00780A1203E0AC30
:100E93000CAD0D120F89120258EA7001EB70188E17
:100EA300828F83A3A3A3A3A3A3A3A3A3E065097032
:100EB30006EEFAEFFB8009120EC840BF7A007B00F2
:100EC3007F060202F91211A8940222C082C083E9AC
:100ED3008A828B836001A3A3A3A3A3A3A3A3A3E0F9
:100EE300FCEC60078A828B83E0700479028008EC53
:100EF300C3942040F67900020E2574F11202998AF8
:100F03000C8B0D8C0E8D0F7EC67FF48A828B83A390
:100F1300A3A3A3A3A3A3A3A3E0543FF509750800C8
:100F23008E828F83E06402704BA3A3A3A3A3A3A326
:100F3300A3E06509703E743F6509601B750A04757B
:100F43000B00780A1203E0E50C2405120F8312024A
:100F530058EA7001EB701D8E828F83A3A3A3A3A312
:100F6300A3A3A3A3A3E0850E82850F83F0120B5FD7
:100F7300790180071211A240A779007F080202F9C4
:100F8300FCE50D3400FDEE2402FAEF3400FB1224DD
:100F9300A374022274F112029974FE1202428908A8
:100FA3008A0C8B0D7EC67FF4750A02750B00780AD6
:100FB3001203E07C007D00740212028DAA82AB83CF
:100FC3001225E37402120258750902E50C6E7003D0
:100FD300E50D6F700302106A8E828F83E0640260F6
:100FE3000302106AEE2408F50EEF3400F50F850EA8
:100FF30082F583E0FAC3943E506D7401650870284E
:1010030090F4C3E0C39A505FEAF8C3E498F8E49419
:1010130000F9851082851183E58228F8E58339F983
:10102300743D28F582E48039750A04750B00780A4B
:101033001203E0E50C2402120F83120258EA700136
:10104300EB7024850E82850F83E0F885108285116D
:1010530083E58228F8E5833400F974E028F5827487
:10106300FF39F5837401F0EE240BFEEF3400FF1516
:1010730009E5096003020FCE79007A008A0A851018
:1010830082851183E582250AF582E5833400F583A1
:10109300E0703D74026508700674202AF9803E747E
:1010A3003DC39AF990F4C4E0FAE9C39A404290F43C
:1010B300C3E0697003E014F0E9850C82850D83A316
:1010C300A3A3A3A3A3A3A3F07402120258020F7E47
:1010D3000AEAC3940240A57402650870C790F4C37A
:1010E300E0C399400B90F4C4E0C39950CBE980C7A7
:1010F300790080C474F5120299EAFEEBFF750802C9
:101103008C0AEE250A121152A2E7503C8D08EE25F7
:101113000812115269702E750804750900780812B7
:1011230003E0121BDBEAFCEBFD8E828F83A3AA8212
:10113300AB831224A37402120258EA7001EB700508
:101143007508008003750801A9087F040202F9FAF3
:10115300EF3400FB740C2AF582E43BF583E0227440
:10116300F81202997CC67DF47E008C828D83E06444
:10117300027018A3A3A3A3A3A3A3A3A3A3E06970CB
:101183000AEE8A828B83F0790180110EEC240BFC2A
:10119300ED3400FDEEC3940340D07900020E161225
:1011A30011A89403220508EE240BFEEF3400FFE59B
:1011B30008C32274F5120299ECFEEDFF890A89082F
:1011C30075090078081203E0EAFCEBFDEEFAEFFB89
:1011D3001225447402120258E50A12041E02021078
:1011E30012EA111012FE118E828F83E0F8A3E0F948
:1011F3008E828F83E8F0A3E9F080128E828F83784A
:101203000812014D8E828F83780812015C02114D02
:1012130074F512029974FA120242EAFEEBFFECFA39
:10122300EDFBE912041E0202331239123312551276
:10123300EEFCEFFD80388E828F83E0FCA3E0FD851A
:101243001082851183ECF0A3EDF085108285118364
:1012530080188E828F83780812014D740212028DDA
:10126300780812015C740212028DAC82AD83890886
:1012730075090078081203E012254474021202581B
:10128300740612025802114D74F71202997508344C
:1012930075090078081203E07C007D007A2A7BF44C
:1012A3001225E3740212025878081203E07C007DD1
:1012B300007A5E7BF41225E374021202587F020265
:1012C30002F974F6120299E9FC780079007E007F36
:1012D300007D0074016C70067A2A7BF480047A5EC8
:1012E3007BF475090388088A828B83E0601D74018F
:1012F3006C70210DE06404601BA3E0F50AC395093B
:101303005012EAF8EBF9850A09800974026C604807
:10131300EAFEEBFF0508EA241AFAEB3400FBE508C2
:10132300C3940240C2EE7001EF7020E87001E970CF
:10133300067A007B008021E8FEE9FF8E828F83A37B
:10134300E0FAECF9121360E508800874012D8E822F
:101353008F83A3F0EEFAEFFB7F030202F9C082C092
:10136300837401697031782A79F4A2AFE492E0FDC5
:10137300C2AF7B0288828983E0600BA3E0FCEAC3EF
:101383009C5003E014F0E8241AF8E93400F91BEB4D
:1013930070E2EDA2E092AFD083D0822274F1120208
:1013A3009974F8120242851082851183EAF0A3EB47
:1013B300F08C0A740212028DE4F0A3F0F50EF50F1F
:1013C30074016970237E2A7FF4750C03121524FAC5
:1013D30074016A703D121531A3E0F9120E2A8A0EC8
:1013E3008B0FEA7001EB70077A007B0002151A8AF3
:1013F300828B83A3A3A3A3A3A3A3A3E0F508EA2457
:1014030002F8EB3400F9740612028DE8F0A3E9F058
:10141300800AEA70D3121531A3E0F5087401650A56
:1014230070057509018003750903750D02A2AFE408
:1014330092E0FAC2AF8E828F83E0650960030214E3
:10144300FA7404F0EAA2E092AFEE240BF582EF34D3
:1014530000F583E0543F650860030214F21215247B
:1014630064017021743F65087009E50E2402F8E5F4
:101473000F8005EE2407F8EF3400F9740412028D8F
:10148300E8F0A3E9F0750A04750B00780A1203E08B
:10149300740812028DE0FCA3E0FD740612028DE0D5
:1014A300FAA3E0FB1224A37402120258121524605B
:1014B30003EA703B8E828F83A3AA82AB83E0C3953A
:1014C3000C502C740212028DE07002A3E0600D74C4
:1014D3000212028DE0F8121537E509F08A828B8338
:1014E300E0F50C740212028DEEF0A3EFF0800D8E86
:1014F300828F83E50980F5EAA2E092AFEE241AFE1B
:10150300EF3400FF150DE50D600302143074021271
:10151300028DE0FAA3E0FB74081202587F0802026E
:10152300F9851082851183E0F8121537E0228510C2
:1015330082851183A3E0F58388822274F8120299CD
:10154300EAFEEBFF90F492E07019120622EEFAEF36
:10155300FB120CF0E97012120964121BDB120C422D
:10156300120C757401F0121E817F010202F974F7E7
:101573001202998A828B83120C04E9F5087900120E
:10158300238074036508600C7401650870031209F5
:1015930064120A057E007F0012232BE9FA8A097080
:1015A300187A0A7B00120AB5EE24010EEF3400FF0D
:1015B300C3EE94F4EF940140DF74036508600E7486
:1015C30001650870051209418003120A51E509708B
:1015D30009790112238079018003F079007F0202E7
:1015E30002F974F712029975080075090078081258
:1015F30003E01215FF740212025880E174F1120223
:10160300998A088B098C0A740F12028DE0F50EA3D8
:10161300E0F50F120E2A8A0C8B0DAE0CAF0D750B75
:1016230002120C04EE7001EF600F7901EEFAEFFB8A
:10163300120ECEE9FA8A0B6007A90B7F080202F9A2
:10164300E5087002E50960F1E50AC3940B50EAE589
:101653000E7002E50F702D8E828F83A3E0FDAC0A1E
:10166300AA08AB098E828F83A3A3A3A3A3A3A3A3D7
:10167300A3E0F91218098A088B09EA7001EB7008D4
:10168300790380B7790280B3750A04750B00780A71
:101693001203E0EE2402FCEF3400FDEA24030A0AFD
:1016A3000AEB3400FB1224FC74021202587901AADB
:1016B30008AB09121B33E9F50B02163C74F3120253
:1016C3009974FD120242890AEAFEEBFF8C088D0928
:1016D300120E2A7902EA7001EB60411919120ECE3B
:1016E300E970397401851082851183F012028DE54A
:1016F3000AF0750A00750B00780A1203E0780A12E3
:1017030003E078081203E0EEFCEFFD740612028D8D
:10171300AA82AB83121902740612025874031202CE
:10172300587F060202F974F7120299E9FBEAF9EC11
:10173300FEEDFF90F492E07013EB120454000205E7
:101743004F170A4F174A1779020217DBEB12041ED1
:1017530002064A1781179D174A176E176517A617B2
:10176300CB17EEFAEFFB121E14806D740169600350
:10177300E970D4EEFAEFFB121DD2805C80C97403CA
:10178300697009EEFAEFFB121C50804C7402697009
:10179300B6EEFAEFFB121CD4803EEEFAEFFB121DFD
:1017A300458035740169709F7508047509007808D0
:1017B3001203E0121BF4EAFCEBFDEEFAEFFB12243A
:1017C300FC7402120258800E74016970AF121BF987
:1017D300E98E828F83F079000215E0C082C083E432
:1017E30090F497F090F498EAF0A3EBF0121BDB90DF
:1017F300F494EAF0A3EBF01209A3E990F493F060F8
:10180300F6D083D0822274F112029989088A0E8B52
:101813000F8C0A8D0979021212C58A0C8B0DA80C44
:10182300A90DE8FEE9FFE87001E970077A007B0083
:101833000218C9740B250A8E828F83A3A3F0EE24AA
:101843000B121B7554804508F090F493E0C0E0EE52
:10185300240DF582EF3400F583D0E0F090F493E0AB
:1018630004F060F8EE240CFAEF3400FB8A828B83D9
:10187300E054BF7583F4758296FCE04C54F8450937
:1018830054778A828B83F088828983E0C2E7F0757C
:101893000B00780A1203E0AC0EAD0FEE240E0A0A19
:1018A300EF3400FB1224FC7402120258750804750D
:1018B300090078081203E0121B221224FC7402129E
:1018C3000258EEFAEFFB7F080202F974F71202994D
:1018D30079011212C58A088B09A808A909E8FEE94B
:1018E300FFE87001E96013EE24020A0AEF3400FBFB
:1018F300120856EEFAEFFB121A427F020202F97443
:10190300F112029974FE120242851082851183EC52
:10191300F0A3EDF08A0A8B0B741112028DE0F50C23
:10192300A3E0F50D741512028DE0F50EA3E0F50F9B
:10193300E4850C82850D83F07C01790112139F8A63
:10194300088B09AE08AF09EE7001EF7003021A1895
:10195300750800750900850A82850B83E0640170B0
:1019630015A3E0F9120E2A8A088B09EA7001EB70BD
:10197300057902021A1A8E828F83A3A3E024F5F558
:101983000A850C82850D83F0750B00780A1203E03B
:10199300EE240EFCEF3400FD740212028D121A22A3
:1019A300120258E5087002E509600FEE2418121AB6
:1019B3002DF0EE2419121A2DA3F0741312028DE0E8
:1019C3007002A3E0601E750804750900780812030D
:1019D300E0EE2407FCEF3400FD741512028D121A99
:1019E30022120258E50E7002E50F6014EE240CF586
:1019F30082EF3400F583E05407850E82850F83F070
:101A03008E828F83A3E0FA7901121360E48E828FB2
:101A130083F0F98002790474021202580218C9E0B3
:101A2300FAA3E0FB1224FC740222F582EF3400F5E2
:101A330083E0850882850983A3A3A3A3A3A32274B8
:101A4300F312029974FF120242EAFEEBFFEE240B3B
:101A5300F50AEF3400F50B850A82F583E0543FF570
:101A630008750C04750D00780C1203E0121B22128A
:101A730024A37402120258EA7001EB7009E48E8207
:101A83008F83F0021B0F850A82850B83E0A2E64059
:101A9300ECE50860E8EE2402FAEF3400FBE508C346
:101AA3009407501CE508C33324E5F582E434F4F5C8
:101AB30083121B19120297E9640170C1740180BE7D
:101AC300743F6508600EE508C3942040B0E508C381
:101AD300943F50A9851082851183AC82AD83120E89
:101AE300FDE9609974018E828F83F090F498E07021
:101AF30002A3E06017851082851183E0F990F498C2
:101B0300121B19120297E96003021A807401120270
:101B1300587F060202F9E0F8A3E0F5838882229059
:101B2300F494E0FCA3E0FDEE2407FAEF3400FB227B
:101B330074F8120299EAFEEBFFE9FAEE240C121B89
:101B43007554CF7583F4758297FBE04B8882898344
:101B5300F0EAF9EE2402FAEF3400FB12078CE97085
:101B630004790080027909E48E828F83F07F010279
:101B730002F9F8EF3400F988828983E022C082C039
:101B83008390F496E0F90218042279002274F71284
:101B9300029975080475090078081203E07C007D3A
:101BA300007A9A7BF41225E3740212025890F4A28D
:101BB300E0701B78081203E07CF37DF47A9E7BF4DB
:101BC3001224FC7402120258740190F4A2F08003F0
:101BD3001202587F020202F9C082C08390F4A2E08D
:101BE30060067A9E7BF480047AF37BF4D083D08200
:101BF300227AF87BF42279022274F712029979008F
:101C030090F4A2E07021750804890978081203E0B2
:101C1300EAFCEBFD7A9E7BF41224FC740212025858
:101C2300740190F4A2F0F980AA74F712029975086E
:101C33000475090078081203E0EAFCEBFD7A9A7B4D
:101C4300F41224FC740280887AB57BF42274F512B2
:101C53000299EAFEEBFF8E828F83A3A3A3A3A3E0E3
:101C6300F9120454010506721C0103721C761C7DD3
:101C73000180027D038E828F83A3A3A3A3E0FC8E46
:101C8300828F83A3A3E0FAA3E0FB1218098A088BCF
:101C930009A909EA7001E96031750A04750B007836
:101CA3000A1203E08E828F83E0FCA3E0FDEA2403A3
:101CB3000A0A0AE93400FB1224FC7402120258795E
:101CC30001AA08AB09121B33800279037F040202C5
:101CD300F974F712029974FD120242E485108285A9
:101CE3001183F08A828B83A3A3A3A3A3E0C0E07430
:101CF3000112028DD0E0F0EA2406F508EB3400F57A
:101D03000978081203E08A828B831203F1EA240420
:101D1300F508EB3400F50978081203E08A828B8317
:101D2300A3A3E0FCA3E0FD740612028DAA82AB8399
:101D3300121902740612025874031202587F020227
:101D430002F974F5120299EAFEEBFF7508007404B8
:101D5300697008120A51120941806F740569700590
:101D6300120964806574066970398E828F83E0F985
:101D7300120E2AEA7001EB70047902804F750A0291
:101D8300750B00780A1203E0EA2406FCEB3400FD2D
:101D93008E828F83A3AA82AB831224FC7402120265
:101DA300588027740769700B120B72E98E828F8338
:101DB300F080177408697005120A05800D740969AB
:101DC3007005120A518003750802A908021CCF741A
:101DD300F7120299EAFEEBFF75080274016970209D
:101DE30075080475090078081203E0121BDBEAFC8E
:101DF300EBFDEEFAEFFB1224FC7402120258800989
:101E0300E97009121BFCE96003750800A908021DAB
:101E13004074F7120299E9FC8A828B83E0F9740E0D
:101E23006C60047902801374FF6960F7120E2AEA6A
:101E33007001EB60EE120E1B7900021D4074F51267
:101E4300029990F4FC780812014D7583F47582A30E
:101E53007808120138701090F500780812014D903F
:101E6300F4A3780812015C90F4A7EAF0A3EBF01254
:101E730009A3E990F4A9F080007F040202F974F544
:101E830012029974E9120242120C04E9FE7F06124F
:101E93001C4B851082851183EAF0A3EBF0740712C3
:101EA300028DA882A983740212028DE8F0A3E9F0DF
:101EB300740412028D7408F0740512028D7403F019
:101EC3007904740912028DAC82AD837AA37BF41278
:101ED3001213740712028D7401F090F4A9E0C0E0AC
:101EE300740812028DD0E0F0740D12028D7402F0AA
:101EF300121BF9740E12028DE9F08510828511838D
:101F0300AC82AD837A037902121729740512028D0C
:101F13007403F0740712028DA882A983740212025B
:101F23008DE8F0A3E9F0740F12028DA882A98385CE
:101F33001082851183E8F0A3E9F074036E600B74DB
:101F4300016E7003120964120A05120AD774036E34
:101F5300600D74016E70051209418003120A5185E8
:101F63001082851183AC82AD837A0279021217291C
:101F7300E9705B740712028DE0547FFA74016A60A2
:101F830004EF6A704975080475090078081203E0C4
:101F9300740B12028DAC82AD83741512028DAA826A
:101FA300AB831224FC7402120258780812014DAA62
:101FB30008AB09AC0AAD0B12204A740F12028DAAAA
:101FC30082AB83121C2C90F4A9E004F07F00EFF99C
:101FD3007417120258021E7C74F81202997E007D57
:101FE300017C0090F4A9E0F91210F7E97004120BD8
:101FF3005F0EEEF97F010202F974F512029990F473
:10200300FC780812014D7583F47582AA78081201D1
:1020130038701090F504780812014D90F4AA7808EE
:1020230012015C1209A3E990F4B2F060F67508029C
:1020330075090078081203E07C007D007AAF7BF419
:102043001225E37402802174F51202998A088B0920
:102053008C0A8D0B90F4FC7808120138600890F418
:10206300AA780812015C80031202587F040202F965
:1020730074F112029974F8120242EAFEEBFF8E82A7
:102083008F83E0F874F528F874FF3400F9C3E894FB
:1020930009E99400A2D265D033401A121BF9E9FA78
:1020A300EE24141222816A600C7902740812025819
:1020B3007F080202F97904E912028DAC82AD83EE46
:1020C300240EFAEF3400FB1211B6C082C08390F4E1
:1020D300AA780812014DD083D08278081201387093
:1020E300C8EE2412122281F50AEE2405F50EEF3410
:1020F30000F50FA90AAA0EFB120E6C8A088B09A819
:1021030008A909E87001E96061122271C0E0740155
:1021130012028DD0E0F088828983A3A3A3A3A3A393
:10212300A3A3E0C0E0740212028DD0E0F0121B8082
:10213300740312028DE912229F8A088B09A808A949
:1021430009E8FEE9FFE87001E9601A7508047509FA
:102153000078081203E012225D1202587900EEFAA9
:10216300EFFB121B3379010220AE90F4AEE0700353
:102173000220AC120D908A088B09EA7001EB60E52E
:10218300750C04750D00780C1203E0AC0EAD0FEA6C
:1021930024020A0AEB122268120258AA08AB097930
:1021A30002120F97E97009AA08AB09120E1B80B53A
:1021B30090F4B1E0640260EFE0F50C7401250C12B9
:1021C300228AA3E0C0E0E50C24AFF582E434F4F501
:1021D30083D0E012228AE50AF07402850882850919
:1021E30083F0A3A882A983EE241312228164407092
:1021F300047401800274038882898312228FE0C0F1
:10220300E0740212028DD0E0F0121B8074031202FC
:102213008DE9F0122271C0E0740112028DD0E01238
:10222300229F8A0A8B0BA80AA90BE8FEE9FFE87034
:1022330001E970030221AA750A04750B00780A12DA
:1022430003E012225D1202587900EEFAEFFB121B33
:1022530033E960030221AA022168AC0EAD0FEE241C
:10226300030A0A0AEF3400FB1224FC74022274816D
:10227300851082851183F0EE240D12228122F582CE
:10228300EF3400F583E02212228FA322F085088227
:10229300850983A3A3A3A3A3A3A3A3221222BC54AC
:1022A30007FA7403C39AFD7C04851082851183AAFF
:1022B30082AB83790212180922F08E828F83A3A343
:1022C300A3A3A3A3A3A3A3A3E02274F8120299EAEE
:1022D300FEEBFF7D017C0090F4B2E0F91210F7E908
:1022E3007007120B5F7901803AEE240CF8EF34008B
:1022F300F98E828F83E0FA74F52AFA74FF3400FBB7
:1023030074086A7001EB7009740188828983F08014
:102313000988828983E064017007EEFAEFFB1220DB
:102323007379007F010202F974F71202997900A20E
:10233300AFE492E0FAC2AF90F4B1E06036E014F09B
:10234300EAA2E092AF0912238090F4AFE0F97C0097
:1023530090F4B1E0FAECC39A501E8C08E50824AF60
:10236300FAE434F4FB8A828B83A3E08A828B83F0C2
:102373000C80DDEAA2E092AF7F020202F9C082C0C4
:1023830083E970047A0180027A00EA90F4AEF0D017
:1023930083D08222C082C0831209A3E990F4B3F0F0
:1023A300D083D0822274F7120299EAFEEBFF7D01FB
:1023B3007C0090F4B3E0F91210F7E97007120B5F99
:1023C3007901802F75080475090078081203E0125B
:1023D3001BDBEAFCEBFD8E828F83A3AA82AB831205
:1023E30024A37402120258EA7001EB70047900808E
:1023F3000279027F020202F9C082C0831209A3E9B3
:1024030090F4B4F0D083D082227F040202F974F5F1
:10241300120299EAFEEBFF7D017C0090F4B4E0F92F
:102423001210F7E97007120B5F7901806CEE240C30
:10243300FAEF3400FB8A828B83E0640170597D03D9
:102443008E828F83E024F5FC79011218098A088BA8
:1024530009A909EA7001E9603E750A04750B007861
:102463000A1203E0EE2405FCEF3400FDEA24030A1C
:102473000A0AE93400FB1224FC7402120258E5082C
:10248300240EF582E5093400F583E0D2E7F0790004
:10249300AA08AB09121B33790002240C227900220B
:1024A30074F8120299740812028DE0F8A3E0801503
:1024B300A3AA82AB838C828D83A3AC82AD83E824F1
:1024C300FF18E934FFF9E87001E960248A828B83FD
:1024D300E0FE8C828D83E06E8A828B8360D2E0F88B
:1024E3008C828D83E0FAE8C39AFAE49400FB8004BB
:1024F3007A007B007F010202F974F71202997409D2
:1025030012028DE0FEA3E0FFEAF8EBF980188C825B
:102513008D83E088828983F0A3A882A9838C828D2E
:1025230083A3AC82AD838E088F0974FF25081E74C4
:10253300FF3509FFE5087002E50970D27F02020248
:10254300F974F7120299740912028DE0F8A3E0F905
:10255300EAFEEBFF8A088B09C3EA9CEB9D405EEC25
:1025630028F582ED39F583C3E5829508E58395095E
:10257300404BEA28FAEB39FBAC82AD831225D270CB
:1025830002E5096041EC24FF1CED34FFFDEA24FF62
:102593001AEB34FFFB8C828D83E08A828B83F0807D
:1025A300DB8C828D83E08A828B83F08C828D83A384
:1025B300AC82AD838A828B83A3AA82AB831225D29A
:1025C3007002E50970DBEEFAEFFB7F020202F98885
:1025D30008890974FF25081874FF3509F9E50822ED
:1025E30074F8120299740812028DE0F8A3E0F98AD4
:1025F300828B838003ECF0A3E8FEE9FF74FF2E18BF
:0F26030074FF3FF9EE7001EF70EB7F010202F9F7
:0000D3012C
:00000001FF
