:030000000200D328
:1000830002073800000080FB1200E2B900030200FF
:10009300CDE4900400783079028002F0A3D8FCD933
:1000A300FA90052FAA82AB839000E57855790180F9
:1000B30015E493A3AC82AD838A828B83F0A3AA82D7
:1000C300AB838C828D83D8E9D9E712047912008639
:1000D30075D00075813F75100075110402008B798E
:1000E300012212345678FFFFFFFF0F14191A2575EA
:1000F300D501000000000000000000000000000027
:1001030000000000000000000000000000000000EC
:10011300001320101E201DAA200318A81E78563491
:100123001202010101000000000008070605EFBEEE
:10013300ADDE04030201E066701008A3E066700AF6
:1001430008A3E066700408A3E06622E0F608A3E0D3
:10015300F608A3E0F608A3E0F622E6F008A3E6F02B
:1001630008A3E6F008A3E6F022CAC0E0E6F0A3087D
:10017300DAFAD0E0FA22CAC0E0E0A3C582CCC58295
:10018300C583CDC583F0A3C582CCC582C583CDC548
:1001930083DAE6D0E0CA22600C08C6C313C618C6C9
:1001A30013C6D5E0F422251010AF08F51040021550
:1001B300118008F51040021511D2AF22C0D02510CE
:1001C30010AF08F510500205118008F51050020514
:1001D30011D2AFD0D0222510F58210AF08F5104010
:1001E3000215118008F51040021511D2AF85118355
:1001F300222510F582E43511F58322E4732510C519
:1002030082C0E0E51134FFC583C0E0E510C39582E9
:1002130024F9F8E4C5A8858311858210C5A8E8CE22
:10022300F0A3E520F0A37808E608F0A3DEFAEFF0E8
:10023300A3E58124FBF8E608F0A3E608F0A3080889
:10024300E608F0A3E608F0A315811581D0E0FED0FF
:10025300E0F815811581E8C0E0EEC0E02285118346
:10026300851082E0A3FEE0A3F5207808E0A3F6085A
:10027300DFFAE0A3FFE0A3C0E0E0A3C0E0E0A3C097
:10028300E0E0A3C0E0E4C5A8858210858311C5A87A
:10029300D083D08222C0D02510C582C0E0E51134BE
:1002A300FFC583C0E0E510C3958224F310AF088532
:1002B30083118582108008858311858210D2AFC88F
:1002C300F0A3E9F0A3EAF0A3EBF0A37908E709F0C0
:1002D300A3D8FAECF0A3EDF0A3EEF0A3EFF0A3D0D4
:1002E300E0F0A3D0E0F0A3D0E0F0A3E520F0A3E595
:1002F300F0F0A322851183851082E0C0E0A3E0F92A
:10030300A3E0FAA3E0FBA37808E0F608A3DFFAE092
:10031300FCA3E0FDA3E0FEA3E0FFA3E0C0E0A3E0B5
:10032300C0E0A3E0F5D0A3E0F520A3E0A3F5F0E45B
:10033300C5A8858311858210C5A8D082D083D0E05B
:10034300F8D0E03274028000C0E0F4041201D9D086
:10035300E012016C2274028000CCC0E0EDC0E0E545
:1003630010C39CCCAD1150011D10AF068C108D1124
:1003730080068C108D11D2AF120179D0E0FDD0E050
:10038300FC22D083D082C5F0E493A3C5F0C395F0DB
:10039300F5F0E493A3C395F04005E5F0048001E490
:1003A30075F002A42582F582E5F03583F583E493A5
:1003B300A3C0E0E493C0E022D083D082CCC0E0E4C9
:1003C30093A360061203E51470FAE493A360061284
:1003D30004041470FAD0E0FCE493A3C0E0E493C0F7
:1003E300E022C0E0E493A3D39C5010E493A3C39C06
:1003F300400AD0E0D0E0D0E00203D8A3A3A3D0E02A
:1004030022C0E0E493A36C7009D0E0D0E0D0E00216
:1004130003D8A3A3D0E022C082C08374FE1201A933
:1004230012046712047285108285118374AAF0A3E3
:10043300E4F0851082851183E07004C2AF80FE74FE
:10044300021201BFD083D0822275CB4475CC04EA5B
:1004530033333354F8F5CD43CB10A2D950FC75CBCD
:1004630000C2D92243FE0143FE02C290C29122433D
:100473008F0243F7012274FB1201A912041A800AA6
:100483001204D47AE87B031208EC7A007B00120F83
:10049300E5E9790170EA1204D4E4851082851183B9
:1004A300F090052F780812014E74011201F47808B8
:1004B30012015D851082851183AC82AD837A007948
:1004C3000A1210177C007D007A0B79041210178032
:1004D300FE1204DD79021204DD22740169700663E1
:1004E3009001E590227402697005639002E5902201
:1004F30074F712020075081B750900780812034788
:100503007C007D007A017B041221ED74021201BF8D
:1005130090624AE064A56004C2AF80FE906249E045
:100523007004C2AF80FE53BEFBE59DA2E650FA0005
:1005330078F87901001208227001E970F775C60096
:10054300E59E70FC43BE0474149061A9F0743F905F
:1005530061ABF074F8906196F074859061A8F074C3
:100563005A9061ACF074159061B2F0E4906182F03E
:1005730074109061B5F0740E9061B6F074039061DD
:10058300B7F074099061FAF074FF9061E5F090613F
:1005930072F0906173F0906189E054F34408F07550
:1005A300E1E3906199E0A2E050F8780079007C10D3
:1005B300E8C333F8E933F99061A7E0A2E0E492E0FD
:1005C30048F81CEC70EA748048F5BCE9F5BC75E1A9
:1005D300EF75E1ED75E1ED906189E054F3F074019D
:1005E300900400F0906180E0C2E0F0906181E054FB
:1005F30097F090618AE0C2E0F0747F906194F079A3
:100603000012082C7902120866439A0190041E74A2
:1006130033F0A3E4F012094BD2AF02086174F7126E
:100623000200EAFEEBFF8909750800900400E0640C
:10063300017004C2AF80FE1209315391FD90042072
:10064300E08E828F83A3A3A3F0900420E004F074D0
:10065300018E828F83A3F074888E828F83A3A3F08D
:1006630075E1EE8E828F83E0FB74022BF5D97A005D
:100673008005A3E0F5D90AEAC39B40F6E509700BB0
:1006830075E1E9E591A2E1404A80F87401650960EA
:1006930004C2AF80FE7E0480071E12093112094B8B
:1006A30075E1E3906199E0A2E050F8A2AFE492E033
:1006B300FAC2AF75E1EA906193E05408FBEAA2E065
:1006C30092AFEB6008E591A2E1400880F8EE70C9B3
:1006D300750801120931900400E0640370031209E4
:1006E30021A908020861C082C083900401EAFCEBDF
:1006F300FD741B12017902089FC082C0839004001D
:10070300E064017004C2AF80FEE06403600674031A
:10071300F012092102089FC082C083900400E064A4
:10072300017004C2AF80FEE06403700612093174E5
:1007330002F002089FC0E074ED120298900400E0FA
:1007430064036004C2AF80FEE5E9A2E250FA90615F
:1007530093E0A2E6500EE0A2E7400975E1ED75E1F2
:10076300ED02080E53E9FB747F55D9F508F5828530
:10077300820A74FF120819C3E8941AE99400A2D2FA
:1007830065D0335007E508C3940E500D7A00EAC3D1
:100793009508506EE5D90A80F57E017F04750C1922
:1007A300750D00780C1203477C007D007A017B04F1
:1007B3001221ED74021201BF74FE2508900401F0AA
:1007C30074FE1208198E828F83A3AE82AF83E5D99C
:1007D300F01208227001E970EC74B425D990041A60
:1007E300F0E5D9FAA2E7501A747F5A90041BF090EF
:1007F3000402E06401700B900403E0648870031248
:1008030011D090619BE0600302074B759B0053E995
:10081300FB7F060202F7250AF874FF3400F922E889
:1008230024FF18E934FFF9E82274F712020089085B
:10083300E9C394044004C2AF80FE12093175F00588
:10084300E5082437F582E43405F583E0A424D49045
:10085300618FF0900400E0640370031209217F02AA
:1008630002026074F71202008908120931E50824B4
:100873003BF582E43405F583E0906190F090040049
:10088300E06403700312092180D4C082C083900402
:1008930000E0640170037402F08001F0D083D08221
:1008A30022C082C083900400E06401600612071A2C
:1008B3007401F080E77F01020260C082C08390046C
:1008C30000E064036004C2AF80FE906199E0A2E09F
:1008D30050F8906198E0FA74B42AF902089F74F30F
:1008E30055B44404F5B4A9BD2274F8120200EAFE1B
:1008F300EB800E7AE87B03120965EE24FF1EEF34CA
:10090300FFFFEE7001EF70EB0208B8C082C0839066
:10091300041CE06006740190041DF002089FC0826D
:10092300C08375E1E39061A3E0D2E202089EC08236
:10093300C0839061A3E0C2E2F075E1EF75E1ED756C
:10094300E1ED75E9FB02089FEEC0E01208E1E9540E
:100953000F04FE7AFA7B001209651EEE70F5D0E0F3
:10096300FE2274F71202008A088B097404780812B5
:10097300019AAE08AF09EA7001EB6028A2AFE492D6
:10098300E0F508C2AF7A107B0012044CE508A2E040
:1009930092AFEEF8EFF974FF281E74FF39FFE87089
:1009A30001E970D802086174F7120200EAFEEBFF56
:1009B30075081F75090078081203477C007D007ACB
:1009C3003F7B051221ED74021201BF740190053FB4
:1009D300F0743D900540F07420900541F07401904F
:1009E3000542F0121806EEFAEFFB1210D1120C8139
:1009F300121802121FFDEEFAEFFB121AA1121E7B50
:100A0300121D981220A9900553E070347402F074FB
:100A130003900554F0743F90055BF090055CF0740F
:100A2300FF90055DF0750804780812034712189FBC
:100A3300EAFCEBFD7A557B0512210674021201BF15
:100A430079007F0202026022C082C08374FF120118
:100A5300A9851082851183AA82AB83120B62E96098
:100A630014E075F00BA42453F582E5F03405F58307
:100A7300E064026006758200758300AA82AB8380FE
:100A8300057A437B052274011201BFD083D08222F1
:100A930074F7120200ECFEEDFFEA240CF582EB344E
:100AA30000F583E0543FFC900553E06402704190ED
:100AB300055BE06C703A743F6C602575080475093A
:100AC300007808120347EA2408FCEB3400FD7A554A
:100AD3007B051220AD74021201BFEA7001EB7010A6
:100AE30090055DE08E828F83F012090E79018002FA
:100AF3007900020A4574F5120200EAFEEBFF75085D
:100B0300028C0AEE250A120B52A2E7503B8D08EE27
:100B13002508120B5269702D7508047509007808B1
:100B230012034712184EEAFCEBFDEE2404FAEF34ED
:100B330000FB1220AD74021201BFEA7001EB7005D5
:100B43007508008003750801A9087F04020260FA92
:100B5300EF3400FB740F2AF582E43BF583E022C0F7
:100B630082C083900553E06402701190055DE069D3
:100B7300700AE48A828B83F0790180027900020A89
:100B83008EE9FB7900EA6B601FEBC39A500EEAC350
:100B930094FD4006EBC39403400E0922EBC394FD7E
:100BA3004006EAC3940340F22274F5120200ECFEFD
:100BB300EDFF890A89087509007808120347EAFCE2
:100BC300EBFDEEFAEFFB12214E74021201BFE50AB0
:100BD3001203850202060CE00B060CF40B8E828FC7
:100BE30083E0F8A3E0F98E828F83E8F0A3E9F08035
:100BF300128E828F83780812014E8E828F8378083B
:100C030012015D020B4D74F512020074FA1201A970
:100C1300EAFEEBFFECFAEDFBE91203850202290C75
:100C23002F0C290C4B0CEEFCEFFD80388E828F834A
:100C3300E0FCA3E0FD851082851183ECF0A3EDF0C9
:100C430085108285118380188E828F837808120124
:100C53004E74021201F4780812015D74021201F459
:100C6300AC82AD8389087509007808120347122105
:100C73004E74021201BF74061201BF020B4D74F7CA
:100C83001202007508AE75090078081203477C004C
:100C93007D007A217B041221ED74021201BF7508D5
:100CA3003A78081203477C007D007ACF7B04122137
:100CB300ED74021201BF7F0202026074F51202009A
:100CC300E9FC780079007E007F007D0074016C7080
:100CD300097A217B0475090680077ACF7B0475099D
:100CE3000274012509F50A8808800EEAFEEBFF0568
:100CF30008EA241DFAEB3400FBE508C39509502BE1
:100D03008A828B83E0601D74016C70E30DE06404E0
:100D130060DDA3E0F50BC3950A50D4EAF8EBF9853F
:100D23000B0A80CB74026C70C28033EE7001EF70DB
:100D330020E87001E970067A007B008021E8FEE973
:100D4300FF8E828F83A3E0FAECF9120D66E508802B
:100D53000874012D8E828F83A3F0EEFAEFFB7F04DC
:100D6300020260C082C08374016970317821790402
:100D7300A2AFE492E0FDC2AF7B0688828983E06084
:100D83000BA3E0FCEAC39C5003E014F0E8241DF835
:100D9300E93400F91BEB70E2EDA2E092AFD083D00F
:100DA300822274F112020074F61201A97404120172
:100DB300F4EAF0A3EBF08C09851082851183E4F04B
:100DC300A3F0F50EF50F74061201F4E4F0A3F0742A
:100DD3000169703B7E217F04750C0774041201F4D2
:100DE300E02401F8A3E03400F9E8FAE9FB74041203
:100DF30001F418120FC3FC74016C70358A828B8363
:100E0300E0F9120A4B8A0E8B0FEA7001EB70077A36
:100E1300007B00020FB78A828B83A3A3A3A3A3A3A0
:100E2300A3A3E0F508EA2402F8EB3400F974088080
:100E330043EC70098A828B83E0F508803F74026C6F
:100E430070CD8A828B83E0F8A3E0F9E82411F58260
:100E5300E93400F583E0F508E82408FAE93400FBF7
:100E630074081201F4EAF0A3EBF0E82412F8E93471
:100E730000F974061201F4E8F0A3E9F074016509BE
:100E830070057509018003750903750D06A2AFE4AA
:100E930092E0FAC2AF8E828F83E065096003020F8E
:100EA300967404F0EAA2E092AFEE240EF582EF34DA
:100EB30000F583E0543F6508707274041201F41264
:100EC3000FC1FA74016A7014743F65087009E50E66
:100ED3002402F8E50F800FEE240A800874026A707A
:100EE30012EE2406F8EF3400F974021201F4E8F06C
:100EF300A3E9F0750A04750B00780A120347740A14
:100F03001201F4E0FCA3E0FD74041201F4120FCB10
:100F13001201BF74041201F4120FC1603674061279
:100F230001F4E07002A3E0700CEA60278E828F83E5
:100F3300E509F08063780A120347EE240AFCEF34D4
:100F430000FD74081201F4120FCB1201BFEA700105
:100F5300EB70D98E828F83A3AA82AB83E0C3950CF7
:100F630050CA851082851183E07002A3E060118569
:100F73001082851183E0F8A3E0F5838882E509F008
:100F83008A828B83E0F50C851082851183EEF0A3B2
:100F9300EF809FEAA2E092AFEE241DFEEF3400FF44
:100FA300150DE50D6003020E90851082851183E017
:100FB300FAA3E0FB740A1201BF7F08020260E0F8A3
:100FC300A3E0F5838882E022E0FAA3E0FB1220ADE0
:100FD30074022274016970057A217B04227ACF7B23
:100FE300042274F8120200EAFEEBFF900509E07098
:100FF300131204F3EEFAEFFB1209AAE9700C1208BC
:101003008D1206FC7401F0121C927F010202607FB4
:101013000202026074F7120200E9FBEAF9ECFEED4A
:10102300FF900509E07013EB1203BB0002053D10AE
:101033000A3D10381079020210CEEB120385020626
:1010430038106F108B1094105C1053109910BE1051
:10105300EEFAEFFB121A7580727401696003E9708E
:10106300D4EEFAEFFB121A33806180C974036970FE
:1010730009EEFAEFFB1218A4805174026970B6EE00
:10108300FAEFFB1219268043EEFAEFFB1219978051
:101093003A121A228035740169709A750804750929
:1010A300007808120347121867EAFCEBFDEEFAEF2B
:1010B300FB12210674021201BF800E74016970AA2B
:1010C30012186CE98E828F83F07900021012C082AD
:1010D300C083E490050DF0742090050EF090050F89
:1010E300EAF0A3EBF012184E90050BEAF0A3EBF035
:1010F3001208E1E990050AF060F6D083D0822274E9
:10110300F112020089088A0E8B0F8C0A8D0979026D
:10111300120CBE8A0C8B0DA80CA90DE8FEE9FFE8A2
:101123007001E970077A007B000211C3740E250A6F
:101133008E828F83A3A3F0EE240E121531548045C3
:1011430008F090050AE0C0E0EE2410F582EF3400C9
:10115300F583D0E0F090050AE004F060F8EE240F88
:10116300FAEF3400FB8A828B83E054BF75830575E5
:10117300820DFCE04C54F8450954778A828B83F046
:1011830088828983E0C2E7F0750B00780A1203476F
:10119300AC0EAD0FEE24110A0A1211C81201BF756D
:1011A3000804750900780812034790050BE0FCA3B7
:1011B300E0FDEE240AFA1211C81201BFEEFAEFFBAA
:1011C3007F08020260EF3400FB1213272274F71228
:1011D30002007901120CBE8A088B09A808A909E844
:1011E300FEE9FFE87001E96013EE24020A0AEF3416
:1011F30000FB1206E9EEFAEFFB1213427F02020232
:101203006074F112020074FE1201A9851082851127
:1012130083ECF0A3EDF08A0A8B0B74111201F4E056
:10122300F50CA3E0F50D74151201F4E0F50EA3E03F
:10123300F50FE4850C82850D83F07C017901120D95
:10124300A58A088B09AE08AF09EE7001EF7003029F
:101253001312750800750900850A82850B83E06403
:10126300017015A3E0F9120A4B8A088B09EA700191
:10127300EB700579020213148E828F83A3A3E024FB
:10128300F2F50A850C82850D83F0750B00780A123E
:101293000347EE2411FCEF3400FD74021201F41233
:1012A300131C1201BFE5087002E509600FEE241B51
:1012B30012132DF0EE241C12132DA3F0741312013C
:1012C300F4E07002A3E0601E750804750900780855
:1012D300120347EE240AFCEF3400FD74151201F4E7
:1012E30012131C1201BFE50E7002E50F600C1216FB
:1012F300F15407850E82850F83F08E828F83A3E0DE
:10130300FA7901120D66E48E828F83F0F9800279F7
:101313000474021201BF0211C3E0FAA3E00211CB6D
:10132300AA82AB83122106740222F582EF3400F500
:1013330083E0850882850983A3A3A3A3A3A32274BF
:10134300F312020074FE1201A98A088B09EA240E23
:10135300F582EB1216F7543FF50B750C04750D006F
:10136300780C12034790050BE0FCA3E0FDEA240A86
:10137300FAEB1217F91201BFEA7001EB700DE48565
:101383000882850983F07402021623E508240EF50A
:1013930082E5091216F7A2E640E4E50B60E0C39488
:1013A30007502F1214E4E50BC333245CF582E434B5
:1013B30005F5831214DB1201FEE9FA74016A700465
:1013C300740180BB74026A70B5AA08AB0912153C9C
:1013D30080B4743F650B600EE50BC39420409FE51A
:1013E3000BC3943F5098E5082406FEE5093400FF3B
:1013F300780C120347EEFCEFFD90050BE0FAA3E037
:10140300FB1220AD74021201BFEA7001EB70057587
:101413000A018023750A00743F650B706B780C1208
:10142300034712189FEEFCEFFD1220AD7402120168
:10143300BFEA7001EB7051851082851183AC82ADD8
:10144300831214E4120A93E97003021381E50A700C
:1014530007AA08AB0912153C740185088285098324
:10146300F090050FE07002A3E0700302138985106A
:1014730082851183E0F990050F1214DB1201FEE956
:10148300600302138102138974011201F4AC82AD6B
:1014930083EEFAEFFB121C95EA7001EB6023121442
:1014A300E41216FDE96003021381E508240EF582B8
:1014B300E5091216F7A2E75003021381740302131E
:1014C30082E508240FF582E5091216F754306420EB
:1014D30060030213CC021381E0F8A3E0F583888252
:1014E30022E5082402FAE5093400FB2274F812020B
:1014F30000EAFEEBFFE9FAEE240F12153154CF7523
:10150300830575820EFBE04B88828983F0EAF9EE4E
:101513002402FAEF3400FB120620E97004790080FC
:10152300027909E48E828F83F07F01020260F8EF73
:101533003400F988828983E02274F8120200EAFEFB
:10154300EBFF1216F1FA74075AFB74FF2BFCEB60E6
:101553001774F85A4CF07A017B001208EC7901EE0B
:10156300FAEFFB1214EF8006E48E828F83F080B9CA
:1015730074F312020074FD1201A98A0C8B0D890801
:10158300EA2508F8EB3400F9740F28F582E439F5FD
:1015930083E0F5097402851082851183F0740112CA
:1015A30001F4EAF0A3EBF07C02851082851183AA93
:1015B30082AB837901120DA58A0A8B0BA80AA90BAA
:1015C300E8FEE9FFE87001E96006EEFAEFFB804E02
:1015D3007902120FD68A0A8B0BAE0AAF0B7508007D
:1015E3008E828F83E06403702A750A04750B00787A
:1015F3000A120347E50C2408FCE50D1217F112014A
:10160300BFEA7001EB700CEE240E1216F4543F6522
:101613000960B71217E3940240C67A007B00740393
:101623001201BF7F0602026074F512020074E51214
:1016330001A9EAFEEBFFEE24111216F4F508740D6E
:101643001201F4E0548F75830575820DFAE04A4464
:1016530020C0E0740D1201F4D0E0F0750A04750B9C
:1016630000780A120347EE2408FCEF3400FD7406E9
:101673001201F41213231201BF780A120347EE2456
:1016830012FCEF3400FD740A1201F4121323120149
:10169300BF740C1201F4E054C04508FAF0740E85CF
:1016A3001082851183F090050AE0C0E0740E1201E8
:1016B300F4D0E0F090050AE004F0740D1201F4E0B8
:1016C3005471F0D2E0F074BF5A4480C0E0740C123D
:1016D30001F4D0E0F07900851082851183AA82ABF2
:1016E30083120620741B1201BF7F04020260EE24E2
:1016F3000FF582EF3400F583E02274F11202008AC1
:101703000A8B0B8A828B83E024F5F5097901120F8A
:10171300D68A0C8B0DAE0CAF0D750800850982853A
:10172300820E8E828F83E0640360030217D4A3A327
:10173300E0F874F528F874FF3400F9E50E687001D9
:10174300E960030217D4750C04750D00780C1203BD
:1017530047E50A2404FCE50B1217F11201BFEA70F6
:1017630001EB706D780C120347E50A2408FCE50BC6
:101773003400FDEE240A1217F71201BFEA7001EBE1
:10178300704F750C01780C120347E50A240CFCE535
:101793000B3400FDEE240E1217F71201BFEA70019D
:1017A300EB702E74FE250EF50C74FF3400F50D78E6
:1017B3000C120347E50A240EFCE50B3400FDEE246E
:1017C300101217F71201BFEA7001EB700479018060
:1017D3000C1217E39406500302172579000211C374
:1017E3000508EE241DFEEF3400FFE508C322340094
:1017F300FDEE2406FAEF3400FB1220AD7402222220
:1018030079002274F712020075080475090078083C
:101813001203477C007D007A117B051221ED7402CF
:101823001201BF900519E0701B78081203477C6A08
:101833007D057A157B0512210674021201BF74011E
:10184300900519F080007F02020260C082C083907D
:101853000519E060067A157B0580047A6A7B05D05A
:1018630083D082227A6F7B052279022274F71202D7
:10187300007900900519E07021750804890978083A
:10188300120347EAFCEBFD7A157B0512210674026D
:101893001201BF7401900519F0F980AA7A337B0510
:1018A3002274F5120200EAFEEBFF8E828F83A3A35C
:1018B300A3A3A3E0F91203BB010506C6180103C6DF
:1018C30018CA187D0180027D038E828F83A3A3A390
:1018D300A3E0FC8E828F83A3A3E0FAA3E0FB1211A3
:1018E300028A088B09A909EA7001E9602F750A04C5
:1018F300750B00780A1203478E828F83E0FCA3E006
:10190300FDEA2406FAE93400FB12210674021201EF
:10191300BF7901AA08AB091214EF800279037F048F
:1019230002026074F712020074FD1201A9E485102B
:1019330082851183F08A828B83A3A3A3A3A3E0C030
:10194300E074011201F4D0E0F0EA2406F508EB3468
:1019530000F50978081203478A828B83120358EA39
:101963002404F508EB3400F50978081203478A824A
:101973008B83A3A3E0FCA3E0FD74061201F4AA8207
:10198300AB8312120474061201BF74031201BF7FEA
:101993000202026074F5120200EAFEEBFF75080012
:1019A300740469700812071A1208A4806D7405691B
:1019B300700812088D1206FC806074066970398EF7
:1019C300828F83E0F9120A4BEA7001EB700479020B
:1019D300804A750A02750B00780A120347EA240647
:1019E300FCEB3400FD8E828F83A3AA82AB8312218A
:1019F3000674021201BF8022740769700B1208BDBE
:101A0300E98E828F83F0801274086960A874096973
:101A1300700512071A8003750802A90802192174B8
:101A23000B697004790180027902121D0979002281
:101A330074F7120200EAFEEBFF7508027401697085
:101A430020750804750900780812034712184EEA36
:101A5300FCEBFDEEFAEFFB12210674021201BF80CC
:101A630009E9700912186FE96003750800A90802F3
:101A7300199274F7120200E9FC8A828B83E0F974ED
:101A83000E6C60047902801374FF6960F7120A4BCD
:101A9300EA7001EB60EE120A4A790002199274F5BA
:101AA300120200900573780812014E758305758242
:101AB3001A78081201397010900577780812014ED0
:101AC30090051A780812015D90051EEAF0A3EBF069
:101AD3001208E1E9900520F090057B780812014E89
:101AE300AA08AB09AC0AAD0B121DCEE4900523F096
:101AF300120A84900521EAF0A3EBF07F040202604E
:101B030074F312020074F41201A9EAFEEBFF8E8251
:101B13008F83E0F874F228F874FF3400F9C3E89473
:101B230008E99400A2D265D0334018EE2416F5825A
:101B3300EF3400F583E0F50812186CE965086003DB
:101B4300021C88790474011201F4AC82AD83EE2483
:101B530011FAEF3400FB120BACC082C08390051A5C
:101B6300780812014ED083D08278081201396003BD
:101B7300021C8874011201F4AA82AB83121DEF794F
:101B83000474071201F4AC82AD8374011201F4AA48
:101B930082AB83120C09740B1201F4E4F074051286
:101BA30001F47481F0EE2410F582EF3400F583E044
:101BB300C0E074061201F4D0E0F07D017C077405E7
:101BC3001201F4AA82AB8379031211028A088B09EA
:101BD300A808A909880A890BE87001E97003021CA7
:101BE30088EE2408F508EF3400F509750C04750D2B
:101BF30000780C120347AC08AD09EA2406FAE9346D
:101C030000FB12210674021201BFEE240DF582EFD0
:101C13003400F583E0A2E65063851082851183AC1E
:101C230082AD83AA08AB09121C95EA7001EB7047D9
:101C3300900521E0FEA3E0FF8E828F83E0FAC39438
:101C4300035042780C120347AC08AD09EA75F0055E
:101C5300A4F8A9F0900521E028FAA3E0398A82F5D7
:101C630083A3AA82AB8312210674021201BF8E8260
:101C73008F83E004F08005E0F9121FEF7900AA0AD0
:101C8300AB0B1214EF740C1201BF7F0602026079D2
:101C9300002274F11202008A0E8B0F8C088D0990BA
:101CA3000521E02401FEA3E03400FF750A00800A49
:101CB300050AEE2405FEEF3400FF900521E0F8A3AA
:101CC300E0F5838882E0FAE50AC39A5030750C0484
:101CD300750D00780C120347AC0EAD0FEEFAEFFB57
:101CE3001220AD74021201BFEA7001EB70C28508C5
:101CF30082850983E50AF0EEFAEFFB80047A007B24
:101D0300007F08020260C082C0837401697004749A
:101D1300018001E4900523F0D083D0822274F8126D
:101D23000200EAFEEBFF7508007D017C00900520B0
:101D3300E0F9120AF8E9FB700812090E7508018030
:101D43004D74016B7005750802804374026B703E1D
:101D5300900523E06038EE240FF8EF3400F98E820B
:101D63008F83E0FA74F22AFA74FF3400FB74076A73
:101D73007001EB7009740188828983F0800988827D
:101D83008983E064017007EEFAEFFB121B03A908D5
:101D93007F0102026074F512020090057378081245
:101DA300014E7583057582247808120139701090ED
:101DB300057F780812014E900524780812015D1200
:101DC30008E1E9900529F060F6803D74F512020000
:101DD3008A088B098C0A8D0B9005737808120139D8
:101DE3006008900524780812015D801C74F51202C6
:101DF30000EA7001EB6011900524780812014E8A05
:101E0300828B83780812015D7F0402026074F812EA
:101E13000200EAFEEBFF7D017C00900529E0F91248
:101E23000AF8E9FB700712090E7901804674016B09
:101E330070047902803D7C00EE240FF8EF3400F942
:101E43008E828F83E0FA74F22AFA74FF3400FB74F3
:101E5300086A7001EB7009740188828983F0800934
:101E630088828983E064017008900528E070020C81
:101E73000CECF97F0102026074F71202001208E110
:101E8300E990052DF07508037509007808120347DA
:101E93007C007D007A2A7B051221ED74021201BFBA
:101EA3007F0202026074F7120200EAFEEBFF7D017B
:101EB3007C0090052DE0F9120AF8E9FB700712097E
:101EC3000E7901804774016B70047902803E7508B6
:101ED30004750900780812034712184EEAFCEBFD5B
:101EE300EE2404FAEF3400FB1220AD74021201BF9A
:101EF300EA7001EB70D4EE240FF582EF121FDE645B
:101F0300017007EEFAEFFB121F117900809274F64D
:101F130012020074FF1201A9EAFEEBFFEE2410F592
:101F230082EF121FDEF50A851082851183AC82AD24
:101F330083EE2408FAEF3400FB121C95EAF8EBF960
:101F4300EA7001EB7003021FD0E82404F508E934BA
:101F530000F509121FE4E07016850882850983E500
:101F63000AF0851082851183121FE474018012AA7E
:101F73000A850882850983E0F9120B84E9604EE53E
:101F83000AF07902EEFAEFFB1215738A088B09A89F
:101F930008A909E87001E9602D88828983A3E0FA22
:101FA3007901120D66E508240F121FDA54F8440173
:101FB300F0E508240E121FDAD2E7F07900AA08AB85
:101FC300091214EF8007EEFAEFFB12162B740112BD
:101FD30001BF7F03020260F582E5093400F583E067
:101FE30022E0242AF582E43405F5832274F71202F1
:101FF30000E9121FE5E4F0021EA3C082C0831208A9
:10200300E1E990052EF0D083D082227F04020260A2
:1020130074F5120200EAFEEBFF7D017C0090052EB1
:10202300E0F9120AF8E9FA700712090E79018073D0
:1020330074016A70047902806AEE240FFAEF3400A7
:10204300FB8A828B83E0640170577D038E828F83CA
:10205300E024F2FC79011211028A088B09A909EA2A
:102063007001E9603C750A04750B00780A12034796
:10207300EE2408FCEF3400FDEA2406FAE93400FB01
:1020830012210674021201BFE5082411F582E50945
:102093003400F583E0D2E7F07900AA08AB09121403
:1020A300EF790002200E2279002274F812020074E4
:1020B300081201F4E0F8A3E08015A3AA82AB838C95
:1020C300828D83A3AC82AD83E824FF18E934FFF942
:1020D300E87001E960248A828B83E0FE8C828D8321
:1020E300E06E8A828B8360D2E0F88C828D83E0FA83
:1020F300E8C39AFAE49400FB80047A007B007F0132
:1021030002026074F712020074091201F4E0FEA3E4
:10211300E0FFEAF8EBF980188C828D83E0888289EE
:1021230083F0A3A882A9838C828D83A3AC82AD8321
:102133008E088F0974FF25081E74FF3509FFE50813
:102143007002E50970D27F0202026074F712020086
:1021530074091201F4E0F8A3E0F9EAFEEBFF8A0840
:102163008B09C3EA9CEB9D405EEC28F582ED39F5C3
:1021730083C3E5829508E5839509404BEA28FAEB8A
:1021830039FBAC82AD831221DC7002E5096041ECBE
:1021930024FF1CED34FFFDEA24FF1AEB34FFFB8C14
:1021A300828D83E08A828B83F080DB8C828D83E057
:1021B3008A828B83F08C828D83A3AC82AD838A82E7
:1021C3008B83A3AA82AB831221DC7002E50970DB47
:1021D300EEFAEFFB7F020202608808890974FF258B
:1021E300081874FF3509F9E5082274F8120200741F
:1021F300081201F4E0F8A3E0F98A828B838003ECF0
:10220300F0A3E8FEE9FF74FF2E1874FF3FF9EE70A8
:0922130001EF70EB7F0102026093
:0000D3012C
:00000001FF
