:030000000200D328
:100083000206E500000080FB1200E2B90003020053
:10009300CDE490040078B679018002F0A3D8FCD9AE
:1000A300FA9004B5AA82AB839000E5783D7901808C
:1000B30015E493A3AC82AD838A828B83F0A3AA82D7
:1000C300AB838C828D83D8E9D9E712046112008651
:1000D30075D00075813F75100075110402008B798E
:1000E3000122FFFFFFFF0F14191A2575D501000028
:1000F30000000000000000000000000000FA1910DA
:10010300199318911A4A148C197756341202010163
:100113000100000000000807060504030201E06671
:10012300701008A3E066700A08A3E066700408A3D1
:10013300E06622E0F608A3E0F608A3E0F608A3E0F1
:10014300F622E6F008A3E6F008A3E6F008A3E6F03B
:1001530022CAC0E0E6F0A308DAFAD0E0FA22CAC065
:10016300E0E0A3C582CCC582C583CDC583F0A3C51A
:1001730082CCC582C583CDC583DAE6D0E0CA2260CE
:100183000C08C6C313C618C613C6D5E0F42225103F
:1001930010AF08F510400215118008F51040021544
:1001A30011D2AF22C0D0251010AF08F510500205B0
:1001B300118008F51050020511D2AFD0D0222510BE
:1001C300F58210AF08F510400215118008F51040B4
:1001D300021511D2AF851183222510F582E4351162
:1001E300F58322E4732510C582C0E0E51134FFC511
:1001F30083C0E0E510C3958224F9F8E4C5A885839C
:1002030011858210C5A8E8CEF0A3E520F0A37808F5
:10021300E608F0A3DEFAEFF0A3E58124FBF8E60895
:10022300F0A3E608F0A30808E608F0A3E608F0A3A5
:1002330015811581D0E0FED0E0F815811581E8C065
:10024300E0EEC0E022851183851082E0A3FEE0A3E7
:10025300F5207808E0A3F608DFFAE0A3FFE0A3C0E7
:10026300E0E0A3C0E0E0A3C0E0E0A3C0E0E4C5A8F1
:10027300858210858311C5A8D083D08222C0D02562
:1002830010C582C0E0E51134FFC583C0E0E510C3AB
:10029300958224F310AF0885831185821080088529
:1002A3008311858210D2AFC8F0A3E9F0A3EAF0A3CB
:1002B300EBF0A37908E709F0A3D8FAECF0A3EDF08B
:1002C300A3EEF0A3EFF0A3D0E0F0A3D0E0F0A3D02F
:1002D300E0F0A3E520F0A3E5F0F0A32285118385E8
:1002E3001082E0C0E0A3E0F9A3E0FAA3E0FBA37867
:1002F30008E0F608A3DFFAE0FCA3E0FDA3E0FEA319
:10030300E0FFA3E0C0E0A3E0C0E0A3E0F5D0A3E0FA
:10031300F520A3E0A3F5F0E4C5A885831185821039
:10032300C5A8D082D083D0E0F8D0E0327402800038
:10033300C0E0F4041201C1D0E0120154227402801F
:1003430000CCC0E0EDC0E0E510C39CCCAD11500182
:100353001D10AF068C108D1180068C108D11D2AF3D
:10036300120161D0E0FDD0E0FC22D083D082C5F041
:10037300E493A3C5F0C395F0F5F0E493A3C395F01C
:100383004005E5F0048001E475F002A42582F582BE
:10039300E5F03583F583E493A3C0E0E493C0E02262
:1003A300D083D082CCC0E0E493A360061203CD14C3
:1003B30070FAE493A360061203EC1470FAD0E0FC25
:1003C300E493A3C0E0E493C0E022C0E0E493A3D3AA
:1003D3009C5010E493A3C39C400AD0E0D0E0D0E04B
:1003E3000203C0A3A3A3D0E022C0E0E493A36C70F4
:1003F30009D0E0D0E0D0E00203C0A3A3D0E022C044
:1004030082C08374FE12019112044F12045A8510A4
:100413008285118374AAF0A3E4F085108285118389
:10042300E07004C2AF80FE74021201A7D083D082B1
:100433002275CB4475CC04EA33333354F8F5CD43FA
:10044300CB10A2D950FC75CB00C2D92243FE014385
:10045300FE02C290C29122438F0243F7012212048B
:1004630002800A1204817AE87B031208997A007BDE
:1004730000120EEBE9790170EA12048180FE120486
:100483008A790212048A227401697006639001E575
:1004930090227402697005639002E5902274F7124A
:1004A30001E875081B750900780812032F7C007D8D
:1004B300007A017B04121BD474021201A790624AD2
:1004C300E064A56004C2AF80FE906249E07004C29C
:1004D300AF80FE53BEFBE59DA2E650FA0078F879A3
:1004E30001001207CF7001E970F775C600E59E7031
:1004F300FC43BE0474149061A9F0743F9061ABF0A7
:1005030074F8906196F074859061A8F0745A9061C4
:10051300ACF074159061B2F0E4906182F0741090C5
:1005230061B5F0740E9061B6F074039061B7F07426
:10053300099061FAF074FF9061E5F0906172F090B8
:100543006173F0906189E054F34408F075E1E3903E
:100553006199E0A2E050F8780079007C10E8C33399
:10056300F8E933F99061A7E0A2E0E492E048F81CCF
:10057300EC70EA748048F5BCE9F5BC75E1EF75E110
:10058300ED75E1ED906189E054F3F074019004009E
:10059300F0906180E0C2E0F0906181E05497F090C8
:1005A300618AE0C2E0F0747F906194F079001207F1
:1005B300D97902120813439A0190041E7433F0A3ED
:1005C300E4F0120980D2AF02080E74F71201E8EAD0
:1005D300FEEBFF8909750800900400E064017004D4
:1005E300C2AF80FE1209665391FD900420E08E8213
:1005F3008F83A3A3A3F0900420E004F074018E8200
:100603008F83A3F074888E828F83A3A3F075E1EEAA
:100613008E828F83E0FB74022BF5D97A008005A3C9
:10062300E0F5D90AEAC39B40F6E509700B75E1E9E9
:10063300E591A2E1404A80F8740165096004C2AF04
:1006430080FE7E0480071E12096612098075E1E3AD
:10065300906199E0A2E050F8A2AFE492E0FAC2AF51
:1006630075E1EA906193E05408FBEAA2E092AFEBF4
:100673006008E591A2E1400880F8EE70C9750801B1
:10068300120966900400E064037003120956A90876
:1006930002080EC082C083900401EAFCEBFD741BC8
:1006A30012016102084CC082C083900400E064011F
:1006B3007004C2AF80FEE0640360067403F01209A5
:1006C3005602084CC082C083900400E064017004A9
:1006D300C2AF80FEE0640370061209667402F00282
:1006E300084CC0E074ED120280900400E0640360E3
:1006F30004C2AF80FEE5E9A2E250FA906193E0A262
:10070300E6500EE0A2E7400975E1ED75E1ED020761
:10071300BB53E9FB747F55D9F508F58285820A74CA
:10072300FF1207C6C3E8941AE99400A2D265D03336
:100733005007E508C3940E500D7A00EAC39508509C
:100743006EE5D90A80F57E017F04750C19750D00DD
:10075300780C12032F7C007D007A017B04121BD4DA
:1007630074021201A774FE2508900401F074FE12AE
:1007730007C68E828F83A3AE82AF83E5D9F01207BB
:10078300CF7001E970EC74B425D990041AF0E5D95F
:10079300FAA2E7501A747F5A90041BF0900402E007
:1007A3006401700B900403E0648870031210D3900B
:1007B300619BE060030206F8759B0053E9FB7F062B
:1007C3000202DF250AF874FF3400F922E824FF1837
:1007D300E934FFF9E82274F71201E88908E9C394C0
:1007E300044004C2AF80FE12096675F005E50824D3
:1007F300B9F582E43404F583E0A424D490618FF046
:10080300900400E0640370031209567F0202024859
:1008130074F71201E88908120966E50824BDF58218
:10082300E43404F583E0906190F0900400E0640305
:10083300700312095680D4C082C083900400E06420
:100843000170037402F08001F0D083D08222C08251
:10085300C083900400E0640160061206C77401F0CF
:1008630080E77F01020248C082C083900400E064F5
:10087300036004C2AF80FE906199E0A2E050F8905B
:100883006198E0FA74B42AF902084C74F355B4443D
:1008930004F5B4A9BD2274F81201E8EAFEEB800E58
:1008A3007AE87B0312099AEE24FF1EEF34FFFFEE72
:1008B3007001EF70EB02086574F61201E890041EF4
:1008C300E0F508A3E0F509A2AFE492E0FAC2AF7441
:1008D3000190041CF0EAA2E092AF800CE50824FF2B
:1008E300F508E50934FFF509E5087002E509603507
:1008F3007E3E7F00A2AFE492E0F50AC2AF7A107B9E
:1009030000120434E50AA2E092AF90041DE07012D5
:10091300EEF8EFF974FF281E74FF39FFE87001E960
:1009230070D2E060B7A2AFE492E0FAC2AFE4900401
:100933001DF090041CF0EAA2E092AF7F030202488C
:10094300C082C08390041CE06006740190041DF013
:1009530002084CC082C08375E1E39061A3E0D2E258
:1009630002084BC082C0839061A3E0C2E2F075E14C
:10097300EF75E1ED75E1ED75E9FB02084CEEC0E0C2
:1009830012088EE9540F04FE7AFA7B0012099A1EAC
:10099300EE70F5D0E0FE2274F71201E88A088B09A5
:1009A30074047808120182AE08AF09EA7001EB60A3
:1009B30028A2AFE492E0F508C2AF7A107B001204DC
:1009C30034E508A2E092AFEEF8EFF974FF281E7445
:1009D300FF39FFE87001E970D802080EC082C083B6
:1009E300900400E0F902084C74F71201E8EAFEEB08
:1009F300FF75080F750900780812032F7C007D002E
:100A03007AC17B04121BD474021201A774019004EF
:100A1300C1F0743D9004C2F074209004C3F07401DB
:100A23009004C4F012144DEEFAEFFB120FD2120C25
:100A3300381214491219E4EEFAEFFB1216F91219DF
:100A43007B1218B4121A909004C5E070347402F04B
:100A530074039004C6F0743F9004CDF09004CEF07C
:100A630074FF9004CFF0750804780812032F121551
:100A730008EAFCEBFD7AC77B04121AED740212013B
:100A8300A779007F0202024822C082C08374FF124A
:100A93000191851082851183AA82AB83120B9EE993
:100AA3006014E075F00BA424C5F582E5F03404F579
:100AB30083E064026006758200758300AA82AB83BB
:100AC300800074011201A7D083D0822274F712012F
:100AD300E8ECFEEDFFEA240CF582EB3400F583E04D
:100AE300543FFC9004C5E0640270419004CDE06C77
:100AF300703A743F6C602575080475090078081214
:100B0300032FEA2408FCEB3400FD7AC77B04121A96
:100B13009474021201A7EA7001EB70109004CFE005
:100B23008E828F83F0120943790180027900020AD1
:100B33008674F51201E8EAFEEBFF7508028C0AEEF3
:100B4300250A120B8EA2E7503B8D08EE2508120BE7
:100B53008E69702D750804750900780812032F1229
:100B63001498EAFCEBFDEE2404FAEF3400FB121AAE
:100B73009474021201A7EA7001EB700575080080F6
:100B830003750801A9087F04020248FAEF3400FB49
:100B9300740F2AF582E43BF583E022C082C0839080
:100BA30004C5E0640270119004CFE069700AE48A1E
:100BB300828B83F0790180027900020ACA74F512EC
:100BC30001E874FA120191EAFEEBFFECFAEDFBE99E
:100BD30012036D0202E00BE60BE00B020CEEFCEFDE
:100BE300FD80388E828F83E0FCA3E0FD8510828533
:100BF3001183ECF0A3EDF085108285118380188EAC
:100C0300828F83780812013674021201DC7808128D
:100C1300014574021201DCAC82AD838908750900B9
:100C2300780812032F121B3574021201A7740612DF
:100C330001A7020B8974F71201E875083A750900D8
:100C4300780812032F7C007D007A217B04121BD4C9
:100C530074021201A7780812032F7C007D007A5BCF
:100C63007B04121BD474021201A77F020202487490
:100C7300F61201E8E9FC780079007E007F007D0030
:100C830074016C70067A217B0480047A5B7B0475A3
:100C9300090388088A828B83E0601D74016C7021CC
:100CA3000DE06404601BA3E0F50AC395095012EA42
:100CB300F8EBF9850A09800974026C6048EAFEEBD7
:100CC300FF0508EA241DFAEB3400FBE508C3940290
:100CD30040C2EE7001EF7020E87001E970067A00FF
:100CE3007B008021E8FEE9FF8E828F83A3E0FAEC8C
:100CF300F9120D0DE508800874012D8E828F83A3F0
:100D0300F0EEFAEFFB7F03020248C082C083740156
:100D130069703178217904A2AFE492E0FDC2AF7B20
:100D23000288828983E0600BA3E0FCEAC39C500342
:100D3300E014F0E8241DF8E93400F91BEB70E2ED50
:100D4300A2E092AFD083D0822274F11201E874F84A
:100D5300120191851082851183EAF0A3EBF08C0ACE
:100D630074021201DCE4F0A3F0F50EF50F740169CF
:100D730070237E217F04750C03120ED1FA74016A6D
:100D8300703D120EDEA3E0F9120A8C8A0E8B0FEA75
:100D93007001EB70077A007B00020EC78A828B8397
:100DA300A3A3A3A3A3A3A3A3E0F508EA2402F8EB58
:100DB3003400F974061201DCE8F0A3E9F0800AEAD2
:100DC30070D3120EDEA3E0F5087401650A70057591
:100DD30009018003750903750D02A2AFE492E0FADD
:100DE300C2AF8E828F83E065096003020EA774048D
:100DF300F0EAA2E092AFEE240EF582EF3400F58321
:100E0300E0543F65086003020E9F120ED164017027
:100E130021743F65087009E50E2402F8E50F80058B
:100E2300EE240AF8EF3400F974041201DCE8F0A3AD
:100E3300E9F0750A04750B00780A12032F7408127F
:100E430001DCE0FCA3E0FD74061201DCE0FAA3E0A0
:100E5300FB121A9474021201A7120ED16003EA70F6
:100E63003B8E828F83A3AA82AB83E0C3950C502C65
:100E730074021201DCE07002A3E0600D740212013F
:100E8300DCE0F8120EE4E509F08A828B83E0F50CCE
:100E930074021201DCEEF0A3EFF0800D8E828F83DB
:100EA300E50980F5EAA2E092AFEE241DFEEF3400DF
:100EB300FF150DE50D6003020DDD74021201DCE088
:100EC300FAA3E0FB74081201A77F08020248851009
:100ED30082851183E0F8120EE4E0228510828511E9
:100EE30083A3E0F58388822274F81201E8EAFEEB1B
:100EF300FF900495E070131204A0EEFAEFFB1209C1
:100F0300EBE9700C12083A1206A97401F012173AB1
:100F13007F010202487F0202024874F71201E8E9E6
:100F2300FBEAF9ECFEEDFF900495E07013EB12037E
:100F3300A3000205430F0A430F3E0F7902020FCFAE
:100F4300EB12036D02063E0F750F910F3E0F620FFA
:100F5300590F9A0FBF0FEEFAEFFB1216CD806D7487
:100F630001696003E970D4EEFAEFFB12168B805C23
:100F730080C97403697009EEFAEFFB12150D804CFA
:100F830074026970B6EEFAEFFB12158F803EEEFA2B
:100F9300EFFB1216008035740169709F75080475A4
:100FA3000900780812032F1214B1EAFCEBFDEEFAE4
:100FB300EFFB121AED74021201A7800E740169701F
:100FC300AF1214B6E98E828F83F07900020F18C036
:100FD30082C083E4900499F0741090049AF0900412
:100FE3009BEAF0A3EBF0121498900497EAF0A3EBBA
:100FF300F012088EE9900496F060F6D083D0822236
:1010030074F11201E889088A0E8B0F8C0A8D097915
:1010130002120C728A0C8B0DA80CA90DE8FEE9FFD5
:10102300E87001E970077A007B000210C4740E2592
:101033000A8E828F83A3A3F0EE240E1213FB548037
:101043004508F0900496E0C0E0EE2410F582EF34FA
:1010530000F583D0E0F0900496E004F060F8EE240D
:101063000FFAEF3400FB8A828B83E054BF7583044D
:10107300758299FCE04C54F8450954778A828B8336
:10108300F088828983E0C2E7F0750B00780A1203C7
:101093002FAC0EAD0FEE24110A0A1210C91201A7CC
:1010A300750804750900780812032F900497E0FC73
:1010B300A3E0FDEE240AFA1210C91201A7EEFAEF1B
:1010C300FB7F08020248EF3400FB121AED74022280
:1010D30074F71201E87901120C728A088B09A808C7
:1010E300A909E8FEE9FFE87001E96013EE24020AAA
:1010F3000AEF3400FB120696EEFAEFFB12123B7F67
:101103000202024874F11201E874FE120191851083
:1011130082851183ECF0A3EDF08A0A8B0B74111214
:1011230001DCE0F50CA3E0F50D74151201DCE0F52C
:101133000EA3E0F50FE4850C82850D83F07C017925
:1011430001120D4C8A088B09AE08AF09EE7001EF4E
:101153007003021215750800750900850A82850B54
:1011630083E064017015A3E0F9120A8C8A088B09E5
:10117300EA7001EB700579020212178E828F83A346
:10118300A3E024F2F50A850C82850D83F0750B002C
:10119300780A12032FEE2411FCEF3400FD740212BF
:1011A30001DC12121F1201A7E5087002E509600FA6
:1011B300EE241B121226F0EE241C121226A3F07446
:1011C300131201DCE07002A3E0601E7508047509C8
:1011D30000780812032FEE240AFCEF3400FD741587
:1011E3001201DC12121F1201A7E50E7002E50F6057
:1011F3000C12143D5407850E82850F83F08E828F67
:1012030083A3E0FA7901120D0DE48E828F83F0F946
:101213008002790474021201A70210C4E0FAA3E069
:101223000210CCF582EF3400F583E085088285094E
:1012330083A3A3A3A3A3A32274F31201E874FF124D
:1012430001918A088B09EA240EFEEB3400FF8E829B
:101253008F83E0543FF50B750C04750D00780C1269
:10126300032F900497E0FCA3E0FDEA240AFAEB3491
:1012730000FB121A9474021201A7EA7001EB7012B8
:10128300E4850882850983F074011201A77F0602B1
:1012930002488E828F83E0A2E640E5E50B60E1C35E
:1012A3009407502F1213A5E50BC33324CEF582E424
:1012B3003404F5831213B01201E6E9FA74016A707B
:1012C30004740180BC74026A70B6AA08AB091214D4
:1012D3000680B5743F650B600EE50BC3942040A0F8
:1012E300E50BC3943F5099E5082406FEE509340055
:1012F300FF780C12032FEEFCEFFD900497E0FAA3A6
:10130300E0FB121A9474021201A7EA7001EB700554
:10131300750A018023750A00743F650B706B780CA6
:1013230012032F121508EEFCEFFD121A9474021229
:1013330001A7EA7001EB7051851082851183AC829D
:10134300AD831213A5120ACFE97003021283E50AD3
:101353007007AA08AB09121406740185088285096F
:1013630083F090049BE07002A3E0700302128B856C
:101373001082851183E0F990049B1213B01201E6E9
:10138300E9600302128302128BE508240FF582E55C
:10139300093400F583E05430641060030212CD0277
:1013A3001283E5082402FAE5093400FB22E0F8A3DE
:1013B300E0F58388822274F81201E8EAFEEBFFE984
:1013C300FAEE240F1213FB54CF75830475829AFB34
:1013D300E04B88828983F0EAF9EE2402FAEF3400C5
:1013E300FB1205CDE97004790080027909E48E824D
:1013F3008F83F07F01020248F8EF3400F988828975
:1014030083E02274F81201E8EAFEEBFF12143DFABE
:1014130074075AFB74FF2BFCEB601774F85A4CF0FB
:101423007A017B001208997901EEFAEFFB1213B9E6
:101433008006E48E828F83F080B9EE240FF582EF6D
:101443003400F583E0222279002274F71201E87553
:101453000804750900780812032F7C007D007A9D2B
:101463007B04121BD474021201A79004A5E0701B25
:10147300780812032F7CDC7D047AA17B04121AED19
:1014830074021201A774019004A5F080031201A74E
:101493007F02020248C082C0839004A5E060067AFE
:1014A300A17B0480047ADC7B04D083D082227AE19E
:1014B3007B042279022274F71201E879009004A5D3
:1014C300E070217508048909780812032FEAFCEB00
:1014D300FD7AA17B04121AED74021201A774019024
:1014E30004A5F0F980AA74F71201E87508047509D8
:1014F30000780812032FEAFCEBFD7A9D7B04121A95
:10150300ED740280887AB57B042274F51201E8EA4F
:10151300FEEBFF8E828F83A3A3A3A3A3E0F91203A1
:10152300A30105062F1501032F1533157D01800235
:101533007D038E828F83A3A3A3A3E0FC8E828F837C
:10154300A3A3E0FAA3E0FB1210038A088B09A909FD
:10155300EA7001E9602F750A04750B00780A12031B
:101563002F8E828F83E0FCA3E0FDEA2406FAE934A0
:1015730000FB121AED74021201A77901AA08AB0944
:101583001213B9800279037F0402024874F712012F
:10159300E874FD120191E4851082851183F08A823B
:1015A3008B83A3A3A3A3A3E0C0E074011201DCD047
:1015B300E0F0EA2406F508EB3400F5097808120395
:1015C3002F8A828B83120340EA2404F508EB34004C
:1015D300F509780812032F8A828B83A3A3E0FCA367
:1015E300E0FD74061201DCAA82AB831211077406B4
:1015F3001201A774031201A77F0202024874F512B5
:1016030001E8EAFEEBFF750800740469700812062E
:10161300C7120851806D740569700812083A1206E2
:10162300A9806074066970398E828F83E0F9120A8B
:101633008CEA7001EB70047902804A750A02750B1B
:1016430000780A12032FEA2406FCEB3400FD8E8295
:101653008F83A3AA82AB83121AED74021201A780AF
:1016630022740769700B12086AE98E828F83F080F7
:101673001274086960A874096970051206C78003AB
:10168300750802A90802158A74F71201E8EAFEEB4D
:10169300FF750802740169702075080475090078E4
:1016A3000812032F121498EAFCEBFDEEFAEFFB127B
:1016B3001AED74021201A78009E970091214B9E93D
:1016C3006003750800A9080215FB74F71201E8E925
:1016D300FC8A828B83E0F9740E6C600479028013B8
:1016E30074FF6960F7120A8CEA7001EB60EE120A6C
:1016F3008B79000215FB74F51201E89004E5780874
:101703001201367583047582A678081201217010C0
:101713009004E978081201369004A678081201456E
:101723009004AAEAF0A3EBF012088EE99004ACF05F
:1017330080007F0402024874F51201E874E9120183
:10174300911209DFE9FE7F061215088510828511C3
:1017530083EAF0A3EBF074071201DCA882A9837477
:10176300021201DCE8F0A3E9F074041201DC74084E
:10177300F074051201DC7403F0790474091201DCBE
:10178300AC82AD837AA67B04120BC074071201DC12
:101793007401F09004ACE0C0E074081201DCD0E006
:1017A300F0740D1201DCE4F01214B6740E1201DCB5
:1017B300E9F0851082851183AC82AD837A037902C7
:1017C300120F1D74051201DC7403F074071201DC9F
:1017D300A882A98374021201DCE8F0A3E9F0740F74
:1017E3001201DCA882A983851082851183E8F0A306
:1017F300E9F074036E600B74016E700312083A1201
:1018030006A91208BB74036E600D74016E70051295
:10181300085180031206C7851082851183AC82ADFF
:10182300837A027902120F1DE9705B74071201DCDF
:10183300E0547FFA74016A6004EF6A704975080422
:10184300750900780812032F740B1201DCAC82AD0A
:101853008374151201DCAA82AB83121AED7402128F
:1018630001A77808120136AA08AB09AC0AAD0B121E
:1018730018EA740F1201DCAA82AB831214E99004F4
:10188300ACE004F07F00EFF974171201A7021735DB
:10189300C082C0837D017C009004ACE0F9120B345C
:1018A300E97007120943790180027902D083D0825B
:1018B3002274F51201E89004E57808120136758365
:1018C300047582AD780812012170109004ED780838
:1018D3001201369004AD780812014512088EE99082
:1018E30004B2F060F6802174F51201E88A088B09CE
:1018F3008C0A8D0B9004E57808120121600890048E
:10190300AD780812014580007F0402024874F81282
:1019130001E8EAFEEBFF7D017C009004B2E0F912DE
:101923000B34E9FB70071209437901804674016B9C
:1019330070047902803D7C00EE240FF8EF3400F947
:101943008E828F83E0FA74F22AFA74FF3400FB74F8
:10195300086A7001EB7009740188828983F0800939
:1019630088828983E0640170089004B1E070020CFE
:101973000CECF97F01020248C082C08312088EE991
:101983009004B3F0D083D0822274F71201E8EAFE08
:10199300EBFF7D017C009004B3E0F9120B34E9FB0B
:1019A30070071209437901803374016B7004790263
:1019B300802A750804750900780812032F121498F9
:1019C300EAFCEBFDEE2404FAEF3400FB121A9474E4
:1019D300021201A7EA7001EB70D479007F020202C0
:1019E30048C082C08312088EE99004B4F0D083D03B
:1019F30082227F0402024874F51201E8EAFEEBFF3B
:101A03007D017C009004B4E0F9120B34E9FA70070D
:101A13001209437901807374016A70047902806A40
:101A2300EE240FFAEF3400FB8A828B83E0640170AB
:101A3300577D038E828F83E024F2FC790112100319
:101A43008A088B09A909EA7001E9603C750A0475E3
:101A53000B00780A12032FEE2408FCEF3400FDEA92
:101A63002406FAE93400FB121AED74021201A7E509
:101A7300082411F582E5093400F583E0D2E7F07913
:101A830000AA08AB091213B979000219F5227900EB
:101A93002274F81201E874081201DCE0F8A3E08074
:101AA30015A3AA82AB838C828D83A3AC82AD83E81A
:101AB30024FF18E934FFF9E87001E960248A828B76
:101AC30083E0FE8C828D83E06E8A828B8360D2E01A
:101AD300F88C828D83E0FAE8C39AFAE49400FB80E1
:101AE300047A007B007F0102024874F71201E87454
:101AF300091201DCE0FEA3E0FFEAF8EBF980188CA1
:101B0300828D83E088828983F0A3A882A9838C8253
:101B13008D83A3AC82AD838E088F0974FF25081EC5
:101B230074FF3509FFE5087002E50970D27F0202F0
:101B3300024874F71201E874091201DCE0F8A3E02B
:101B4300F9EAFEEBFF8A088B09C3EA9CEB9D405E32
:101B5300EC28F582ED39F583C3E5829508E5839595
:101B630009404BEA28FAEB39FBAC82AD83121BC365
:101B73007002E5096041EC24FF1CED34FFFDEA240B
:101B8300FF1AEB34FFFB8C828D83E08A828B83F018
:101B930080DB8C828D83E08A828B83F08C828D83C1
:101BA300A3AC82AD838A828B83A3AA82AB83121BED
:101BB300C37002E50970DBEEFAEFFB7F0202024815
:101BC3008808890974FF25081874FF3509F9E508A1
:101BD3002274F81201E874081201DCE0F8A3E0F9BA
:101BE3008A828B838003ECF0A3E8FEE9FF74FF2E67
:101BF3001874FF3FF9EE7001EF70EB7F01020248AA
:0000D3012C
:00000001FF
