:030000000200D328
:1000830002087300000080FB1200E2B900030200C3
:10009300CDE490040078BF79018002F0A3D8FCD9A5
:1000A300FA9004BEAA82AB839000E5785779018069
:1000B30015E493A3AC82AD838A828B83F0A3AA82D7
:1000C300AB838C828D83D8E9D9E712047B12008637
:1000D30075D00075813F75100075110402008B798E
:1000E300012212345678FFFFFFFF0F14191A2575EA
:1000F300D501000000000000000000000000000027
:1001030000000000000000000000000000000000EC
:10011300000000000000000425C123ED1E9125A16D
:100123001A9C2479563412020101010000000000D8
:100133000807060504030201E066701008A3E066E1
:10014300700A08A3E066700408A3E06622E0F608DC
:10015300A3E0F608A3E0F608A3E0F622E6F008A37E
:10016300E6F008A3E6F008A3E6F022CAC0E0E6F052
:10017300A308DAFAD0E0FA22CAC0E0E0A3C582CC31
:10018300C582C583CDC583F0A3C582CCC582C58393
:10019300CDC583DAE6D0E0CA22600C08C6C313C615
:1001A30018C613C6D5E0F422251010AF08F5104089
:1001B3000215118008F51040021511D2AF22C0D0EC
:1001C300251010AF08F510500205118008F51050E6
:1001D300020511D2AFD0D0222510F58210AF08F559
:1001E30010400215118008F51040021511D2AF8599
:1001F3001183222510F582E43511F58322E473255A
:1002030010C582C0E0E51134FFC583C0E0E510C32B
:10021300958224F9F8E4C5A8858311858210C5A8C1
:10022300E8CEF0A3E520F0A37808E608F0A3DEFA11
:10023300EFF0A3E58124FBF8E608F0A3E608F0A3BA
:100243000808E608F0A3E608F0A315811581D0E0BD
:10025300FED0E0F815811581E8C0E0EEC0E022850C
:100263001183851082E0A3FEE0A3F5207808E0A3C4
:10027300F608DFFAE0A3FFE0A3C0E0E0A3C0E0E0FC
:10028300A3C0E0E0A3C0E0E4C5A885821085831184
:10029300C5A8D083D08222C0D02510C582C0E0E596
:1002A3001134FFC583C0E0E510C3958224F310AF7A
:1002B300088583118582108008858311858210D279
:1002C300AFC8F0A3E9F0A3EAF0A3EBF0A37908E742
:1002D30009F0A3D8FAECF0A3EDF0A3EEF0A3EFF04E
:1002E300A3D0E0F0A3D0E0F0A3D0E0F0A3E520F0AA
:1002F300A3E5F0F0A322851183851082E0C0E0A37B
:10030300E0F9A3E0FAA3E0FBA37808E0F608A3DF93
:10031300FAE0FCA3E0FDA3E0FEA3E0FFA3E0C0E05E
:10032300A3E0C0E0A3E0F5D0A3E0F520A3E0A3F5AC
:10033300F0E4C5A8858311858210C5A8D082D08337
:10034300D0E0F8D0E03274028000C0E0F40412017F
:10035300DBD0E012016E2274028000CCC0E0EDC05D
:10036300E0E510C39CCCAD1150011D10AF068C10FD
:100373008D1180068C108D11D2AF12017BD0E0FD60
:10038300D0E0FC22D083D082C5F0E493A3C5F0C3B0
:1003930095F0F5F0E493A3C395F04005E5F00480F0
:1003A30001E475F002A42582F582E5F03583F58337
:1003B300E493A3C0E0E493C0E022D083D082CCC016
:1003C300E0E493A360061203E71470FAE493A360D6
:1003D300061204061470FAD0E0FCE493A3C0E0E430
:1003E30093C0E022C0E0E493A3D39C5010E493A312
:1003F300C39C400AD0E0D0E0D0E00203DAA3A3A379
:10040300D0E022C0E0E493A36C7009D0E0D0E0D048
:10041300E00203DAA3A3D0E022C082C08374FE12F9
:1004230001AB12046912047485108285118374AAC6
:10043300F0A3E4F0851082851183E07004C2AF80DD
:10044300FE74021201C1D083D0822275CB4475CCD5
:1004530004EA33333354F8F5CD43CB10A2D950FC1F
:1004630075CB00C2D92243FE0143FE02C290C29162
:1004730022438F0243F7012212041C800312060C4D
:100483007A007B00121451E970F3D290D291E49078
:100493000401F09004BE7808120150900402780819
:1004A30012015F7C017D047A01790A12163DA28153
:1004B300500A7901120618120566800CA2A050EEAC
:1004C30079021206181204CD80FE74F81202027427
:1004D300FC1201AB74031201F6AA82AB83121484DB
:1004E300E970F179011206187C007D007A04790322
:1004F30012163D1205F9801A851082851183E06476
:10050300016005E064027005E0F9120618E4900446
:1005130000F074021201F6AC82AD8385108285115E
:1005230083AA82AB8374031201F6E0F91215CFE9B3
:1005330070B674021201F6E060AE74011201F6E0C7
:10054300FE60B5900400E0C39E50C78510828511FC
:1005530083E064016005E064027005E0F9120618A7
:10056300EE80AB74F812020274FD1201AB7E0079C7
:1005730002120618800312060C74021201F6AA82F4
:10058300AB83121639E970EEA29150057902120677
:1005930018740280027401851082851183F090041F
:1005A30000E004F0C0E074011201F6D0E0F07C003A
:1005B3007D007A04790312163D1205EA1205EA1248
:1005C30005F97C02851082851183AA82AB83EC1224
:1005D30001F6E0F91214F8E970D479011206180E45
:1005E30074075E60B080AA7AE87B03120AB87AE8DF
:1005F3007B03120AB8227AE87B03120AB87C007DD7
:10060300007A05790312163D227901120618790240
:1006130012061880D97401697006639001E590226F
:100623007402697005639002E5902274F712020266
:1006330075081B75090078081203497C007D007A50
:10064300077B041226D474021201C190624AE0644B
:10065300A56004C2AF80FE906249E07004C2AF801F
:10066300FE53BEFBE59DA2E650FA0078F87901003F
:1006730012095D7001E970F775C600E59E70FC43D1
:10068300BE0474149061A9F0743F9061ABF074F8E8
:10069300906196F074859061A8F0745A9061ACF003
:1006A30074159061B2F0E4906182F074109061B5BA
:1006B300F0740E9061B6F074039061B7F074099012
:1006C30061FAF074FF9061E5F0906172F0906173EC
:1006D300F0906189E054F34408F075E1E390619987
:1006E300E0A2E050F8780079007C10E8C333F8E921
:1006F30033F99061A7E0A2E0E492E048F81CEC70C3
:10070300EA748048F5BCE9F5BC75E1EF75E1ED7578
:10071300E1ED906189E054F3F07401900406F090E8
:100723006180E0C2E0F0906181E05497F090618ACB
:10073300E0C2E0F0747F906194F079001209677968
:10074300021209A1439A019004247433F0A3E4F044
:10075300120B9FD2AF02099C74F7120202EAFEEB5E
:10076300FF8909750800900406E064017004C2AFB4
:1007730080FE120B855391FD900426E08E828F83B9
:10078300A3A3A3F0900426E004F074018E828F8368
:10079300A3F074888E828F83A3A3F075E1EE8E821B
:1007A3008F83E0FB74022BF5D97A008005A3E0F573
:1007B300D90AEAC39B40F6E509700B75E1E9E591B7
:1007C300A2E1404A80F8740165096004C2AF80FE6B
:1007D3007E0480071E120B85120B9F75E1E3906167
:1007E30099E0A2E050F8A2AFE492E0FAC2AF75E15B
:1007F300EA906193E05408FBEAA2E092AFEB600851
:10080300E591A2E1400880F8EE70C9750801120B6A
:1008130085900406E064037003120B75A9080209AE
:100823009CC082C083900407EAFCEBFD741B120199
:100833007B0209DAC082C083900406E0640170047D
:10084300C2AF80FEE0640360067403F0120B75020E
:1008530009DAC082C083900406E064017004C2AF69
:1008630080FEE064037006120B857402F00209DA5D
:10087300C0E074ED12029A900406E064036004C2BF
:10088300AF80FEE5E9A2E250FA906193E0A2E65060
:100893000EE0A2E7400975E1ED75E1ED0209495368
:1008A300E9FB747F55D9F508F58285820A74FF1236
:1008B3000954C3E8941AE99400A2D265D0335007CF
:1008C300E508C3940E500D7A00EAC39508506EE50F
:1008D300D90A80F57E077F04750C19750D00780C15
:1008E3001203497C007D007A077B041226D474022C
:1008F3001201C174FE2508900407F074FE12095416
:100903008E828F83A3AE82AF83E5D9F012095D7027
:1009130001E970EC74B425D9900420F0E5D9FAA26A
:10092300E7501A747F5A900421F0900408E06401A0
:10093300700B900409E0648870031217E290619BC6
:10094300E06003020886759B0053E9FB7F06020201
:10095300F9250AF874FF3400F922E824FF18E93472
:10096300FFF9E82274F71202028908E9C3940440EC
:1009730004C2AF80FE120B8575F005E50824C6F5A9
:1009830082E43404F583E0A424D490618FF09004CE
:1009930006E064037003120B757F0202026274F7B0
:1009A3001202028908120B85E50824CAF582E43491
:1009B30004F583E0906190F0900406E06403700313
:1009C300120B7580D4C082C083900406E06401706A
:1009D300037402F08001F0D083D08222C082C083EE
:1009E300900406E0640160061208557401F080E784
:1009F30074F81202028A828B83A3A882A9838A8253
:100A03008B83E0FE74FF6E600574FE6E700988824E
:100A13008983E064FF6023EA2403FCEB3400FDEAEE
:100A230024020A0AEB3400FB8A828B83E064FF70A2
:100A33000D8C828D83E064FF700479018022EE9037
:100A43006172F088828983E0906173F08A828B837C
:100A5300E0906174F08C828D83E0906175F0790091
:100A63007F01020262C082C083906172E064FF6012
:100A730008906173E064FF7004C2AF80FE906180F0
:100A8300E0D2E00209D9C082C083900406E0640387
:100A93006004C2AF80FE906199E0A2E050F89061DB
:100AA30098E0FA74B42AF90209DA74F355B44404E9
:100AB300F5B4A9BD2274F8120202EAFEEB800E7AA5
:100AC300E87B03120BB9EE24FF1EEF34FFFFEE7039
:100AD30001EF70EB020A6374F6120202900424E041
:100AE300F508A3E0F509A2AFE492E0FAC2AF7401FE
:100AF300900422F0EAA2E092AF800CE50824FFF50F
:100B030008E50934FFF509E5087002E50960357E5B
:100B13003E7F00A2AFE492E0F50AC2AF7A107B00F9
:100B230012044EE50AA2E092AF900423E07012EEA5
:100B3300F8EFF974FF281E74FF39FFE87001E970BC
:100B4300D2E060B7A2AFE492E0FAC2AFE49004232C
:100B5300F0900422F0EAA2E092AF7F03020262C0A7
:100B630082C083900422E060067401900423F002A3
:100B730009DAC082C08375E1E39061A3E0D2E202A7
:100B830009D9C082C0839061A3E0C2E2F075E1EFAE
:100B930075E1ED75E1ED75E9FB0209DAEEC0E012EE
:100BA3000AADE9540F04FE7AFA7B00120BB91EEE6C
:100BB30070F5D0E0FE2274F71202028A088B0974E2
:100BC30004780812019CAE08AF09EA7001EB6028B3
:100BD300A2AFE492E0F508C2AF7A107B0012044E94
:100BE300E508A2E092AFEEF8EFF974FF281E74FF58
:100BF30039FFE87001E970D802099CC082C0839074
:100C03000406E0F90209DA74F7120202EAFEEBFFC6
:100C130075082575090078081203497C007D007A60
:100C2300CE7B041226D474021201C174039004CE45
:100C3300F0743D9004CFF074209004D0F0740190D0
:100C430004D1F0121AA4EEFAEFFB1216F212119E5F
:100C5300121AA01224EEEEFAEFFB121D5212248B8D
:100C6300121F0E1225909004E8E070347402F074A1
:100C7300039004E9F0743F9004F0F09004F1F074F1
:100C8300FF9004F2F07508047808120349121B5F01
:100C9300EAFCEBFD7AEA7B041225ED74021201C132
:100CA30079007F0202026274F812020274FF1201D9
:100CB300AB7B00EB120D7470070BEBC3940340F393
:100CC30074036B70067A007B00805DEB75F00BA4F8
:100CD30024D2FEE5F03404FFEEF8EFF9E4888289CC
:100CE30083A3A3A3A3A3A3A3A3A3F07402888289CA
:100CF30083F09004D1E088828983A3A3A3A3A3A351
:100D0300A3A3A3A3F09004D1E004F0E0F960F67488
:100D1300FF6960F1851082851183AA82AB8312106B
:100D230075E970E1EEFAEFFB74011201C17F010274
:100D33000262C082C083E48A828B83F0D083D08234
:100D430022C082C08374FF1201AB85108285118398
:100D5300AA82AB83121075E96006E0120D74600677
:100D6300758200758300AA82AB8374011201C1806E
:100D7300CB75F00BA424D2F582E5F03404F583E0BF
:100D830064022274F31202028A0C8B0D89097ED24B
:100D93007F047508008E828F83E064027033750AC6
:100DA30004750B00780A120349AC0CAD0D120EA0AA
:100DB3001201C1EA7001EB70188E828F83A3A3A383
:100DC300A3A3A3A3A3A3E065097006EEFAEFFB8038
:100DD30009120DE240BF7A007B007F060202621215
:100DE30010BB940222C082C083E98A828B83600194
:100DF300A3A3A3A3A3A3A3A3A3E0FCEC60078A82FA
:100E03008B83E0700479028008ECC3942040F67968
:100E130000020D3F74F11202028A0C8B0D8C0E8DB1
:100E23000F7ED27F04EA240CF582EB3400F583E0D5
:100E3300543FF5097508008E828F83E06402704B7E
:100E4300A3A3A3A3A3A3A3A3E06509703E743F6573
:100E530009601B750A04750B00780A120349E50C37
:100E63002408120E9A1201C1EA7001EB701D8E82E2
:100E73008F83A3A3A3A3A3A3A3A3A3A3E0850E820A
:100E8300850F83F0120B62790180071210B540A71A
:100E930079007F08020262FCE50D3400FDEE2402B6
:100EA300120EA722FAEF3400FB1225947402227467
:100EB300F112020274FE1201AB89088A0C8B0D7EBB
:100EC300D27F04750A02750B00780A1203497C006D
:100ED3007D0074021201F6AA82AB831226D4740237
:100EE3001201C1750902E50C6E7003E50D6F700305
:100EF300020F858E828F83E064026003020F85EE0A
:100F03002408F50EEF3400F50F850E82F583E0FA21
:100F1300C3943E506D7401650870289004CFE0C3FC
:100F23009A505FEAF8C3E498F8E49400F9851082D4
:100F3300851183E58228F8E58339F9743D28F58224
:100F4300E48039750A04750B00780A120349E50C2D
:100F53002402120E9A1201C1EA7001EB7024850E6D
:100F630082850F83E0F8851082851183E58228F856
:100F7300E5833400F974E028F58274FF39F583744E
:100F830001F0EE240BFEEF3400FF1509E5096003C1
:100F9300020EE979007A008A0A851082851183E5B9
:100FA30082250AF582E5833400F583E0703D7402FF
:100FB3006508700674202AF9803E743DC39AF9903F
:100FC30004D0E0FAE9C39A40429004CFE069700389
:100FD300E014F0E9850C82850D83A3A3A3A3A3A347
:100FE300A3A3F074021201C1020E950AEAC394028C
:100FF30040A57402650870C79004CFE0C399400B05
:101003009004D0E0C39950CBE980C7790080C474C1
:10101300F5120202EAFEEBFF7508028C0AEE250ABE
:10102300121065A2E750348D08EE25081210656989
:1010330070267508047509007808120349121AEF1F
:10104300EAFCEBFDEE2404120EA71201C1EA7001C3
:10105300EB70057508008003750801A9087F040279
:101063000262FAEF3400FB740F2AF582E43BF58346
:10107300E02274F81202027CD27D047E008C828D01
:1010830083E064027018A3A3A3A3A3A3A3A3A3A3AE
:10109300E069700AEE8A828B83F0790180110EEC8D
:1010A300240BFCED3400FDEEC3940340D079000221
:1010B3000D301210BB9403220508EE240BFEEF340F
:1010C30000FFE508C32274F5120202ECFEEDFF896E
:1010D3000A89087509007808120349EAFCEBFDEE5A
:1010E300FAEFFB12263574021201C1E50A120387D7
:1010F30002022311FD10231111118E828F83E0F858
:10110300A3E0F98E828F83E8F0A3E9F080128E8248
:101113008F8378081201508E828F83780812015FC3
:1011230002106074F512020274FA1201ABEAFEEBCC
:10113300FFECFAEDFBE9120387020246114C11465C
:10114300116811EEFCEFFD80388E828F83E0FCA3E3
:10115300E0FD851082851183ECF0A3EDF08510820C
:1011630085118380188E828F837808120150740250
:101173001201F6780812015F74021201F6AC82AD17
:101183008389087509007808120349122635740209
:101193001201C174061201C102106074F712020237
:1011A30075083A75090078081203497C007D007AB6
:1011B300277B041226D474021201C1780812034952
:1011C3007C007D007A617B041226D474021201C173
:1011D3007F0202026274F6120202E9FC78007900CF
:1011E3007E007F007D0074016C70067A277B04808B
:1011F300047A617B0475090388088A828B83E06023
:101203001D74016C70210DE06404601BA3E0F50AFA
:10121300C395095012EAF8EBF9850A0980097402AB
:101223006C6048EAFEEBFF0508EA241DFAEB340084
:10123300FBE508C3940240C2EE7001EF7020E87032
:1012430001E970067A007B008021E8FEE9FF8E82C7
:101253008F83A3E0FAECF9121273E5088008740196
:101263002D8E828F83A3F0EEFAEFFB7F03020262DF
:10127300C082C083740169703178277904A2AFE416
:1012830092E0FDC2AF7B0288828983E0600BA3E01A
:10129300FCEAC39C5003E014F0E8241DF8E9340091
:1012A300F91BEB70E2EDA2E092AFD083D0822274FF
:1012B300F112020274F81201AB851082851183EAE0
:1012C300F0A3EBF08C0A74021201F6E4F0A3F0F53C
:1012D3000EF50F74016970237E277F04750C0312CA
:1012E3001437FA74016A703D121444A3E0F9120D25
:1012F300448A0E8B0FEA7001EB70077A007B0002C1
:10130300142D8A828B83A3A3A3A3A3A3A3A3E0F592
:1013130008EA2402F8EB3400F974061201F6E8F047
:10132300A3E9F0800AEA70D3121444A3E0F5087429
:1013330001650A70057509018003750903750D02BE
:10134300A2AFE492E0FAC2AF8E828F83E0650960B8
:101353000302140D7404F0EAA2E092AFEE240EF53A
:1013630082EF3400F583E0543F65086003021405FF
:1013730012143764017021743F65087009E50E2467
:1013830002F8E50F8005EE240AF8EF3400F974043F
:101393001201F6E8F0A3E9F0750A04750B00780A68
:1013A30012034974081201F6E0FCA3E0FD7406126F
:1013B30001F6E0FAA3E0FB12259474021201C112B4
:1013C30014376003EA703B8E828F83A3AA82AB83B8
:1013D300E0C3950C502C74021201F6E07002A3E0F6
:1013E300600D74021201F6E0F812144AE509F08A5E
:1013F300828B83E0F50C74021201F6EEF0A3EFF09A
:10140300800D8E828F83E50980F5EAA2E092AFEE2C
:10141300241DFEEF3400FF150DE50D600302134399
:1014230074021201F6E0FAA3E0FB74081201C17F13
:1014330008020262851082851183E0F812144AE0E3
:1014430022851082851183A3E0F58388822274F8B4
:10145300120202EAFEEBFF90049BE0701912062EC3
:10146300EEFAEFFB120C0AE970121209C8121AEF16
:101473001209F3120A687401F0121D937F0102022C
:101483006274F71202028A828B83120BFEE9F5085B
:10149300790012247474036508600C740165087084
:1014A300031209C81208377E007F0012241FE9FACD
:1014B3008A0970187A0A7B00120AB8EE24010EEF2B
:1014C3003400FFC3EE94F4EF940140DF7403650826
:1014D300600E7401650870051209DF800312085558
:1014E300E5097009790112247479018003F0790008
:1014F3007F0202026274F712020275080075090086
:10150300780812034912151274021201C180E174A2
:10151300F11202028A088B098C0A740F1201F6E099
:10152300F50EA3E0F50F120D448A0C8B0DAE0CAF34
:101533000D750B02120BFEEE7001EF600F7901EED9
:10154300FAEFFB120DE8E9FA8A0B6007A90B7F0893
:10155300020262E5087002E50960F1E50AC3940B33
:1015630050EAE50E7002E50F702D8E828F83A3E0A3
:10157300FDAC0AAA08AB098E828F83A3A3A3A3A3FE
:10158300A3A3A3A3E0F912171D8A088B09EA70012C
:10159300EB7008790380B7790280B3750A04750B81
:1015A30000780A120349EE2402FCEF3400FDEA241A
:1015B30006FAEB3400FB1225ED74021201C1790126
:1015C300AA08AB09121A47E9F50B808074F31202DB
:1015D3000274FD1201AB890AEAFEEBFF8C088D0948
:1015E300120D447902EA7001EB60411919120DE8FA
:1015F300E970397401851082851183F01201F6E5D3
:101603000AF0750A00750B00780A120349780A126A
:1016130003497808120349EEFCEFFD74061201F644
:10162300AA82AB8312181674061201C17403120145
:10163300C17F06020262121F852274F7120202E9B9
:10164300FBEAF9ECFEEDFF90049BE07013EB120351
:10165300BD00020563160A63165E1679020216EFD1
:10166300EB12038702065E169516B1165E168216F6
:101673007916BA16DF16EEFAEFFB121D26806D748B
:1016830001696003E970D4EEFAEFFB121CE4805C9D
:1016930080C97403697009EEFAEFFB121B64804C76
:1016A30074026970B6EEFAEFFB121BE6803EEEFAA7
:1016B300EFFB121C578035740169709F7508047520
:1016C30009007808120349121B08EAFCEBFDEEFA45
:1016D300EFFB1225ED74021201C1800E74016970D3
:1016E300AF121B0DE98E828F83F079000214F3C0D1
:1016F30082C083E49004A0F09004A1EAF0A3EBF08D
:10170300121AEF90049DEAF0A3EBF0120AADE990F0
:10171300049CF060F6D083D0822274F11202028915
:10172300088A0E8B0F8C0A8D0979021211D88A0C44
:101733008B0DA80CA90DE8FEE9FFE87001E970071D
:101743007A007B000217DD740E250A8E828F83A335
:10175300A3F0EE240E121A8954804508F090049CDD
:10176300E0C0E0EE2410F582EF3400F583D0E0F022
:1017730090049CE004F060F8EE240FFAEF3400FBD1
:101783008A828B83E054BF75830475829FFCE04C8F
:1017930054F8450954778A828B83F088828983E0E1
:1017A300C2E7F0750B00780A120349AC0EAD0FEED9
:1017B30024110A0AEF3400FB1225ED74021201C151
:1017C3007508047509007808120349121A361225A0
:1017D300ED74021201C1EEFAEFFB7F08020262749C
:1017E300F712020279011211D88A088B09A808A9F5
:1017F30009E8FEE9FFE87001E96013EE24020A0A32
:10180300EF3400FB120824EEFAEFFB1219567F02A5
:1018130002026274F112020274FE1201AB8510829D
:10182300851183ECF0A3EDF08A0A8B0B741112017E
:10183300F6E0F50CA3E0F50D74151201F6E0F50ED4
:10184300A3E0F50FE4850C82850D83F07C0179011B
:101853001212B28A088B09AE08AF09EE7001EF705D
:101863000302192C750800750900850A82850B830C
:10187300E064017015A3E0F9120D448A088B09EAAC
:101883007001EB7005790202192E8E828F83A3A358
:10189300E024F2F50A850C82850D83F0750B007840
:1018A3000A120349EE2411FCEF3400FD7402120105
:1018B300F61219361201C1E5087002E509600FEE50
:1018C300241B121941F0EE241C121941A3F07413C6
:1018D3001201F6E07002A3E0601E750804750900AA
:1018E3007808120349EE240AFCEF3400FD74151244
:1018F30001F61219361201C1E50E7002E50F6014EC
:10190300EE240FF582EF3400F583E05407850E8251
:10191300850F83F08E828F83A3E0FA79011212730D
:10192300E48E828F83F0F98002790474021201C17C
:101933000217DDE0FAA3E0FB1225ED740222F58223
:10194300EF3400F583E0850882850983A3A3A3A36D
:10195300A3A32274F312020274FF1201ABEAFEEB9B
:10196300FFEE240EF50AEF3400F50B850A82F583AA
:10197300E0543FF508750C04750D00780C1203490B
:10198300121A3612259474021201C1EA7001EB7027
:1019930009E48E828F83F0021A23850A82850B83E2
:1019A300E0A2E640ECE50860E8EE2402FAEF34003A
:1019B300FBE508C39407501CE508C33324F1F58203
:1019C300E43404F583121A2D120200E9640170C194
:1019D300740180BE743F6508600EE508C39420401F
:1019E300B0E508C3943F50A9851082851183AC826A
:1019F300AD83120E17E9609974018E828F83F09084
:101A030004A1E07002A3E06017851082851183E0D2
:101A1300F99004A1121A2D120200E960030219942D
:101A230074011201C17F06020262E0F8A3E0F583AC
:101A330088822290049DE0FCA3E0FDEE240AFAEFE5
:101A43003400FB2274F8120202EAFEEBFFE9FAEE1D
:101A5300240F121A8954CF7583047582A0FBE04BBF
:101A630088828983F0EAF9EE2402FAEF3400FB124C
:101A7300075BE97004790080027909E48E828F8321
:101A8300F07F01020262F8EF3400F988828983E073
:101A930022C082C08390049FE0F9021718227900C4
:101AA3002274F712020275080475090078081203FC
:101AB300497C007D007AA37B041226D474021201B0
:101AC300C19004ABE0701B78081203497CFF7D04CE
:101AD3007AA77B041225ED74021201C174019004EC
:101AE300ABF080031201C17F02020262C082C08395
:101AF3009004ABE060067AA77B0480047AFF7B0442
:101B0300D083D082227A047B052279022274F712D1
:101B1300020279009004ABE070217508048909780A
:101B230008120349EAFCEBFD7AA77B041225ED7446
:101B3300021201C174019004ABF0F980AA74F71288
:101B430002027508047509007808120349EAFCEBE0
:101B5300FD7AA37B041225ED740280887AC27B048C
:101B63002274F5120202EAFEEBFF8E828F83A3A397
:101B7300A3A3A3E0F91203BD010506861B01038697
:101B83001B8A1B7D0180027D038E828F83A3A3A307
:101B9300A3E0FC8E828F83A3A3E0FAA3E0FB1217DA
:101BA3001D8A088B09A909EA7001E9602F750A04E7
:101BB300750B00780A1203498E828F83E0FCA3E041
:101BC300FDEA2406FAE93400FB1225ED7402120142
:101BD300C17901AA08AB09121A47800279037F046D
:101BE30002026274F712020274FD1201ABE4851063
:101BF30082851183F08A828B83A3A3A3A3A3E0C06E
:101C0300E074011201F6D0E0F0EA2406F508EB34A3
:101C130000F50978081203498A828B8312035AEA72
:101C23002404F508EB3400F50978081203498A8285
:101C33008B83A3A3E0FCA3E0FD74061201F6AA8242
:101C4300AB8312181674061201C174031201C17F0B
:101C53000202026274F5120202EAFEEBFF7508004B
:101C630074046970081208551209DF806F740569DE
:101C730070051209C8806574066970398E828F8376
:101C8300E0F9120D44EA7001EB70047902804F759C
:101C93000A02750B00780A120349EA2406FCEB34A6
:101CA30000FD8E828F83A3AA82AB831225ED74027B
:101CB3001201C18027740769700B120A89E98E82A9
:101CC3008F83F080177408697005120837800D74CC
:101CD300096970051208558003750802A908021BDB
:101CE300E174F7120202EAFEEBFF75080274016960
:101CF30070207508047509007808120349121AEF59
:101D0300EAFCEBFDEEFAEFFB1225ED74021201C1C2
:101D13008009E97009121B10E96003750800A9081E
:101D2300021C5274F7120202E9FC8A828B83E0F9E7
:101D3300740E6C60047902801374FF6960F7120DEE
:101D430044EA7001EB60EE120D357900021C527407
:101D5300F512020290050878081201507583047584
:101D630082AC780812013B701090050C78081201C0
:101D7300509004AC780812015F9004B0EAF0A3EB32
:101D8300F0120AADE99004B2F080007F040202620F
:101D930074F512020274E91201AB120BFEE9FE7F25
:101DA30006121B5F851082851183EAF0A3EBF074A2
:101DB300071201F6A882A98374021201F6E8F0A3C0
:101DC300E9F074041201F67408F074051201F67454
:101DD30003F0790474091201F6AC82AD837AAC7B0B
:101DE3000412112674071201F67401F09004B2E094
:101DF300C0E074081201F6D0E0F0740D1201F6741D
:101E030002F0121B0D740E1201F6E9F085108285A3
:101E13001183AC82AD837A03790212163D740512E5
:101E230001F67403F074071201F6A882A983740201
:101E33001201F6E8F0A3E9F0740F1201F6A882A9E3
:101E430083851082851183E8F0A3E9F074036E6043
:101E53000B74016E70031209C8120837120ADA7480
:101E6300036E600D74016E70051209DF80031208A2
:101E730055851082851183AC82AD837A0279021273
:101E8300163DE9705B74071201F6E0547FFA7401A2
:101E93006A6004EF6A7049750804750900780812CE
:101EA3000349740B1201F6AC82AD8374151201F66B
:101EB300AA82AB831225ED74021201C178081201C4
:101EC30050AA08AB09AC0AAD0B121F5C740F1201C8
:101ED300F6AA82AB83121B409004B2E004F07F00A9
:101EE300EFF974171201C1021D8E74F81202027EFB
:101EF300007D017C009004B2E0F9121012E9700435
:101F0300120B620EEEF97F0102026274F5120202F5
:101F130090050878081201507583047582B3780818
:101F230012013B701090051078081201509004B311
:101F3300780812015F120AADE99004BBF060F675F0
:101F4300080275090078081203497C007D007AB8FD
:101F53007B041226D47402802174F51202028A08CB
:101F63008B098C0A8D0B900508780812013B6008D9
:101F73009004B3780812015F80031201C17F040249
:101F8300026274F512020274EC1201AB8A088B0927
:101F9300120CAA8A0A8B0BAE0AAF0BEE7001EF701C
:101FA3000302216F7901120EB2E9700AEEFAEFFB18
:101FB300120D3502216F750A04750B00780A12039E
:101FC30049121B5FEAFCEBFD74121201F6AA82AB05
:101FD3008312236C1201C1A882A983851082851103
:101FE30083E8F0A3E9F074071201F6A882A98374C9
:101FF300021201F6E8F0A3E9F074041201F6740981
:10200300F074051201F67402F0790474091201F6F2
:10201300AC82AD837AB37B041211268E828F83A3A5
:10202300A3A3A3A3A3A3A3E0C0E0740D1201F6D05E
:10203300E0F09004BBE0C0E074081201F6D0E0F0D9
:10204300121A94740E1201F6E9F074071201F67471
:1020530001F0121B0D740F1201F6E9F08510828551
:102063001183AC82AD837A03790212163DE96003D2
:10207300022171120BFEE9F50A74051201F67402CE
:10208300F074071201F6A882A98374021201F6E81C
:10209300F0A3E9F0EE2402F8EF3400F9851082850D
:1020A3001183E8F0A3E9F07403650A600C74016519
:1020B3000A70031209C8120837120ADA7403650A90
:1020C300600E7401650A70051209DF80031208555A
:1020D300851082851183AC82AD837A027902121650
:1020E3003DE9706674071201F6E0547FFA74016AE1
:1020F300601074036A600BEEFAEFFB120D3579057D
:10210300806C74028E828F83F074091201F6E08E64
:10211300828F83A3A3A3A3A3A3A3A3A3F08E828FDE
:1021230083A3A3A3A3A3A3A3A3A3A3E08508828557
:102133000983F08E828F83A3A882A983740A120174
:10214300F6E06440700F7401800DEEFAEFFB120DA0
:102153003579018019740388828983F09004BBE088
:1021630004F0E070037401F07900800279037414C1
:10217300021F7D74F112020274F81201ABEAFEEB46
:10218300FF8E828F83E0F874F228F874FF3400F92D
:10219300C3E89409E99400A2D265D033401A121B14
:1021A3000DE9FAEE24171223826A600C790274088F
:1021B3001201C17F080202627904E91201F6AC82BE
:1021C300AD83EE2411FAEF3400FB1210C9C082C0B4
:1021D300839004B37808120150D083D08278081218
:1021E300013B70C8EE2415122382F50AEE2408F58C
:1021F3000EEF3400F50FA90AAA0EFB120D868A080A
:102203008B09A808A909E87001E96061122372C06B
:10221300E074011201F6D0E0F088828983A3A3A3BE
:10222300A3A3A3A3A3E0C0E074021201F6D0E0F0DD
:10223300121A9474031201F6E91223A08A088B0977
:10224300A808A909E8FEE9FFE87001E9601A750822
:102253000475090078081203491223601201C17939
:1022630000EEFAEFFB121A4779010221B19004B78D
:10227300E070030221AF120CAA8A088B09EA7001ED
:10228300EB60E5750C04750D00780C120349AC0E78
:10229300AD0FEA24020A0AEB1223691201C1AA084C
:1022A300AB097902120EB2E97009AA08AB09120D43
:1022B3003580B59004BAE0640260EFE0F50C740178
:1022C300250C12238BA3E0C0E0E50C24B8F582E4CF
:1022D3003404F583D0E012238BE50AF074028508F9
:1022E30082850983F0A3A882A983EE241612238290
:1022F300644070047401800274038882898312230A
:1023030090E0C0E074021201F6D0E0F0121A947467
:10231300031201F6E9F0122372C0E074011201F610
:10232300D0E01223A08A0A8B0BA80AA90BE8FEE9C6
:10233300FFE87001E970030222AD750A04750B0012
:10234300780A1203491223601201C17900EEFAEFF1
:10235300FB121A47E960030222AD02226BAC0EADF9
:102363000FEE2406FAEF3400FB1225ED74022274FB
:1023730081851082851183F0EE241012238222F5C9
:1023830082EF3400F583E022122390A322F0850824
:1023930082850983A3A3A3A3A3A3A3A322F0EE246B
:1023A3000D1223825407FA7403C39AFD7C0485102B
:1023B30082851183AA82AB83790212171D2274F8D6
:1023C300120202EAFEEBFF7D017C009004BBE0F900
:1023D300121012E97007120B627901803AEE240F92
:1023E300F8EF3400F98E828F83E0FA74F22AFA74DC
:1023F300FF3400FB74086A7001EB70097401888272
:102403008983F0800988828983E064017007EEFA8A
:10241300EFFB12217679007F0102026274F7120248
:10242300027900A2AFE492E0FAC2AF9004BAE0608E
:1024330036E014F0EAA2E092AF091224749004B8D3
:10244300E0F97C009004BAE0FAECC39A501E8C08C1
:10245300E50824B8FAE43404FB8A828B83A3E08A78
:10246300828B83F00C80DDEAA2E092AF7F0202024E
:1024730062C082C083E970047A0180027A00EA9024
:1024830004B7F0D083D08222C082C083120AADE9A0
:102493009004BCF0D083D0822274F7120202EAFEC9
:1024A300EBFF7D017C009004BCE0F9121012E9708F
:1024B30007120B627901802E7508047509007808EC
:1024C300120349121AEFEAFCEBFDEE2404FAEF348F
:1024D30000FB12259474021201C1EA7001EB70042F
:1024E3007900800279027F02020262C082C08312F5
:1024F3000AADE99004BDF0D083D082227F040202AA
:102503006274F5120202EAFEEBFF7D017C00900487
:10251300BDE0F9121012E97007120B627901806AAB
:10252300EE240FFAEF3400FB8A828B83E0640170A0
:10253300577D038E828F83E024F2FC790112171DED
:102543008A088B09A909EA7001E9603C750A0475D8
:102553000B00780A120349EE2408FCEF3400FDEA6D
:102563002406FAE93400FB1225ED74021201C1E5D9
:10257300082411F582E5093400F583E0D2E7F07908
:1025830000AA08AB09121A4779000224FF22790036
:102593002274F812020274081201F6E0F8A3E08034
:1025A30015A3AA82AB838C828D83A3AC82AD83E80F
:1025B30024FF18E934FFF9E87001E960248A828B6B
:1025C30083E0FE8C828D83E06E8A828B8360D2E00F
:1025D300F88C828D83E0FAE8C39AFAE49400FB80D6
:1025E300047A007B007F0102026274F71202027414
:1025F300091201F6E0FEA3E0FFEAF8EBF980188C7C
:10260300828D83E088828983F0A3A882A9838C8248
:102613008D83A3AC82AD838E088F0974FF25081EBA
:1026230074FF3509FFE5087002E50970D27F0202E5
:10263300026274F712020274091201F6E0F8A3E0D1
:10264300F9EAFEEBFF8A088B09C3EA9CEB9D405E27
:10265300EC28F582ED39F583C3E5829508E583958A
:1026630009404BEA28FAEB39FBAC82AD831226C34F
:102673007002E5096041EC24FF1CED34FFFDEA2400
:10268300FF1AEB34FFFB8C828D83E08A828B83F00D
:1026930080DB8C828D83E08A828B83F08C828D83B6
:1026A300A3AC82AD838A828B83A3AA82AB831226D7
:1026B300C37002E50970DBEEFAEFFB7F02020262F0
:1026C3008808890974FF25081874FF3509F9E50896
:1026D3002274F812020274081201F6E0F8A3E0F97A
:1026E3008A828B838003ECF0A3E8FEE9FF74FF2E5C
:1026F3001874FF3FF9EE7001EF70EB7F0102026285
:0000D3012C
:00000001FF
