:030000000200D328
:1000830002087300000080FB1200E2B900030200C3
:10009300CDE490040078BF79018002F0A3D8FCD9A5
:1000A300FA9004BEAA82AB839000E5785779018069
:1000B30015E493A3AC82AD838A828B83F0A3AA82D7
:1000C300AB838C828D83D8E9D9E712047B12008637
:1000D30075D00075813F75100075110402008B798E
:1000E300012212345678FFFFFFFF0F14191A2575EA
:1000F300D501000000000000000000000000000027
:1001030000000000000000000000000000000000EC
:100113000000000000000060265E248A1FED26E533
:100123001A39258056341202010101000000000033
:100133000807060504030201E066701008A3E066E1
:10014300700A08A3E066700408A3E06622E0F608DC
:10015300A3E0F608A3E0F608A3E0F622E6F008A37E
:10016300E6F008A3E6F008A3E6F022CAC0E0E6F052
:10017300A308DAFAD0E0FA22CAC0E0E0A3C582CC31
:10018300C582C583CDC583F0A3C582CCC582C58393
:10019300CDC583DAE6D0E0CA22600C08C6C313C615
:1001A30018C613C6D5E0F422251010AF08F5104089
:1001B3000215118008F51040021511D2AF22C0D0EC
:1001C300251010AF08F510500205118008F51050E6
:1001D300020511D2AFD0D0222510F58210AF08F559
:1001E30010400215118008F51040021511D2AF8599
:1001F3001183222510F582E43511F58322E473255A
:1002030010C582C0E0E51134FFC583C0E0E510C32B
:10021300958224F9F8E4C5A8858311858210C5A8C1
:10022300E8CEF0A3E520F0A37808E608F0A3DEFA11
:10023300EFF0A3E58124FBF8E608F0A3E608F0A3BA
:100243000808E608F0A3E608F0A315811581D0E0BD
:10025300FED0E0F815811581E8C0E0EEC0E022850C
:100263001183851082E0A3FEE0A3F5207808E0A3C4
:10027300F608DFFAE0A3FFE0A3C0E0E0A3C0E0E0FC
:10028300A3C0E0E0A3C0E0E4C5A885821085831184
:10029300C5A8D083D08222C0D02510C582C0E0E596
:1002A3001134FFC583C0E0E510C3958224F310AF7A
:1002B300088583118582108008858311858210D279
:1002C300AFC8F0A3E9F0A3EAF0A3EBF0A37908E742
:1002D30009F0A3D8FAECF0A3EDF0A3EEF0A3EFF04E
:1002E300A3D0E0F0A3D0E0F0A3D0E0F0A3E520F0AA
:1002F300A3E5F0F0A322851183851082E0C0E0A37B
:10030300E0F9A3E0FAA3E0FBA37808E0F608A3DF93
:10031300FAE0FCA3E0FDA3E0FEA3E0FFA3E0C0E05E
:10032300A3E0C0E0A3E0F5D0A3E0F520A3E0A3F5AC
:10033300F0E4C5A8858311858210C5A8D082D08337
:10034300D0E0F8D0E03274028000C0E0F40412017F
:10035300DBD0E012016E2274028000CCC0E0EDC05D
:10036300E0E510C39CCCAD1150011D10AF068C10FD
:100373008D1180068C108D11D2AF12017BD0E0FD60
:10038300D0E0FC22D083D082C5F0E493A3C5F0C3B0
:1003930095F0F5F0E493A3C395F04005E5F00480F0
:1003A30001E475F002A42582F582E5F03583F58337
:1003B300E493A3C0E0E493C0E022D083D082CCC016
:1003C300E0E493A360061203E71470FAE493A360D6
:1003D300061204061470FAD0E0FCE493A3C0E0E430
:1003E30093C0E022C0E0E493A3D39C5010E493A312
:1003F300C39C400AD0E0D0E0D0E00203DAA3A3A379
:10040300D0E022C0E0E493A36C7009D0E0D0E0D048
:10041300E00203DAA3A3D0E022C082C08374FE12F9
:1004230001AB12046912047485108285118374AAC6
:10043300F0A3E4F0851082851183E07004C2AF80DD
:10044300FE74021201C1D083D0822275CB4475CCD5
:1004530004EA33333354F8F5CD43CB10A2D950FC1F
:1004630075CB00C2D92243FE0143FE02C290C29162
:1004730022438F0243F7012212041C800312060C4D
:100483007A007B00121451E970F3D290D291E49078
:100493000401F09004BE7808120150900402780819
:1004A30012015F7C017D047A01790A1216A5A281EB
:1004B300500A7901120618120566800CA2A050EEAC
:1004C30079021206181204CD80FE74F81202027427
:1004D300FC1201AB74031201F6AA82AB83121484DB
:1004E300E970F179011206187C007D007A04790322
:1004F3001216A51205F9801A851082851183E0640E
:10050300016005E064027005E0F9120618E4900446
:1005130000F074021201F6AC82AD8385108285115E
:1005230083AA82AB8374031201F6E0F91215C5E9BD
:1005330070B674021201F6E060AE74011201F6E0C7
:10054300FE60B5900400E0C39E50C78510828511FC
:1005530083E064016005E064027005E0F9120618A7
:10056300EE80AB74F812020274FD1201AB7E0079C7
:1005730002120618800312060C74021201F6AA82F4
:10058300AB831216A1E970EEA2915005790212060F
:1005930018740280027401851082851183F090041F
:1005A30000E004F0C0E074011201F6D0E0F07C003A
:1005B3007D007A0479031216A51205EA1205EA12E0
:1005C30005F97C02851082851183AA82AB83EC1224
:1005D30001F6E0F91214F8E970D479011206180E45
:1005E30074075E60B080AA7AE87B03120AB87AE8DF
:1005F3007B03120AB8227AE87B03120AB87C007DD7
:10060300007A0579031216A52279011206187902D8
:1006130012061880D97401697006639001E590226F
:100623007402697005639002E5902274F712020266
:1006330075081B75090078081203497C007D007A50
:10064300077B0412283074021201C190624AE064ED
:10065300A56004C2AF80FE906249E07004C2AF801F
:10066300FE53BEFBE59DA2E650FA0078F87901003F
:1006730012095D7001E970F775C600E59E70FC43D1
:10068300BE0474149061A9F0743F9061ABF074F8E8
:10069300906196F074859061A8F0745A9061ACF003
:1006A30074159061B2F0E4906182F074109061B5BA
:1006B300F0740E9061B6F074039061B7F074099012
:1006C30061FAF074FF9061E5F0906172F0906173EC
:1006D300F0906189E054F34408F075E1E390619987
:1006E300E0A2E050F8780079007C10E8C333F8E921
:1006F30033F99061A7E0A2E0E492E048F81CEC70C3
:10070300EA748048F5BCE9F5BC75E1EF75E1ED7578
:10071300E1ED906189E054F3F07401900406F090E8
:100723006180E0C2E0F0906181E05497F090618ACB
:10073300E0C2E0F0747F906194F079001209677968
:10074300021209A1439A019004247433F0A3E4F044
:10075300120B9FD2AF02099C74F7120202EAFEEB5E
:10076300FF8909750800900406E064017004C2AFB4
:1007730080FE120B855391FD900426E08E828F83B9
:10078300A3A3A3F0900426E004F074018E828F8368
:10079300A3F074888E828F83A3A3F075E1EE8E821B
:1007A3008F83E0FB74022BF5D97A008005A3E0F573
:1007B300D90AEAC39B40F6E509700B75E1E9E591B7
:1007C300A2E1404A80F8740165096004C2AF80FE6B
:1007D3007E0480071E120B85120B9F75E1E3906167
:1007E30099E0A2E050F8A2AFE492E0FAC2AF75E15B
:1007F300EA906193E05408FBEAA2E092AFEB600851
:10080300E591A2E1400880F8EE70C9750801120B6A
:1008130085900406E064037003120B75A9080209AE
:100823009CC082C083900407EAFCEBFD741B120199
:100833007B0209DAC082C083900406E0640170047D
:10084300C2AF80FEE0640360067403F0120B75020E
:1008530009DAC082C083900406E064017004C2AF69
:1008630080FEE064037006120B857402F00209DA5D
:10087300C0E074ED12029A900406E064036004C2BF
:10088300AF80FEE5E9A2E250FA906193E0A2E65060
:100893000EE0A2E7400975E1ED75E1ED0209495368
:1008A300E9FB747F55D9F508F58285820A74FF1236
:1008B3000954C3E8941AE99400A2D265D0335007CF
:1008C300E508C3940E500D7A00EAC39508506EE50F
:1008D300D90A80F57E077F04750C19750D00780C15
:1008E3001203497C007D007A077B041228307402CE
:1008F3001201C174FE2508900407F074FE12095416
:100903008E828F83A3AE82AF83E5D9F012095D7027
:1009130001E970EC74B425D9900420F0E5D9FAA26A
:10092300E7501A747F5A900421F0900408E06401A0
:10093300700B900409E06488700312184890619B5F
:10094300E06003020886759B0053E9FB7F06020201
:10095300F9250AF874FF3400F922E824FF18E93472
:10096300FFF9E82274F71202028908E9C3940440EC
:1009730004C2AF80FE120B8575F005E50824C6F5A9
:1009830082E43404F583E0A424D490618FF09004CE
:1009930006E064037003120B757F0202026274F7B0
:1009A3001202028908120B85E50824CAF582E43491
:1009B30004F583E0906190F0900406E06403700313
:1009C300120B7580D4C082C083900406E06401706A
:1009D300037402F08001F0D083D08222C082C083EE
:1009E300900406E0640160061208557401F080E784
:1009F30074F81202028A828B83A3A882A9838A8253
:100A03008B83E0FE74FF6E600574FE6E700988824E
:100A13008983E064FF6023EA2403FCEB3400FDEAEE
:100A230024020A0AEB3400FB8A828B83E064FF70A2
:100A33000D8C828D83E064FF700479018022EE9037
:100A43006172F088828983E0906173F08A828B837C
:100A5300E0906174F08C828D83E0906175F0790091
:100A63007F01020262C082C083906172E064FF6012
:100A730008906173E064FF7004C2AF80FE906180F0
:100A8300E0D2E00209D9C082C083900406E0640387
:100A93006004C2AF80FE906199E0A2E050F89061DB
:100AA30098E0FA74B42AF90209DA74F355B44404E9
:100AB300F5B4A9BD2274F8120202EAFEEB800E7AA5
:100AC300E87B03120BB9EE24FF1EEF34FFFFEE7039
:100AD30001EF70EB020A6374F6120202900424E041
:100AE300F508A3E0F509A2AFE492E0FAC2AF7401FE
:100AF300900422F0EAA2E092AF800CE50824FFF50F
:100B030008E50934FFF509E5087002E50960357E5B
:100B13003E7F00A2AFE492E0F50AC2AF7A107B00F9
:100B230012044EE50AA2E092AF900423E07012EEA5
:100B3300F8EFF974FF281E74FF39FFE87001E970BC
:100B4300D2E060B7A2AFE492E0FAC2AFE49004232C
:100B5300F0900422F0EAA2E092AF7F03020262C0A7
:100B630082C083900422E060067401900423F002A3
:100B730009DAC082C08375E1E39061A3E0D2E202A7
:100B830009D9C082C0839061A3E0C2E2F075E1EFAE
:100B930075E1ED75E1ED75E9FB0209DAEEC0E012EE
:100BA3000AADE9540F04FE7AFA7B00120BB91EEE6C
:100BB30070F5D0E0FE2274F71202028A088B0974E2
:100BC30004780812019CAE08AF09EA7001EB6028B3
:100BD300A2AFE492E0F508C2AF7A107B0012044E94
:100BE300E508A2E092AFEEF8EFF974FF281E74FF58
:100BF30039FFE87001E970D802099CC082C0839074
:100C03000406E0F90209DA74F7120202EAFEEBFFC6
:100C130075082575090078081203497C007D007A60
:100C2300CE7B0412283074021201C174039004CEE7
:100C3300F0743D9004CFF074209004D0F0740190D0
:100C430004D1F0121AE8EEFAEFFB12175A12119EB2
:100C5300121AE412264AEEFAEFFB121DEF122528B0
:100C6300121FAB1226EC9004E8E070347402F074A7
:100C7300039004E9F0743F9004F0F09004F1F074F1
:100C8300FF9004F2F07508047808120349121BFC64
:100C9300EAFCEBFD7AEA7B0412274974021201C1D4
:100CA30079007F0202026274F812020274FF1201D9
:100CB300AB7B00EB120D7470070BEBC3940340F393
:100CC30074036B70067A007B00805DEB75F00BA4F8
:100CD30024D2FEE5F03404FFEEF8EFF9E4888289CC
:100CE30083A3A3A3A3A3A3A3A3A3F07402888289CA
:100CF30083F09004D1E088828983A3A3A3A3A3A351
:100D0300A3A3A3A3F09004D1E004F0E0F960F67488
:100D1300FF6960F1851082851183AA82AB8312106B
:100D230075E970E1EEFAEFFB74011201C17F010274
:100D33000262C082C083E48A828B83F0D083D08234
:100D430022C082C08374FF1201AB85108285118398
:100D5300AA82AB83121075E96006E0120D74600677
:100D6300758200758300AA82AB8374011201C1806E
:100D7300CB75F00BA424D2F582E5F03404F583E0BF
:100D830064022274F31202028A0C8B0D89097ED24B
:100D93007F047508008E828F83E064027033750AC6
:100DA30004750B00780A120349AC0CAD0D120EA0AA
:100DB3001201C1EA7001EB70188E828F83A3A3A383
:100DC300A3A3A3A3A3A3E065097006EEFAEFFB8038
:100DD30009120DE240BF7A007B007F060202621215
:100DE30010BB940222C082C083E98A828B83600194
:100DF300A3A3A3A3A3A3A3A3A3E0FCEC60078A82FA
:100E03008B83E0700479028008ECC3942040F67968
:100E130000020D3F74F11202028A0C8B0D8C0E8DB1
:100E23000F7ED27F04EA240CF582EB3400F583E0D5
:100E3300543FF5097508008E828F83E06402704B7E
:100E4300A3A3A3A3A3A3A3A3E06509703E743F6573
:100E530009601B750A04750B00780A120349E50C37
:100E63002408120E9A1201C1EA7001EB701D8E82E2
:100E73008F83A3A3A3A3A3A3A3A3A3A3E0850E820A
:100E8300850F83F0120B62790180071210B540A71A
:100E930079007F08020262FCE50D3400FDEE2402B6
:100EA300120EA722FAEF3400FB1226F0740222740A
:100EB300F112020274FE1201AB89088A0C8B0D7EBB
:100EC300D27F04750A02750B00780A1203497C006D
:100ED3007D0074021201F6AA82AB831228307402D9
:100EE3001201C1750902E50C6E7003E50D6F700305
:100EF300020F858E828F83E064026003020F85EE0A
:100F03002408F50EEF3400F50F850E82F583E0FA21
:100F1300C3943E506D7401650870289004CFE0C3FC
:100F23009A505FEAF8C3E498F8E49400F9851082D4
:100F3300851183E58228F8E58339F9743D28F58224
:100F4300E48039750A04750B00780A120349E50C2D
:100F53002402120E9A1201C1EA7001EB7024850E6D
:100F630082850F83E0F8851082851183E58228F856
:100F7300E5833400F974E028F58274FF39F583744E
:100F830001F0EE240BFEEF3400FF1509E5096003C1
:100F9300020EE979007A008A0A851082851183E5B9
:100FA30082250AF582E5833400F583E0703D7402FF
:100FB3006508700674202AF9803E743DC39AF9903F
:100FC30004D0E0FAE9C39A40429004CFE069700389
:100FD300E014F0E9850C82850D83A3A3A3A3A3A347
:100FE300A3A3F074021201C1020E950AEAC394028C
:100FF30040A57402650870C79004CFE0C399400B05
:101003009004D0E0C39950CBE980C7790080C474C1
:10101300F5120202EAFEEBFF7508028C0AEE250ABE
:10102300121065A2E750348D08EE25081210656989
:1010330070267508047509007808120349121B33DA
:10104300EAFCEBFDEE2404120EA71201C1EA7001C3
:10105300EB70057508008003750801A9087F040279
:101063000262FAEF3400FB740F2AF582E43BF58346
:10107300E02274F81202027CD27D047E008C828D01
:1010830083E064027018A3A3A3A3A3A3A3A3A3A3AE
:10109300E069700AEE8A828B83F0790180110EEC8D
:1010A300240BFCED3400FDEEC3940340D079000221
:1010B3000D301210BB9403220508EE240BFEEF340F
:1010C30000FFE508C32274F5120202ECFEEDFF896E
:1010D3000A89087509007808120349EAFCEBFDEE5A
:1010E300FAEFFB12279174021201C1E50A1203877A
:1010F30002022311FD10231111118E828F83E0F858
:10110300A3E0F98E828F83E8F0A3E9F080128E8248
:101113008F8378081201508E828F83780812015FC3
:1011230002106074F512020274FA1201ABEAFEEBCC
:10113300FFECFAEDFBE9120387020246114C11465C
:10114300116811EEFCEFFD80388E828F83E0FCA3E3
:10115300E0FD851082851183ECF0A3EDF08510820C
:1011630085118380188E828F837808120150740250
:101173001201F6780812015F74021201F6AC82AD17
:1011830083890875090078081203491227917402AC
:101193001201C174061201C102106074F712020237
:1011A30075083A75090078081203497C007D007AB6
:1011B300277B0412283074021201C17808120349F4
:1011C3007C007D007A617B0412283074021201C115
:1011D3007F0202026274F6120202E9FC78007900CF
:1011E3007E007F007D0074016C70067A277B04808B
:1011F300047A617B0475090388088A828B83E06023
:101203001D74016C70210DE06404601BA3E0F50AFA
:10121300C395095012EAF8EBF9850A0980097402AB
:101223006C6048EAFEEBFF0508EA241DFAEB340084
:10123300FBE508C3940240C2EE7001EF7020E87032
:1012430001E970067A007B008021E8FEE9FF8E82C7
:101253008F83A3E0FAECF9121273E5088008740196
:101263002D8E828F83A3F0EEFAEFFB7F03020262DF
:10127300C082C083740169703178277904A2AFE416
:1012830092E0FDC2AF7B0288828983E0600BA3E01A
:10129300FCEAC39C5003E014F0E8241DF8E9340091
:1012A300F91BEB70E2EDA2E092AFD083D0822274FF
:1012B300F112020274F81201AB851082851183EAE0
:1012C300F0A3EBF08C0A74021201F6E4F0A3F0F53C
:1012D3000EF50F74016970237E277F04750C0312CA
:1012E3001437FA74016A703D121444A3E0F9120D25
:1012F300448A0E8B0FEA7001EB70077A007B0002C1
:10130300142D8A828B83A3A3A3A3A3A3A3A3E0F592
:1013130008EA2402F8EB3400F974061201F6E8F047
:10132300A3E9F0800AEA70D3121444A3E0F5087429
:1013330001650A70057509018003750903750D02BE
:10134300A2AFE492E0FAC2AF8E828F83E0650960B8
:101353000302140D7404F0EAA2E092AFEE240EF53A
:1013630082EF3400F583E0543F65086003021405FF
:1013730012143764017021743F65087009E50E2467
:1013830002F8E50F8005EE240AF8EF3400F974043F
:101393001201F6E8F0A3E9F0750A04750B00780A68
:1013A30012034974081201F6E0FCA3E0FD7406126F
:1013B30001F6E0FAA3E0FB1226F074021201C11257
:1013C30014376003EA703B8E828F83A3AA82AB83B8
:1013D300E0C3950C502C74021201F6E07002A3E0F6
:1013E300600D74021201F6E0F812144AE509F08A5E
:1013F300828B83E0F50C74021201F6EEF0A3EFF09A
:10140300800D8E828F83E50980F5EAA2E092AFEE2C
:10141300241DFEEF3400FF150DE50D600302134399
:1014230074021201F6E0FAA3E0FB74081201C17F13
:1014330008020262851082851183E0F812144AE0E3
:1014430022851082851183A3E0F58388822274F8B4
:10145300120202EAFEEBFF90049BE0701912062EC3
:10146300EEFAEFFB120C0AE970121209C8121B33D1
:101473001209F3120A687401F0121E307F0102028E
:101483006274F71202028A828B83120BFEE9F5085B
:10149300790012251174036508600C7401650870E6
:1014A300031209C81208377E007F001224BCE9FA30
:1014B3008A0970187A0A7B00120AB8EE24010EEF2B
:1014C3003400FFC3EE94F4EF940140DF7403650826
:1014D300600E7401650870051209DF800312085558
:1014E300E5097009790112251179018003F079006A
:1014F3007F0202026274F712020275080075090086
:10150300780812034912151274021201C180E174A2
:10151300F11202028A088B098C0A740F1201F6E099
:10152300F50EA3E0F50F121695750B02120BFEEEE6
:101533007001EF600F7901EEFAEFFB120DE8E9FAA3
:101543008A0B6005A90B021690E5087002E5096095
:10155300F3E50AC3940B50ECE50E7002E50F702D12
:101563008E828F83A3E0FDAC0AAA08AB098E828F1B
:1015730083A3A3A3A3A3A3A3A3A3E0F91217838A1B
:10158300088B09EA7001EB7008790380B97902804E
:10159300B5750A04750B00780A120349EE2402FCA0
:1015A300EF3400FDEA2406FAEB3400FB12274974FA
:1015B300021201C17901AA08AB09121A8BE9F50BD2
:1015C300808274F112020274FD1201AB890A8A0E41
:1015D3008B0F8C088D091216957902EE7001EF605E
:1015E300081919120DE8E9600302168B74018510BE
:1015F30082851183F01201F6E50AF0120BFEE9F57C
:101603000AEE2402FAEF3400FB8E828F83A3A3A396
:10161300A3A3A3A3A3E0F912258BE9706B7403655D
:101623000A600C7401650A70031209C812083712A4
:101633000ADA7403650A600E7401650A70051209FB
:10164300DF8003120855750A00750B00780A120330
:1016530049780A1203497808120349AC0EAD0F7496
:10166300061201F6AA82AB8312187C74061201C11A
:10167300850882850983E06004E9FA8009E970043A
:101683007A0A80027A01EAF974031201C17F08021F
:101693000262120D448A0C8B0DAE0CAF0D22122088
:1016A300222274F7120202E9FBEAF9ECFEEDFF9045
:1016B300049BE07013EB1203BD000205CB160ACBAB
:1016C30016C6167902021757EB1203870206C616CF
:1016D300FD161917C616EA16E11622174717EEFA72
:1016E300EFFB121DC3806D7401696003E970D4EED2
:1016F300FAEFFB121D81805C80C97403697009EEE7
:10170300FAEFFB121C01804C74026970B6EEFAEF1B
:10171300FB121C83803EEEFAEFFB121CF48035743F
:101723000169709F7508047509007808120349124E
:101733001B4CEAFCEBFDEEFAEFFB12274974021295
:1017430001C1800E74016970AF121B51E98E828F43
:1017530083F079000214F3C082C083E49004A0F004
:10176300744090049FF0121B3390049DEAF0A3EBA6
:10177300F0120AADE990049CF060F6D083D0822287
:1017830074F112020289088A0E8B0F8C0A8D097973
:10179300021211D88A0C8B0DA80CA90DE8FEE9FFE3
:1017A300E87001E970077A007B00021843740E2584
:1017B3000A8E828F83A3A3F0EE240E121ACD5480D7
:1017C3004508F090049CE0C0E0EE2410F582EF346D
:1017D30000F583D0E0F090049CE004F060F8EE2480
:1017E3000FFAEF3400FB8A828B83E054BF758304C6
:1017F30075829FFCE04C54F8450954778A828B83A9
:10180300F088828983E0C2E7F0750B00780A12033F
:1018130049AC0EAD0FEE24110A0AEF3400FB122778
:101823004974021201C1750804750900780812038E
:1018330049121A7A12274974021201C1EEFAEFFB18
:101843007F0802026274F712020279011211D88A28
:10185300088B09A808A909E8FEE9FFE87001E96017
:1018630013EE24020A0AEF3400FB120824EEFAEF07
:10187300FB1219B47F0202026274F112020274FEB7
:101883001201AB851082851183ECF0A3EDF08A0A77
:101893008B0B74111201F6E0F50CA3E0F50D741532
:1018A3001201F6E0F50EA3E0F50FE4850C82850D39
:1018B30083F07C0179011212B28A088B09AE08AF5A
:1018C30009EE7001EF700302198A750800750900AB
:1018D300850A82850B83E064017015A3E0F9120D7C
:1018E300448A088B09EA7001EB7005790202198CAE
:1018F3008E828F83A3A3E024F2F50A850C82850DE3
:1019030083F0750B00780A120349EE2411FCEF34BF
:1019130000FD74021201F61219941201C1E5087058
:1019230002E509600FEE241B12199FF0EE241C122E
:10193300199FA3F074131201F6E07002A3E0601E76
:101943007508047509007808120349EE240AFCEFB0
:101953003400FD74151201F61219941201C1E50E3B
:101963007002E50F600C121A6E5407850E82850F04
:1019730083F08E828F83A3E0FA7901121273E48ECF
:10198300828F83F0F98002790474021201C1021874
:1019930043E0FAA3E0FB122749740222F582EF34F5
:1019A30000F583E0850882850983A3A3A3A3A3A3EA
:1019B3002274F312020274FF1201ABEAFEEBFFEE94
:1019C300240EF50AEF3400F50B850A82F583E05403
:1019D3003FF508750C04750D00780C120349121AB3
:1019E3007A1226F074021201C1EA7001EB7010E45E
:1019F3008E828F83F074011201C17F060202628519
:101A03000A82850B83E0A2E640E5E50860E1EE2467
:101A130002FAEF3400FBE508C394075021E508C33D
:101A23003324F1F582E43404F583E0F8A3E0F5838D
:101A33008882120200E9640170B5740180B2743FB8
:101A43006508600EE508C3942040A4E508C3943FED
:101A5300509D121A6E54306096851082851183ACA6
:101A630082AD83120E17E970D18084EE240FF582C4
:101A7300EF3400F583E02290049DE0FCA3E0FDEE4B
:101A8300240AFAEF3400FB2274F8120202EAFEEB96
:101A9300FFE9FAEE240F121ACD54CF758304758231
:101AA300A0FBE04B88828983F0EAF9EE2402FAEF87
:101AB3003400FB12075BE97004790080027909E4C2
:101AC3008E828F83F07F01020262F8EF3400F9887F
:101AD300828983E022C082C08390049FE0F90217C9
:101AE3007E2279002274F712020275080475090038
:101AF30078081203497C007D007AA17B0412283008
:101B030074021201C19004A9E0701B780812034902
:101B13007CFF7D047AA57B0412274974021201C15C
:101B230074019004A9F080031201C17F02020262D2
:101B3300C082C0839004A9E060067AA57B04800478
:101B43007AFF7B04D083D082227A047B0522790238
:101B53002274F712020279009004A9E0702175083B
:101B63000489097808120349EAFCEBFD7AA57B0492
:101B730012274974021201C174019004A9F0F9807B
:101B8300AA74F71202027508047509007808120393
:101B930049EAFCEBFD7AA17B041227497402808891
:101BA30074F712020274FC1201AB75080475090084
:101BB30078081203497C007D0074021201F6AA82A0
:101BC300AB8312283074021201C1780812034974DE
:101BD300021201F6AC82AD837AA17B041226F07463
:101BE300021201C1EA7001EB70067A007B008004E7
:101BF3007AA17B047404021B2B7AC27B042274F542
:101C0300120202EAFEEBFF8E828F83A3A3A3A3A398
:101C1300E0F91203BD010506231C0103231C271C45
:101C23007D0180027D038E828F83A3A3A3A3E0FCA7
:101C33008E828F83A3A3E0FAA3E0FB1217838A08A3
:101C43008B09A909EA7001E9602F750A04750B0075
:101C5300780A1203498E828F83E0FCA3E0FDEA2415
:101C630006FAE93400FB12274974021201C1790113
:101C7300AA08AB09121A8B800279037F040202625D
:101C830074F712020274FD1201ABE4851082851110
:101C930083F08A828B83A3A3A3A3A3E0C0E0740190
:101CA3001201F6D0E0F0EA2406F508EB3400F5095A
:101CB30078081203498A828B8312035AEA2404F5B3
:101CC30008EB3400F50978081203498A828B83A351
:101CD300A3E0FCA3E0FD74061201F6AA82AB831213
:101CE300187C74061201C174031201C17F0202023F
:101CF3006274F5120202EAFEEBFF750800740469D0
:101D030070081208551209DF806F74056970051297
:101D130009C8806574066970398E828F83E0F91271
:101D23000D44EA7001EB70047902804F750A027565
:101D33000B00780A120349EA2406FCEB3400FD8EFB
:101D4300828F83A3AA82AB8312274974021201C133
:101D53008027740769700B120A89E98E828F83F0DA
:101D630080177408697005120837800D740969704B
:101D7300051208558003750802A908021C7E74F732
:101D8300120202EAFEEBFF75080274016970207506
:101D930008047509007808120349121B33EAFCEBA7
:101DA300FDEEFAEFFB12274974021201C18009E923
:101DB3007009121B54E96003750800A908021CEF9F
:101DC30074F7120202E9FC8A828B83E0F9740E6CC9
:101DD30060047902801374FF6960F7120D44EA709E
:101DE30001EB60EE120D357900021CEF74F512025F
:101DF3000290050878081201507583047582AA7849
:101E03000812013B701090050C78081201509004E1
:101E1300AA780812015F9004AEEAF0A3EBF0120A6D
:101E2300ADE99004B0F080007F0402026274F51201
:101E3300020274E91201AB120BFEE9FE7F06121BCC
:101E4300FC851082851183EAF0A3EBF0740712017D
:101E5300F6A882A98374021201F6E8F0A3E9F074EC
:101E6300041201F67408F074051201F67403F07994
:101E73000474091201F6AC82AD837AAA7B041211B1
:101E83002674071201F67401F09004B0E0C0E07408
:101E9300081201F6D0E0F0740D1201F67402F0128C
:101EA3001B51740E1201F6E9F0851082851183AC83
:101EB30082AD837A0379021216A574051201F674B2
:101EC30003F074071201F6A882A98374021201F6C3
:101ED300E8F0A3E9F0740F1201F6A882A983851034
:101EE30082851183E8F0A3E9F074036E600B74013B
:101EF3006E70031209C8120837120ADA74036E608F
:101F03000D74016E70051209DF80031208558510E8
:101F130082851183AC82AD837A0279021216A5E918
:101F2300705B74071201F6E0547FFA74016A60046F
:101F3300EF6A70497508047509007808120349743B
:101F43000B1201F6AC82AD8374151201F6AA82ABB3
:101F53008312274974021201C17808120150AA089A
:101F6300AB09AC0AAD0B121FF9740F1201F6AA826A
:101F7300AB83121B849004B0E004F07F00EFF9748C
:101F8300171201C1021E2B74F81202027E007D019A
:101F93007C009004B0E0F9121012E97004120B6295
:101FA3000EEEF97F0102026274F512020290050837
:101FB30078081201507583047582B1780812013BC9
:101FC300701090051078081201509004B17808122F
:101FD300015F120AADE99004B9F060F67508027565
:101FE300090078081203497C007D007AB67B04124D
:101FF30028307402802174F51202028A088B098C3E
:102003000A8D0B900508780812013B60089004B113
:10201300780812015F80031201C17F040202627417
:10202300F512020274EC1201AB8A088B09120CAA96
:102033008A0A8B0BAE0AAF0BEE7001EF700302221C
:102043000C7901120EB2E9700AEEFAEFFB120D35AC
:1020530002220C750A04750B00780A120349121B3D
:10206300FCEAFCEBFD74121201F6AA82AB83122484
:10207300091201C1A882A983851082851183E8F022
:10208300A3E9F074071201F6A882A983740212016E
:10209300F6E8F0A3E9F074041201F67409F074058C
:1020A3001201F67402F0790474091201F6AC82ADE0
:1020B300837AB17B041211268E828F83A3A3A3A3F9
:1020C300A3A3A3A3E0C0E0740D1201F6D0E0F09047
:1020D30004B9E0C0E074081201F6D0E0F0121AD897
:1020E300740E1201F6E9F074071201F67401F0128E
:1020F3001B51740F1201F6E9F0851082851183AC30
:1021030082AD837A0379021216A5E9600302220ED7
:10211300120BFEE9F50A74051201F67402F0740756
:102123001201F6A882A98374021201F6E8F0A3E96A
:10213300F0EE2402F8EF3400F9851082851183E86C
:10214300F0A3E9F07403650A600C7401650A700377
:102153001209C8120837120ADA7403650A600E748A
:1021630001650A70051209DF800312085585108284
:10217300851183AC82AD837A0279021216A5E970C8
:102183006674071201F6E0547FFA74016A601074F2
:10219300036A600BEEFAEFFB120D357905806C7460
:1021A300028E828F83F074091201F6E08E828F8390
:1021B300A3A3A3A3A3A3A3A3A3F08E828F83A3A309
:1021C300A3A3A3A3A3A3A3A3E0850882850983F004
:1021D3008E828F83A3A882A983740A1201F6E06416
:1021E30040700F7401800DEEFAEFFB120D3579018B
:1021F3008019740388828983F09004B9E004F0E0C5
:1022030070037401F0790080027903741402201AB8
:1022130074F112020274F81201ABEAFEEBFF8E8234
:102223008F83E0F874F228F874FF3400F9C3E8945C
:1022330009E99400A2D265D033401A121B51E9FA7E
:10224300EE241712241F6A600C790274081201C16C
:102253007F080202627904E91201F6AC82AD83EED3
:102263002411FAEF3400FB1210C9C082C08390041A
:10227300B17808120150D083D082780812013B70E4
:10228300C8EE241512241FF50AEE2408F50EEF34C8
:1022930000F50FA90AAA0EFB120D868A088B09A85E
:1022A30008A909E87001E9606112240FC0E0740114
:1022B3001201F6D0E0F088828983A3A3A3A3A3A38A
:1022C300A3A3E0C0E074021201F6D0E0F0121AD822
:1022D30074031201F6E912243D8A088B09A808A9A0
:1022E30009E8FEE9FFE87001E9601A750804750959
:1022F3000078081203491223FD1201C17900EEFA96
:10230300EFFB121A8B790102224E9004B5E07003A1
:1023130002224C120CAA8A088B09EA7001EB60E5D1
:10232300750C04750D00780C120349AC0EAD0FEA61
:1023330024020A0AEB1224061201C1AA08AB097986
:1023430002120EB2E97009AA08AB09120D3580B565
:102353009004B8E0640260EFE0F50C7401250C1200
:102363002428A3E0C0E0E50C24B6F582E43404F5A8
:1023730083D0E0122428E50AF074028508828509D7
:1023830083F0A3A882A983EE241612241F6440704D
:10239300047401800274038882898312242DE0C0AF
:1023A300E074021201F6D0E0F0121AD8740312019D
:1023B300F6E9F012240FC0E074011201F6D0E01226
:1023C300243D8A0A8B0BA80AA90BE8FEE9FFE870F3
:1023D30001E9700302234A750A04750B00780A1297
:1023E30003491223FD1201C17900EEFAEFFB121A21
:1023F3008BE9600302234A022308AC0EAD0FEE24DF
:1024030006FAEF3400FB1227497402227481851007
:1024130082851183F0EE241012241F22F582EF34FB
:1024230000F583E02212242DA322F085088285097A
:1024330083A3A3A3A3A3A3A3A322F0EE240D122497
:102443001F5407FA7403C39AFD7C04851082851117
:1024530083AA82AB8379021217832274F8120202D1
:10246300EAFEEBFF7D017C009004B9E0F912101243
:10247300E97007120B627901803AEE240FF8EF340A
:1024830000F98E828F83E0FA74F22AFA74FF340023
:10249300FB74086A7001EB7009740188828983F008
:1024A300800988828983E064017007EEFAEFFB12EA
:1024B300221379007F0102026274F712020279008B
:1024C300A2AFE492E0FAC2AF9004B8E06036E01441
:1024D300F0EAA2E092AF091225119004B6E0F97C6C
:1024E300009004B8E0FAECC39A501E8C08E5082467
:1024F300B6FAE43404FB8A828B83A3E08A828B835B
:10250300F00C80DDEAA2E092AF7F02020262C08299
:10251300C083E970047A0180027A00EA9004B5F07E
:10252300D083D08222C082C083120AADE99004BC5A
:10253300F0D083D0822274F7120202EAFEEBFF7D11
:10254300017C009004BCE0F9121012E97007120B31
:10255300627901802E750804750900780812034911
:10256300121B33EAFCEBFDEE2404FAEF3400FB12FA
:1025730026F074021201C1EA7001EB700479008045
:102583000279027F0202026274F712020274F312EA
:1025930001AB74061201F67401F09004BCE0C0E0D4
:1025A30074071201F6D0E0F074081201F6E9F07531
:1025B30008047509007808120349EAFCEBFD740B63
:1025C3001201F6AA82AB8312274974021201C19049
:1025D30004BCE004F09004BAE07002A3E0701912A6
:1025E3001BA39004BAEAF0A3EBF09004BAE07002E4
:1025F300A3E07004790B80479004BAE0F8A3E0F9F4
:10260300851082851183E8F0A3E9F074061201F6C0
:10261300A882A98374021201F6E8F0A3E9F0740416
:102623001201F67407F074051201F67406F08510B2
:1026330082851183AC82AD837A0379021216A57465
:102643000D1201C1022586C082C083120AADE99032
:1026530004BDF0D083D082227F0402026274F5129B
:102663000202EAFEEBFF7D017C009004BDE0F9125B
:102673001012E97007120B627901806AEE240FFAD7
:10268300EF3400FB8A828B83E0640170577D038EF5
:10269300828F83E024F2FC79011217838A088B0965
:1026A300A909EA7001E9603C750A04750B00780A10
:1026B300120349EE2408FCEF3400FDEA2406FAE98C
:1026C3003400FB12274974021201C1E5082411F5F5
:1026D30082E5093400F583E0D2E7F07900AA08AB7C
:1026E30009121A8B790002265B2279002274F812F0
:1026F300020274081201F6E0F8A3E08015A3AA828F
:10270300AB838C828D83A3AC82AD83E824FF18E96D
:1027130034FFF9E87001E960248A828B83E0FE8C40
:10272300828D83E06E8A828B8360D2E0F88C828D07
:1027330083E0FAE8C39AFAE49400FB80047A007B0E
:10274300007F0102026274F712020274091201F699
:10275300E0FEA3E0FFEAF8EBF980188C828D83E0BA
:1027630088828983F0A3A882A9838C828D83A3ACFA
:1027730082AD838E088F0974FF25081E74FF350907
:10278300FFE5087002E50970D27F0202026274F766
:1027930012020274091201F6E0F8A3E0F9EAFEEB73
:1027A300FF8A088B09C3EA9CEB9D405EEC28F58207
:1027B300ED39F583C3E5829508E5839509404BEA36
:1027C30028FAEB39FBAC82AD8312281F7002E509AE
:1027D3006041EC24FF1CED34FFFDEA24FF1AEB34C7
:1027E300FFFB8C828D83E08A828B83F080DB8C827B
:1027F3008D83E08A828B83F08C828D83A3AC82AD40
:10280300838A828B83A3AA82AB8312281F7002E57B
:102813000970DBEEFAEFFB7F020202628808890986
:1028230074FF25081874FF3509F9E5082274F812B6
:10283300020274081201F6E0F8A3E0F98A828B839E
:102843008003ECF0A3E8FEE9FF74FF2E1874FF3F4A
:0C285300F9EE7001EF70EB7F01020262F1
:0000D3012C
:00000001FF
