:030000000200D328
:1000830002078800000080FB1200E2B900030200AF
:10009300CDE490F3FF78B179018002F0A3D8FCD9C5
:1000A300FA90F4AFAA82AB839000E5783E790180A1
:1000B30015E493A3AC82AD838A828B83F0A3AA82D7
:1000C300AB838C828D83D8E9D9E7120502120086AF
:1000D30075D00075813F7510FF7511F302008B79A0
:1000E3000122FFFFFFFF0367CAD4FF0000000100E6
:1000F3000000000000000000000000000000D31B0F
:10010300E81A6B1A6C1C2016641B77563412020112
:10011300010100000000000807060504030201E0D6
:1001230066701008A3E066700A08A3E0667004080E
:10013300A3E06622E0F608A3E0F608A3E0F608A32E
:10014300E0F622E6F008A3E6F008A3E6F008A3E64B
:10015300F022CAC0E0E6F0A308DAFAD0E0FA22CA35
:10016300C0E0E0A3C582CCC582C583CDC583F0A31F
:10017300C582CCC582C583CDC583DAE6D0E0CA2269
:10018300C3E498F8E499F91201C48026C3E49AFA07
:10019300E49BFBE920E7E91201C4E498F8E499F948
:1001A30022C3E498F8E499F91201C4E498F8E499B5
:1001B300F9C3E49AFAE49BFB22EB20E7CFE920E7BB
:1001C300E0B90010BB0008E88AF084F8AAF022E442
:1001D300FBC8FA22EB70227B10C833C8C933C9337A
:1001E3005007C39AC3DBF280069A50012ADBEAC8A0
:1001F30033F4C8C933F4C9FA2275F008E4C833C824
:10020300C933C933C99AC99B5004C92AC93BD5F01C
:10021300ECFBC833F4C8E4C9FA22600C08C6C31364
:10022300C618C613C6D5E0F422251010AF08F51082
:10023300400215118008F51040021511D2AF22C0FB
:10024300D0251010AF08F510500205118008F510E5
:1002530050020511D2AFD0D0222510F58210AF087D
:10026300F510400215118008F51040021511D2AFA8
:10027300851183222510F582E43511F58322E47379
:100283002510C582C0E0E51134FFC583C0E0E51049
:10029300C3958224F9F8E4C5A8858311858210C526
:1002A300A8E8CEF0A3E520F0A37808E608F0A3DEE3
:1002B300FAEFF0A3E58124FBF8E608F0A3E608F0E3
:1002C300A30808E608F0A3E608F0A315811581D07A
:1002D300E0FED0E0F815811581E8C0E0EEC0E02231
:1002E300851183851082E0A3FEE0A3F5207808E062
:1002F300A3F608DFFAE0A3FFE0A3C0E0E0A3C0E0B9
:10030300E0A3C0E0E0A3C0E0E4C5A8858210858334
:1003130011C5A8D083D08222C0D02510C582C0E0E9
:10032300E51134FFC583C0E0E510C3958224F310C3
:10033300AF0885831185821080088583118582101B
:10034300D2AFC8F0A3E9F0A3EAF0A3EBF0A37908D6
:10035300E709F0A3D8FAECF0A3EDF0A3EEF0A3EFD6
:10036300F0A3D0E0F0A3D0E0F0A3D0E0F0A3E52029
:10037300F0A3E5F0F0A322851183851082E0C0E0AD
:10038300A3E0F9A3E0FAA3E0FBA37808E0F608A34F
:10039300DFFAE0FCA3E0FDA3E0FEA3E0FFA3E0C0DF
:1003A300E0A3E0C0E0A3E0F5D0A3E0F520A3E0A341
:1003B300F5F0E4C5A8858311858210C5A8D082D045
:1003C30083D0E0F8D0E03274028000C0E0F404127D
:1003D300025CD0E01201552274028000CCC0E0ED33
:1003E300C0E0E510C39CCCAD1150011D10AF068CCD
:1003F300108D1180068C108D11D2AF120162D0E0E6
:10040300FDD0E0FC22D083D082C5F0E493A3C5F0F5
:10041300C395F0F5F0E493A3C395F04005E5F0042C
:100423008001E475F002A42582F582E5F03583F5B9
:1004330083E493A3C0E0E493C0E022D083D082CCD2
:10044300C0E0E493A360061204681470FAE493A373
:1004530060061204871470FAD0E0FCE493A3C0E0B2
:10046300E493C0E022C0E0E493A3D39C5010E49350
:10047300A3C39C400AD0E0D0E0D0E002045BA3A376
:10048300A3D0E022C0E0E493A36C7009D0E0D0E0F5
:10049300D0E002045BA3A3D0E022C082C08374FE39
:1004A30012022C1204F085108285118374AAF0A322
:1004B300E4F0851082851183E07004C2AF80FE747E
:1004C30002120242D083D0822253CBEFC2D843CB55
:1004D3000475F00DEAA4F5CD74FC55CB4402F5CBBD
:1004E30043CB10A2D850FC53CBEFC2D8221204F74F
:1004F300438F202243FE0143FE08D290D29322125F
:10050300049D800A1205227AE87B031209D07A003F
:100513007B001210C1E9790170EA12052280FE12F4
:10052300052B790212052B22740169700663900171
:10053300E590227402697005639008E5902274F7D0
:1005430012028375081875090078081203CA120885
:100553005212024290DF36E054EF64816004C2AF6E
:1005630080FE90DF37E0C394045004C2AF80FE5393
:10057300BEFBE5BEA2E650FA53C6BF43BE0474F405
:10058300F5D575D41E743C90DF13F0741490DF140A
:10059300F0741590DF02F0740590DF04F074FE90A0
:1005A300DF2EF0740990DF25F0740A90DF07F0E482
:1005B30090DF08F0745D90DF09F0744490DF0AF077
:1005C30074EC90DF0BF0742D90DF0CF0743B90DF34
:1005D3000DF0747390DF0EF0742390DF0FF0743B13
:1005E30090DF10F0E490DF11F0741D90DF15F074CC
:1005F3001C90DF16F074C790DF17F0E490DF18F05B
:1006030074B290DF19F074B690DF1AF0741090DFB3
:100613001BF01208B0741190DF1FF0748890DF2371
:10062300F0743190DF24F0740290F3FFF07900123C
:100633000B2B7E007F0075E1027508E875090390B6
:10064300DF3CE0545070237A407B00120989E508AF
:1006530024C0F508E50934FFF509C3E5089401E56D
:10066300099400A2D265D03350D57A10EEC333FE7D
:10067300EF33FF90DF3AE0A2E0E492E04EFE1AEAA5
:1006830070EA74804EF5BCEFF5BC12094190F41A80
:100693007433F0A3E4F090F41C74E2F0A37404F058
:1006A300439A01D2AF0209CB74F7120283EAFEEB3D
:1006B300FF890975080090F3FFE064017004C2AF7D
:1006C30080FE120941EF90F41EF0EE90F41FF074D7
:1006D300DF90F420F074D990F421F0742012091300
:1006E300744190F425F0E509701143D60175E103D7
:1006F300E5E9A2E450FA53E9EF8064740165096007
:1007030004C2AF80FE750904801C1209411208C29D
:10071300E9540F04FE90F41CE0FAA3E0FB120989EC
:100723001EEE70F1150943D60175E10290DF3BE03F
:10073300640D70F87EE87F0390DF3CE05450700551
:10074300120ABC50F375E10390DF3BE0640D6008CF
:10075300E5E9A2E450FA809EE50970AE750801123E
:10076300094190F3FFE0640370031208C8A908026B
:1007730009CBC082C08390F400EAFCEBFD7418122D
:10078300016202095EC0E074F112031B90F3FFE003
:1007930064036004C2AF80FEE5E9A2E4502BE5E9FF
:1007A300A2E6502553E9EF53E9BF539BFCE59B12A7
:1007B300094175081675090078081203CA12085210
:1007C3001202421208C802084D53E9EF539BFCE59D
:1007D3009B75080275090078081203CA90F400E0BB
:1007E300042400FCE434F4FD7A167BF4121D107427
:1007F30002120242E0FA90F417E0A2E7503B8A08A3
:1008030074012508F8E43400F9E89417E99400C367
:1008130065D0335024EAC3940B401E7A017BF41253
:100823000B5DE9701490F416E0F9120AD8E9F09020
:10083300F417E0C2E7F01212A9750816780812033C
:10084300CA12085212024243D6017F0202037A7C83
:10085300007D007A007BF4121DAF74022274F8123B
:10086300028390F3FFE064016013A2AFE492E0FE21
:10087300C2AF12096C7401F0EEA2E092AF020AB7A4
:10088300C082C083E5C6A2E65004C2AF80FE90F3E7
:10089300FFE0640170141208B0740290F3FFF07566
:1008A300E10490DF3BE0640170F802095E74EA90B2
:1008B300DF1CF0740A90DF1DF0E490DF1EF022438A
:1008C300B404A9BC2274F712028374DF90F41EF0FF
:1008D30074D990F41FF074F490F420F0740090F441
:1008E30021F07480120913741190F425F075D681E8
:1008F30075081675090078081203CA120852120205
:100903004243D60112096375E1024391100209CBF8
:1009130090F422F0741890F423F0741390F424F0FC
:1009230022C082C08390F3FFE064017004C2AF80F1
:10093300FEE0640360067403F01208C8801DC082E1
:10094300C0835391EF75E10490DF3BE0640170F8DD
:1009530075D68153D1FE1209638000D083D08222E1
:10096300539BFCE59B53E9EF22C082C08390F3FFC6
:10097300E064017004C2AF80FEE0640370061209F4
:10098300417402F080D574F71202838A088B0974CC
:1009930004780812021DAE08AF09EA7001EB602863
:1009A300A2AFE492E0F508C2AF7A107B001204CC48
:1009B300E508A2E092AFEEF8EFF974FF281E74FF8A
:1009C30039FFE87001E970D87F020202E374F8127C
:1009D3000283EAFEEB800E7AF47B01120989EE248E
:1009E300FF1EEF34FFFFEE7001EF70EB020AB774E6
:1009F300F612028390F41AE0F508A3E0F509A2AF1A
:100A0300E492E0FAC2AF740190F419F0EAA2E09222
:100A1300AF800CE50824FFF508E50934FFF509E587
:100A2300087002E50960357E1F7F00A2AFE492E003
:100A3300F50AC2AF7A107B001204CCE50AA2E09259
:100A4300AF90F418E07012EEF8EFF974FF281E74FB
:100A5300FF39FFE87001E970D2E060B7A2AFE4921A
:100A6300E0FAC2AFE490F418F090F419F0EAA2E0CF
:100A730092AF7F030202E3C082C08390F419E06067
:100A830006740190F418F002095E74F81202839060
:100A9300F3FFE064036004C2AF80FE7EE87F03904F
:100AA300DF3CE054507005120ABC50F390DF3AE08B
:100AB300F9120AD87F010202E37A407B0012098906
:100AC300EE24C0FEEF34FFFFC3EE9401EF9400A2C7
:100AD300D265D03322C008C009E9C39480E9401924
:100AE300F879FF7A027B001201BC8808890974B97E
:100AF3002508F874FF3509800BC313F874B928F877
:100B030074FF3400F9C3E89480E994FFA2D265D05E
:100B13003350027880E8F9D009D00822C082C0831C
:100B230090F3FFE0F902095E74F71202838908E982
:100B3300C394044004C2AF80FE120941E50824B304
:100B4300F582E434F4F583E090DF06F090F3FFE000
:100B5300640370031208C80209CB74F8120283906D
:100B6300F426E07004790080387E007D007C008CE0
:100B730082A882120BB2FF120BA7E06F70010EE87E
:100B830024AFF582E434F4F583E06F70010D0CECCF
:100B9300C3940440DA74046D60CB74046E60C67948
:100BA30001020AB7E824B7F582E434F4F58322EAB4
:100BB30028F582EB3400F583E02274F7120283EA0E
:100BC300FEEBFF75080F75090078081203CA7C0055
:100BD3007D007ABC7BF4121DAF74021202427401D1
:100BE30090F4BCF0743D90F4BDF0742090F4BEF02A
:100BF300740190F4BFF0121623EEFAEFFB1211A862
:100C0300120E0E12161F121BBDEEFAEFFB1218D1B5
:100C1300121B53121A8C121C6B90F4C0E0703474C4
:100C230002F0740390F4C1F0743F90F4C8F090F4B0
:100C3300C9F074FF90F4CAF075080478081203CA67
:100C43001216DEEAFCEBFD7AC27BF4121CC87402B6
:100C530012024279007F020202E322C082C083743F
:100C6300FF12022C851082851183AA82AB83120D99
:100C730074E96014E075F00BA424C0F582E5F03448
:100C8300F4F583E064026006758200758300AA822E
:100C9300AB8380007401120242D083D0822274F7A6
:100CA300120283ECFEEDFF8A828B83A3A3A3A3A38B
:100CB300A3A3A3A3E0543FFC90F4C0E064027041FB
:100CC30090F4C8E06C703A743F6C60257508047545
:100CD300090078081203CAEA2405FCEB3400FD7A04
:100CE300C27BF4121C6F7402120242EA7001EB70B1
:100CF3001090F4CAE08E828F83F0120A7A79018011
:100D0300027900020C5874F5120283EAFEEBFF75B8
:100D130008028C0AEE250A120D64A2E7503C8D08E6
:100D2300EE2508120D6469702E75080475090078A4
:100D3300081203CA12166EEAFCEBFD8E828F83A3A0
:100D4300AA82AB83121C6F7402120242EA7001EB97
:100D530070057508008003750801A9087F04020265
:100D6300E3FAEF3400FB740C2AF582E43BF583E0ED
:100D730022C082C08390F4C0E06402701190F4CA70
:100D8300E069700AE48A828B83F07901800279003A
:100D9300020C9C74F512028374FA12022CEAFEEB25
:100DA300FFECFAEDFBE91204080202B60DBC0DB626
:100DB3000DD80DEEFCEFFD80388E828F83E0FCA30F
:100DC300E0FD851082851183ECF0A3EDF0851082A0
:100DD30085118380188E828F8378081201377402FD
:100DE30012027778081201467402120277AC82ADC0
:100DF30083890875090078081203CA121D1074024A
:100E03001202427406120242020D5F74F712028349
:100E130075083475090078081203CA7C007D007ACE
:100E2300277BF4121DAF740212024278081203CA20
:100E33007C007D007A5B7BF4121DAF7402120242C8
:100E43007F020202E374F6120283E9FC7800790060
:100E53007E007F007D0074016C70067A277BF4802E
:100E6300047A5B7BF475090388088A828B83E060CC
:100E73001D74016C70210DE06404601BA3E0F50A8E
:100E8300C395095012EAF8EBF9850A09800974023F
:100E93006C6048EAFEEBFF0508EA241AFAEB34001B
:100EA300FBE508C3940240C2EE7001EF7020E870C6
:100EB30001E970067A007B008021E8FEE9FF8E825B
:100EC3008F83A3E0FAECF9120EE3E50880087401BE
:100ED3002D8E828F83A3F0EEFAEFFB7F030202E3F2
:100EE300C082C0837401697031782779F4A2AFE4BA
:100EF30092E0FDC2AF7B0288828983E0600BA3E0AE
:100F0300FCEAC39C5003E014F0E8241AF8E9340027
:100F1300F91BEB70E2EDA2E092AFD083D082227492
:100F2300F112028374F812022C851082851183EA70
:100F3300F0A3EBF08C0A7402120277E4F0A3F0F54D
:100F43000EF50F74016970237E277FF4750C03126D
:100F530010A7FA74016A703D1210B4A3E0F9120CE1
:100F63005E8A0E8B0FEA7001EB70077A007B00023A
:100F7300109D8A828B83A3A3A3A3A3A3A3A3E0F5BA
:100F830008EA2402F8EB3400F97406120277E8F059
:100F9300A3E9F0800AEA70D31210B4A3E0F5087451
:100FA30001650A70057509018003750903750D0252
:100FB300A2AFE492E0FAC2AF8E828F83E06509604C
:100FC3000302107D7404F0EAA2E092AFEE240BF565
:100FD30082EF3400F583E0543F6508600302107527
:100FE3001210A764017021743F65087009E50E248F
:100FF30002F8E50F8005EE2407F8EF3400F97404D6
:10100300120277E8F0A3E9F0750A04750B00780A79
:101013001203CA7408120277E0FCA3E0FD740612FF
:101023000277E0FAA3E0FB121C6F74021202421271
:1010330010A76003EA703B8E828F83A3AA82AB83DF
:10104300E0C3950C502C7402120277E07002A3E007
:10105300600D7402120277E0F81210BAE509F08A03
:10106300828B83E0F50C7402120277EEF0A3EFF0AB
:10107300800D8E828F83E50980F5EAA2E092AFEEC0
:10108300241AFEEF3400FF150DE50D6003020FB3C4
:101093007402120277E0FAA3E0FB74081202427FA3
:1010A300080202E3851082851183E0F81210BAE08A
:1010B30022851082851183A3E0F58388822274F848
:1010C300120283EAFEEBFF90F48FE07013120541E6
:1010D300EEFAEFFB120BBDE9700C12088312092420
:1010E3007401F01219127F010202E37F020202E38C
:1010F30074F7120283E9FBEAF9ECFEEDFF90F48F3B
:10110300E07013EB12043E00020519110A191114C1
:101113001179020211A5EB120408020614114B11F6
:101123006711141138112F1170119511EEFAEFFB9D
:101133001218A5806D7401696003E970D4EEFAEFAB
:10114300FB121863805C80C97403697009EEFAEFBF
:10115300FB1216E3804C74026970B6EEFAEFFB12D1
:101163001767803EEEFAEFFB1217D88035740169DA
:10117300709F75080475090078081203CA12168750
:10118300EAFCEBFDEEFAEFFB121CC87402120242FA
:10119300800E74016970AF12168CE98E828F83F012
:1011A30079000210EEC082C083E490F493F07410CF
:1011B30090F494F090F495EAF0A3EBF012166E908D
:1011C300F491EAF0A3EBF01208C2E990F490F06016
:1011D300F6D083D0822274F112028389088A0E8B9F
:1011E3000F8C0A8D097902120E488A0C8B0DA80CFC
:1011F300A90DE8FEE9FFE87001E970077A007B00BA
:1012030002129A740B250A8E828F83A3A3F0EE2415
:101213000B1215D154804508F090F490E0C0E0EE35
:10122300240DF582EF3400F583D0E0F090F490E0E4
:1012330004F060F8EE240CFAEF3400FB8A828B830F
:10124300E054BF7583F4758293FCE04C54F8450970
:1012530054778A828B83F088828983E0C2E7F075B2
:101263000B00780A1203CAAC0EAD0FEE240E0A0A65
:1012730012129F12024275080475090078081203BE
:10128300CA90F491E0FCA3E0FDEE2407FA12129F4A
:10129300120242EEFAEFFB7F080202E3EF3400FB97
:1012A300121CC874022274F71202837901120E48C9
:1012B3008A088B09A808A909E8FEE9FFE87001E993
:1012C3006013EE24020A0AEF3400FB120775EEFAEC
:1012D300EFFB1214117F020202E374F11202837412
:1012E300FE12022C851082851183ECF0A3EDF08AA7
:1012F3000A8B0B7411120277E0F50CA3E0F50D7461
:1013030015120277E0F50EA3E0F50FE4850C828554
:101313000D83F07C017901120F228A088B09AE0834
:10132300AF09EE7001EF70030213EB750800750946
:1013330000850A82850B83E064017015A3E0F9122E
:101343000C5E8A088B09EA7001EB700579020213BF
:10135300ED8E828F83A3A3E024F5F50A850C8285A5
:101363000D83F0750B00780A1203CAEE240EFCEF0E
:101373003400FD74021202771213F5120242E508DB
:101383007002E509600FEE24181213FCF0EE241925
:101393001213FCA3F07413120277E07002A3E0604F
:1013A3001E75080475090078081203CAEE2407FCA9
:1013B300EF3400FD74151202771213F5120242E5A1
:1013C3000E7002E50F600C1216135407850E82850A
:1013D3000F83F08E828F83A3E0FA7901120EE3E488
:1013E3008E828F83F0F98002790474021202420222
:1013F300129AE0FAA3E00212A2F582EF3400F58319
:10140300E0850882850983A3A3A3A3A3A32274F37E
:1014130012028374FF12022C8A088B09EA240BFE42
:10142300EB3400FF8E828F83E0543FF50B750C0481
:10143300750D00780C1203CA90F491E0FCA3E0FD53
:10144300EA2407FAEB3400FB121C6F740212024207
:10145300EA7001EB7012E4850882850983F0740158
:101463001202427F060202E38E828F83E0A2E640ED
:10147300E5E50B60E1C39407502F12157BE50BC321
:101483003324C9F582E434F4F583121586120281FC
:10149300E9FA74016A7004740180BC74026A70B65C
:1014A300AA08AB091215DC80B5743F650B600EE525
:1014B3000BC3942040A0E50BC3943F5099E5082447
:1014C30003FEE5093400FF780C1203CAEEFCEFFDBE
:1014D30090F491E0FAA3E0FB121C6F740212024233
:1014E300EA7001EB7005750A018023750A00743FE9
:1014F300650B706B780C1203CA1216DEEEFCEFFD5F
:10150300121C6F7402120242EA7001EB70518510D3
:1015130082851183AC82AD8312157B120CA1E97015
:1015230003021459E50A7007AA08AB091215DC7403
:1015330001850882850983F090F495E07002A3E0A9
:101543007003021461851082851183E0F990F4958C
:10155300121586120281E96003021459021461E52F
:1015630008240CF582E5093400F583E05430641057
:1015730060030214A3021459E5082402FAE50934AE
:1015830000FB22E0F8A3E0F58388822274F81202BC
:1015930083EAFEEBFFE9FAEE240C1215D154CF7562
:1015A30083F4758294FBE04B88828983F0EAF9EE39
:1015B3002402FAEF3400FB1206ABE97004790080D1
:1015C300027909E48E828F83F07F010202E3F8EF50
:1015D3003400F988828983E02274F8120283EAFED8
:1015E300EBFF121613FA74075AFB74FF2BFCEB6024
:1015F3001774F85A4CF07A017B001209D07901EE86
:10160300FAEFFB12158F8006E48E828F83F080B988
:10161300EE240CF582EF3400F583E02222790022D8
:1016230074F712028375080475090078081203CA57
:101633007C007D007A977BF4121DAF740212024284
:1016430090F49FE0701B78081203CA7CD77DF47A6C
:101653009B7BF4121CC87402120242740190F49F23
:10166300F080031202427F020202E3C082C0839031
:10167300F49FE060067A9B7BF480047AD77BF4D0F6
:1016830083D082227ADC7BF42279022274F712025D
:1016930083790090F49FE070217508048909780824
:1016A3001203CAEAFCEBFD7A9B7BF4121CC874029A
:1016B300120242740190F49FF0F980AA74F71202A7
:1016C3008375080475090078081203CAEAFCEBFD68
:1016D3007A977BF4121CC8740280887AAF7BF42259
:1016E30074F5120283EAFEEBFF8E828F83A3A3A31A
:1016F300A3A3E0F912043E0105060517010305172C
:1017030009177D0180027D038E828F83A3A3A3A388
:10171300E0FC8E828F83A3A3E0FAA3E0FB1211D92E
:101723008A088B09A909EA7001E96031750A047511
:101733000B00780A1203CA8E828F83E0FCA3E0FDBC
:10174300EA24030A0A0AE93400FB121CC8740212D1
:1017530002427901AA08AB0912158F800279037F2F
:10176300040202E374F712028374FD12022CE4856F
:101773001082851183F08A828B83A3A3A3A3A3E0A2
:10178300C0E07401120277D0E0F0EA2406F508EB1A
:101793003400F50978081203CA8A828B831203DBAB
:1017A300EA2404F508EB3400F50978081203CA8A21
:1017B300828B83A3A3E0FCA3E0FD7406120277AA45
:1017C30082AB831212DD74061202427403120242C8
:1017D3007F020202E374F5120283EAFEEBFF75084F
:1017E30000740469700812096C120860806D740536
:1017F30069700812088312092480607406697039BD
:101803008E828F83E0F9120C5EEA7001EB7004792B
:1018130002804A750A02750B00780A1203CAEA2489
:1018230006FCEB3400FD8E828F83A3AA82AB831266
:101833001CC874021202428022740769700B120AD8
:101843008DE98E828F83F0801274086960A8740911
:1018530069700512096C8003750802A908021762F2
:1018630074F7120283EAFEEBFF75080274016970D4
:101873002075080475090078081203CA12166EEA67
:10188300FCEBFDEEFAEFFB121CC87402120242805D
:1018930009E9700912168FE96003750800A90802A7
:1018A30017D374F7120283E9FC8A828B83E0F974FD
:1018B3000E6C60047902801374FF6960F7120C5E8A
:1018C300EA7001EB60EE120C5D79000217D374F538
:1018D30012028390F4E078081201377583F475825D
:1018E300A07808120122701090F4E47808120137EE
:1018F30090F4A0780812014690F4A4EAF0A3EBF068
:101903001208C2E990F4A6F080007F040202E37497
:10191300F512028374E912022C120B1FE9FE7F06F3
:101923001216DE851082851183EAF0A3EBF07407AB
:10193300120277A882A9837402120277E8F0A3E95E
:10194300F074041202777408F074051202777403BA
:10195300F079047409120277AC82AD837AA07BF428
:10196300120D9674071202777401F090F4A6E0C08A
:10197300E07408120277D0E0F0740D120277E4F0FD
:1019830012168C740E120277E9F08510828511838A
:10199300AC82AD837A0379021210F37405120277D5
:1019A3007403F07407120277A882A98374021202E7
:1019B30077E8F0A3E9F0740F120277A882A9838570
:1019C3001082851183E8F0A3E9F074036E600B7451
:1019D300016E70031208831209241209F274036E54
:1019E300600D74016E7005120860800312096C8526
:1019F3001082851183AC82AD837A0279021210F3CF
:101A0300E9705B7407120277E0547FFA74016A602D
:101A130004EF6A704975080475090078081203CA4F
:101A2300740B120277AC82AD837415120277AA820B
:101A3300AB83121CC874021202427808120137AA3F
:101A430008AB09AC0AAD0B121AC2740F120277AAC3
:101A530082AB831216BF90F4A6E004F07F00EFF987
:101A6300741712024202190DC082C0837D017C00EB
:101A730090F4A6E0F9120D09E97007120A7A7901C8
:101A830080027902D083D0822274F512028390F40B
:101A9300E078081201377583F47582A7780812017C
:101AA30022701090F4E8780812013790F4A77808B0
:101AB3001201461208C2E990F4ACF060F68021747A
:101AC300F51202838A088B098C0A8D0B90F4E07857
:101AD30008120122600890F4A778081201468000DA
:101AE3007F040202E374F8120283EAFEEBFF7D0136
:101AF3007C0090F4ACE0F9120D09E9FB7007120ABF
:101B03007A7901804674016B70047902803D7C0010
:101B1300EE240CF8EF3400F98E828F83E0FA74F52B
:101B23002AFA74FF3400FB74086A7001EB700974BD
:101B33000188828983F0800988828983E064017047
:101B43000890F4ABE070020C0CECF97F010202E3A5
:101B5300C082C0831208C2E990F4ADF0D083D08272
:101B63002274F7120283EAFEEBFF7D017C0090F4FE
:101B7300ADE0F9120D09E9FB7007120A7A790180C9
:101B83003474016B70047902802B750804750900A5
:101B930078081203CA12166EEAFCEBFD8E828F835D
:101BA300A3AA82AB83121C6F7402120242EA700171
:101BB300EB70D379007F020202E3C082C083120874
:101BC300C2E990F4AEF0D083D082227F040202E314
:101BD30074F5120283EAFEEBFF7D017C0090F4AE04
:101BE300E0F9120D09E9FA7007120A7A7901807592
:101BF30074016A70047902806CEE240CFAEF3400ED
:101C0300FB8A828B83E0640170597D038E828F830C
:101C1300E024F5FC79011211D98A088B09A909EA94
:101C23007001E9603E750A04750B00780A1203CA55
:101C3300EE2405FCEF3400FDEA24030A0A0AE93422
:101C430000FB121CC87402120242E508240EF5823E
:101C5300E5093400F583E0D2E7F07900AA08AB097F
:101C630012158F7900021BCE2279002274F812021A
:101C7300837408120277E0F8A3E08015A3AA82AB6D
:101C8300838C828D83A3AC82AD83E824FF18E9346F
:101C9300FFF9E87001E960248A828B83E0FE8C827D
:101CA3008D83E06E8A828B8360D2E0F88C828D8391
:101CB300E0FAE8C39AFAE49400FB80047A007B001C
:101CC3007F010202E374F71202837409120277E0C0
:101CD300FEA3E0FFEAF8EBF980188C828D83E0889D
:101CE300828983F0A3A882A9838C828D83A3AC828B
:101CF300AD838E088F0974FF25081E74FF3509FF15
:101D0300E5087002E50970D27F020202E374F7125C
:101D130002837409120277E0F8A3E0F9EAFEEBFF0D
:101D23008A088B09C3EA9CEB9D405EEC28F582EDA3
:101D330039F583C3E5829508E5839509404BEA2885
:101D4300FAEB39FBAC82AD83121D9E7002E509608C
:101D530041EC24FF1CED34FFFDEA24FF1AEB34FFB2
:101D6300FB8C828D83E08A828B83F080DB8C828D77
:101D730083E08A828B83F08C828D83A3AC82AD83D4
:101D83008A828B83A3AA82AB83121D9E7002E5090C
:101D930070DBEEFAEFFB7F020202E3880889097425
:101DA300FF25081874FF3509F9E5082274F81202B3
:101DB300837408120277E0F8A3E0F98A828B8380A8
:101DC30003ECF0A3E8FEE9FF74FF2E1874FF3FF95C
:0B1DD300EE7001EF70EB7F010202E3F5
:0000D3012C
:00000001FF
