:030000000200D328
:100083000207DB00000080FB1200E2B9000302005C
:10009300CDE490F3FF781F79028002F0A3D8FCD956
:1000A300FA90F51DAA82AB839000E578567901801A
:1000B30015E493A3AC82AD838A828B83F0A3AA82D7
:1000C300AB838C828D83D8E9D9E712051A12008697
:1000D30075D00075813F7510FF7511F302008B79A0
:1000E300012212345678FFFFFFFF0367CAD4FF00D3
:1000F30000000100000000000000000000000000FC
:1001030000000000000000000000000000000000EC
:100113000000F621F21F021F8F22DD198A20785674
:10012300341202010101000000000008070605EF78
:10013300BEADDE04030201E066701008A3E0667042
:100143000A08A3E066700408A3E06622E0F608A3A9
:10015300E0F608A3E0F608A3E0F622E6F008A3E63B
:10016300F008A3E6F008A3E6F022CAC0E0E6F0A395
:1001730008DAFAD0E0FA22CAC0E0E0A3C582CCC50F
:1001830082C583CDC583F0A3C582CCC582C583CD8B
:10019300C583DAE6D0E0CA22C3E498F8E499F912F9
:1001A30001DC8026C3E49AFAE49BFBE920E7E91229
:1001B30001DCE498F8E499F922C3E498F8E499F9A6
:1001C3001201DCE498F8E499F9C3E49AFAE49BFB9E
:1001D30022EB20E7CFE920E7E0B90010BB0008E8F5
:1001E3008AF084F8AAF022E4FBC8FA22EB70227B9F
:1001F30010C833C8C933C9335007C39AC3DBF2806D
:10020300069A50012ADBEAC833F4C8C933F4C9FAA1
:100213002275F008E4C833C8C933C933C99AC99BE6
:100223005004C92AC93BD5F0ECFBC833F4C8E4C970
:10023300FA22600C08C6C313C618C613C6D5E0F469
:1002430022251010AF08F510400215118008F51093
:1002530040021511D2AF22C0D0251010AF08F510FF
:10026300500205118008F51050020511D2AFD0D00D
:10027300222510F58210AF08F510400215118008F1
:10028300F51040021511D2AF851183222510F58296
:10029300E43511F58322E4732510C582C0E0E5112E
:1002A30034FFC583C0E0E510C3958224F9F8E4C5A3
:1002B300A8858311858210C5A8E8CEF0A3E520F0B8
:1002C300A37808E608F0A3DEFAEFF0A3E58124FBA8
:1002D300F8E608F0A3E608F0A30808E608F0A3E6AA
:1002E30008F0A315811581D0E0FED0E0F815811543
:1002F30081E8C0E0EEC0E022851183851082E0A38F
:10030300FEE0A3F5207808E0A3F608DFFAE0A3FFF8
:10031300E0A3C0E0E0A3C0E0E0A3C0E0E0A3C0E04E
:10032300E4C5A8858210858311C5A8D083D0822215
:10033300C0D02510C582C0E0E51134FFC583C0E0FD
:10034300E510C3958224F310AF08858311858210CD
:100353008008858311858210D2AFC8F0A3E9F0A38A
:10036300EAF0A3EBF0A37908E709F0A3D8FAECF0DD
:10037300A3EDF0A3EEF0A3EFF0A3D0E0F0A3D0E061
:10038300F0A3D0E0F0A3E520F0A3E5F0F0A32285ED
:100393001183851082E0C0E0A3E0F9A3E0FAA3E0B3
:1003A300FBA37808E0F608A3DFFAE0FCA3E0FDA3D3
:1003B300E0FEA3E0FFA3E0C0E0A3E0C0E0A3E0F51C
:1003C300D0A3E0F520A3E0A3F5F0E4C5A88583114D
:1003D300858210C5A8D082D083D0E0F8D0E03274F3
:1003E300028000C0E0F404120274D0E012016D2216
:1003F30074028000CCC0E0EDC0E0E510C39CCCAD3E
:100403001150011D10AF068C108D1180068C108DBC
:1004130011D2AF12017AD0E0FDD0E0FC22D083D01C
:1004230082C5F0E493A3C5F0C395F0F5F0E493A37C
:10043300C395F04005E5F0048001E475F002A425BE
:1004430082F582E5F03583F583E493A3C0E0E4937A
:10045300C0E022D083D082CCC0E0E493A360061234
:1004630004801470FAE493A3600612049F1470FAD4
:10047300D0E0FCE493A3C0E0E493C0E022C0E0E456
:1004830093A3D39C5010E493A3C39C400AD0E0D021
:10049300E0D0E0020473A3A3A3D0E022C0E0E4937E
:1004A300A36C7009D0E0D0E0D0E0020473A3A3D022
:1004B300E022C082C08374FE120244120508851034
:1004C3008285118374AAF0A3E4F0851082851183D9
:1004D300E07004C2AF80FE740212025AD083D0824D
:1004E3002253CBEFC2D843CB0475F00DEAA4F5CD6C
:1004F30074FC55CB4402F5CB43CB10A2D850FC532C
:10050300CBEFC2D82212050F438F202243FE0143B3
:10051300FE08D290D2932274FB1202441204B580D7
:100523000A1205757AE87B03120A237A007B00120C
:1005330011BBE9790170EA120575E4851082851112
:1005430083F090F51D780812014F740112028F7821
:100553000812015E851082851183AC82AD837A0017
:10056300790A1211ED7C007D007A0B79041211EDEA
:1005730080FE12057E790212057E227401697006DF
:10058300639001E590227402697005639008E59019
:100593002274F712029B7508187509007808120374
:1005A300E21208A512025A90DF36E054EF6481602C
:1005B30004C2AF80FE90DF37E0C394045004C2AF9F
:1005C30080FE53BEFBE5BEA2E650FA53C6BF43BE50
:1005D3000474F4F5D575D41E743C90DF13F07414D1
:1005E30090DF14F0741590DF02F0740590DF04F0CF
:1005F30074FE90DF2EF0740990DF25F0740A90DF0B
:1006030007F0E490DF08F0745D90DF09F074449024
:10061300DF0AF074EC90DF0BF0742D90DF0CF074B4
:100623003B90DF0DF0747390DF0EF0742390DF0FB7
:10063300F0743B90DF10F0E490DF11F0741D90DF55
:1006430015F0741C90DF16F074C790DF17F0E49078
:10065300DF18F074B290DF19F074B690DF1AF074FB
:100663001090DF1BF0120903741190DF1FF07488E0
:1006730090DF23F0743190DF24F0740290F3FFF0E5
:100683007900120AEA7E007F0075E1027508E875B9
:10069300090390DF3CE0545070237A407B00120939
:1006A300DCE50824C0F508E50934FFF509C3E508CE
:1006B3009401E5099400A2D265D03350D57A10EEA7
:1006C300C333FEEF33FF90DF3AE0A2E0E492E04E63
:1006D300FE1AEA70EA74804EF5BCEFF5BC12099479
:1006E30090F41A7433F0A3E4F090F41C74E2F0A3D2
:1006F3007404F0439A01D2AF020A1E74F712029BEC
:10070300EAFEEBFF890975080090F3FFE0640170CE
:1007130004C2AF80FE120994EF90F41EF0EE90F441
:100723001FF074DF90F420F074D990F421F074205A
:10073300120966744190F425F0E509701143D6015E
:1007430075E103E5E9A2E450FA53E9EF806474012B
:1007530065096004C2AF80FE750904801C12099408
:10076300120915E9540F04FE90F41CE0FAA3E0FB10
:100773001209DC1EEE70F1150943D60175E10290F2
:10078300DF3BE0640D70F87EE87F0390DF3CE054CC
:10079300507005120A8750F375E10390DF3BE06464
:1007A3000D6008E5E9A2E450FA809EE50970AE7594
:1007B300080112099490F3FFE06403700312091B0C
:1007C300A908020A1EC082C08390F400EAFCEBFD74
:1007D300741812017A0209B1C0E074F11203339064
:1007E300F3FFE064036004C2AF80FEE5E9A2E450D6
:1007F3002BE5E9A2E6502553E9EF53E9BF539BFCF0
:10080300E59B12099475081675090078081203E22E
:100813001208A512025A12091B0208A053E9EF534A
:100823009BFCE59B75080275090078081203E290AA
:10083300F400E0042400FCE434F4FD7A167BF412A3
:100843002333740212025AE0FA90F417E0A2E7503D
:100853003B8A0874012508F8E43400F9E89417E9A1
:100863009400C365D0335024EAC3940B401E7A012D
:100873007BF4120B1CE9701490F416E0F9120AA32E
:10088300E9F090F417E0C2E7F01213A675081678A2
:10089300081203E21208A512025A43D6017F02028C
:1008A30003927C007D007A007BF41223D27402222F
:1008B30074F812029B90F3FFE064016013A2AFE4AB
:1008C30092E0FEC2AF1209BF7401F0EEA2E092AF54
:1008D300020A82C082C083E5C6A2E65004C2AF808A
:1008E300FE90F3FFE064017014120903740290F3A5
:1008F300FFF075E10490DF3BE0640170F80209B199
:1009030074EA90DF1CF0740A90DF1DF0E490DF1EA0
:10091300F02243B404A9BC2274F712029B74DF9043
:10092300F41EF074D990F41FF074F490F420F07472
:100933000090F421F07480120966741190F425F08C
:1009430075D68175081675090078081203E2120836
:10095300A512025A43D6011209B675E1024391105A
:10096300020A1E90F422F0741890F423F07413908A
:10097300F424F022C082C08390F3FFE0640170048A
:10098300C2AF80FEE0640360067403F012091B80AB
:100993001DC082C0835391EF75E10490DF3BE06497
:1009A3000170F875D68153D1FE1209B68000D08349
:1009B300D08222539BFCE59B53E9EF22C082C08384
:1009C30090F3FFE064017004C2AF80FEE064037043
:1009D300061209947402F080D574F712029B8A08F8
:1009E3008B0974047808120235AE08AF09EA700166
:1009F300EB6028A2AFE492E0F508C2AF7A107B0067
:100A03001204E4E508A2E092AFEEF8EFF974FF28D0
:100A13001E74FF39FFE87001E970D87F020202FB00
:100A230074F812029BEAFEEB800E7AF47B01120942
:100A3300DCEE24FF1EEF34FFFFEE7001EF70EB02DC
:100A43000A82C082C08390F419E06006740190F4B6
:100A530018F00209B174F812029B90F3FFE06403EB
:100A63006004C2AF80FE7EE87F0390DF3CE0545019
:100A73007005120A8750F390DF3AE0F9120AA37F58
:100A8300010202FB7A407B001209DCEE24C0FEEF78
:100A930034FFFFC3EE9401EF9400A2D265D033225A
:100AA300C008C009E9C39480E94019F879FF7A02C4
:100AB3007B001201D48808890974B92508F874FFEA
:100AC3003509800BC313F874B928F874FF3400F99F
:100AD300C3E89480E994FFA2D265D03350027880B2
:100AE300E8F9D009D0082274F712029B8908E9C3F8
:100AF30094044004C2AF80FE120994E5082425F54E
:100B030082E434F5F583E090DF06F090F3FFE064D0
:100B130003700312091B020A1E74F812029B90F45D
:100B230026E07004790080387E007D007C008C8292
:100B3300A882120B71FF120B66E06F70010EE8249E
:100B430021F582E434F5F583E06F70010D0CECC3FD
:100B5300940440DA74046D60CB74046E60C679014A
:100B6300020A82E82429F582E434F5F58322EA288F
:100B7300F582EB3400F583E02274F712029BEAFE60
:100B8300EBFF75081F75090078081203E27C007DEE
:100B9300007A2E7BF51223D2740212025A7401904A
:100BA300F52EF0743D90F52FF0742090F530F0742D
:100BB3000190F531F01219E0EEFAEFFB1212A712D1
:100BC3000E571219DC1221E0EEFAEFFB121C7D1214
:100BD300205D121F7A12228E90F542E07034740267
:100BE300F0740390F543F0743F90F54AF090F54BA1
:100BF300F074FF90F54CF075080478081203E212C4
:100C03001A79EAFCEBFD7A447BF51222EB740212AB
:100C1300025A79007F020202FB22C082C08374FF62
:100C2300120244851082851183AA82AB83120D3888
:100C3300E96014E075F00BA42442F582E5F034F585
:100C4300F583E064026006758200758300AA82ABB7
:100C53008380057A327BF522740112025AD083D045
:100C6300822274F712029BECFEEDFF8A828B83A330
:100C7300A3A3A3A3A3A3A3A3E0543FFC90F542E043
:100C83006402704190F54AE06C703A743F6C6025E1
:100C930075080475090078081203E2EA2405FCEBE1
:100CA3003400FD7A447BF5122292740212025AEA4E
:100CB3007001EB701090F54CE08E828F83F0120A76
:100CC30045790180027900020C1774F512029BEA40
:100CD300FEEBFF7508028C0AEE250A120D28A2E727
:100CE300503C8D08EE2508120D2869702E750804F6
:100CF30075090078081203E2121A28EAFCEBFD8E4C
:100D0300828F83A3AA82AB83122292740212025AA5
:100D1300EA7001EB70057508008003750801A908E6
:100D23007F040202FBFAEF3400FB740C2AF582E421
:100D33003BF583E022C082C08390F542E0640270F9
:100D43001190F54CE069700AE48A828B83F0790193
:100D530080027900020C60E9FB7900EA6B601FEB0B
:100D6300C39A500EEAC394FD4006EBC39403400EAE
:100D73000922EBC394FD4006EAC3940340F22274B4
:100D8300F512029BECFEEDFF890A890875090078CC
:100D9300081203E2EAFCEBFDEEFAEFFB12233374D5
:100DA3000212025AE50A1204200202DC0DB60DDC1F
:100DB3000DCA0D8E828F83E0F8A3E0F98E828F83B4
:100DC300E8F0A3E9F080128E828F83780812014F36
:100DD3008E828F83780812015E020D2374F512024E
:100DE3009B74FA120244EAFEEBFFECFAEDFBE91204
:100DF30004200202FF0D050EFF0D210EEEFCEFFD98
:100E030080388E828F83E0FCA3E0FD8510828511FC
:100E130083ECF0A3EDF085108285118380188E8218
:100E23008F83780812014F740212028F780812011F
:100E33005E740212028FAC82AD8389087509007853
:100E4300081203E2122333740212025A74061202C6
:100E53005A020D2374F712029B75089C75090078DA
:100E6300081203E27C007D007A277BF41223D274FC
:100E73000212025A75083478081203E27C007D00DE
:100E83007AC37BF41223D2740212025A7F02020243
:100E9300FB74F512029BE9FC780079007E007F0069
:100EA3007D0074016C70097A277BF475090680074D
:100EB3007AC37BF475090274012509F50A88088051
:100EC3000EEAFEEBFF0508EA241AFAEB3400FBE511
:100ED30008C39509502B8A828B83E0601D74016CD3
:100EE30070E30DE0640460DDA3E0F50BC3950A50E5
:100EF300D4EAF8EBF9850B0A80CB74026C70C280DC
:100F030033EE7001EF7020E87001E970067A007B20
:100F1300008021E8FEE9FF8E828F83A3E0FAECF9DB
:100F2300120F3CE508800874012D8E828F83A3F095
:100F3300EEFAEFFB7F040202FBC082C083740169F7
:100F43007031782779F4A2AFE492E0FDC2AF7B065B
:100F530088828983E0600BA3E0FCEAC39C5003E032
:100F630014F0E8241AF8E93400F91BEB70E2EDA25F
:100F7300E092AFD083D0822274F112029B74F612F6
:100F83000244740412028FEAF0A3EBF08C0985107B
:100F930082851183E4F0A3F0F50EF50F74061202B7
:100FA3008FE4F0A3F0740169703B7E277FF4750C26
:100FB30007740412028FE02401F8A3E03400F9E877
:100FC300FAE9FB740412028F18121199FC74016C74
:100FD30070358A828B83E0F9120C1D8A0E8B0FEA1F
:100FE3007001EB70077A007B0002118D8A828B837C
:100FF300A3A3A3A3A3A3A3A3E0F508EA2402F8EB06
:101003003400F974088043EC70098A828B83E0F51D
:1010130008803F74026C70CD8A828B83E0F8A3E072
:10102300F9E8240EF582E93400F583E0F508E824B5
:1010330005FAE93400FB740812028FEAF0A3EBF01F
:10104300E8240FF8E93400F9740612028FE8F0A3DC
:10105300E9F07401650970057509018003750903D9
:10106300750D06A2AFE492E0FAC2AF8E828F83E0E1
:101073006509600302116C7404F0EAA2E092AFEE1A
:10108300240BF582EF3400F583E0543F650870725A
:10109300740412028F121197FA74016A7014743F68
:1010A30065087009E50E2402F8E50F800FEE2407AA
:1010B300800874026A7012EE2403F8EF3400F974A6
:1010C3000212028FE8F0A3E9F0750A04750B0078A9
:1010D3000A1203E2740A12028FE0FCA3E0FD740417
:1010E30012028F1211A112025A740412028F1211EA
:1010F300976036740612028FE07002A3E0700CEA68
:1011030060278E828F83E509F08063780A1203E2F9
:10111300EE2407FCEF3400FD740812028F1211A1B4
:1011230012025AEA7001EB70D98E828F83A3AA82CE
:10113300AB83E0C3950C50CA851082851183E070A0
:1011430002A3E06011851082851183E0F8A3E0F526
:10115300838882E509F08A828B83E0F50C8510820F
:10116300851183EEF0A3EF809FEAA2E092AFEE2415
:101173001AFEEF3400FF150DE50D600302106685BE
:101183001082851183E0FAA3E0FB740A12025A7FEE
:10119300080202FBE0F8A3E0F5838882E022E0FA8C
:1011A300A3E0FB12229274022274016970057A276C
:1011B3007BF4227AC37BF42274F812029BEAFEEBDF
:1011C300FF90F4F7E07013120594EEFAEFFB120BA5
:1011D3007CE9700C1208D61209777401F0121E74A0
:1011E3007F010202FB7F020202FB74F712029BE9FA
:1011F300FBEAF9ECFEEDFF90F4F7E07013EB120459
:101203005600020513120A13120E1279020212A4D7
:10121300EB12042002060E12451261126A123212F8
:1012230029126F129412EEFAEFFB121C51807274A2
:1012330001696003E970D4EEFAEFFB121C0F8061C1
:1012430080C97403697009EEFAEFFB121A7E8051AC
:1012530074026970B6EEFAEFFB121B028043EEFADA
:10126300EFFB121B73803A121BFE80357401697009
:101273009A75080475090078081203E2121A41EA04
:10128300FCEBFDEEFAEFFB1222EB740212025A8022
:101293000E74016970AA121A46E98E828F83F0795F
:1012A300000211E8C082C083E490F4FBF074209044
:1012B300F4FCF090F4FDEAF0A3EBF0121A2890F49A
:1012C300F9EAF0A3EBF0120915E990F4F8F060F6EF
:1012D300D083D0822274F112029B89088A0E8B0F6D
:1012E3008C0A8D097902120E948A0C8B0DA80CA915
:1012F3000DE8FEE9FFE87001E970077A007B000260
:101303001399740B250A8E828F83A3A3F0EE240B0B
:1013130012170754804508F090F4F8E0C0E0EE247B
:101323000DF582EF3400F583D0E0F090F4F8E0049B
:10133300F060F8EE240CFAEF3400FB8A828B83E032
:1013430054BF7583F47582FBFCE04C54F845095493
:10135300778A828B83F088828983E0C2E7F0750BFA
:1013630000780A1203E2AC0EAD0FEE240E0A0A1245
:10137300139E12025A75080475090078081203E2D5
:1013830090F4F9E0FCA3E0FDEE2407FA12139E1299
:10139300025AEEFAEFFB7F080202FBEF3400FB1266
:1013A30014FD2274F712029B7901120E948A088BA2
:1013B30009A808A909E8FEE9FFE87001E96013EE4E
:1013C30024020A0AEF3400FB1207C8EEFAEFFB12FD
:1013D30015187F020202FB74F112029B74FE1202C3
:1013E30044851082851183ECF0A3EDF08A0A8B0B00
:1013F300741112028FE0F50CA3E0F50D74151202BF
:101403008FE0F50EA3E0F50FE4850C82850D83F0E4
:101413007C017901120F7B8A088B09AE08AF09EEB4
:101423007001EF70030214E8750800750900850A5E
:1014330082850B83E064017015A3E0F9120C1D8A09
:10144300088B09EA7001EB700579020214EA8E82B7
:101453008F83A3A3E024F5F50A850C82850D83F021
:10146300750B00780A1203E2EE240EFCEF3400FD44
:10147300740212028F1214F212025AE5087002E586
:1014830009600FEE2418121503F0EE241912150348
:10149300A3F0741312028FE07002A3E0601E7508BC
:1014A3000475090078081203E2EE2407FCEF340008
:1014B300FD741512028F1214F212025AE50E700215
:1014C300E50F600C1218CA5407850E82850F83F04E
:1014D3008E828F83A3E0FA7901120F3CE48E828F10
:1014E30083F0F980027904740212025A021399E01C
:1014F300FAA3E00213A1AA82AB831222EB740222A5
:10150300F582EF3400F583E0850882850983A3A380
:10151300A3A3A3A32274F312029B74FE1202448AB0
:10152300088B09EA240BF582EB1218D0543FF50B14
:10153300750C04750D00780C1203E290F4F9E0FCCD
:10154300A3E0FDEA2407FAEB1219D312025AEA7058
:1015530001EB700DE4850882850983F0740202179C
:10156300FCE508240BF582E5091218D0A2E640E455
:10157300E50B60E0C39407502F1216BAE50BC33393
:10158300244BF582E434F5F5831216B1120299E97E
:10159300FA74016A7004740180BB74026A70B5AA9C
:1015A30008AB0912171280B4743F650B600EE50B8C
:1015B300C39420409FE50BC3943F5098E508240350
:1015C300FEE5093400FF780C1203E2EEFCEFFD9018
:1015D300F4F9E0FAA3E0FB122292740212025AEA2F
:1015E3007001EB7005750A018023750A00743F656D
:1015F3000B706B780C1203E2121A79EEFCEFFD12FA
:101603002292740212025AEA7001EB705185108221
:10161300851183AC82AD831216BA120C65E970038F
:10162300021557E50A7007AA08AB091217127401CD
:10163300850882850983F090F4FDE07002A3E070D1
:101643000302155F851082851183E0F990F4FD1282
:1016530016B1120299E9600302155702155F74016E
:1016630012028FAC82AD83EEFAEFFB121E77EA70A3
:1016730001EB60231216BA1218D6E960030215575C
:10168300E508240BF582E5091218D0A2E7500302FE
:1016930015577403021558E508240CF582E5091261
:1016A30018D05430642060030215A2021557E0F8E5
:1016B300A3E0F583888222E5082402FAE5093400D1
:1016C300FB2274F812029BEAFEEBFFE9FAEE240C0C
:1016D30012170754CF7583F47582FCFBE04B8882A5
:1016E3008983F0EAF9EE2402FAEF3400FB1206FED6
:1016F300E97004790080027909E48E828F83F07F98
:10170300010202FBF8EF3400F988828983E0227436
:10171300F812029BEAFEEBFF1218CAFA74075AFB8F
:1017230074FF2BFCEB601774F85A4CF07A017B00C2
:10173300120A237901EEFAEFFB1216C58006E48E36
:10174300828F83F080B974F312029B74FD120244FA
:101753008A0C8B0D8908EA2508F8EB3400F9740C20
:1017630028F582E439F583E0F50974028510828552
:101773001183F0740112028FEAF0A3EBF07C02856F
:101783001082851183AA82AB837901120F7B8A0AA7
:101793008B0BA80AA90BE8FEE9FFE87001E96006D4
:1017A300EEFAEFFB805179021211AC8A0A8B0BAE71
:1017B3000AAF0B7508008E828F83E06403702D756A
:1017C3000A04750B00780A1203E2E50C2405FCE514
:1017D3000D3400FD1219CE12025AEA7001EB700C9F
:1017E300EE240B1218CD543F650960B41219C0944E
:1017F3000240C37A007B00740312025A7F0602027E
:10180300FB74F512029B74E8120244EAFEEBFFEE4E
:10181300240E1218CDF508740A12028FE0548F7546
:1018230083F47582FBFAE04A4420C0E0740A120292
:101833008FD0E0F0750A04750B00780A1203E2EE0C
:101843002405FCEF3400FD740312028F1214F91205
:10185300025A780A1203E2EE240FFCEF3400FD74FF
:101863000712028F1214F912025A740912028FE03E
:1018730054C04508FAF0740B851082851183F090EB
:10188300F4F8E0C0E0740B12028FD0E0F090F4F8AB
:10189300E004F0740A12028FE05471F0D2E0F074A5
:1018A300BF5A4480C0E0740912028FD0E0F079007F
:1018B300851082851183AA82AB831206FE741812E7
:1018C300025A7F040202FBEE240CF582EF3400F58A
:1018D30083E02274F112029B8A0A8B0B8A828B8328
:1018E300E024F8F50979011211AC8A0C8B0DAE0CCA
:1018F300AF0D75080085098285820E8E828F83E085
:10190300640360030219B1A3A3E0F874F828F87420
:10191300FF3400F9E50E687001E960030219B1753F
:101923000C04750D00780C1203E2850A82850B8383
:10193300A3AC82AD831219CE12025AEA7001EB7086
:101943006D780C1203E2E50A2405FCE50B3400FD77
:10195300EE24071219D112025AEA7001EB704F7587
:101963000C01780C1203E2E50A2409FCE50B3400B0
:10197300FDEE240B1219D112025AEA7001EB702EFC
:1019830074FE250EF50C74FF3400F50D780C12036C
:10199300E2E50A240BFCE50B3400FDEE240D1219DD
:1019A300D112025AEA7001EB70047901800C12190A
:1019B300C0940650030218FE79000213990508EE3D
:1019C300241AFEEF3400FFE508C322EE2403FAEFE6
:1019D3003400FB1222927402222279002274F7123D
:1019E300029B75080475090078081203E27C007DE8
:1019F300007AFF7BF41223D2740212025A90F50785
:101A0300E0701B78081203E27C597DF57A037BF5BD
:101A13001222EB740212025A740190F507F080004F
:101A23007F020202FBC082C08390F507E060067A62
:101A3300037BF580047A597BF5D083D082227A5ECA
:101A43007BF52279022274F712029B790090F50745
:101A5300E07021750804890978081203E2EAFCEBB7
:101A6300FD7A037BF51222EB740212025A74019081
:101A7300F507F0F980AA7A217BF52274F512029B0F
:101A8300EAFEEBFF8E828F83A3A3A3A3A3E0F91245
:101A93000456010506A01A0103A01AA41A7D0180A9
:101AA300027D038E828F83A3A3A3A3E0FC8E828F88
:101AB30083A3A3E0FAA3E0FB1212D88A088B09A937
:101AC30009EA7001E96031750A04750B00780A129E
:101AD30003E28E828F83E0FCA3E0FDEA24030A0A7B
:101AE3000AE93400FB1222EB740212025A7901AAAA
:101AF30008AB091216C5800279037F040202FB7446
:101B0300F712029B74FD120244E48510828511834F
:101B1300F08A828B83A3A3A3A3A3E0C0E074011282
:101B2300028FD0E0F0EA2406F508EB3400F50978DB
:101B3300081203E28A828B831203F3EA2404F50872
:101B4300EB3400F50978081203E28A828B83A3A39E
:101B5300E0FCA3E0FD740612028FAA82AB8312138A
:101B6300DA740612025A740312025A7F020202FB4B
:101B730074F512029BEAFEEBFF75080074046970AA
:101B8300081209BF1208B3806D7405697008120842
:101B9300D6120977806074066970398E828F83E06C
:101BA300F9120C1DEA7001EB70047902804A750A80
:101BB30002750B00780A1203E2EA2406FCEB3400F8
:101BC300FD8E828F83A3AA82AB831222EB7402124F
:101BD300025A8022740769700B120A58E98E828FA9
:101BE30083F0801274086960A8740969700512098A
:101BF300BF8003750802A908021AFD740B697004FB
:101C0300790180027902121EEB79002274F7120225
:101C13009BEAFEEBFF7508027401697020750804E6
:101C230075090078081203E2121A28EAFCEBFDEEAC
:101C3300FAEFFB1222EB740212025A8009E97009CF
:101C4300121A49E96003750800A908021B6E74F7AC
:101C530012029BE9FC8A828B83E0F9740E6C6004A8
:101C63007902801374FF6960F7120C1DEA7001EBAF
:101C730060EE120C1C7900021B6E74F512029B902D
:101C8300F562780812014F7583F57582087808129A
:101C9300013A701090F566780812014F90F50878B4
:101CA3000812015E90F50CEAF0A3EBF0120915E9B6
:101CB30090F50EF090F56A780812014FAA08AB0967
:101CC300AC0AAD0B121FB0E490F511F0120C569054
:101CD300F50FEAF0A3EBF07F040202FB74F31202A8
:101CE3009B74F4120244EAFEEBFF8E828F83E0F8CA
:101CF30074F528F874FF3400F9C3E89408E99400F4
:101D0300A2D265D0334018EE2413F582EF3400F5E8
:101D130083E0F508121A46E965086003021E6A7932
:101D230004740112028FAC82AD83EE240EFAEF34F9
:101D330000FB120D82C082C08390F508780812015F
:101D43004FD083D082780812013A6003021E6A746E
:101D53000112028FAA82AB83121FD1790474071276
:101D6300028FAC82AD83740112028FAA82AB8312FD
:101D73000DDF740B12028FE4F0740512028F74816D
:101D8300F0EE240DF582EF3400F583E0C0E0740635
:101D930012028FD0E0F07D017C07740512028FAA36
:101DA30082AB8379031212D88A088B09A808A90980
:101DB300880A890BE87001E97003021E6AEE2405A4
:101DC300F508EF3400F509750C04750D00780C1255
:101DD30003E2AC08AD09EA24030A0A0AE93400FB6A
:101DE3001222EB740212025A8E828F83A3A3A3A33F
:101DF300A3A3A3A3A3A3E0A2E65063851082851146
:101E030083AC82AD83AA08AB09121E77EA7001EB9B
:101E1300704790F50FE0FEA3E0FF8E828F83E0FA18
:101E2300C394035042780C1203E2AC08AD09EA757F
:101E3300F005A4F8A9F090F50FE028FAA3E0398A99
:101E430082F583A3AA82AB831222EB740212025A95
:101E53008E828F83E004F08005E0F91221D27900AD
:101E6300AA0AAB0B1216C5740C12025A7F060202A1
:101E7300FB79002274F112029B8A0E8B0F8C088D62
:101E83000990F50FE02401FEA3E03400FF750A007A
:101E9300800A050AEE2405FEEF3400FF90F50FE0FB
:101EA300F8A3E0F5838882E0FAE50AC39A50307517
:101EB3000C04750D00780C1203E2AC0EAD0FEEFAB4
:101EC300EFFB122292740212025AEA7001EB70C203
:101ED300850882850983E50AF0EEFAEFFB80047A30
:101EE300007B007F080202FBC082C083740169701B
:101EF3000474018001E490F511F0D083D082227440
:101F0300F812029BEAFEEBFF7508007D017C00904E
:101F1300F50EE0F9120CCDE9FB7008120A457508BD
:101F230001804D74016B7005750802804374026B68
:101F3300703E90F511E06038EE240CF8EF3400F9B0
:101F43008E828F83E0FA74F52AFA74FF3400FB74EF
:101F5300076A7001EB7009740188828983F0800934
:101F630088828983E064017007EEFAEFFB121CDFBD
:101F7300A9087F010202FB74F512029B90F56278B7
:101F83000812014F7583F5758212780812013A70B1
:101F93001090F56E780812014F90F512780812012F
:101FA3005E120915E990F517F060F6803D74F5129D
:101FB300029B8A088B098C0A8D0B90F562780812B4
:101FC300013A600890F512780812015E801C74F5DE
:101FD30012029BEA7001EB601190F512780812016E
:101FE3004F8A828B83780812015E7F040202FB749E
:101FF300F812029BEAFEEBFF7D017C0090F517E0EF
:10200300F9120CCDE9FB7007120A45790180467479
:10201300016B70047902803D7C00EE240CF8EF34F0
:1020230000F98E828F83E0FA74F52AFA74FF340084
:10203300FB74086A7001EB7009740188828983F06C
:10204300800988828983E06401700890F516E07046
:10205300020C0CECF97F010202FB74F712029B12D3
:102063000915E990F51BF075080375090078081246
:1020730003E27C007D007A187BF51223D2740212EE
:10208300025A7F020202FB74F712029BEAFEEBFF85
:102093007D017C0090F51BE0F9120CCDE9FB700784
:1020A300120A457901804874016B70047902803FFC
:1020B30075080475090078081203E2121A28EAFC6D
:1020C300EBFD8E828F83A3AA82AB831222927402CA
:1020D30012025AEA7001EB70D3EE240CF582EF1270
:1020E30021C164017007EEFAEFFB1220F47900803E
:1020F3009174F612029B74FF120244EAFEEBFFEEA8
:10210300240DF582EF1221C1F50A85108285118312
:10211300AC82AD83EE2405FAEF3400FB121E77EA9E
:10212300F8EBF9EA7001EB70030221B3E82404F53C
:1021330008E93400F5091221C7E070168508828585
:102143000983E50AF08510828511831221C7740182
:102153008012AA0A850882850983E0F9120D5AE9DB
:10216300604EE50AF07902EEFAEFFB1217498A088E
:102173008B09A808A909E87001E9602D8882898381
:10218300A3E0FA7901120F3CE508240C1221BD5497
:10219300F84401F0E508240B1221BDD2E7F07900E1
:1021A300AA08AB091216C58007EEFAEFFB12180452
:1021B300740112025A7F030202FBF582E50934001F
:1021C300F583E022E02418F582E434F5F5832274E4
:1021D300F712029BE91221C8E4F0022085C082C0F5
:1021E30083120915E990F51CF0D083D082227F0475
:1021F3000202FB74F512029BEAFEEBFF7D017C00F9
:1022030090F51CE0F9120CCDE9FA7007120A457932
:1022130001807574016A70047902806CEE240CFAF3
:10222300EF3400FB8A828B83E0640170597D038E57
:10223300828F83E024F5FC79011212D88A088B0976
:10224300A909EA7001E9603E750A04750B00780A72
:102253001203E2EE2405FCEF3400FDEA24030A0A2C
:102263000AE93400FB1222EB740212025AE5082435
:102273000EF582E5093400F583E0D2E7F07900AA90
:1022830008AB091216C579000221F12279002274E4
:10229300F812029B740812028FE0F8A3E08015A3E2
:1022A300AA82AB838C828D83A3AC82AD83E824FFA7
:1022B30018E934FFF9E87001E960248A828B83E02E
:1022C300FE8C828D83E06E8A828B8360D2E0F88CF1
:1022D300828D83E0FAE8C39AFAE49400FB80047ADF
:1022E300007B007F010202FB74F712029B74091248
:1022F300028FE0FEA3E0FFEAF8EBF980188C828DF1
:1023030083E088828983F0A3A882A9838C828D834A
:10231300A3AC82AD838E088F0974FF25081E74FF5A
:102323003509FFE5087002E50970D27F020202FB5E
:1023330074F712029B740912028FE0F8A3E0F9EA22
:10234300FEEBFF8A088B09C3EA9CEB9D405EEC28F9
:10235300F582ED39F583C3E5829508E58395094058
:102363004BEA28FAEB39FBAC82AD831223C170022E
:10237300E5096041EC24FF1CED34FFFDEA24FF1A5C
:10238300EB34FFFB8C828D83E08A828B83F080DBCE
:102393008C828D83E08A828B83F08C828D83A3ACC5
:1023A30082AD838A828B83A3AA82AB831223C170FB
:1023B30002E50970DBEEFAEFFB7F020202FB8808FD
:1023C300890974FF25081874FF3509F9E508227493
:1023D300F812029B740812028FE0F8A3E0F98A82D4
:1023E3008B838003ECF0A3E8FEE9FF74FF2E1874DF
:0E23F300FF3FF9EE7001EF70EB7F010202FB7D
:0000D3012C
:00000001FF
