:030000000200D328
:100083000206BF00000080FB1200E2B90003020079
:10009300CDE490F3FF78B879018002F0A3D8FCD9BE
:1000A300FA90F4B6AA82AB839000E5783E7901809A
:1000B30015E493A3AC82AD838A828B83F0A3AA82D7
:1000C300AB838C828D83D8E9D9E712047F12008633
:1000D30075D00075813F7510FF7511F302008B79A0
:1000E3000122FFFFFFFF0F14191A060B7F01000007
:1000F3000000000000000000000000000000CB2012
:10010300191F7E1E64218F16622077563412020156
:10011300010100000000000807060504030201E0D6
:1001230066701008A3E066700A08A3E0667004080E
:10013300A3E06622E0F608A3E0F608A3E0F608A32E
:10014300E0F622E6F008A3E6F008A3E6F008A3E64B
:10015300F022CAC0E0E6F0A308DAFAD0E0FA22CA35
:10016300C0E0E0A3C582CCC582C583CDC583F0A31F
:10017300C582CCC582C583CDC583DAE6D0E0CA2269
:10018300600C08C6C313C618C613C6D5E0F42225EF
:100193001010AF08F510400215118008F510400249
:1001A3001511D2AF22C0D0251010AF08F5105002A0
:1001B30005118008F51050020511D2AFD0D02225C9
:1001C30010F58210AF08F510400215118008F510E4
:1001D30040021511D2AF851183222510F582E43533
:1001E30011F58322E4732510C582C0E0E51134FFC5
:1001F300C583C0E0E510C3958224F9F8E4C5A8855A
:100203008311858210C5A8E8CEF0A3E520F0A3787A
:1002130008E608F0A3DEFAEFF0A3E58124FBF8E695
:1002230008F0A3E608F0A30808E608F0A3E608F040
:10023300A315811581D0E0FED0E0F815811581E882
:10024300C0E0EEC0E022851183851082E0A3FEE0CA
:10025300A3F5207808E0A3F608DFFAE0A3FFE0A304
:10026300C0E0E0A3C0E0E0A3C0E0E0A3C0E0E4C5D9
:10027300A8858210858311C5A8D083D08222C0D0DF
:100283002510C582C0E0E51134FFC583C0E0E51049
:10029300C3958224F310AF088583118582108008EB
:1002A300858311858210D2AFC8F0A3E9F0A3EAF0E9
:1002B300A3EBF0A37908E709F0A3D8FAECF0A3EDD8
:1002C300F0A3EEF0A3EFF0A3D0E0F0A3D0E0F0A30F
:1002D300D0E0F0A3E520F0A3E5F0F0A3228511839D
:1002E300851082E0C0E0A3E0F9A3E0FAA3E0FBA35A
:1002F3007808E0F608A3DFFAE0FCA3E0FDA3E0FE44
:10030300A3E0FFA3E0C0E0A3E0C0E0A3E0F5D0A337
:10031300E0F520A3E0A3F5F0E4C5A8858311858269
:1003230010C5A8D082D083D0E0F8D0E03274028028
:1003330000C0E0F4041201C2D0E01201552274029D
:100343008000CCC0E0EDC0E0E510C39CCCAD115003
:10035300011D10AF068C108D1180068C108D11D2EB
:10036300AF120162D0E0FDD0E0FC22D083D082C581
:10037300F0E493A3C5F0C395F0F5F0E493A3C3951C
:10038300F04005E5F0048001E475F002A42582F550
:1003930082E5F03583F583E493A3C0E0E493C0E002
:1003A30022D083D082CCC0E0E493A360061203CEB4
:1003B3001470FAE493A360061203ED1470FAD0E00C
:1003C300FCE493A3C0E0E493C0E022C0E0E493A381
:1003D300D39C5010E493A3C39C400AD0E0D0E0D058
:1003E300E00203C1A3A3A3D0E022C0E0E493A36C83
:1003F3007009D0E0D0E0D0E00203C1A3A3D0E02293
:10040300C082C08374FE12019212046D851082852E
:10041300118374AAF0A3E41204647004C2AF80FED3
:1004230074021201A8D083D08222C082C08374FEDA
:10043300120192851082851183EAF0A3EB12046402
:10044300F5A474011201DDE0F5A575C30075A600DE
:1004530075A70075C301E5C3A2E650FA75C3008012
:10046300BFF0851082851183E022120474438F202C
:100473002243FE0143FE08D290D29322120403804A
:100483000A12049F7AE87B031208687A007B001241
:100493000F79E9790170EA12049F80FE1204A879AA
:1004A300021204A8227401697006639001E5902288
:1004B3007402697005639008E5902274F71201E9EC
:1004C30075081B75090078081203307C007D007ADB
:1004D300007BF41222A774021201A890DF61E0648A
:1004E300856004C2AF80FE90DF60E0C394035004D4
:1004F300C2AF80FE53BEFBE5BEA2E650FA0078F819
:100503007901001207A97001E970F775C600E5C605
:1005130070FC43BE0474FF90DF4CF090DF4B120875
:100523000AE0A2E440FB740290DF05F075E1E2808B
:1005330024780079007C10E8C333F8E933F990DFBD
:100543003AE0A2E0E492E048F81CEC70EA748048D8
:10055300F5BCE9F5BC90DF39E0641F70D475E1E5C3
:1005630075E1E675E1E6E490DF05F01208277432E1
:1005730090DF0CF074F590DF0DF090DF02E0C2E342
:10058300F0747F90DF4FF079001207B379021209FC
:10059300A7439A0190F41D7433F0A3E4F012093CCD
:1005A300D2AF0207E874F71201E9EAFEEBFF89090B
:1005B30075080090F3FFE064017004C2AF80FE127F
:1005C300092C53E9BF90F41FE08E828F83A3A3A36A
:1005D300F090F41FE004F074018E828F83A3F07413
:1005E300888E828F83A3A3F075E1E78E828F83E0E9
:1005F300FB74022BF5D97A008005A3E0F5D90AEA4A
:10060300C39B40F6E509700B75E1E3E5E9A2E6401B
:100613004980F8740165096004C2AF80FE7E0480DE
:10062300071E12092C12093C75E1E27AE07B0112E4
:100633000956A2AFE492E0FAC2AF75E1E490DF623B
:10064300E05410FBEAA2E092AFEB6008E5E9A2E612
:10065300400880F8EE70CA75080112092C90F3FF68
:10066300E064037003120925A9080207E8C082C0E9
:100673008390F400EAFCEBFD741B1201620208058F
:10068300C082C08390F3FFE064017004C2AF80FEB8
:10069300E0640360067403F0120925020805C082B2
:1006A300C08390F3FFE064017004C2AF80FEE06496
:1006B30003700612092C7402F0020805C0E074ED01
:1006C300120281759B00E5E9A2E5400302076390EE
:1006D300F3FFE064036070C2AF80FE7E007FF475B9
:1006E3000C19750D00780C1203307C007D007A0024
:1006F3007BF41222A774021201A874FE250890F459
:1007030000F074FE1207A08E828F83A3AE82AF83A4
:10071300E5D9F01207A97001E970EC74D325D990DB
:10072300F419F0E5D9FAA2E7501A747F5A90F41A33
:10073300F090F401E06401700B90F402E0648870BF
:100743000312120153E9DFE5E9A2E5501390DF62DA
:10075300E0A2E25013E0A2E3400E75E1E675E1E6A4
:1007630075E9FF7F060202E0747F55D9F508F5822B
:1007730085820A74FF1207A0C3E8941AE99400A2C1
:10078300D265D033500AE508C3940E40030206DE57
:100793007A00EAC3950850ACE5D90A80F5250AF832
:1007A30074FF3400F922E824FF18E934FFF9E82242
:1007B30074F71201E98908E9C394044004C2AF80C5
:1007C300FE12092C75F005E50824BAF582E434F429
:1007D300F583E0A4242E90DF11F090F3FFE064038F
:1007E30070031209257F02020249C082C08390F37D
:1007F300FFE06401700A740212080AE0A2E440FBFD
:100803008000D083D08222F090DF17E0C2E3F02291
:10081300C082C08390F3FFE0640160061206A11258
:10082300082780DE90DF17E0D2E3F0740190F3FF36
:10083300F0227F01020249C082C08390F3FFE0648B
:10084300036004C2AF80FE7AE07B0112095690DF99
:1008530007E0FA74D32AF902080574F355B4440483
:10086300F5B4A9BD2274F81201E9EAFEEB800E7A11
:10087300DC7B05120956EE24FF1EEF34FFFFEE70FA
:1008830001EF70EB02083574F61201E990F41DE0F4
:10089300F508A3E0F509A2AFE492E0FAC2AF740150
:1008A30090F41BF0EAA2E092AF800CE50824FFF578
:1008B30008E50934FFF509E5087002E50960357EAE
:1008C3005D7F00A2AFE492E0F50AC2AF7A107B002D
:1008D30012042DE50AA2E092AF90F41CE07012EE30
:1008E300F8EFF974FF281E74FF39FFE87001E9700F
:1008F300D2E060B7A2AFE492E0FAC2AFE490F41C96
:10090300F090F41BF0EAA2E092AF7F03020249C029
:1009130082C08390F41BE06006740190F41CF00223
:10092300080575E1E2439120225391DF75E1E575F6
:10093300E1E675E1E675E9DF22EEC0E012085DE964
:10094300540F04FE7AFA7B001209561EEE70F5D09E
:10095300E0FE2274F71201E98A088B09740478080F
:10096300120183AE08AF09EA7001EB6028A2AFE47D
:1009730092E0F508C2AF7A107B0012042DE508A2BD
:10098300E092AFEEF8EFF974FF281E74FF39FFE829
:100993007001E970D80207E8C082C08390F3FFE0DA
:1009A300F902080574F71201E98908E9C3940340C1
:1009B30004C2AF80FE12092CE50824BEF582E4349C
:1009C300F4F583E090DF0BF090F3FFE06403700332
:1009D3001209250207E874F71201E9EAFEEBFF7535
:1009E300081075090078081203307C007D007AC274
:1009F3007BF41222A774021201A8740190F4C2F0CE
:100A0300743D90F4C3F0742090F4C4F0740190F436
:100A1300C5F0121934EEFAEFFB121105120CC512D0
:100A2300163D1220BAEEFAEFFB121C63122051128C
:100A33001E9F12216390F4C6E070347402F07403B5
:100A430090F4C7F0743F90F4CFF090F4D0F074FFBB
:100A530090F4D1F07508047808120330121A48EAAA
:100A6300FCEBFD7AC97BF41221C074021201A87950
:100A7300007F0202024922C082C08374FF120192E6
:100A8300851082851183AA82AB83120BE8E9601477
:100A9300E075F00CA424C6F582E5F034F4F583E0A8
:100AA30064026006758200758300AA82AB838000AE
:100AB30074011201A8D083D0822274F31201E9EAEF
:100AC300FEEBFF8C0A8D0BEE240CF582EF3400F560
:100AD30083E0543FF50890F4C6E064026003020B20
:100AE3007790F4CFE065086003020B77743F6508E5
:100AF3006025750C04750D00780C120330EE240884
:100B0300FCEF3400FD7AC97BF412216774021201F1
:100B1300A8EA7001EB705D75090190F4D1E0850AD4
:100B230082850B83F0743F65086042EE240DF582E5
:100B3300EF3400F583E0A2E7500E90F4D0E0F9EE35
:100B4300FAEFFB12153B8025A2E350217582C8758D
:100B530083F4E0FAEE240EF582EF3400F583E06AC5
:100B63007008E47582C87583F4F0750900120912E0
:100B7300A909800279007F0602024974F51201E98E
:100B8300EAFEEBFF7508028C0AEE250A120BD8A2C7
:100B9300E7503B8D08EE2508120BD869702D7508B8
:100BA30004750900780812033012197FEAFCEBFD83
:100BB300EE2404FAEF3400FB12216774021201A839
:100BC300EA7001EB70057508008003750801A90838
:100BD3007F04020249FAEF3400FB740F2AF582E422
:100BE3003BF583E022C082C08390F4C6E0640270C8
:100BF3001190F4D1E069700AE48A828B83F0790161
:100C030080027900020AB874F71201E9E9FE90F450
:100C1300C6E06402702A7508047509007808120397
:100C2300307CC97DF412216774021201A8EA7001B5
:100C3300EB700D90F4D0E06E70067AC67BF48004FE
:100C43007A007B00020A7474F51201E974FA120146
:100C530092EAFEEBFFECFAEDFBE912036E02026A85
:100C63000C700C6A0C8C0CEEFCEFFD80388E828FBE
:100C730083E0FCA3E0FD851082851183ECF0A3EDF6
:100C8300F085108285118380188E828F83780812F5
:100C9300013774021201DD78081201467402120151
:100CA300DDAC82AD83890875090078081203301220
:100CB300220874021201A874061201A8020BD37948
:100CC300022274F71201E975083A750900780812CF
:100CD30003307C007D007A207BF41222A774021279
:100CE30001A878081203307C007D007A5A7BF41245
:100CF30022A774021201A87F0202024974F61201AC
:100D0300E9E9FC780079007E007F007D0074016CC6
:100D130070067A207BF480047A5A7BF47509038881
:100D2300088A828B83E0601D74016C70210DE0647E
:100D330004601BA3E0F50AC395095012EAF8EBF926
:100D4300850A09800974026C6048EAFEEBFF050816
:100D5300EA241DFAEB3400FBE508C3940240C2EE1B
:100D63007001EF7020E87001E970067A007B008063
:100D730021E8FEE9FF8E828F83A3E0FAECF9120DDE
:100D83009AE508800874012D8E828F83A3F0EEFA12
:100D9300EFFB7F03020249C082C083740169703193
:100DA300782079F4A2AFE492E0FDC2AF7B0288829F
:100DB3008983E0600BA3E0FCEAC39C5003E014F0DA
:100DC300E8241DF8E93400F91BEB70E2EDA2E09290
:100DD300AFD083D0822274F11201E974F812019228
:100DE300851082851183EAF0A3EBF08C0A7402125A
:100DF30001DDE4F0A3F0F50EF50F74016970237EB5
:100E0300207FF4750C03120F5FFA74016A703E12AF
:100E13000F6CA3E0F9120A7A8A0E8B0FEA7001EBCA
:100E230070077A007B00020F558A828B83A3A3A3EA
:100E3300A3A3A3A3A3A3E0F508EA2403F8EB3400D8
:100E4300F974061201DDE8F0A3E9F0800AEA70D232
:100E5300120F6CA3E0F5087401650A7005750901AA
:100E63008003750903750D02A2AFE492E0FAC2AFE5
:100E73008E828F83E065096003020F357404F0EA04
:100E8300A2E092AFEE240EF582EF3400F583E05436
:100E93003F65086003020F2D120F5F640170217418
:100EA3003F65087009E50E2403F8E50F8005EE247D
:100EB3000AF8EF3400F974041201DDE8F0A3E9F055
:100EC300750A04750B00780A12033074081201DDE9
:100ED300E0FCA3E0FD74061201DDE0FAA3E0FB12DF
:100EE300216774021201A8120F5F6003EA703B8E40
:100EF300828F83A3AA82AB83E0C3950C502C740228
:100F03001201DDE07002A3E0600D74021201DDE066
:100F1300F8120F72E509F08A828B83E0F50C7402F4
:100F23001201DDEEF0A3EFF0800D8E828F83E509D1
:100F330080F5EAA2E092AFEE241DFEEF3400FF1528
:100F43000DE50D6003020E6B74021201DDE0FAA3DE
:100F5300E0FB74081201A87F08020249851082850C
:100F63001183E0F8120F72E022851082851183A3AA
:100F7300E0F58388822274F81201E974FF1201926A
:100F8300EAFEEBFF90F494E070221204BEEEFAEF57
:100F9300FB1209D9E9701E1207EDE4851082851151
:100FA30083F0AA82AB8312166A120683740190F44B
:100FB30094F0121CE174011201A87F01020249742A
:100FC300F11201E9E9FBEAF9ECFEEDFF90F494E09C
:100FD3007013EB1203A4000205E80F0AE80FE30FF6
:100FE3007902021100EB12036E000A3E10B9103EA3
:100FF300109410B0103E1083107A10C210EA106DD6
:101003001006107508008E828F83A3AA82AB838E8D
:10101300828F83E0702BE970178A828B83780C129E
:101023000137AA0CAB0DAC0EAD0F121EDA0210FE87
:101033007401697006121EFB0210FE75080202108D
:10104300FE640170F6E970178A828B83780C1201B3
:1010530037AA0CAB0DAC0EAD0F121C9F0210FE7421
:10106300016970D7121CC00210FEEEFAEFFB120CDE
:10107300C2E9F5080210FEEEFAEFFB121C3780F10D
:101083007401696003E970B3EEFAEFFB121BF5809C
:10109300E07403697009EEFAEFFB121A4D80D27403
:1010A30002697097EEFAEFFB121ACF80C4EEFAEFE3
:1010B300FB121B4080BBEEFAEFFB1218E880B27400
:1010C3000169600302103E7508047509007808126F
:1010D3000330121998EAFCEBFDEEFAEFFB1221C084
:1010E30074021201A88011740169600302103E1298
:1010F300199DE98E828F83F0750800A9087F080285
:101103000249C082C083E490F498F0741090F4997B
:10111300F090F49AEAF0A3EBF012197F90F496EAB8
:10112300F0A3EBF012085DE990F495F060F6D0833C
:10113300D0822274F11201E989088A0E8B0F8C0A7E
:101143008D097902120CFF8A0C8B0DA80CA90DE8EE
:10115300FEE9FFE87001E970077A007B000211EFF6
:10116300740E250A8E828F83A3A3F0EE240E12152C
:101173003054804508F090F495E0C0E0EE2410F57B
:1011830082EF3400F583D0E0F090F495E004F06052
:10119300F8EE240FFAEF3400FB8A828B83E01215FA
:1011A300EA54F8450954778A828B83F088828983CD
:1011B300E0C2E7F0750B00780A120330AC0EAD0FF6
:1011C300EE24110A0A1211F41201A8750804750914
:1011D30000780812033090F496E0FCA3E0FDEE24BF
:1011E3000AFA1211F41201A8EEFAEFFB7F080202C9
:1011F30049EF3400FB12135B227F0202024974F7AA
:101203001201E97901120CFF8A088B09A808A909C0
:10121300E8FEE9FFE87001E96013EE24020A0AEF31
:101223003400FB120670EEFAEFFB12137780CA74D8
:10123300F11201E974FE120192851082851183EC8B
:10124300F0A3EDF08A0A8B0B74111201DDE0F50CAB
:10125300A3E0F50D74151201DDE0F50EA3E0F50F23
:10126300E4850C82850D83F07C017901120DD98A06
:10127300088B09AE08AF09EE7001EF700302134645
:10128300750800750900850A82850B83E064017087
:1012930015A3E0F9120A7A8A088B09EA7001EB7048
:1012A3000579020213488E828F83A3A3E024F2F50B
:1012B3000A850C82850D83F0750B00780A120330C2
:1012C300EE2411FCEF3400FD74021201DD12135001
:1012D3001201A8E5087002E509600FEE241B121342
:1012E30061F0EE241C121361A3F074131201DDE00C
:1012F3007002A3E0601E75080475090078081203E4
:1013030030EE240AFCEF3400FD74151201DD1213D4
:10131300501201A8E50E7002E50F6012EE240FF5DE
:1013230082EF1216375407850E82850F83F08E8263
:101333008F83A3E0FA7901120D9AE48E828F83F0F2
:10134300F98002790474021201A80211EFE0FAA3F2
:10135300E00211F7AA82AB831221C0740222F58244
:10136300EF3400F583E0850882850983A3A3A3A353
:10137300A3A3A32274F31201E974FF1201928A0852
:101383008B09EA240EFEEB3400FF8E828F83E05438
:101393003FF50B750C04750D00780C12033090F4B7
:1013A30096E0FCA3E0FDEA240AFAEB3400FB1221E9
:1013B3006774021201A8EA7001EB7012E4850882D7
:1013C300850983F074011201A87F060202498E8207
:1013D3008F83E0A2E640E5E50B60E1C39407502F5D
:1013E3001214DFE50BC33324D0F582E434F4F58320
:1013F3001214EA1201E7E9FA74016A7004740180B5
:10140300BC74026A70B6AA08AB091215F680B574EB
:101413003F650B600EE50BC3942040A0E50BC3941E
:101423003F5099E5082406FEE5093400FF780C12C5
:101433000330EEFCEFFD90F496E0FAA3E0FB1221FB
:101443006774021201A8EA7001EB7005750A018046
:1014530023750A00743F650B706B780C120330120E
:101463001A48EEFCEFFD12216774021201A8EA701C
:1014730001EB7051851082851183AC82AD83121408
:10148300DF120ABDE970030213BFE50A7007AA0859
:10149300AB091215F67401850882850983F090F46F
:1014A3009AE07002A3E070030213C78510828511CE
:1014B30083E0F990F49A1214EA1201E7E960030257
:1014C30013BF0213C7E508240FF582E50912163787
:1014D3005430641060030214090213BFE5082402A8
:1014E300FAE5093400FB22E0F8A3E0F583888222C1
:1014F30074F81201E9EAFEEBFFE9FAEE240F121584
:10150300301215E1FBE04B88828983F0EAF9EE247F
:1015130002FAEF3400FB1205A8E970047900800297
:101523007909E48E828F83F07F01020249F8EF3458
:1015330000F988828983E02274F71201E974E512C5
:101543000192E9FEEA240E121634FF740D1201DD36
:10155300E01215E1FCE04C1215EAC0E0740D120133
:10156300DDD0E0F07508047509007808120330EA4D
:101573002408FCEB3400FD74061201DD121357122C
:1015830001A8780812033090F496E0FCA3E0FD7400
:101593000A1201DD1213571201A8740C1201DDE0C7
:1015A30054C04EF0740E851082851183F01201DD54
:1015B300EFF0740D1201DDE05478F0440BF0740C7D
:1015C3001201DDE0543FF07900851082851183AA72
:1015D30082AB831205A8741B1201A80211FC54CF1D
:1015E3007583F47582992254BF7583F4758298FCD0
:1015F300E04C2274F81201E9EAFEEBFFEE240FF54A
:1016030082EF121637FA74075AFB74FF2BFCEB6058
:101613001774F85A4CF07A017B001208687901EECE
:10162300FAEFFB1214F38006E48E828F83F0021527
:101633002BF582EB3400F583E02274F71201E97590
:10164300080175090078081203307C007D007A9C3C
:101653007BF41222A774021201A812085DE990F428
:101663009DF07F02020249C082C0838A828B837A03
:1016730002E0F9C39404500D1207B37C9C7DF4740B
:1016830001120162FAEAF9D083D0822274F51201C1
:10169300E974FF120192EAFEEBFF7509007D017CFC
:1016A3000090F49DE0F9120B7EE9FB700912091218
:1016B30075090102175A74016B7006750902021746
:1016C3005A74026B600302175A750800EE240FF573
:1016D30082EF3400F583E012036E01015717EA1617
:1016E300E516750802806DEE24FEFAEF34FFFB1257
:1016F30015F6750A04750B00780A12033012197F68
:10170300EAFCEBFDEE2404FAEF3400FB12216774CC
:10171300021201A8EA7001EB7016EE2410F582EFB5
:101723003400F583E08510828511831218DF80244D
:101733001219EFEA7001EB601B780A120330EE24F2
:1017430008FCEF3400FD12216774021201A8EA704D
:1017530001EB60C6850809A90974011201A87F0479
:1017630002024974F11201E974F11201928A0E8B9B
:101773000F7E0075080112099BE9F5098510828522
:101783001183AC82AD837583F475829C740112015D
:10179300621219EF8A0C8B0DEA7001EB7009121AB1
:1017A300488A0C8B0D8E087F0074011201DDEF1245
:1017B30018DF74041201DDE50CF0A3E50DF07402EB
:1017C3001201DDA882A98374061201DDE8F0A3E902
:1017D300F074081201DD7402F074091201DD74055E
:1017E300F074021201DD7402F090F49DE0C0E07425
:1017F300031201DDD0E0F074041201DDAC82AD838D
:101803007A037902120FC274091201DD7405F074B0
:10181300021201DDA882A98374061201DDE8F0A398
:10182300E9F0740B1201DDA882A98374041201DDAF
:10183300E8F0A3E9F074036509600C7401650970AD
:10184300031207ED12068312088A74036509600EFA
:1018530074016509700512081380031206A174044C
:101863001201DDAC82AD837A027902120FC2E970F4
:101873003BE5086026750A04750B00780A120330ED
:10188300AC0CAD0D740D1201DDAA82AB831221677E
:1018930074021201A8EA7001EB70118E0AE50E259D
:1018A3000AF582E50F3400F583EFF00E90F49DE026
:1018B30004F0EE6004E508700A0FEFC394045003CC
:1018C3000217AC851082851183AA82AB8312166A34
:1018D300EEF9740F1201A87F08020249F0AA82AB45
:1018E3008312166A2274F81201E9EAFEEBFFE91289
:1018F30003A400030002190107190D16192D19126B
:10190300166A802890F49CEEFCEFFD7401120162CC
:10191300F980198E828F83A3E0FAA3E0FB12176686
:10192300E98E828F83F07900800279027F010202BF
:101933004974F71201E97508047509007808120360
:10194300307C007D007A9E7BF41222A77402120180
:10195300A890F4A6E0701B78081203307CDE7DF4B7
:101963007AA27BF41221C074021201A8740190F4CC
:10197300A6F080031201A87F02020249C082C0833D
:1019830090F4A6E060067AA27BF480047ADE7BF40E
:10199300D083D082227AE37BF42279022274F71275
:1019A30001E9790090F4A6E07021750804890978AB
:1019B30008120330EAFCEBFD7AA27BF41221C07417
:1019C300021201A8740190F4A6F0F980AA74F71228
:1019D30001E97508047509007808120330EAFCEB85
:1019E300FD7A9E7BF41221C07402808874F7120181
:1019F300E974FC1201927508047509007808120352
:101A0300307C007D0074021201DDAA82AB831222B6
:101A1300A774021201A8780812033074021201DDC0
:101A2300AC82AD837A9E7BF412216774021201A803
:101A3300EA7001EB70067A007B0080047A9E7BF4E7
:101A430074040219777AB67BF42274F51201E9EA79
:101A5300FEEBFF8E828F83A3A3A3A3A3E0F912035C
:101A6300A40105066F1A01036F1A731A7D01800220
:101A73007D038E828F83A3A3A3A3E0FC8E828F8337
:101A8300A3A3E0FAA3E0FB1211368A088B09A90984
:101A9300EA7001E9602F750A04750B00780A1203D6
:101AA300308E828F83E0FCA3E0FDEA2406FAE9345A
:101AB30000FB1221C074021201A87901AA08AB0924
:101AC3001214F3800279037F0402024974F71201AE
:101AD300E974FD120192E4851082851183F08A82F4
:101AE3008B83A3A3A3A3A3E0C0E074011201DDD001
:101AF300E0F0EA2406F508EB3400F5097808120350
:101B0300308A828B83120341EA2404F508EB340004
:101B1300F50978081203308A828B83A3A3E0FCA320
:101B2300E0FD74061201DDAA82AB83121232740641
:101B33001201A874031201A87F0202024974F5126C
:101B430001E9EAFEEBFF75080074046970091206E7
:101B5300A1120813021BF074056970091207ED1234
:101B63000683021BF074066970398E828F83E0F955
:101B7300120A7AEA7001EB700479028072750A0224
:101B8300750B00780A120330EA2407FCEB3400FDDE
:101B93008E828F83A3AA82AB831221C074021201A7
:101BA300A8804A740769700B12083AE98E828F8302
:101BB300F0803A74086960A774096970051206A178
:101BC300802B740A6970238E828F83E012036E0068
:101BD300027C1BE41BE01BDC1B790280067901807D
:101BE3000279001209A779008005750802A9080285
:101BF3001ACA74F71201E9EAFEEBFF7508027401D1
:101C030069702075080475090078081203301219E9
:101C13007FEAFCEBFDEEFAEFFB1221C07402120126
:101C2300A88009E970091219A0E96003750800A9E1
:101C330008021B3B74F71201E9E9FC8A828B83E0FB
:101C4300F9740E6C60047902801374FF6960F712F3
:101C53000A7AEA7001EB60EE120A797900021B3B03
:101C630074F51201E990F4E778081201377583F4EB
:101C73007582A77808120122701090F4EB7808128D
:101C8300013790F4A7780812014690F4ABEAF0A369
:101C9300EBF012085DE990F4ADF0803D74F51201AC
:101CA300E98A088B098C0A8D0B90F4E778081201F6
:101CB30022600890F4A77808120146801C74F5127C
:101CC30001E9EA7001EB601190F4A778081201377B
:101CD3008A828B8378081201467F0402024974F5D5
:101CE3001201E974E512019212099BE9F5087F06D6
:101CF300740F1201DDAA82AB83121766E9FA8A090F
:101D030070057907021E767E0080010EEEC39509E9
:101D13004003021E748E0A740F1201DDE582250A48
:101D2300FAE5833400FB12166A121A48851082857D
:101D33001183EAF0A3EBF074071201DDA882A983F3
:101D430074021201DDE8F0A3E9F074041201DD74FA
:101D530008F074051201DD7403F0790474091201AB
:101D6300DDAC82AD837AA77BF4120C4A74071201AF
:101D7300DD7401F090F4ADE0C0E074081201DDD031
:101D8300E0F0740D1201DDE4F012199D740E1201DE
:101D9300DDE9F0851082851183AC82AD837A037906
:101DA30002120FC274051201DD7403F074071201ED
:101DB300DDA882A98374021201DDE8F0A3E9F074BF
:101DC300131201DDA882A983851082851183E8F0AF
:101DD300A3E9F074036508600C74016508700312CD
:101DE30007ED12068312088A74036508600E7401F6
:101DF3006508700512081380031206A185108285F9
:101E03001183AC82AD837A027902120FC2E96003B7
:101E1300021D0E74071201DDE0547FFA74016A603B
:101E230007EF6A6003021D0E750804750900780840
:101E3300120330740B1201DDAC82AD8374191201ED
:101E4300DDAA82AB831221C074021201A8780812A2
:101E53000137AA08AB09AC0AAD0B121EDA741312D0
:101E630001DDAA82AB831219D090F4ADE004F07FB8
:101E730000EFF9741B1201A8021CDCC082C0837D31
:101E8300017C0090F4ADE0F9120B7EE970071209B2
:101E930012790180027902D083D0822274F5120173
:101EA300E990F4E778081201377583F47582AE7808
:101EB30008120122701090F4EF780812013790F4A1
:101EC300AE780812014612085DE990F4B3F060F6AB
:101ED30080007F0402024974F51201E98A088B0924
:101EE3008C0A8D0B90F4E77808120122600890F4B5
:101EF300AE780812014680DA74F51201E9EA70013E
:101F0300EB601190F4AE78081201378A828B8378E4
:101F13000812014680BC74F81201E9EAFEEBFF7D6A
:101F2300017C0090F4B3E0F9120B7EE9FB70071219
:101F330009127901801074016B700479028007EE35
:101F4300FAEFFB121F4E7F0102024974F31201E9FB
:101F530074FD120192EAFEEBFF750800EE240FF800
:101F6300EF3400F98E828F83E0FA74F22AFA74FF59
:101F73003400FB74086A7001EB700974018882896C
:101F830083F0801088828983E012036E010145206B
:101F9300971FA61F90F4B2E0600302204575080264
:101FA300022045750908EE2408F50CEF3400F50D01
:101FB300EE2411F582EF3400F583E0F9AA0CAB0DA2
:101FC300120C0AEA7001EB6006120A7975090074B3
:101FD30082851082851183F0EE2410F582EF3400A0
:101FE300F583E0C0E074011201DDD0E0F074021269
:101FF30001DDE509F07D037C03851082851183AA49
:1020030082AB8379021211368A0A8B0BA80AA90BB9
:10201300E8FEE9FFE87001E96028750A04750B0022
:10202300780A120330AC0CAD0DEE2406FAEF34003F
:10203300FB1221C074021201A87900EEFAEFFB1221
:1020430014F3A90874031201A87F06020249C0828F
:10205300C08312085DE990F4B4F0D083D082227477
:10206300F71201E9EAFEEBFF7D017C0090F4B4E096
:10207300F9120B7EE9FB70071209127901803374A0
:10208300016B70047902802A7508047509007808C9
:1020930012033012197FEAFCEBFDEE2404FAEF344D
:1020A30000FB12216774021201A8EA7001EB70D4DD
:1020B30079007F02020249C082C08312085DE99061
:1020C300F4B5F0D083D0822274F51201E9EAFEEB75
:1020D300FF7D017C0090F4B5E0F9120B7EE9FA7004
:1020E300071209127901807374016A7004790280FE
:1020F3006AEE240FFAEF3400FB8A828B83E06401DB
:1021030070577D038E828F83E024F2FC79011211D4
:10211300368A088B09A909EA7001E9603C750A044B
:10212300750B00780A120330EE2408FCEF3400FD2F
:10213300EA2406FAE93400FB1221C074021201A852
:10214300E5082411F582E5093400F583E0D2E7F0D0
:102153007900AA08AB091214F379007F040202493B
:102163002279002274F81201E974081201DDE0F803
:10217300A3E08015A3AA82AB838C828D83A3AC8258
:10218300AD83E824FF18E934FFF9E87001E960241E
:102193008A828B83E0FE8C828D83E06E8A828B83BE
:1021A30060D2E0F88C828D83E0FAE8C39AFAE49473
:1021B30000FB80047A007B007F0102024974F7125E
:1021C30001E974091201DDE0FEA3E0FFEAF8EBF98F
:1021D30080188C828D83E088828983F0A3A882A9EA
:1021E300838C828D83A3AC82AD838E088F0974FFA9
:1021F30025081E74FF3509FFE5087002E50970D252
:102203007F0202024974F71201E974091201DDE049
:10221300F8A3E0F9EAFEEBFF8A088B09C3EA9CEB1B
:102223009D405EEC28F582ED39F583C3E582950880
:10223300E5839509404BEA28FAEB39FBAC82AD8381
:102243001222967002E5096041EC24FF1CED34FF75
:10225300FDEA24FF1AEB34FFFB8C828D83E08A8234
:102263008B83F080DB8C828D83E08A828B83F08C7E
:10227300828D83A3AC82AD838A828B83A3AA82AB34
:10228300831222967002E50970DBEEFAEFFB7F0200
:102293000202498808890974FF25081874FF350963
:1022A300F9E5082274F81201E974081201DDE0F877
:1022B300A3E0F98A828B838003ECF0A3E8FEE9FFB5
:1022C30074FF2E1874FF3FF9EE7001EF70EB7F017E
:0322D300020249BB
:0000D3012C
:00000001FF
