:030000000200D328
:1000830002078C00000080FB1200E2B900030200AB
:10009300CDE490F3FF78B379018002F0A3D8FCD9C3
:1000A300FA90F4B1AA82AB839000E578427901809B
:1000B30015E493A3AC82AD838A828B83F0A3AA82D7
:1000C300AB838C828D83D8E9D9E7120506120086AB
:1000D30075D00075813F7510FF7511F302008B79A0
:1000E3000122FFFFFFFF0367CAD4C1CBFEFF00005D
:1000F30000010000000000000000000000000000FC
:100103000000EF223A219F208A23AD1885227756DB
:100113003412020101010000000000080706050473
:10012300030201E066701008A3E066700A08A3E00A
:1001330066700408A3E06622E0F608A3E0F608A3CD
:10014300E0F608A3E0F622E6F008A3E6F008A3E64B
:10015300F008A3E6F022CAC0E0E6F0A308DAFAD07A
:10016300E0FA22CAC0E0E0A3C582CCC582C583CD34
:10017300C583F0A3C582CCC582C583CDC583DAE62A
:10018300D0E0CA22C3E498F8E499F91201C88026A2
:10019300C3E49AFAE49BFBE920E7E91201C8E49877
:1001A300F8E499F922C3E498F8E499F91201C8E450
:1001B30098F8E499F9C3E49AFAE49BFB22EB20E76D
:1001C300CFE920E7E0B90010BB0008E88AF084F823
:1001D300AAF022E4FBC8FA22EB70227B10C833C8D2
:1001E300C933C9335007C39AC3DBF280069A50015F
:1001F3002ADBEAC833F4C8C933F4C9FA2275F00814
:10020300E4C833C8C933C933C99AC99B5004C92A3E
:10021300C93BD5F0ECFBC833F4C8E4C9FA22600C3F
:1002230008C6C313C618C613C6D5E0F4222510109A
:10023300AF08F510400215118008F51040021511A2
:10024300D2AF22C0D0251010AF08F510500205110F
:100253008008F51050020511D2AFD0D0222510F539
:100263008210AF08F510400215118008F510400206
:100273001511D2AF851183222510F582E43511F5CE
:100283008322E4732510C582C0E0E51134FFC583E2
:10029300C0E0E510C3958224F9F8E4C5A88583116D
:1002A300858210C5A8E8CEF0A3E520F0A37808E680
:1002B30008F0A3DEFAEFF0A3E58124FBF8E608F0EB
:1002C300A3E608F0A30808E608F0A3E608F0A315E0
:1002D300811581D0E0FED0E0F815811581E8C0E0FA
:1002E300EEC0E022851183851082E0A3FEE0A3F532
:1002F300207808E0A3F608DFFAE0A3FFE0A3C0E05C
:10030300E0A3C0E0E0A3C0E0E0A3C0E0E4C5A885AB
:100313008210858311C5A8D083D08222C0D0251036
:10032300C582C0E0E51134FFC583C0E0E510C39585
:100333008224F310AF08858311858210800885839A
:1003430011858210D2AFC8F0A3E9F0A3EAF0A3EBC2
:10035300F0A37908E709F0A3D8FAECF0A3EDF0A332
:10036300EEF0A3EFF0A3D0E0F0A3D0E0F0A3D0E051
:10037300F0A3E520F0A3E5F0F0A322851183851017
:1003830082E0C0E0A3E0F9A3E0FAA3E0FBA37808CE
:10039300E0F608A3DFFAE0FCA3E0FDA3E0FEA3E0A0
:1003A300FFA3E0C0E0A3E0C0E0A3E0F5D0A3E0F545
:1003B30020A3E0A3F5F0E4C5A8858311858210C5C9
:1003C300A8D082D083D0E0F8D0E03274028000C09D
:1003D300E0F404120260D0E012015922740280009A
:1003E300CCC0E0EDC0E0E510C39CCCAD1150011DC5
:1003F30010AF068C108D1180068C108D11D2AF12A8
:100403000166D0E0FDD0E0FC22D083D082C5F0E4C9
:1004130093A3C5F0C395F0F5F0E493A3C395F0401F
:1004230005E5F0048001E475F002A42582F582E578
:10043300F03583F583E493A3C0E0E493C0E022D0D6
:1004430083D082CCC0E0E493A3600612046C1470E2
:10045300FAE493A3600612048B1470FAD0E0FCE470
:1004630093A3C0E0E493C0E022C0E0E493A3D39C51
:100473005010E493A3C39C400AD0E0D0E0D0E00244
:10048300045FA3A3A3D0E022C0E0E493A36C7009AC
:10049300D0E0D0E0D0E002045FA3A3D0E022C0828A
:1004A300C08374FE1202301204F485108285118316
:1004B30074AAF0A3E4F0851082851183E07004C26E
:1004C300AF80FE7402120246D083D0822253CBEF58
:1004D300C2D843CB0475F00DEAA4F5CD74FC55CB1B
:1004E3004402F5CB43CB10A2D850FC53CBEFC2D878
:1004F300221204FB438F202243FE0143FE08D290C5
:10050300D293221204A1800A1205267AE87B0312F1
:1005130009D47A007B00121197E9790170EA120578
:100523002680FE12052F790212052F2274016970AD
:1005330006639001E590227402697005639008E5F3
:10054300902274F71202877508187509007808124B
:1005530003CE12085612024690DF36E054EF648150
:100563006004C2AF80FE90DF37E0C394045004C23E
:10057300AF80FE53BEFBE5BEA2E650FA53C6BF43AF
:10058300BE0474F4F5D575D41E743C90DF13F07477
:100593001490DF14F0741590DF02F0740590DF04FB
:1005A300F074FE90DF2EF0740990DF25F0740A904A
:1005B300DF07F0E490DF08F0745D90DF09F0744426
:1005C30090DF0AF074EC90DF0BF0742D90DF0CF0E9
:1005D300743B90DF0DF0747390DF0EF0742390DFA3
:1005E3000FF0743B90DF10F0E490DF11F0741D9076
:1005F300DF15F0741C90DF16F074C790DF17F0E47A
:1006030090DF18F074B290DF19F074B690DF1AF02F
:10061300741090DF1BF01208B4741190DF1FF07494
:100623008890DF23F0743190DF24F0740290F3FF9D
:10063300F07900120B2F7E007F0075E1027508E848
:1006430075090390DF3CE0545070237A407B00121D
:10065300098DE50824C0F508E50934FFF509C3E56C
:10066300089401E5099400A2D265D03350D57A10DD
:10067300EEC333FEEF33FF90DF3AE0A2E0E492E013
:100683004EFE1AEA70EA74804EF5BCEFF5BC12090F
:100693004590F41A7433F0A3E4F090F41C74E2F080
:1006A300A37404F0439A01D2AF0209CF74F7120284
:1006B30087EAFEEBFF890975080090F3FFE0640108
:1006C3007004C2AF80FE120945EF90F41EF0EE9065
:1006D300F41FF074DF90F420F074D990F421F074D7
:1006E30020120917744190F425F0E509701143D6DF
:1006F3000175E103E5E9A2E450FA53E9EF8064747C
:100703000165096004C2AF80FE750904801C1209EB
:10071300451208C6E9540F04FE90F41CE0FAA3E066
:10072300FB12098D1EEE70F1150943D60175E10226
:1007330090DF3BE0640D70F87EE87F0390DF3CE0E0
:1007430054507005120AC050F375E10390DF3BE08B
:10075300640D6008E5E9A2E450FA809EE50970AEF5
:1007630075080112094590F3FFE064037003120852
:10077300CCA9080209CFC082C08390F400EAFCEB45
:10078300FD7418120166020962C0E074F112031FBE
:1007930090F3FFE064036004C2AF80FEE5E9A2E4E6
:1007A300502BE5E9A2E6502553E9EF53E9BF539BEC
:1007B300FCE59B12094575081675090078081203B4
:1007C300CE1208561202461208CC02085153E9EF22
:1007D300539BFCE59B75080275090078081203CE4C
:1007E30090F400E0042400FCE434F4FD7A167BF476
:1007F30012242E7402120246E0FA90F417E0A2E7E4
:10080300503B8A0874012508F8E43400F9E894178A
:10081300E99400C365D0335024EAC3940B401E7A95
:10082300017BF4120B93E9701490F416E0F9120AA9
:10083300DCE9F090F417E0C2E7F012141F75081614
:1008430078081203CE12085612024643D6017F02DD
:1008530002037E7C007D007A007BF41224CD7402B7
:100863002274F812028790F3FFE064016013A2AFD1
:10087300E492E0FEC2AF1209707401F0EEA2E092BE
:10088300AF020ABBC082C083E5C6A2E65004C2AF72
:1008930080FE90F3FFE0640170141208B4740290B8
:1008A300F3FFF075E10490DF3BE0640170F80209A7
:1008B3006274EA90DF1CF0740A90DF1DF0E490DFAD
:1008C3001EF02243B404A9BC2274F712028774DF1A
:1008D30090F41EF074D990F41FF074F490F420F0A7
:1008E300740090F421F07480120917741190F425A8
:1008F300F075D68175081675090078081203CE12B3
:10090300085612024643D60112096775E102439164
:10091300100209CF90F422F0741890F423F07413AA
:1009230090F424F022C082C08390F3FFE06401704E
:1009330004C2AF80FEE0640360067403F01208CCC7
:10094300801DC082C0835391EF75E10490DF3BE0CB
:10095300640170F875D68153D1FE1209678000D007
:1009630083D08222539BFCE59B53E9EF22C082C0D4
:100973008390F3FFE064017004C2AF80FEE0640380
:1009830070061209457402F080D574F71202878A43
:10099300088B0974047808120221AE08AF09EA70C3
:1009A30001EB6028A2AFE492E0F508C2AF7A107BB6
:1009B300001204D0E508A2E092AFEEF8EFF974FF5D
:1009C300281E74FF39FFE87001E970D87F02020224
:1009D300E774F8120287EAFEEB800E7AF47B0112C9
:1009E300098DEE24FF1EEF34FFFFEE7001EF70EB75
:1009F300020ABB74F612028790F41AE0F508A3E02A
:100A0300F509A2AFE492E0FAC2AF740190F419F0D1
:100A1300EAA2E092AF800CE50824FFF508E509346B
:100A2300FFF509E5087002E50960357E1F7F00A226
:100A3300AFE492E0F50AC2AF7A107B001204D0E56E
:100A43000AA2E092AF90F418E07012EEF8EFF97496
:100A5300FF281E74FF39FFE87001E970D2E060B728
:100A6300A2AFE492E0FAC2AFE490F418F090F41964
:100A7300F0EAA2E092AF7F030202E7C082C0839054
:100A8300F419E06006740190F418F002096274F836
:100A930012028790F3FFE064036004C2AF80FE7E1E
:100AA300E87F0390DF3CE054507005120AC050F316
:100AB30090DF3AE0F9120ADC7F010202E77A407B19
:100AC3000012098DEE24C0FEEF34FFFFC3EE940144
:100AD300EF9400A2D265D03322C008C009E9C394C1
:100AE30080E94019F879FF7A027B001201C0880877
:100AF300890974B92508F874FF3509800BC313F805
:100B030074B928F874FF3400F9C3E89480E994FFBA
:100B1300A2D265D03350027880E8F9D009D00822F8
:100B2300C082C08390F3FFE0F902096274F71202F6
:100B3300878908E9C394044004C2AF80FE120945C3
:100B4300E50824B5F582E434F4F583E090DF06F09C
:100B530090F3FFE0640370031208CC0209CF74F72B
:100B63001202878908E9C394034004C2AF80FE12CE
:100B73000945E50824B9F582E434F4F583E090DF10
:100B83002EF090F3FFE0640370031208CC0209CF48
:100B930074F812028790F426E07004790080387E9E
:100BA300007D007C008C82A882120BE8FF120BDD13
:100BB300E06F70010EE824B1F582E434F4F583E0CC
:100BC3006F70010D0CECC3940440DA74046D60CBB8
:100BD30074046E60C67901020ABBE824BCF582E4A2
:100BE30034F4F58322EA28F582EB3400F583E0221E
:100BF30074F7120287EAFEEBFF7508107509007897
:100C0300081203CE7C007D007AC17BF41224CD74DC
:100C130002120246740190F4C1F0743D90F4C2F0E4
:100C2300742090F4C3F0740190F4C4F0121B53EEDB
:100C3300FAEFFB121323120EE312185B1222DEEEFD
:100C4300FAEFFB121E841222741220C01223899021
:100C5300F4C5E070347402F0740390F4C6F0743F8A
:100C630090F4CEF090F4CFF074FF90F4D0F07508C8
:100C73000478081203CE121C67EAFCEBFD7AC87BEA
:100C8300F41223E6740212024679007F020202E79D
:100C930022C082C08374FF120230851082851183C3
:100CA300AA82AB83120E06E96014E075F00CA4244B
:100CB300C5F582E5F034F4F583E0640260067582DD
:100CC30000758300AA82AB8380007401120246D0B0
:100CD30083D0822274F3120287EAFEEBFF8C0A8D23
:100CE3000B8E828F83A3A3A3A3A3A3A3A3A3E054E5
:100CF3003FF50890F4C5E064026003020D9490F49C
:100D0300CEE065086003020D94743F6508602575A5
:100D13000C04750D00780C1203CEEE2405FCEF34A1
:100D230000FD7AC87BF412238D7402120246EA7026
:100D330001EB705D75090190F4D0E0850A82850BA3
:100D430083F0743F65086042EE240AF582EF3400B5
:100D5300F583E0A2E7500E90F4CFE0F9EEFAEFFB53
:100D63001217598025A2E350217582C77583F4E0D9
:100D7300FAEE240BF582EF3400F583E06A7008E4A1
:100D83007582C77583F4F0750900120A7EA909807C
:100D93000279007F060202E774F5120287EAFEEB8E
:100DA300FF7508028C0AEE250A120DF6A2E7503CE5
:100DB3008D08EE2508120DF669702E750804750965
:100DC3000078081203CE121B9EEAFCEBFD8E828F85
:100DD30083A3AA82AB8312238D7402120246EA70A4
:100DE30001EB70057508008003750801A9087F04ED
:100DF3000202E7FAEF3400FB740C2AF582E43BF5B8
:100E030083E022C082C08390F4C5E0640270119035
:100E1300F4D0E069700AE48A828B83F0790180025E
:100E23007900020CD274F7120287E9FE90F4C5E050
:100E33006402702A75080475090078081203CE7CD1
:100E4300C87DF412238D7402120246EA7001EB701E
:100E53000D90F4CFE06E70067AC57BF480047A00BF
:100E63007B00020C8E74F512028774FA120230EAC8
:100E7300FEEBFFECFAEDFBE912040C0202880E8E86
:100E83000E880EAA0EEEFCEFFD80388E828F83E073
:100E9300FCA3E0FD851082851183ECF0A3EDF085C2
:100EA300108285118380188E828F83780812013B0C
:100EB300740212027B780812014A740212027BAC9C
:100EC30082AD83890875090078081203CE12242E97
:100ED30074021202467406120246020DF1790222CE
:100EE30074F712028775083475090078081203CE67
:100EF3007C007D007A277BF41224CD740212024613
:100F030078081203CE7C007D007A5B7BF41224CD3B
:100F130074021202467F020202E774F6120287E9A4
:100F2300FC780079007E007F007D0074016C700600
:100F33007A277BF480047A5B7BF475090388088A3B
:100F4300828B83E0601D74016C70210DE06404608A
:100F53001BA3E0F50AC395095012EAF8EBF9850AD9
:100F630009800974026C6048EAFEEBFF0508EA2475
:100F73001AFAEB3400FBE508C3940240C2EE700199
:100F8300EF7020E87001E970067A007B008021E8A9
:100F9300FEE9FF8E828F83A3E0FAECF9120FB8E526
:100FA30008800874012D8E828F83A3F0EEFAEFFB85
:100FB3007F030202E7C082C083740169703178271E
:100FC30079F4A2AFE492E0FDC2AF7B028882898309
:100FD300E0600BA3E0FCEAC39C5003E014F0E824B8
:100FE3001AF8E93400F91BEB70E2EDA2E092AFD0FE
:100FF30083D0822274F112028774F81202308510B2
:1010030082851183EAF0A3EBF08C0A740212027B4F
:10101300E4F0A3F0F50EF50F74016970237E277FCA
:10102300F4750C0312117DFA74016A703E12118A71
:10103300A3E0F9120C948A0E8B0FEA7001EB700790
:101043007A007B000211738A828B83A3A3A3A3A3D9
:10105300A3A3A3A3E0F508EA2403F8EB3400F9748F
:101063000612027BE8F0A3E9F0800AEA70D21211BB
:101073008AA3E0F5087401650A7005750901800308
:10108300750903750D02A2AFE492E0FAC2AF8E8236
:101093008F83E0650960030211537404F0EAA2E050
:1010A30092AFEE240BF582EF3400F583E0543F65F5
:1010B30008600302114B12117D64017021743F65B6
:1010C300087009E50E2403F8E50F8005EE2407F800
:1010D300EF3400F9740412027BE8F0A3E9F0750A17
:1010E30004750B00780A1203CE740812027BE0FC2D
:1010F300A3E0FD740612027BE0FAA3E0FB12238D4A
:10110300740212024612117D6003EA703B8E828FD5
:1011130083A3AA82AB83E0C3950C502C7402120202
:101123007BE07002A3E0600D740212027BE0F81210
:101133001190E509F08A828B83E0F50C74021202A8
:101143007BEEF0A3EFF0800D8E828F83E50980F5AF
:10115300EAA2E092AFEE241AFEEF3400FF150DE58C
:101163000D6003021089740212027BE0FAA3E0FB14
:1011730074081202467F080202E7851082851183F4
:10118300E0F8121190E022851082851183A3E0F527
:101193008388822274F812028774FF120230EAFEF7
:1011A300EBFF90F48FE07022120545EEFAEFFB128D
:1011B3000BF3E9701E120887E4851082851183F012
:1011C300AA82AB83121888120928740190F48FF055
:1011D300121F0274011202467F010202E774F11228
:1011E3000287E9FBEAF9ECFEEDFF90F48FE0701360
:1011F300EB12044200020506120A061201127902DA
:1012030002131EEB12040C000A5C12D7125C12B21A
:1012130012CE125C12A1129812E01208138B122440
:10122300127508008E828F83A3AA82AB838E828F6E
:1012330083E0702BE970178A828B83780C12013B51
:10124300AA0CAB0DAC0EAD0F1220FB02131C7401E4
:1012530069700612211C02131C75080202131C6418
:101263000170F6E970178A828B83780C12013BAA0E
:101273000CAB0DAC0EAD0F121EC002131C74016932
:1012830070D7121EE102131CEEFAEFFB120EE0E917
:10129300F50802131CEEFAEFFB121E5880F17401DD
:1012A300696003E970B3EEFAEFFB121E1680E07477
:1012B30003697009EEFAEFFB121C6C80D2740269A9
:1012C3007097EEFAEFFB121CF080C4EEFAEFFB12FC
:1012D3001D6180BBEEFAEFFB121B0780B27401693C
:1012E300600302125C75080475090078081203CEC6
:1012F300121BB7EAFCEBFDEEFAEFFB1223E67402D6
:101303001202468011740169600302125C121BBC55
:10131300E98E828F83F0750800A9087F080202E72F
:10132300C082C083E490F493F0741090F494F0902E
:10133300F495EAF0A3EBF0121B9E90F491EAF0A36C
:10134300EBF01208C6E990F490F060F6D083D082F7
:101353002274F112028789088A0E8B0F8C0A8D0979
:101363007902120F1D8A0C8B0DA80CA90DE8FEE95A
:10137300FFE87001E970077A007B0002140D740B1B
:10138300250A8E828F83A3A3F0EE240B12174E54EB
:10139300804508F090F490E0C0E0EE240DF582EF74
:1013A3003400F583D0E0F090F490E004F060F8EEC0
:1013B300240CFAEF3400FB8A828B83E01218085462
:1013C300F8450954778A828B83F088828983E0C247
:1013D300E7F0750B00780A1203CEAC0EAD0FEE24C6
:1013E3000E0A0A12141212024675080475090078CF
:1013F300081203CE90F491E0FCA3E0FDEE2407FA7B
:10140300121412120246EEFAEFFB7F080202E7EF14
:101413003400FB121579227F020202E774F71202ED
:10142300877901120F1D8A088B09A808A909E8FE0C
:10143300E9FFE87001E96013EE24020A0AEF3400C1
:10144300FB120779EEFAEFFB12159580CA74F112BD
:10145300028774FE120230851082851183ECF0A39B
:10146300EDF08A0A8B0B741112027BE0F50CA3E0FA
:10147300F50D741512027BE0F50EA3E0F50FE4857C
:101483000C82850D83F07C017901120FF78A088B9A
:1014930009AE08AF09EE7001EF7003021564750819
:1014A30000750900850A82850B83E064017015A32A
:1014B300E0F9120C948A088B09EA7001EB70057944
:1014C300020215668E828F83A3A3E024F5F50A85B5
:1014D3000C82850D83F0750B00780A1203CEEE247F
:1014E3000EFCEF3400FD740212027B12156E120221
:1014F30046E5087002E509600FEE241812157FF027
:10150300EE241912157FA3F0741312027BE070020C
:10151300A3E0601E75080475090078081203CEEE77
:101523002407FCEF3400FD741512027B12156E12B2
:101533000246E50E7002E50F6012EE240CF582EF11
:101543001218555407850E82850F83F08E828F8380
:10155300A3E0FA7901120FB8E48E828F83F0F98049
:10156300027904740212024602140DE0FAA3E002A7
:101573001415AA82AB831223E6740222F582EF3498
:1015830000F583E0850882850983A3A3A3A3A3A30E
:10159300A32274F312028774FF1202308A088B09A4
:1015A300EA240BFEEB3400FF8E828F83E0543FF579
:1015B3000B750C04750D00780C1203CE90F491E0BA
:1015C300FCA3E0FDEA2407FAEB3400FB12238D743D
:1015D30002120246EA7001EB7012E4850882850963
:1015E30083F074011202467F060202E78E828F8324
:1015F300E0A2E640E5E50B60E1C39407502F121625
:10160300FDE50BC33324CFF582E434F4F5831217DD
:1016130008120285E9FA74016A7004740180BC74CB
:10162300026A70B6AA08AB0912181480B5743F6534
:101633000B600EE50BC3942040A0E50BC3943F5011
:1016430099E5082403FEE5093400FF780C1203CE64
:10165300EEFCEFFD90F491E0FAA3E0FB12238D740E
:1016630002120246EA7001EB7005750A01802375C8
:101673000A00743F650B706B780C1203CE121C6763
:10168300EEFCEFFD12238D7402120246EA7001EBA9
:101693007051851082851183AC82AD831216FD12C1
:1016A3000CD7E970030215DDE50A7007AA08AB0938
:1016B3001218147401850882850983F090F495E06B
:1016C3007002A3E070030215E5851082851183E0A3
:1016D300F990F495121708120285E960030215DDEB
:1016E3000215E5E508240CF582E509121855543076
:1016F300641060030216270215DDE5082402FAE5EB
:10170300093400FB22E0F8A3E0F58388822274F811
:10171300120287EAFEEBFFE9FAEE240C12174E12CF
:1017230017FFFBE04B88828983F0EAF9EE2402FA83
:10173300EF3400FB1206AFE97004790080027909E7
:10174300E48E828F83F07F010202E7F8EF3400F921
:1017530088828983E02274F712028774E8120230C8
:10176300E9FEEA240B121852FF740A12027BE012FC
:1017730017FFFCE04C121808C0E0740A12027BD079
:10178300E0F075080475090078081203CEEA240511
:10179300FCEB3400FD740312027B12157512024632
:1017A30078081203CE90F491E0FCA3E0FD740712D5
:1017B300027B121575120246740912027BE054C0B3
:1017C3004EF0740B851082851183F012027BEFF0CB
:1017D300740A12027BE05478F0440BF0740912028D
:1017E3007BE0543FF07900851082851183AA82AB98
:1017F300831206AF741812024602141A54CF75836B
:10180300F47582942254BF7583F4758293FCE04C83
:101813002274F8120287EAFEEBFFEE240CF582EF46
:10182300121855FA74075AFB74FF2BFCEB601774FC
:10183300F85A4CF07A017B001209D47901EEFAEFE1
:10184300FB1217118006E48E828F83F0021749F58D
:1018530082EB3400F583E02274F7120287750801E6
:1018630075090078081203CE7C007D007A977BF41B
:101873001224CD74021202461208C6E990F498F0BD
:101883007F020202E7C082C0838A828B837A02E0EE
:10189300F9C39404500D120B2F7C977DF47401123D
:1018A3000166FAEAF9D083D0822274F512028774B2
:1018B300FF120230EAFEEBFF7509007D017C009008
:1018C300F498E0F9120D9BE9FB7009120A7E750981
:1018D3000102197974016B70067509020219797492
:1018E300026B6003021979750800EE240CF582EF90
:1018F3003400F583E012040C010176190819031969
:10190300750802806EEE24FEFAEF34FFFB12181402
:10191300750A04750B00780A1203CE121B9EEAFCAB
:10192300EBFD8E828F83A3AA82AB8312238D740275
:10193300120246EA7001EB7016EE240DF582EF34C5
:1019430000F583E0851082851183121AFE8024122C
:101953001C0EEA7001EB601B780A1203CEEE24051D
:10196300FCEF3400FD12238D7402120246EA70016B
:10197300EB60C6850809A90974011202467F0402B7
:1019830002E774F112028774F11202308A0E8B0F90
:101993007E00750801120B23E9F509851082851174
:1019A30083AC82AD837583F47582977401120166EB
:1019B300121C0E8A0C8B0DEA7001EB7009121C6766
:1019C3008A0C8B0D8E087F00740112027BEF121AB2
:1019D300FE740412027BE50CF0A3E50DF074021211
:1019E300027BA882A983740612027BE8F0A3E9F0C4
:1019F300740812027B7402F0740912027B7405F0FE
:101A0300740212027B7402F090F498E0C0E0740355
:101A130012027BD0E0F0740412027BAC82AD837AB5
:101A23000379021211E0740912027B7405F0740247
:101A330012027BA882A983740612027BE8F0A3E951
:101A4300F0740B12027BA882A983740412027BE850
:101A5300F0A3E9F074036509600C74016509700370
:101A63001208871209281209F674036509600E74B7
:101A73000165097005120864800312097074041269
:101A8300027BAC82AD837A0279021211E0E9703BEA
:101A9300E5086026750A04750B00780A1203CEACBC
:101AA3000CAD0D740D12027BAA82AB8312238D74CD
:101AB30002120246EA7001EB70118E0AE50E250A46
:101AC300F582E50F3400F583EFF00E90F498E0040F
:101AD300F0EE6004E508700A0FEFC39404500302AC
:101AE30019CB851082851183AA82AB83121888EEE5
:101AF300F9740F1202467F080202E7F0AA82AB8351
:101B03001218882274F8120287EAFEEBFFE9120426
:101B130042000300211B01261B0D351B4C1B121811
:101B230088802890F497EEFCEFFD7401120166F9AA
:101B330080198E828F83A3E0FAA3E0FB121985E953
:101B43008E828F83F07900800279027F010202E79F
:101B530074F712028775080475090078081203CE1A
:101B63007C007D007A997BF41224CD740212024624
:101B730090F4A1E0701B78081203CE7CDD7DF47A2B
:101B83009D7BF41223E67402120246740190F4A1C1
:101B9300F080031202467F020202E7C082C08390F4
:101BA300F4A1E060067A9D7BF480047ADD7BF4D0B7
:101BB30083D082227AE27BF42279022274F7120222
:101BC30087790090F4A1E0702175080489097808E9
:101BD3001203CEEAFCEBFD7A9D7BF41223E674023A
:101BE300120246740190F4A1F0F980AA74F712026C
:101BF3008775080475090078081203CEEAFCEBFD2B
:101C03007A997BF41223E67402808874F7120287B0
:101C130074FC12023075080475090078081203CEAB
:101C23007C007D00740212027BAA82AB831224CD56
:101C3300740212024678081203CE740212027BACBD
:101C430082AD837A997BF412238D7402120246EAE1
:101C53007001EB70067A007B0080047A997BF47440
:101C630004021B967AB17BF42274F5120287EAFE12
:101C7300EBFF8E828F83A3A3A3A3A3E0F9120442F5
:101C83000105068E1C01038E1C921C7D0180027DC2
:101C9300038E828F83A3A3A3A3E0FC8E828F83A3EF
:101CA300A3E0FAA3E0FB1213548A088B09A909EAFB
:101CB3007001E96031750A04750B00780A1203CECE
:101CC3008E828F83E0FCA3E0FDEA24030A0A0AE97B
:101CD3003400FB1223E674021202467901AA08AB10
:101CE30009121711800279037F040202E774F712C5
:101CF300028774FD120230E4851082851183F08A15
:101D0300828B83A3A3A3A3A3E0C0E0740112027B8D
:101D1300D0E0F0EA2406F508EB3400F50978081260
:101D230003CE8A828B831203DFEA2404F508EB34A3
:101D330000F50978081203CE8A828B83A3A3E0FC03
:101D4300A3E0FD740612027BAA82AB8312145074C3
:101D53000612024674031202467F020202E774F57A
:101D6300120287EAFEEBFF7508007404697009121A
:101D73000970120864021E1174056970091208873C
:101D8300120928021E1174066970398E828F83E04E
:101D9300F9120C94EA7001EB700479028072750AEF
:101DA30002750B00780A1203CEEA2407FCEB340019
:101DB300FD8E828F83A3AA82AB831223E674021261
:101DC3000246804A740769700B120A91E98E828F6A
:101DD30083F0803A74086960A77409697005120971
:101DE30070802B740A6970238E828F83E012040C37
:101DF30000029D1D051E011EFD1D7902800679014D
:101E030080027900120B6179008005750802A90828
:101E1300021CEB74F7120287EAFEEBFF75080274EB
:101E23000169702075080475090078081203CE1241
:101E33001B9EEAFCEBFDEEFAEFFB1223E6740212A3
:101E430002468009E97009121BBFE96003750800A7
:101E5300A908021D5C74F7120287E9FC8A828B834E
:101E6300E0F9740E6C60047902801374FF6960F703
:101E7300120C94EA7001EB60EE120C937900021DD0
:101E83005C74F512028790F4E6780812013B7583BF
:101E9300F47582A27808120126701090F4EA78088B
:101EA30012013B90F4A2780812014A90F4A6EAF0DA
:101EB300A3EBF01208C6E990F4A8F0803D74F51284
:101EC30002878A088B098C0A8D0B90F4E678081236
:101ED3000126600890F4A2780812014A801C74F568
:101EE300120287EA7001EB601190F4A278081201E4
:101EF3003B8A828B83780812014A7F040202E774CB
:101F0300F512028774E5120230120B23E9F5087FFC
:101F130006740F12027BAA82AB83121985E9FA8A2F
:101F230009700579070220977E0080010EEEC395A4
:101F33000940030220958E0A740F12027BE5822565
:101F43000AFAE5833400FB121888121C6785108295
:101F5300851183EAF0A3EBF0740712027BA882A930
:101F630083740212027BE8F0A3E9F0740412027B8B
:101F73007408F0740512027B7403F0790474091277
:101F8300027BAC82AD837AA27BF4120E68740712D3
:101F9300027B7401F090F4A8E0C0E0740812027BA5
:101FA300D0E0F0740D12027BE4F0121BBC740E122D
:101FB300027BE9F0851082851183AC82AD837A03BD
:101FC30079021211E0740512027B7403F074071294
:101FD300027BA882A983740212027BE8F0A3E9F0D2
:101FE300741312027BA882A983851082851183E86A
:101FF300F0A3E9F074036508600C740165087003CD
:102003001208871209281209F674036508600E7412
:102013000165087005120864800312097085108237
:10202300851183AC82AD837A0279021211E0E960F3
:1020330003021F2F740712027BE0547FFA74016AB4
:102043006007EF6A6003021F2F75080475090078A3
:10205300081203CE740B12027BAC82AD8374191287
:10206300027BAA82AB831223E6740212024678082B
:1020730012013BAA08AB09AC0AAD0B1220FB741387
:1020830012027BAA82AB83121BEF90F4A8E004F048
:102093007F00EFF9741B120246021EFDC082C0834B
:1020A3007D017C0090F4A8E0F9120D9BE970071202
:1020B3000A7E790180027902D083D0822274F512DC
:1020C300028790F4E6780812013B7583F47582A9C0
:1020D3007808120126701090F4EE780812013B90F4
:1020E300F4A9780812014A1208C6E990F4AEF06028
:1020F300F680007F040202E774F51202878A088BD8
:10210300098C0A8D0B90F4E678081201266008907A
:10211300F4A9780812014A80DA74F5120287EA708A
:1021230001EB601190F4A9780812013B8A828B833A
:10213300780812014A80BC74F8120287EAFEEBFFAA
:102143007D017C0090F4AEE0F9120D9BE9FB700772
:10215300120A7E7901801074016B70047902800782
:10216300EEFAEFFB12216F7F010202E774F3120212
:102173008774FD120230EAFEEBFF750800EE240CB3
:10218300F8EF3400F98E828F83E0FA74F52AFA743B
:10219300FF3400FB74086A7001EB700974018882D4
:1021A3008983F0801088828983E012040C0101681E
:1021B30022B821C72190F4ADE060030222687508BC
:1021C30002022268750908EE2405F50CEF3400F5C8
:1021D3000DEE240EF582EF3400F583E0F9AA0CAB83
:1021E3000D120E28EA7001EB6006120C93750900BC
:1021F3007482851082851183F0EE240DF582EF340D
:1022030000F583E0C0E0740112027BD0E0F07402B9
:1022130012027BE509F07D037C038510828511831F
:10222300AA82AB8379021213548A0A8B0BA80AA9D8
:102233000BE8FEE9FFE87001E9602A750A04750BF3
:1022430000780A1203CEAC0CAD0DEE24030A0A0A81
:10225300EF3400FB1223E674021202467900EEFA11
:10226300EFFB121711A90874031202467F0602023C
:10227300E7C082C0831208C6E990F4AFF0D083D0E0
:10228300822274F7120287EAFEEBFF7D017C009045
:10229300F4AFE0F9120D9BE9FB7007120A7E790196
:1022A300803474016B70047902802B7508047509FE
:1022B3000078081203CE121B9EEAFCEBFD8E828F80
:1022C30083A3AA82AB8312238D7402120246EA709F
:1022D30001EB70D379007F020202E7C082C0831250
:1022E30008C6E990F4B0F0D083D0822274F51202CC
:1022F30087EAFEEBFF7D017C0090F4B0E0F9120D5C
:102303009BE9FA7007120A7E7901807574016A707D
:10231300047902806CEE240CFAEF3400FB8A828B82
:1023230083E0640170597D038E828F83E024F5FC82
:1023330079011213548A088B09A909EA7001E9602B
:102343003E750A04750B00780A1203CEEE2405FCD1
:10235300EF3400FDEA24030A0A0AE93400FB1223DE
:10236300E67402120246E508240EF582E5093400FC
:10237300F583E0D2E7F07900AA08AB0912171179C7
:10238300007F040202E72279002274F812028774A4
:102393000812027BE0F8A3E08015A3AA82AB838C2A
:1023A300828D83A3AC82AD83E824FF18E934FFF95F
:1023B300E87001E960248A828B83E0FE8C828D833E
:1023C300E06E8A828B8360D2E0F88C828D83E0FAA0
:1023D300E8C39AFAE49400FB80047A007B007F014F
:1023E3000202E774F7120287740912027BE0FEA36C
:1023F300E0FFEAF8EBF980188C828D83E08882890C
:1024030083F0A3A882A9838C828D83A3AC82AD833E
:102413008E088F0974FF25081E74FF3509FFE50830
:102423007002E50970D27F020202E774F712028795
:10243300740912027BE0F8A3E0F9EAFEEBFF8A08D5
:102443008B09C3EA9CEB9D405EEC28F582ED39F5E0
:1024530083C3E5829508E5839509404BEA28FAEBA7
:1024630039FBAC82AD831224BC7002E5096041ECF8
:1024730024FF1CED34FFFDEA24FF1AEB34FFFB8C31
:10248300828D83E08A828B83F080DB8C828D83E074
:102493008A828B83F08C828D83A3AC82AD838A8204
:1024A3008B83A3AA82AB831224BC7002E50970DB81
:1024B300EEFAEFFB7F020202E78808890974FF2521
:1024C300081874FF3509F9E5082274F812028774B5
:1024D3000812027BE0F8A3E0F98A828B838003EC85
:1024E300F0A3E8FEE9FF74FF2E1874FF3FF9EE70C6
:0924F30001EF70EB7F010202E72A
:0000D3012C
:00000001FF
