:030000000200D328
:100083000207DC00000080FB1200E2B9000302005B
:10009300CDE490F3FF781F79028002F0A3D8FCD956
:1000A300FA90F51DAA82AB839000E578567901801A
:1000B30015E493A3AC82AD838A828B83F0A3AA82D7
:1000C300AB838C828D83D8E9D9E712051A12008697
:1000D30075D00075813F7510FF7511F302008B79A0
:1000E300012212345678FFFFFFFF1432506EFF00D7
:1000F30000000100000000000000000000000000FC
:1001030000000000000000000000000000000000EC
:100113000000F721F31F031F9022DE198B2078566E
:10012300341202010101000000000008070605EF78
:10013300BEADDE04030201E066701008A3E0667042
:100143000A08A3E066700408A3E06622E0F608A3A9
:10015300E0F608A3E0F608A3E0F622E6F008A3E63B
:10016300F008A3E6F008A3E6F022CAC0E0E6F0A395
:1001730008DAFAD0E0FA22CAC0E0E0A3C582CCC50F
:1001830082C583CDC583F0A3C582CCC582C583CD8B
:10019300C583DAE6D0E0CA22C3E498F8E499F912F9
:1001A30001DC8026C3E49AFAE49BFBE920E7E91229
:1001B30001DCE498F8E499F922C3E498F8E499F9A6
:1001C3001201DCE498F8E499F9C3E49AFAE49BFB9E
:1001D30022EB20E7CFE920E7E0B90010BB0008E8F5
:1001E3008AF084F8AAF022E4FBC8FA22EB70227B9F
:1001F30010C833C8C933C9335007C39AC3DBF2806D
:10020300069A50012ADBEAC833F4C8C933F4C9FAA1
:100213002275F008E4C833C8C933C933C99AC99BE6
:100223005004C92AC93BD5F0ECFBC833F4C8E4C970
:10023300FA22600C08C6C313C618C613C6D5E0F469
:1002430022251010AF08F510400215118008F51093
:1002530040021511D2AF22C0D0251010AF08F510FF
:10026300500205118008F51050020511D2AFD0D00D
:10027300222510F58210AF08F510400215118008F1
:10028300F51040021511D2AF851183222510F58296
:10029300E43511F58322E4732510C582C0E0E5112E
:1002A30034FFC583C0E0E510C3958224F9F8E4C5A3
:1002B300A8858311858210C5A8E8CEF0A3E520F0B8
:1002C300A37808E608F0A3DEFAEFF0A3E58124FBA8
:1002D300F8E608F0A3E608F0A30808E608F0A3E6AA
:1002E30008F0A315811581D0E0FED0E0F815811543
:1002F30081E8C0E0EEC0E022851183851082E0A38F
:10030300FEE0A3F5207808E0A3F608DFFAE0A3FFF8
:10031300E0A3C0E0E0A3C0E0E0A3C0E0E0A3C0E04E
:10032300E4C5A8858210858311C5A8D083D0822215
:10033300C0D02510C582C0E0E51134FFC583C0E0FD
:10034300E510C3958224F310AF08858311858210CD
:100353008008858311858210D2AFC8F0A3E9F0A38A
:10036300EAF0A3EBF0A37908E709F0A3D8FAECF0DD
:10037300A3EDF0A3EEF0A3EFF0A3D0E0F0A3D0E061
:10038300F0A3D0E0F0A3E520F0A3E5F0F0A32285ED
:100393001183851082E0C0E0A3E0F9A3E0FAA3E0B3
:1003A300FBA37808E0F608A3DFFAE0FCA3E0FDA3D3
:1003B300E0FEA3E0FFA3E0C0E0A3E0C0E0A3E0F51C
:1003C300D0A3E0F520A3E0A3F5F0E4C5A88583114D
:1003D300858210C5A8D082D083D0E0F8D0E03274F3
:1003E300028000C0E0F404120274D0E012016D2216
:1003F30074028000CCC0E0EDC0E0E510C39CCCAD3E
:100403001150011D10AF068C108D1180068C108DBC
:1004130011D2AF12017AD0E0FDD0E0FC22D083D01C
:1004230082C5F0E493A3C5F0C395F0F5F0E493A37C
:10043300C395F04005E5F0048001E475F002A425BE
:1004430082F582E5F03583F583E493A3C0E0E4937A
:10045300C0E022D083D082CCC0E0E493A360061234
:1004630004801470FAE493A3600612049F1470FAD4
:10047300D0E0FCE493A3C0E0E493C0E022C0E0E456
:1004830093A3D39C5010E493A3C39C400AD0E0D021
:10049300E0D0E0020473A3A3A3D0E022C0E0E4937E
:1004A300A36C7009D0E0D0E0D0E0020473A3A3D022
:1004B300E022C082C08374FE120244120508851034
:1004C3008285118374AAF0A3E4F0851082851183D9
:1004D300E07004C2AF80FE740212025AD083D0824D
:1004E3002253CBEFC2D843CB0475F00DEAA4F5CD6C
:1004F30074FC55CB4402F5CB43CB10A2D850FC532C
:10050300CBEFC2D82212050F438F202243FE0143B3
:10051300FE08D290D2932274FB1202441204B580D7
:100523000A1205757AE87B03120A247A007B00120B
:1005330011BCE9790170EA120575E4851082851111
:1005430083F090F51D780812014F740112028F7821
:100553000812015E851082851183AC82AD837A0017
:10056300790A1211EE7C007D007A0B79041211EEE8
:1005730080FE12057E790212057E227401697006DF
:10058300639001E590227402697005639008E59019
:100593002274F712029B7508187509007808120374
:1005A300E21208A612025A90DF36E054EF640160AB
:1005B30004C2AF80FE90DF37E0C394035004C2AFA0
:1005C30080FE53BEFBE5BEA2E650FA53C6BF43BE50
:1005D3000474F4F5D575D41E743C90DF13F07414D1
:1005E30090DF14F0741590DF02F0740590DF04F0CF
:1005F300748E90DF2EF0740990DF25F0741290DF73
:1006030007F0E490DF08F0742290DF09F074B190F2
:10061300DF0AF0743B90DF0BF0742D90DF0CF07465
:100623003B90DF0DF0741390DF0EF0742290DF0F18
:10063300F074F890DF10F0746290DF11F0741D9085
:10064300DF15F0741C90DF16F074C790DF17F0E429
:1006530090DF18F074B090DF19F074B690DF1AF0E1
:10066300741090DF1BF0120904741F90DF1FF074E5
:100673008890DF23F0743190DF24F0740290F3FF4D
:10068300F07900120AEB7E007F0075E10275081411
:1006930075090590DF3CE0545070237A407B0012CB
:1006A30009DDE50824C0F508E50934FFF509C3E5CC
:1006B300089401E5099400A2D265D03350D57A108D
:1006C300EEC333FEEF33FF90DF3AE0A2E0E492E0C3
:1006D3004EFE1AEA70EA74804EF5BCEFF5BC1209BF
:1006E3009590F41A7433F0A3E4F090F41C74E2F0E0
:1006F300A37404F0439A01D2AF020A1F74F71202E3
:100703009BEAFEEBFF890975080090F3FFE06401A3
:100713007004C2AF80FE120995EF90F41EF0EE90C4
:10072300F41FF074DF90F420F074D990F421F07486
:1007330020120967744190F425F0E509701143D63E
:100743000175E103E5E9A2E450FA53E9EF8064742B
:100753000165096004C2AF80FE750904801C12099B
:1007630095120916E9540F04FE90F41CE0FAA3E075
:10077300FB1209DD1EEE70F1150943D60175E10286
:1007830090DF3BE0640D70F87E147F0590DF3CE062
:1007930054507005120A8850F375E10390DF3BE073
:1007A300640D6008E5E9A2E450FA809EE50970AEA5
:1007B30075080112099590F3FFE0640370031209B1
:1007C3001CA908020A1FC082C08390F400EAFCEB54
:1007D300FD741812017A0209B2C0E074F1120333F6
:1007E30090F3FFE064036004C2AF80FEE5E9A2E496
:1007F300502BE5E9A2E6502553E9EF53E9BF539B9C
:10080300FCE59B1209957508167509007808120313
:10081300E21208A612025A12091C0208A153E9EFB8
:10082300539BFCE59B75080275090078081203E2E7
:1008330090F400E0042400FCE434F4FD7A167BF425
:10084300122334740212025AE0FA90F417E0A2E77A
:10085300503B8A0874012508F8E43400F9E894173A
:10086300E99400C365D0335024EAC3940B401E7A45
:10087300017BF4120B1DE9701490F416E0F9120ACF
:10088300A4E9F090F417E0C2E7F01213A775081675
:1008930078081203E21208A612025A43D6017F0215
:1008A3000203927C007D007A007BF41223D374024E
:1008B3002274F812029B90F3FFE064016013A2AF6D
:1008C300E492E0FEC2AF1209C07401F0EEA2E0921E
:1008D300AF020A83C082C083E5C6A2E65004C2AF5A
:1008E30080FE90F3FFE06401701412090474029017
:1008F300F3FFF075E10490DF3BE0640170F8020957
:10090300B274EA90DF1CF0742A90DF1DF0E490DFEC
:100913001EF02243B404A9BC2274F712029B74DFB5
:1009230090F41EF074D990F41FF074F490F420F056
:10093300740090F421F07480120967741190F42507
:10094300F075D68175081675090078081203E2124E
:1009530008A612025A43D6011209B775E102439160
:1009630010020A1F90F422F0741890F423F0741309
:1009730090F424F022C082C08390F3FFE0640170FE
:1009830004C2AF80FEE0640360067403F012091C26
:10099300801DC082C0835391EF75E10490DF3BE07B
:1009A300640170F875D68153D1FE1209B78000D067
:1009B30083D08222539BFCE59B53E9EF22C082C084
:1009C3008390F3FFE064017004C2AF80FEE0640330
:1009D30070061209957402F080D574F712029B8A8F
:1009E300088B0974047808120235AE08AF09EA705F
:1009F30001EB6028A2AFE492E0F508C2AF7A107B66
:100A0300001204E4E508A2E092AFEEF8EFF974FFF8
:100A1300281E74FF39FFE87001E970D87F020202D3
:100A2300FB74F812029BEAFEEB800E7AF47B011250
:100A330009DDEE24FF1EEF34FFFFEE7001EF70EBD4
:100A4300020A83C082C08390F419E06006740190A7
:100A5300F418F00209B274F812029B90F3FFE064F9
:100A6300036004C2AF80FE7E147F0590DF3CE05438
:100A7300507005120A8850F390DF3AE0F9120AA485
:100A83007F010202FB7A407B001209DDEE24C0FEE7
:100A9300EF34FFFFC3EE9401EF9400A2D265D0338D
:100AA30022C008C009E9C39480E94019F879FF7AA4
:100AB300027B001201D48808890974B72508F874E9
:100AC300FF3509800BC313F874B728F874FF34009B
:100AD300F9C3E89480E994FFA2D265D03350027839
:100AE30080E8F9D009D0082274F712029B8908E93B
:100AF300C394044004C2AF80FE120995E50824257F
:100B0300F582E434F5F583E090DF06F090F3FFE03F
:100B13006403700312091C020A1F74F812029B90EB
:100B2300F426E07004790080387E007D007C008C20
:100B330082A882120B72FF120B67E06F70010EE83E
:100B43002421F582E434F5F583E06F70010D0CEC9C
:100B5300C3940440DA74046D60CB74046E60C67988
:100B630001020A83E82429F582E434F5F58322EAB5
:100B730028F582EB3400F583E02274F712029BEA36
:100B8300FEEBFF75081F75090078081203E27C006D
:100B93007D007A2E7BF51223D3740212025A74015C
:100BA30090F52EF0743D90F52FF0742090F530F011
:100BB300740190F531F01219E1EEFAEFFB1212A86D
:100BC300120E581219DD1221E1EEFAEFFB121C7E10
:100BD30012205E121F7B12228F90F542E070347454
:100BE30002F0740390F543F0743F90F54AF090F5EA
:100BF3004BF074FF90F54CF075080478081203E28B
:100C0300121A7AEAFCEBFD7A447BF51222EC7402A9
:100C130012025A79007F020202FB22C082C083744F
:100C2300FF120244851082851183AA82AB83120DC1
:100C330039E96014E075F00BA42442F582E5F03441
:100C4300F5F583E064026006758200758300AA826D
:100C5300AB8380057A327BF522740112025AD0836A
:100C6300D0822274F712029BECFEEDFF8A828B8303
:100C7300A3A3A3A3A3A3A3A3A3E0543FFC90F54280
:100C8300E06402704190F54AE06C703A743F6C6026
:100C93002575080475090078081203E2EA2405FCA7
:100CA300EB3400FD7A447BF5122293740212025A4C
:100CB300EA7001EB701090F54CE08E828F83F01296
:100CC3000A46790180027900020C1874F512029B1E
:100CD300EAFEEBFF7508028C0AEE250A120D29A223
:100CE300E7503C8D08EE2508120D2969702E750812
:100CF3000475090078081203E2121A29EAFCEBFDD5
:100D03008E828F83A3AA82AB831222937402120270
:100D13005AEA7001EB70057508008003750801A994
:100D2300087F040202FBFAEF3400FB740C2AF582FD
:100D3300E43BF583E022C082C08390F542E0640285
:100D4300701190F54CE069700AE48A828B83F07924
:100D53000180027900020C61E9FB7900EA6B601FF4
:100D6300EBC39A500EEAC394FD4006EBC3940340D1
:100D73000E0922EBC394FD4006EAC3940340F2221A
:100D830074F512029BECFEEDFF890A8908750900D0
:100D930078081203E2EAFCEBFDEEFAEFFB122334D0
:100DA300740212025AE50A1204200202DD0DB70D85
:100DB300DD0DCB0D8E828F83E0F8A3E0F98E828F59
:100DC30083E8F0A3E9F080128E828F837808120102
:100DD3004F8E828F83780812015E020D2474F51200
:100DE300029B74FA120244EAFEEBFFECFAEDFBE914
:100DF3001204200202000E060E000E220EEEFCEF7D
:100E0300FD80388E828F83E0FCA3E0FD8510828510
:100E13001183ECF0A3EDF085108285118380188E89
:100E2300828F83780812014F740212028F7808129E
:100E3300015E740212028FAC82AD838908750900CA
:100E430078081203E2122334740212025A7406124F
:100E5300025A020D2474F712029B75089C7509004F
:100E630078081203E27C007D007A277BF41223D3F7
:100E7300740212025A75083478081203E27C007D6A
:100E8300007AC37BF41223D3740212025A7F020244
:100E930002FB74F512029BE9FC780079007E007F67
:100EA300007D0074016C70097A277BF47509068054
:100EB300077AC37BF475090274012509F50A8808CA
:100EC300800EEAFEEBFF0508EA241AFAEB3400FB76
:100ED300E508C39509502B8A828B83E0601D74015A
:100EE3006C70E30DE0640460DDA3E0F50BC3950AC9
:100EF30050D4EAF8EBF9850B0A80CB74026C70C20C
:100F03008033EE7001EF7020E87001E970067A001B
:100F13007B008021E8FEE9FF8E828F83A3E0FAEC59
:100F2300F9120F3DE508800874012D8E828F83A38B
:100F3300F0EEFAEFFB7F040202FBC082C083740170
:100F4300697031782779F4A2AFE492E0FDC2AF7BF8
:100F53000688828983E0600BA3E0FCEAC39C50030C
:100F6300E014F0E8241AF8E93400F91BEB70E2ED21
:100F7300A2E092AFD083D0822274F112029B74F666
:100F8300120244740412028FEAF0A3EBF08C098579
:100F93001082851183E4F0A3F0F50EF50F740612A9
:100FA300028FE4F0A3F0740169703B7E277FF47530
:100FB3000C07740412028FE02401F8A3E03400F953
:100FC300E8FAE9FB740412028F1812119AFC7401F7
:100FD3006C70358A828B83E0F9120C1E8A0E8B0F9C
:100FE300EA7001EB70077A007B0002118E8A828B14
:100FF30083A3A3A3A3A3A3A3A3E0F508EA2402F86E
:10100300EB3400F974088043EC70098A828B83E027
:10101300F508803F74026C70CD8A828B83E0F8A35D
:10102300E0F9E8240EF582E93400F583E0F508E8F9
:101033002405FAE93400FB740812028FEAF0A3EBEB
:10104300F0E8240FF8E93400F9740612028FE8F08F
:10105300A3E9F07401650970057509018003750939
:1010630003750D06A2AFE492E0FAC2AF8E828F83BE
:10107300E06509600302116D7404F0EAA2E092AF27
:10108300EE240BF582EF3400F583E0543F650870DE
:1010930072740412028F121198FA74016A70147434
:1010A3003F65087009E50E2402F8E50F800FEE2472
:1010B30007800874026A7012EE2403F8EF3400F913
:1010C300740212028FE8F0A3E9F0750A04750B00AD
:1010D300780A1203E2740A12028FE0FCA3E0FD74A3
:1010E3000412028F1211A212025A740412028F12F6
:1010F30011986036740612028FE07002A3E0700C40
:10110300EA60278E828F83E509F08063780A1203F1
:10111300E2EE2407FCEF3400FD740812028F121173
:10112300A212025AEA7001EB70D98E828F83A3AAAE
:1011330082AB83E0C3950C50CA851082851183E08E
:101143007002A3E06011851082851183E0F8A3E0AB
:10115300F5838882E509F08A828B83E0F50C85109C
:1011630082851183EEF0A3EF809FEAA2E092AFEEB7
:10117300241AFEEF3400FF150DE50D60030210671E
:10118300851082851183E0FAA3E0FB740A12025AE8
:101193007F080202FBE0F8A3E0F5838882E022E007
:1011A300FAA3E0FB12229374022274016970057A98
:1011B300277BF4227AC37BF42274F812029BEAFEA3
:1011C300EBFF90F4F7E07013120594EEFAEFFB12C5
:1011D3000B7DE9700C1208D71209787401F0121E06
:1011E300757F010202FB7F020202FB74F712029B6E
:1011F300E9FBEAF9ECFEEDFF90F4F7E07013EB1274
:10120300045600020514120A14120F127902021274
:10121300A5EB12042002060F12461262126B123360
:10122300122A1270129512EEFAEFFB121C52807200
:101233007401696003E970D4EEFAEFFB121C1080AD
:101243006180C97403697009EEFAEFFB121A7F809B
:101253005174026970B6EEFAEFFB121B038043EE82
:10126300FAEFFB121B74803A121BFF80357401697D
:10127300709A75080475090078081203E2121A427D
:10128300EAFCEBFDEEFAEFFB1222EC740212025AB7
:10129300800E74016970AA121A47E98E828F83F057
:1012A30079000211E9C082C083E490F4FBF074205A
:1012B30090F4FCF090F4FDEAF0A3EBF0121A2990FD
:1012C300F4F9EAF0A3EBF0120916E990F4F8F060F0
:1012D300F6D083D0822274F112029B89088A0E8B86
:1012E3000F8C0A8D097902120E958A0C8B0DA80CAE
:1012F300A90DE8FEE9FFE87001E970077A007B00B9
:1013030002139A740B250A8E828F83A3A3F0EE2413
:101313000B12170854804508F090F4F8E0C0E0EE93
:10132300240DF582EF3400F583D0E0F090F4F8E07B
:1013330004F060F8EE240CFAEF3400FB8A828B830E
:10134300E054BF7583F47582FBFCE04C54F8450907
:1013530054778A828B83F088828983E0C2E7F075B1
:101363000B00780A1203E2AC0EAD0FEE240E0A0A4C
:1013730012139F12025A75080475090078081203A4
:10138300E290F4F9E0FCA3E0FDEE2407FA12139FC8
:1013930012025AEEFAEFFB7F080202FBEF3400FB66
:1013A3001214FE2274F712029B7901120E958A0819
:1013B3008B09A808A909E8FEE9FFE87001E96013B1
:1013C300EE24020A0AEF3400FB1207C9EEFAEFFB20
:1013D3001215197F020202FB74F112029B74FE12B2
:1013E3000244851082851183ECF0A3EDF08A0A8B09
:1013F3000B741112028FE0F50CA3E0F50D741512B6
:10140300028FE0F50EA3E0F50FE4850C82850D83D2
:10141300F07C017901120F7C8A088B09AE08AF09B1
:10142300EE7001EF70030214E97508007509008579
:101433000A82850B83E064017015A3E0F9120C1E88
:101443008A088B09EA7001EB700579020214EB8EAE
:10145300828F83A3A3E024F5F50A850C82850D838F
:10146300F0750B00780A1203E2EE240EFCEF340051
:10147300FD740212028F1214F312025AE50870026D
:10148300E509600FEE2418121504F0EE2419121565
:1014930004A3F0741312028FE07002A3E0601E75C0
:1014A300080475090078081203E2EE2407FCEF3400
:1014B30000FD741512028F1214F312025AE50E7016
:1014C30002E50F600C1218CB5407850E82850F833B
:1014D300F08E828F83A3E0FA7901120F3DE48E82AE
:1014E3008F83F0F980027904740212025A02139A6C
:1014F300E0FAA3E00213A2AA82AB831222EC7402E5
:1015030022F582EF3400F583E0850882850983A301
:10151300A3A3A3A3A32274F312029B74FE12024497
:101523008A088B09EA240BF582EB1218D1543FF594
:101533000B750C04750D00780C1203E290F4F9E0BE
:10154300FCA3E0FDEA2407FAEB1219D412025AEACB
:101553007001EB700DE4850882850983F074020243
:1015630017FDE508240BF582E5091218D1A2E64020
:10157300E4E50B60E0C39407502F1216BBE50BC3E1
:1015830033244BF582E434F5F5831216B212029933
:10159300E9FA74016A7004740180BB74026A70B55D
:1015A300AA08AB0912171380B4743F650B600EE5EC
:1015B3000BC39420409FE50BC3943F5098E5082448
:1015C30003FEE5093400FF780C1203E2EEFCEFFDA5
:1015D30090F4F9E0FAA3E0FB122293740212025A88
:1015E300EA7001EB7005750A018023750A00743FE8
:1015F300650B706B780C1203E2121A7AEEFCEFFDA6
:10160300122293740212025AEA7001EB7051851090
:1016130082851183AC82AD831216BB120C66E9700E
:1016230003021558E50A7007AA08AB0912171374C9
:1016330001850882850983F090F4FDE07002A3E040
:101643007003021560851082851183E0F990F4FD23
:101653001216B2120299E96003021558021560745A
:101663000112028FAC82AD83EEFAEFFB121E78EA11
:101673007001EB60231216BB1218D7E96003021541
:1016830058E508240BF582E5091218D1A2E75003A7
:101693000215587403021559E508240CF582E5096F
:1016A3001218D15430642060030215A3021558E0C8
:1016B300F8A3E0F583888222E5082402FAE50934D9
:1016C30000FB2274F812029BEAFEEBFFE9FAEE2418
:1016D3000C12170854CF7583F47582FCFBE04B881A
:1016E300828983F0EAF9EE2402FAEF3400FB120652
:1016F300FFE97004790080027909E48E828F83F018
:101703007F010202FBF8EF3400F988828983E0222B
:1017130074F812029BEAFEEBFF1218CBFA74075A15
:10172300FB74FF2BFCEB601774F85A4CF07A017BC7
:1017330000120A247901EEFAEFFB1216C68006E4C2
:101743008E828F83F080B974F312029B74FD1202B0
:10175300448A0C8B0D8908EA2508F8EB3400F974E8
:101763000C28F582E439F583E0F5097402851082CB
:10177300851183F0740112028FEAF0A3EBF07C026F
:10178300851082851183AA82AB837901120F7C8A2B
:101793000A8B0BA80AA90BE8FEE9FFE87001E960D0
:1017A30006EEFAEFFB805179021211AD8A0A8B0B18
:1017B300AE0AAF0B7508008E828F83E06403702D31
:1017C300750A04750B00780A1203E2E50C2405FC84
:1017D300E50D3400FD1219CF12025AEA7001EB70C5
:1017E3000CEE240B1218CE543F650960B41219C1D4
:1017F300940240C37A007B00740312025A7F0602EC
:1018030002FB74F512029B74E8120244EAFEEBFF3A
:10181300EE240E1218CEF508740A12028FE0548FCC
:101823007583F47582FBFAE04A4420C0E0740A121F
:10183300028FD0E0F0750A04750B00780A1203E2F8
:10184300EE2405FCEF3400FD740312028F1214FA28
:1018530012025A780A1203E2EE240FFCEF3400FD61
:10186300740712028F1214FA12025A740912028FA9
:10187300E054C04508FAF0740B851082851183F09B
:1018830090F4F8E0C0E0740B12028FD0E0F090F413
:10189300F8E004F0740A12028FE05471F0D2E0F021
:1018A30074BF5A4480C0E0740912028FD0E0F0790B
:1018B30000851082851183AA82AB831206FF7418F8
:1018C30012025A7F040202FBEE240CF582EF34006D
:1018D300F583E02274F112029B8A0A8B0B8A828BB6
:1018E30083E024F8F50979011211AD8A0C8B0DAE52
:1018F3000CAF0D75080085098285820E8E828F8359
:10190300E0640360030219B2A3A3E0F874F828F8B3
:1019130074FF3400F9E50E687001E960030219B23F
:10192300750C04750D00780C1203E2850A82850B91
:1019330083A3AC82AD831219CF12025AEA7001EB72
:10194300706D780C1203E2E50A2405FCE50B340004
:10195300FDEE24071219D212025AEA7001EB704FFE
:10196300750C01780C1203E2E50A2409FCE50B343B
:1019730000FDEE240B1219D212025AEA7001EB7029
:101983002E74FE250EF50C74FF3400F50D780C1241
:1019930003E2E50A240BFCE50B3400FDEE240D12F3
:1019A30019D212025AEA7001EB70047901800C1209
:1019B30019C1940650030218FF790002139A05080F
:1019C300EE241AFEEF3400FFE508C322EE2403FAE7
:1019D300EF3400FB1222937402222279002274F75F
:1019E30012029B75080475090078081203E27C0053
:1019F3007D007AFF7BF41223D3740212025A90F50E
:101A030007E0701B78081203E27C597DF57A037BAB
:101A1300F51222EC740212025A740190F507F08059
:101A2300007F020202FBC082C08390F507E06006DC
:101A33007A037BF580047A597BF5D083D082227AAE
:101A43005E7BF52279022274F712029B790090F5EE
:101A530007E07021750804890978081203E2EAFC9B
:101A6300EBFD7A037BF51222EC740212025A740125
:101A730090F507F0F980AA7A217BF52274F512021A
:101A83009BEAFEEBFF8E828F83A3A3A3A3A3E0F9BC
:101A9300120456010506A11A0103A11AA51A7D0114
:101AA30080027D038E828F83A3A3A3A3E0FC8E8297
:101AB3008F83A3A3E0FAA3E0FB1212D98A088B0950
:101AC300A909EA7001E96031750A04750B00780A07
:101AD3001203E28E828F83E0FCA3E0FDEA24030A73
:101AE3000A0AE93400FB1222EC740212025A790149
:101AF300AA08AB091216C6800279037F040202FB0F
:101B030074F712029B74FD120244E485108285115E
:101B130083F08A828B83A3A3A3A3A3E0C0E0740111
:101B230012028FD0E0F0EA2406F508EB3400F50941
:101B330078081203E28A828B831203F3EA2404F502
:101B430008EB3400F50978081203E28A828B83A339
:101B5300A3E0FCA3E0FD740612028FAA82AB8312FA
:101B630013DB740612025A740312025A7F02020232
:101B7300FB74F512029BEAFEEBFF7508007404691F
:101B830070081209C01208B4806D740569700812D8
:101B930008D7120978806074066970398E828F8342
:101BA300E0F9120C1EEA7001EB70047902804A75A9
:101BB3000A02750B00780A1203E2EA2406FCEB34EE
:101BC30000FD8E828F83A3AA82AB831222EC740260
:101BD30012025A8022740769700B120A59E98E8225
:101BE3008F83F0801274086960A874096970051204
:101BF30009C08003750802A908021AFE740B6970F4
:101C030004790180027902121EEC79002274F71222
:101C1300029BEAFEEBFF75080274016970207508E8
:101C23000475090078081203E2121A29EAFCEBFD95
:101C3300EEFAEFFB1222EC740212025A8009E970E9
:101C430009121A4AE96003750800A908021B6F7498
:101C5300F712029BE9FC8A828B83E0F9740E6C60B5
:101C6300047902801374FF6960F7120C1EEA700195
:101C7300EB60EE120C1D7900021B6F74F512029BD0
:101C830090F562780812014F7583F575820878081C
:101C930012013A701090F566780812014F90F5081A
:101CA300780812015E90F50CEAF0A3EBF012091626
:101CB300E990F50EF090F56A780812014FAA08AB87
:101CC30009AC0AAD0B121FB1E490F511F0120C57D9
:101CD30090F50FEAF0A3EBF07F040202FB74F3121A
:101CE300029B74F4120244EAFEEBFF8E828F83E0C0
:101CF300F874F528F874FF3400F9C3E89408E994FC
:101D030000A2D265D0334018EE2413F582EF3400DD
:101D1300F583E0F508121A47E965086003021E6BB4
:101D23007904740112028FAC82AD83EE240EFAEFB4
:101D33003400FB120D83C082C08390F5087808122B
:101D4300014FD083D082780812013A6003021E6BE0
:101D5300740112028FAA82AB83121FD27904740713
:101D630012028FAC82AD83740112028FAA82AB83FD
:101D7300120DE0740B12028FE4F0740512028F74DB
:101D830081F0EE240DF582EF3400F583E0C0E074BA
:101D93000612028FD0E0F07D017C07740512028FDA
:101DA300AA82AB8379031212D98A088B09A808A9DE
:101DB30009880A890BE87001E97003021E6BEE249F
:101DC30005F508EF3400F509750C04750D00780C62
:101DD3001203E2AC08AD09EA24030A0A0AE9340053
:101DE300FB1222EC740212025A8E828F83A3A3A3E6
:101DF300A3A3A3A3A3A3A3E0A2E6506385108285B4
:101E03001183AC82AD83AA08AB09121E78EA700174
:101E1300EB704790F50FE0FEA3E0FF8E828F83E027
:101E2300FAC394035042780C1203E2AC08AD09EAFA
:101E330075F005A4F8A9F090F50FE028FAA3E039AE
:101E43008A82F583A3AA82AB831222EC7402120264
:101E53005A8E828F83E004F08005E0F91221D37952
:101E630000AA0AAB0B1216C6740C12025A7F0602A2
:101E730002FB79002274F112029B8A0E8B0F8C08ED
:101E83008D0990F50FE02401FEA3E03400FF750AED
:101E930000800A050AEE2405FEEF3400FF90F50FDB
:101EA300E0F8A3E0F5838882E0FAE50AC39A5030AC
:101EB300750C04750D00780C1203E2AC0EAD0FEE39
:101EC300FAEFFB122293740212025AEA7001EB70CA
:101ED300C2850882850983E50AF0EEFAEFFB8004E8
:101EE3007A007B007F080202FBC082C08374016911
:101EF300700474018001E490F511F0D083D0822244
:101F030074F812029BEAFEEBFF7508007D017C006A
:101F130090F50EE0F9120CCEE9FB7008120A467533
:101F23000801804D74016B700575080280437402CB
:101F33006B703E90F511E06038EE240CF8EF34003E
:101F4300F98E828F83E0FA74F52AFA74FF3400FB6A
:101F530074076A7001EB7009740188828983F080C9
:101F63000988828983E064017007EEFAEFFB121C93
:101F7300E0A9087F010202FB74F512029B90F5624F
:101F8300780812014F7583F5758212780812013AA9
:101F9300701090F56E780812014F90F512780812C0
:101FA300015E120916E990F517F060F6803D74F5AD
:101FB30012029B8A088B098C0A8D0B90F5627808B4
:101FC30012013A600890F512780812015E801C74C1
:101FD300F512029BEA7001EB601190F5127808127A
:101FE300014F8A828B83780812015E7F040202FB11
:101FF30074F812029BEAFEEBFF7D017C0090F5175B
:10200300E0F9120CCEE9FB7007120A46790180460B
:1020130074016B70047902803D7C00EE240CF8EFB0
:102023003400F98E828F83E0FA74F52AFA74FF3450
:1020330000FB74086A7001EB70097401888289835C
:10204300F0800988828983E06401700890F516E0C6
:1020530070020C0CECF97F010202FB74F712029B75
:10206300120916E990F51BF0750803750900780845
:102073001203E27C007D007A187BF51223D37402ED
:1020830012025A7F020202FB74F712029BEAFEEB72
:10209300FF7D017C0090F51BE0F9120CCEE9FB708B
:1020A30007120A467901804874016B700479028033
:1020B3003F75080475090078081203E2121A29EA29
:1020C300FCEBFD8E828F83A3AA82AB8312229374CF
:1020D3000212025AEA7001EB70D3EE240CF582EF80
:1020E3001221C264017007EEFAEFFB1220F57900AA
:1020F300809174F612029B74FF120244EAFEEBFF16
:10210300EE240DF582EF1221C2F50A8510828511A6
:1021130083AC82AD83EE2405FAEF3400FB121E7804
:10212300EAF8EBF9EA7001EB70030221B4E8240446
:10213300F508E93400F5091221C8E0701685088214
:10214300850983E50AF08510828511831221C874FD
:10215300018012AA0A850882850983E0F9120D5BC2
:10216300E9604EE50AF07902EEFAEFFB12174A8AAC
:10217300088B09A808A909E87001E9602D888289FC
:1021830083A3E0FA7901120F3DE508240C1221BE66
:1021930054F84401F0E508240B1221BED2E7F0798C
:1021A30000AA08AB091216C68007EEFAEFFB121855
:1021B30005740112025A7F030202FBF582E509341A
:1021C30000F583E022E02418F582E434F5F5832258
:1021D30074F712029BE91221C9E4F0022086C0823F
:1021E300C083120916E990F51CF0D083D082227FB8
:1021F300040202FB74F512029BEAFEEBFF7D017CF5
:102203000090F51CE0F9120CCEE9FA7007120A46A9
:102213007901807574016A70047902806CEE240C74
:10222300FAEF3400FB8A828B83E0640170597D03EB
:102233008E828F83E024F5FC79011212D98A088BF0
:1022430009A909EA7001E9603E750A04750B007873
:102253000A1203E2EE2405FCEF3400FDEA24030A2C
:102263000A0AE93400FB1222EC740212025AE5084E
:10227300240EF582E5093400F583E0D2E7F0790016
:10228300AA08AB091216C679000221F222790022AC
:1022930074F812029B740812028FE0F8A3E0801511
:1022A300A3AA82AB838C828D83A3AC82AD83E82403
:1022B300FF18E934FFF9E87001E960248A828B830F
:1022C300E0FE8C828D83E06E8A828B8360D2E0F89D
:1022D3008C828D83E0FAE8C39AFAE49400FB8004CD
:1022E3007A007B007F010202FB74F712029B7409E0
:1022F30012028FE0FEA3E0FFEAF8EBF980188C826C
:102303008D83E088828983F0A3A882A9838C828D40
:1023130083A3AC82AD838E088F0974FF25081E74D6
:10232300FF3509FFE5087002E50970D27F0202025A
:10233300FB74F712029B740912028FE0F8A3E0F911
:10234300EAFEEBFF8A088B09C3EA9CEB9D405EEC37
:1023530028F582ED39F583C3E5829508E583950970
:10236300404BEA28FAEB39FBAC82AD831223C270EF
:1023730002E5096041EC24FF1CED34FFFDEA24FF74
:102383001AEB34FFFB8C828D83E08A828B83F0808F
:10239300DB8C828D83E08A828B83F08C828D83A396
:1023A300AC82AD838A828B83A3AA82AB831223C2BE
:1023B3007002E50970DBEEFAEFFB7F020202FB8895
:1023C30008890974FF25081874FF3509F9E50822FF
:1023D30074F812029B740812028FE0F8A3E0F98AE2
:1023E300828B838003ECF0A3E8FEE9FF74FF2E18D1
:0F23F30074FF3FF9EE7001EF70EB7F010202FB08
:0000D3012C
:00000001FF
